{
  "_format": "hh-sol-artifact-1",
  "contractName": "BalancerContractRegistry",
  "sourceName": "contracts/BalancerContractRegistry.sol",
  "abi": [
    {
      "inputs": [
        {
          "internalType": "contract IVault",
          "name": "vault",
          "type": "address"
        }
      ],
      "stateMutability": "nonpayable",
      "type": "constructor"
    },
    {
      "inputs": [
        {
          "internalType": "enum ContractType",
          "name": "contractType",
          "type": "uint8"
        },
        {
          "internalType": "address",
          "name": "contractAddress",
          "type": "address"
        }
      ],
      "name": "ContractAddressAlreadyRegistered",
      "type": "error"
    },
    {
      "inputs": [
        {
          "internalType": "address",
          "name": "contractAddress",
          "type": "address"
        }
      ],
      "name": "ContractAddressNotRegistered",
      "type": "error"
    },
    {
      "inputs": [
        {
          "internalType": "enum ContractType",
          "name": "contractType",
          "type": "uint8"
        },
        {
          "internalType": "string",
          "name": "contractName",
          "type": "string"
        }
      ],
      "name": "ContractAliasInUseAsName",
      "type": "error"
    },
    {
      "inputs": [
        {
          "internalType": "address",
          "name": "contractAddress",
          "type": "address"
        }
      ],
      "name": "ContractAlreadyDeprecated",
      "type": "error"
    },
    {
      "inputs": [
        {
          "internalType": "enum ContractType",
          "name": "contractType",
          "type": "uint8"
        },
        {
          "internalType": "string",
          "name": "contractName",
          "type": "string"
        }
      ],
      "name": "ContractNameAlreadyRegistered",
      "type": "error"
    },
    {
      "inputs": [
        {
          "internalType": "string",
          "name": "contractName",
          "type": "string"
        },
        {
          "internalType": "address",
          "name": "contractAddress",
          "type": "address"
        }
      ],
      "name": "ContractNameInUseAsAlias",
      "type": "error"
    },
    {
      "inputs": [
        {
          "internalType": "string",
          "name": "contractName",
          "type": "string"
        }
      ],
      "name": "ContractNameNotRegistered",
      "type": "error"
    },
    {
      "inputs": [
        {
          "internalType": "string",
          "name": "contractName",
          "type": "string"
        },
        {
          "internalType": "address",
          "name": "contractAddress",
          "type": "address"
        }
      ],
      "name": "InconsistentState",
      "type": "error"
    },
    {
      "inputs": [],
      "name": "InvalidContractAlias",
      "type": "error"
    },
    {
      "inputs": [],
      "name": "InvalidContractName",
      "type": "error"
    },
    {
      "inputs": [],
      "name": "SenderNotAllowed",
      "type": "error"
    },
    {
      "inputs": [],
      "name": "VaultNotSet",
      "type": "error"
    },
    {
      "inputs": [],
      "name": "ZeroContractAddress",
      "type": "error"
    },
    {
      "anonymous": false,
      "inputs": [
        {
          "indexed": true,
          "internalType": "address",
          "name": "contractAddress",
          "type": "address"
        }
      ],
      "name": "BalancerContractDeprecated",
      "type": "event"
    },
    {
      "anonymous": false,
      "inputs": [
        {
          "indexed": true,
          "internalType": "enum ContractType",
          "name": "contractType",
          "type": "uint8"
        },
        {
          "indexed": true,
          "internalType": "string",
          "name": "contractName",
          "type": "string"
        },
        {
          "indexed": true,
          "internalType": "address",
          "name": "contractAddress",
          "type": "address"
        }
      ],
      "name": "BalancerContractDeregistered",
      "type": "event"
    },
    {
      "anonymous": false,
      "inputs": [
        {
          "indexed": true,
          "internalType": "enum ContractType",
          "name": "contractType",
          "type": "uint8"
        },
        {
          "indexed": true,
          "internalType": "string",
          "name": "contractName",
          "type": "string"
        },
        {
          "indexed": true,
          "internalType": "address",
          "name": "contractAddress",
          "type": "address"
        }
      ],
      "name": "BalancerContractRegistered",
      "type": "event"
    },
    {
      "anonymous": false,
      "inputs": [
        {
          "indexed": true,
          "internalType": "string",
          "name": "contractAlias",
          "type": "string"
        },
        {
          "indexed": true,
          "internalType": "address",
          "name": "contractAddress",
          "type": "address"
        }
      ],
      "name": "ContractAliasUpdated",
      "type": "event"
    },
    {
      "inputs": [
        {
          "internalType": "string",
          "name": "contractAlias",
          "type": "string"
        },
        {
          "internalType": "address",
          "name": "contractAddress",
          "type": "address"
        }
      ],
      "name": "addOrUpdateBalancerContractAlias",
      "outputs": [],
      "stateMutability": "nonpayable",
      "type": "function"
    },
    {
      "inputs": [
        {
          "internalType": "address",
          "name": "contractAddress",
          "type": "address"
        }
      ],
      "name": "deprecateBalancerContract",
      "outputs": [],
      "stateMutability": "nonpayable",
      "type": "function"
    },
    {
      "inputs": [
        {
          "internalType": "string",
          "name": "contractName",
          "type": "string"
        }
      ],
      "name": "deregisterBalancerContract",
      "outputs": [],
      "stateMutability": "nonpayable",
      "type": "function"
    },
    {
      "inputs": [
        {
          "internalType": "bytes4",
          "name": "selector",
          "type": "bytes4"
        }
      ],
      "name": "getActionId",
      "outputs": [
        {
          "internalType": "bytes32",
          "name": "",
          "type": "bytes32"
        }
      ],
      "stateMutability": "view",
      "type": "function"
    },
    {
      "inputs": [],
      "name": "getAuthorizer",
      "outputs": [
        {
          "internalType": "contract IAuthorizer",
          "name": "",
          "type": "address"
        }
      ],
      "stateMutability": "view",
      "type": "function"
    },
    {
      "inputs": [
        {
          "internalType": "enum ContractType",
          "name": "contractType",
          "type": "uint8"
        },
        {
          "internalType": "string",
          "name": "contractName",
          "type": "string"
        }
      ],
      "name": "getBalancerContract",
      "outputs": [
        {
          "internalType": "address",
          "name": "contractAddress",
          "type": "address"
        },
        {
          "internalType": "bool",
          "name": "isActive",
          "type": "bool"
        }
      ],
      "stateMutability": "view",
      "type": "function"
    },
    {
      "inputs": [
        {
          "internalType": "address",
          "name": "contractAddress",
          "type": "address"
        }
      ],
      "name": "getBalancerContractInfo",
      "outputs": [
        {
          "components": [
            {
              "internalType": "enum ContractType",
              "name": "contractType",
              "type": "uint8"
            },
            {
              "internalType": "bool",
              "name": "isRegistered",
              "type": "bool"
            },
            {
              "internalType": "bool",
              "name": "isActive",
              "type": "bool"
            }
          ],
          "internalType": "struct IBalancerContractRegistry.ContractInfo",
          "name": "info",
          "type": "tuple"
        }
      ],
      "stateMutability": "view",
      "type": "function"
    },
    {
      "inputs": [],
      "name": "getVault",
      "outputs": [
        {
          "internalType": "contract IVault",
          "name": "",
          "type": "address"
        }
      ],
      "stateMutability": "view",
      "type": "function"
    },
    {
      "inputs": [
        {
          "internalType": "enum ContractType",
          "name": "contractType",
          "type": "uint8"
        },
        {
          "internalType": "address",
          "name": "contractAddress",
          "type": "address"
        }
      ],
      "name": "isActiveBalancerContract",
      "outputs": [
        {
          "internalType": "bool",
          "name": "",
          "type": "bool"
        }
      ],
      "stateMutability": "view",
      "type": "function"
    },
    {
      "inputs": [
        {
          "internalType": "address",
          "name": "router",
          "type": "address"
        }
      ],
      "name": "isTrustedRouter",
      "outputs": [
        {
          "internalType": "bool",
          "name": "",
          "type": "bool"
        }
      ],
      "stateMutability": "view",
      "type": "function"
    },
    {
      "inputs": [
        {
          "internalType": "enum ContractType",
          "name": "contractType",
          "type": "uint8"
        },
        {
          "internalType": "string",
          "name": "contractName",
          "type": "string"
        },
        {
          "internalType": "address",
          "name": "contractAddress",
          "type": "address"
        }
      ],
      "name": "registerBalancerContract",
      "outputs": [],
      "stateMutability": "nonpayable",
      "type": "function"
    }
  ],
  "bytecode": "0x60c03461009a57601f6112ec38819003918201601f19168301916001600160401b0383118484101761009e5780849260209460405283398101031261009a57516001600160a01b03811680820361009a57306080521561008b5760a05260405161123990816100b3823960805181610fb7015260a0518181816106c60152818161076701526110c30152f35b630647140b60e51b5f5260045ffd5b5f80fd5b634e487b7160e01b5f52604160045260245ffdfe6080604081815260049182361015610015575f80fd5b5f3560e01c908163264e97e014610cfb575080632967af9614610b0457806341d8c0bb146109f157806344969a9c14610886578063851c1bb3146108365780638554c3271461078b5780638d928af81461073b578063aaabadc514610672578063ae2733a41461059f578063c7f90793146103dd5763e0376ab414610098575f80fd5b346103d95760606003193601126103d957813560058110156103d95760243567ffffffffffffffff81116103d9576100d39036908501610e66565b6044359273ffffffffffffffffffffffffffffffffffffffff948585168095036103d9576100ff611051565b84156103b35782511561038d57845f52602060018152825f209683519761012589610ddc565b549760ff986101368a821683610f14565b89808260081c16151591828685015260101c16151586830152610354575061015d856111db565b90815f525f835280855f205416806102c65750815f5260028352845f2054168061028d57505f525f8152825f20867fffffffffffffffffffffffff00000000000000000000000000000000000000008254161790558251926101be84610ddc565b6101c88685610f14565b8184019060018252600181860193818552895f52525f20935192600584101561026157507fffffffffffffffffffffffffffffffffffffffffffffffffffffffffff00000061023a96979862ff000061ff0087549451151560081b169451151560101b16941691161717179055610f70565b907fb12ed936cf481273b3ed037dc706d110c49bd7ba6743e67082cd772a6e9102e25f80a4005b6021907f4e487b71000000000000000000000000000000000000000000000000000000005f525260245ffd5b836102c2879287519384937f6d4f9990000000000000000000000000000000000000000000000000000000008552840161101d565b0390fd5b846102c288610311878e8b965f5260018252865f20918751926102e884610ddc565b54906102f683831685610f14565b828260081c1615159084015260101c16151586820152610f20565b9361034581519586957fa1e69ed3000000000000000000000000000000000000000000000000000000008752860190610eda565b60248401526044830190610f2d565b518790846005821015610261577f25a14e0c000000000000000000000000000000000000000000000000000000005f525260245260445ffd5b7f830c907e000000000000000000000000000000000000000000000000000000005f525ffd5b7fb4d92c53000000000000000000000000000000000000000000000000000000005f525ffd5b5f80fd5b5090346103d957602091826003193601126103d957813567ffffffffffffffff81116103d9576104109036908401610e66565b90610419611051565b81511561057857610429826111db565b90815f525f855273ffffffffffffffffffffffffffffffffffffffff815f20541694851561053e57855f5260018152815f209282519361046885610ddc565b5461047660ff821686610f14565b60ff808260081c16159182158588015260101c1615158486015261050b575f929160019184528381528284207fffffffffffffffffffffffff00000000000000000000000000000000000000008154169055878452528120555191600583101561026157506104e490610f70565b907ffa2e7bfe3791287aa74ffe867372b78e61b60e0516978c4952f83f7416fafb7c5f80a4005b82517f36a7ac0a000000000000000000000000000000000000000000000000000000008152806102c28988838b0161101d565b846102c28584519384937fcd3599f90000000000000000000000000000000000000000000000000000000085528401526024830190610f2d565b827f830c907e000000000000000000000000000000000000000000000000000000005f525ffd5b50346103d957806003193601126103d95781359060058210156103d95773ffffffffffffffffffffffffffffffffffffffff6105d9610db9565b165f526001602052805f209160ff8251936105f385610ddc565b5461060082821686610f14565b818160081c161515602086015260101c1615159283838201528361062b575b60208484519015158152f35b90919250516005811015610646576020935014905f8061061f565b6021847f4e487b71000000000000000000000000000000000000000000000000000000005f525260245ffd5b5090346103d9575f6003193601126103d95773ffffffffffffffffffffffffffffffffffffffff6020835180937faaabadc500000000000000000000000000000000000000000000000000000000825281847f0000000000000000000000000000000000000000000000000000000000000000165afa91821561073157926020935f93610702575b505191168152f35b610723919350843d861161072a575b61071b8183610e25565b810190610ff1565b915f6106fa565b503d610711565b83513d5f823e3d90fd5b50346103d9575f6003193601126103d9576020905173ffffffffffffffffffffffffffffffffffffffff7f0000000000000000000000000000000000000000000000000000000000000000168152f35b50346103d95760206003193601126103d95760609073ffffffffffffffffffffffffffffffffffffffff6107bd610d96565b5f8380516107ca81610ddc565b8281528260208201520152165f526001602052805f20908051916107ed83610ddc565b546107fb60ff821684610f14565b6020830160ff8260081c161515815260ff8385019260101c16151582526108258351809551610eda565b511515602084015251151590820152f35b5090346103d95760206003193601126103d95735907fffffffff00000000000000000000000000000000000000000000000000000000821682036103d95761087f602092610f8c565b9051908152f35b50346103d95760206003193601126103d95773ffffffffffffffffffffffffffffffffffffffff6108b5610d96565b6108bd611051565b169182156103b357825f526001602052815f20918051926108dd84610ddc565b54906108ec60ff831685610f14565b602084019060ff8360081c16158015835260ff8287019460101c16151584526109c65782511561099b575f8352855f5260016020525f20935192600584101561026157507fffffffffffffffffffffffffffffffffffffffffffffffffffffffffff00000060ff62ff000061ff0087549451151560081b169451151560101b169416911617171790557f07b81cace396ea12f83465895486ac006cd17917e41b9759ad5e663404f1497b5f80a2005b85847f1f118c35000000000000000000000000000000000000000000000000000000005f525260245ffd5b85847ff5b5d364000000000000000000000000000000000000000000000000000000005f525260245ffd5b5090346103d957816003193601126103d957803560058110156103d95760243567ffffffffffffffff81116103d957610a2d9036908401610e66565b905f92610a3a5f936111db565b5f525f60205273ffffffffffffffffffffffffffffffffffffffff9182865f205416908115610af1575b8382165f526001602052865f2090875191610a7e83610ddc565b5493610a8d60ff861684610f14565b60ff8560081c1615159283602082015260ff8a82019660101c161515865283610ada575b505050610aca575b505083519216825215156020820152f35b9051909350151591505f80610ab9565b5191925060058210156102615750145f8080610ab1565b9050600260205282865f20541690610a64565b5090346103d957816003193601126103d957803567ffffffffffffffff81116103d957610b349036908301610e66565b610b3c610db9565b91610b45611051565b815115610cd55773ffffffffffffffffffffffffffffffffffffffff809316928315610cae57835f5260209160018352855f20865190610b8482610ddc565b5460ff91610b9483831682610f14565b8883808460081c16159384158985015260101c161515910152610c8357610bba856111db565b92835f525f8552875f20541680610c2d5786610c07878a600289895f52525f20837fffffffffffffffffffffffff0000000000000000000000000000000000000000825416179055610f70565b7f06618a6a1a6a413a59097e7c362ee8260afae8f07bd94bc0938e5730584654835f80a3005b85610c4f868a95946102c2945f5260018252865f20918751926102e884610ddc565b9361034581519586957f4466cf0c000000000000000000000000000000000000000000000000000000008752860190610eda565b85827ff5b5d364000000000000000000000000000000000000000000000000000000005f525260245ffd5b507fb4d92c53000000000000000000000000000000000000000000000000000000005f525ffd5b7f907f9fd9000000000000000000000000000000000000000000000000000000005f525ffd5b919050346103d95760206003193601126103d95773ffffffffffffffffffffffffffffffffffffffff610d2c610d96565b165f52600160205260ff815f20610d4284610ddc565b54610d4f82821685610f14565b818160081c161515602085015260101c16151591828282015282610d7a575b60208383519015158152f35b909150519160058310156102615750600260209214905f610d6e565b6004359073ffffffffffffffffffffffffffffffffffffffff821682036103d957565b6024359073ffffffffffffffffffffffffffffffffffffffff821682036103d957565b6060810190811067ffffffffffffffff821117610df857604052565b7f4e487b71000000000000000000000000000000000000000000000000000000005f52604160045260245ffd5b90601f7fffffffffffffffffffffffffffffffffffffffffffffffffffffffffffffffe0910116810190811067ffffffffffffffff821117610df857604052565b81601f820112156103d95780359067ffffffffffffffff8211610df85760405192610eb960207fffffffffffffffffffffffffffffffffffffffffffffffffffffffffffffffe0601f8601160185610e25565b828452602083830101116103d957815f926020809301838601378301015290565b906005821015610ee75752565b7f4e487b71000000000000000000000000000000000000000000000000000000005f52602160045260245ffd5b6005821015610ee75752565b516005811015610ee75790565b907fffffffffffffffffffffffffffffffffffffffffffffffffffffffffffffffe0601f602080948051918291828752018686015e5f8582860101520116010190565b602090604051918183925191829101835e81015f815203902090565b6040517fffffffff0000000000000000000000000000000000000000000000000000000060208201927f0000000000000000000000000000000000000000000000000000000000000000845216604082015260248152610feb81610ddc565b51902090565b908160209103126103d9575173ffffffffffffffffffffffffffffffffffffffff811681036103d95790565b9073ffffffffffffffffffffffffffffffffffffffff61104a602092959495604085526040850190610f2d565b9416910152565b61107d7fffffffff000000000000000000000000000000000000000000000000000000005f3516610f8c565b73ffffffffffffffffffffffffffffffffffffffff6040517faaabadc50000000000000000000000000000000000000000000000000000000081526020928382600481867f0000000000000000000000000000000000000000000000000000000000000000165afa9081156111ae5784925f926111b9575b5060649060405194859384927f9be2a8840000000000000000000000000000000000000000000000000000000084526004840152336024840152306044840152165afa9182156111ae575f92611177575b50501561114f57565b7f23dada53000000000000000000000000000000000000000000000000000000005f5260045ffd5b90809250813d83116111a7575b61118e8183610e25565b810103126103d9575180151581036103d9575f80611146565b503d611184565b6040513d5f823e3d90fd5b60649192506111d490843d861161072a5761071b8183610e25565b91906110f5565b604051610feb6020828180820195805191829101875e81015f83820152038084520182610e2556fea264697066735822122017cd3619226f7636e05bb7a2147af525577961865ac8751b204bce50d112b31e64736f6c634300081b0033",
  "linkReferences": {},
  "deployedLinkReferences": {}
}