{
  "_format": "hh-sol-artifact-1",
  "contractName": "ProtocolFeeSweeper",
  "sourceName": "contracts/ProtocolFeeSweeper.sol",
  "abi": [
    {
      "inputs": [
        {
          "internalType": "contract IVault",
          "name": "vault",
          "type": "address"
        },
        {
          "internalType": "address",
          "name": "feeRecipient",
          "type": "address"
        }
      ],
      "stateMutability": "nonpayable",
      "type": "constructor"
    },
    {
      "inputs": [],
      "name": "BurnerDidNotConsumeAllowance",
      "type": "error"
    },
    {
      "inputs": [],
      "name": "CannotReceiveEth",
      "type": "error"
    },
    {
      "inputs": [],
      "name": "InvalidFeeRecipient",
      "type": "error"
    },
    {
      "inputs": [],
      "name": "InvalidProtocolFeeBurner",
      "type": "error"
    },
    {
      "inputs": [],
      "name": "InvalidTargetToken",
      "type": "error"
    },
    {
      "inputs": [
        {
          "internalType": "address",
          "name": "protocolFeeBurner",
          "type": "address"
        }
      ],
      "name": "ProtocolFeeBurnerAlreadyAdded",
      "type": "error"
    },
    {
      "inputs": [
        {
          "internalType": "address",
          "name": "protocolFeeBurner",
          "type": "address"
        }
      ],
      "name": "ProtocolFeeBurnerNotAdded",
      "type": "error"
    },
    {
      "inputs": [],
      "name": "ReentrancyGuardReentrantCall",
      "type": "error"
    },
    {
      "inputs": [
        {
          "internalType": "address",
          "name": "token",
          "type": "address"
        }
      ],
      "name": "SafeERC20FailedOperation",
      "type": "error"
    },
    {
      "inputs": [],
      "name": "SenderNotAllowed",
      "type": "error"
    },
    {
      "inputs": [
        {
          "internalType": "address",
          "name": "protocolFeeBurner",
          "type": "address"
        }
      ],
      "name": "UnsupportedProtocolFeeBurner",
      "type": "error"
    },
    {
      "inputs": [],
      "name": "UnwrapIsNotAllowed",
      "type": "error"
    },
    {
      "inputs": [],
      "name": "VaultNotSet",
      "type": "error"
    },
    {
      "anonymous": false,
      "inputs": [
        {
          "indexed": true,
          "internalType": "address",
          "name": "feeRecipient",
          "type": "address"
        }
      ],
      "name": "FeeRecipientSet",
      "type": "event"
    },
    {
      "anonymous": false,
      "inputs": [
        {
          "indexed": true,
          "internalType": "address",
          "name": "protocolFeeBurner",
          "type": "address"
        }
      ],
      "name": "ProtocolFeeBurnerAdded",
      "type": "event"
    },
    {
      "anonymous": false,
      "inputs": [
        {
          "indexed": true,
          "internalType": "address",
          "name": "protocolFeeBurner",
          "type": "address"
        }
      ],
      "name": "ProtocolFeeBurnerRemoved",
      "type": "event"
    },
    {
      "anonymous": false,
      "inputs": [
        {
          "indexed": true,
          "internalType": "address",
          "name": "pool",
          "type": "address"
        },
        {
          "indexed": true,
          "internalType": "contract IERC20",
          "name": "feeToken",
          "type": "address"
        },
        {
          "indexed": false,
          "internalType": "uint256",
          "name": "feeTokenAmount",
          "type": "uint256"
        },
        {
          "indexed": false,
          "internalType": "address",
          "name": "recipient",
          "type": "address"
        }
      ],
      "name": "ProtocolFeeSwept",
      "type": "event"
    },
    {
      "anonymous": false,
      "inputs": [
        {
          "indexed": true,
          "internalType": "contract IERC20",
          "name": "token",
          "type": "address"
        }
      ],
      "name": "TargetTokenSet",
      "type": "event"
    },
    {
      "stateMutability": "payable",
      "type": "fallback"
    },
    {
      "inputs": [
        {
          "internalType": "contract IProtocolFeeBurner",
          "name": "protocolFeeBurner",
          "type": "address"
        }
      ],
      "name": "addProtocolFeeBurner",
      "outputs": [],
      "stateMutability": "nonpayable",
      "type": "function"
    },
    {
      "inputs": [
        {
          "internalType": "bytes4",
          "name": "selector",
          "type": "bytes4"
        }
      ],
      "name": "getActionId",
      "outputs": [
        {
          "internalType": "bytes32",
          "name": "",
          "type": "bytes32"
        }
      ],
      "stateMutability": "view",
      "type": "function"
    },
    {
      "inputs": [],
      "name": "getAuthorizer",
      "outputs": [
        {
          "internalType": "contract IAuthorizer",
          "name": "",
          "type": "address"
        }
      ],
      "stateMutability": "view",
      "type": "function"
    },
    {
      "inputs": [],
      "name": "getFeeRecipient",
      "outputs": [
        {
          "internalType": "address",
          "name": "",
          "type": "address"
        }
      ],
      "stateMutability": "view",
      "type": "function"
    },
    {
      "inputs": [],
      "name": "getProtocolFeeController",
      "outputs": [
        {
          "internalType": "contract IProtocolFeeController",
          "name": "",
          "type": "address"
        }
      ],
      "stateMutability": "view",
      "type": "function"
    },
    {
      "inputs": [],
      "name": "getTargetToken",
      "outputs": [
        {
          "internalType": "contract IERC20",
          "name": "",
          "type": "address"
        }
      ],
      "stateMutability": "view",
      "type": "function"
    },
    {
      "inputs": [],
      "name": "getVault",
      "outputs": [
        {
          "internalType": "contract IVault",
          "name": "",
          "type": "address"
        }
      ],
      "stateMutability": "view",
      "type": "function"
    },
    {
      "inputs": [
        {
          "internalType": "address",
          "name": "protocolFeeBurner",
          "type": "address"
        }
      ],
      "name": "isApprovedProtocolFeeBurner",
      "outputs": [
        {
          "internalType": "bool",
          "name": "",
          "type": "bool"
        }
      ],
      "stateMutability": "view",
      "type": "function"
    },
    {
      "inputs": [
        {
          "internalType": "contract IERC20[]",
          "name": "feeTokens",
          "type": "address[]"
        }
      ],
      "name": "recoverProtocolFees",
      "outputs": [],
      "stateMutability": "nonpayable",
      "type": "function"
    },
    {
      "inputs": [
        {
          "internalType": "contract IProtocolFeeBurner",
          "name": "protocolFeeBurner",
          "type": "address"
        }
      ],
      "name": "removeProtocolFeeBurner",
      "outputs": [],
      "stateMutability": "nonpayable",
      "type": "function"
    },
    {
      "inputs": [
        {
          "internalType": "address",
          "name": "feeRecipient",
          "type": "address"
        }
      ],
      "name": "setFeeRecipient",
      "outputs": [],
      "stateMutability": "nonpayable",
      "type": "function"
    },
    {
      "inputs": [
        {
          "internalType": "contract IERC20",
          "name": "targetToken",
          "type": "address"
        }
      ],
      "name": "setTargetToken",
      "outputs": [],
      "stateMutability": "nonpayable",
      "type": "function"
    },
    {
      "inputs": [
        {
          "internalType": "address",
          "name": "pool",
          "type": "address"
        },
        {
          "internalType": "contract IERC20",
          "name": "feeToken",
          "type": "address"
        },
        {
          "internalType": "uint256",
          "name": "minTargetTokenAmountOut",
          "type": "uint256"
        },
        {
          "internalType": "uint256",
          "name": "deadline",
          "type": "uint256"
        },
        {
          "internalType": "contract IProtocolFeeBurner",
          "name": "feeBurner",
          "type": "address"
        }
      ],
      "name": "sweepProtocolFeesForToken",
      "outputs": [],
      "stateMutability": "nonpayable",
      "type": "function"
    },
    {
      "inputs": [
        {
          "internalType": "address",
          "name": "pool",
          "type": "address"
        },
        {
          "internalType": "contract IERC4626",
          "name": "feeToken",
          "type": "address"
        },
        {
          "internalType": "uint256",
          "name": "minTargetTokenAmountOut",
          "type": "uint256"
        },
        {
          "internalType": "uint256",
          "name": "deadline",
          "type": "uint256"
        },
        {
          "internalType": "contract IProtocolFeeBurner",
          "name": "feeBurner",
          "type": "address"
        }
      ],
      "name": "sweepProtocolFeesForWrappedToken",
      "outputs": [],
      "stateMutability": "nonpayable",
      "type": "function"
    },
    {
      "stateMutability": "payable",
      "type": "receive"
    }
  ],
  "bytecode": "0x60c0346100fe57601f611ced38819003918201601f19168301916001600160401b038311848410176101025780849260409485528339810103126100fe5780516001600160a01b0391828216908183036100fe57602001519283168093036100fe5730608052156100ef5760a05280156100e057600180546001600160a01b03191682179055604051907fbf9a9534339a9d6b81696e05dcfb614b7dc518a31d48be3cfb757988381fb3235f80a2611bd6908161011782396080518161173f015260a051818181610d3b01528181610e25015281816117cd01526118f40152f35b630ed1b8b360e31b5f5260045ffd5b630647140b60e51b5f5260045ffd5b5f80fd5b634e487b7160e01b5f52604160045260245ffdfe604060808152600490813610156100a0575b361561007957346100795790602060649251917f08c379a0000000000000000000000000000000000000000000000000000000008352820152600f60248201527f4e6f7420696d706c656d656e74656400000000000000000000000000000000006044820152fd5b507ff2238896000000000000000000000000000000000000000000000000000000005f525ffd5b5f3560e01c80631b66cb00146115a45780634ccb20c01461157057806380db0d511461153d578063851c1bb3146114ed57806385f2dbd4146114b457806388f6d2a414610e495780638d928af814610df95780639c5cee9b14610db0578063aaabadc514610ce7578063b0edcc5314610ae1578063b11f061e14610a0b578063b974699514610302578063e20c482f146101fe5763e74b981b036100115750346101fa5760206003193601126101fa57610158611630565b6001549073ffffffffffffffffffffffffffffffffffffffff9061017e82841630611872565b169182156101d457507fffffffffffffffffffffffff00000000000000000000000000000000000000001681176001557fbf9a9534339a9d6b81696e05dcfb614b7dc518a31d48be3cfb757988381fb3235f80a2005b7f768dc598000000000000000000000000000000000000000000000000000000005f525ffd5b5f80fd5b50346101fa5760206003193601126101fa57610218611630565b73ffffffffffffffffffffffffffffffffffffffff9061023c826001541630611872565b1691825f52600260205260ff825f2054166102d75782156102b15750815f5260026020525f2060017fffffffffffffffffffffffffffffffffffffffffffffffffffffffffffffff008254161790557f0ef09fc346b7c2cae78d9a37ed785840e7d3c6072022cd8c41c3b37a239b7fd15f80a2005b7f31ec2736000000000000000000000000000000000000000000000000000000005f525ffd5b90507f6fe47af6000000000000000000000000000000000000000000000000000000005f525260245ffd5b5090346101fa5760a06003193601126101fa5761031d611630565b602490813573ffffffffffffffffffffffffffffffffffffffff948582168083036101fa5761034a611653565b926103536119fd565b610361886001541630611872565b8095885f9516918261099d575b84517f70a08231000000000000000000000000000000000000000000000000000000009a8b8252308b83015260209586838681845afa928315610993575f93610964575b50816103bc61178a565b1693843b156101fa578c9489517f8f4ab9ca000000000000000000000000000000000000000000000000000000008152848d1680978201525f81898183865af1801561095a57610947575b50803b15610727578a868f606490838e5195869485937fb53a70b2000000000000000000000000000000000000000000000000000000008552840152308d8401528860448401525af1801561093d57610929575b508c9d89519d8e91825230910152878d8781855afa9c8d156108aa578a9d6108fa575b50838d03938d85116108cf57849d036104b7575b5f7f9b779b17422d0df92223018b32b4d1fa46e071723d6817e2486d003becc55f005d005b86156108b45750885482169281840361051d57505050505050505050806104f657506104e39350611abb565b5f80808080808080808080808080610492565b807fca9e3a1e00000000000000000000000000000000000000000000000000000000869252fd5b9091929395979a949698809c9a50610782575b505088517f095ea7b30000000000000000000000000000000000000000000000000000000081890181815273ffffffffffffffffffffffffffffffffffffffff8916838901908152602081018c90529192918a918e916105bc9085906040015b037fffffffffffffffffffffffffffffffffffffffffffffffffffffffffffffffe081018652856116d3565b83519082895af18c513d82610764575b50501561072b575b5050806001541692863b15610727578951947fde557a320000000000000000000000000000000000000000000000000000000086528c8601521696878585015260448401526064830152604435608483015260a482015260643560c4820152868160e48183875af1801561071d578493929188916106fe575b5050604490865195869384927fdd62ed3e000000000000000000000000000000000000000000000000000000008452308c8501528301525afa9283156106f5575083926106c7575b50506106a25750506104e3565b7fc5bc8d51000000000000000000000000000000000000000000000000000000008152fd5b90809250813d83116106ee575b6106de81836116d3565b810103126101fa57515f80610695565b503d6106d4565b513d85823e3d90fd5b61070b9192939450611676565b61071957908291865f61064d565b8580fd5b86513d89823e3d90fd5b8a80fd5b61075761075d928c51908b82015289898201528d604482015260448152610751816116b7565b86611b19565b84611b19565b5f806105d4565b90915061077a57508285163b15155b5f806105cc565b600114610773565b8a517f38d52e0f000000000000000000000000000000000000000000000000000000008152919c9b9a9950935087818c818f5afa9081156108aa57889183918c9161086b575b50169389519c8d917fba0876520000000000000000000000000000000000000000000000000000000083528d8301523088830152306044830152818c5a92606493f19a8b156108615798809a9b899a829161082c575b509850859050610590610530565b995050508688813d831161085a575b61084581836116d3565b810103126101fa5796518897908a908861081e565b503d61083b565b88513d8b823e3d90fd5b928092508391503d83116108a3575b61088481836116d3565b8101031261089f5751818116810361089f578188915f6107c8565b8980fd5b503d61087a565b89513d8c823e3d90fd5b9a50505098505050505050506108ca9350611abb565b6104e3565b7f4e487b71000000000000000000000000000000000000000000000000000000008b5260118f52868bfd5b909c508781813d8311610922575b61091281836116d3565b810103126101fa57519b5f61047e565b503d610908565b6109338b91611676565b61089f575f61045b565b8a513d8d823e3d90fd5b610952919b50611676565b5f995f610407565b8b513d5f823e3d90fd5b9092508681813d831161098c575b61097c81836116d3565b810103126101fa5751915f6103b2565b503d610972565b88513d5f823e3d90fd5b825f52600260205260ff855f2054165f146109e157895f541661036e57887f8562eb45000000000000000000000000000000000000000000000000000000005f525ffd5b5090877f38553f6c000000000000000000000000000000000000000000000000000000005f52525ffd5b50346101fa5760206003193601126101fa57610a25611630565b73ffffffffffffffffffffffffffffffffffffffff90610a49826001541630611872565b1691825f52600260205260ff825f20541615610ab65750815f5260026020525f207fffffffffffffffffffffffffffffffffffffffffffffffffffffffffffffff0081541690557f0ed3ea501d1a23f23a7dc56c2d33e1e5a6a97694c707ef67b1e0159f239746bf5f80a2005b90507fbca5ab34000000000000000000000000000000000000000000000000000000005f525260245ffd5b5090346101fa57602090816003193601126101fa5780359267ffffffffffffffff8085116101fa57366023860112156101fa5784830135936024918511610cbb576005958560051b845196610b38848301896116d3565b8752602483880191830101913683116101fa57602401905b828210610c8f57505050610b626119fd565b73ffffffffffffffffffffffffffffffffffffffff9460019580600154163303610c68575f97875b610bb3575f7f9b779b17422d0df92223018b32b4d1fa46e071723d6817e2486d003becc55f005d005b8251891015610c635781848a831b8501015116988651997f70a08231000000000000000000000000000000000000000000000000000000008b5230898c0152858b8881845afa8015610993578a9b5f91610c2e575b5090818b9392610c1c575b50500198610b8a565b610c27913390611a52565b5f80610c13565b8093929b50878092503d8311610c5c575b610c4981836116d3565b810103126101fa5790518a99908a610c08565b503d610c3f565b610492565b857f23dada53000000000000000000000000000000000000000000000000000000005f525ffd5b813573ffffffffffffffffffffffffffffffffffffffff811681036101fa578152908301908301610b50565b6041847f4e487b71000000000000000000000000000000000000000000000000000000005f525260245ffd5b5090346101fa575f6003193601126101fa5773ffffffffffffffffffffffffffffffffffffffff6020835180937faaabadc500000000000000000000000000000000000000000000000000000000825281847f0000000000000000000000000000000000000000000000000000000000000000165afa918215610da657926020935f93610d77575b505191168152f35b610d98919350843d8611610d9f575b610d9081836116d3565b810190611846565b915f610d6f565b503d610d86565b83513d5f823e3d90fd5b50346101fa5760206003193601126101fa5760209073ffffffffffffffffffffffffffffffffffffffff610de2611630565b165f526002825260ff815f20541690519015158152f35b50346101fa575f6003193601126101fa576020905173ffffffffffffffffffffffffffffffffffffffff7f0000000000000000000000000000000000000000000000000000000000000000168152f35b50346101fa5760a06003193601126101fa57610e63611630565b90602491823573ffffffffffffffffffffffffffffffffffffffff8082168092036101fa57610e90611653565b94610e996119fd565b610ea7826001541630611872565b815f9616918215159384611446575b8651917f70a082310000000000000000000000000000000000000000000000000000000096878452308b85015260209687858781875afa94851561143c575f9561140d575b5082610f0561178a565b1694853b156101fa578c958b517f8f4ab9ca00000000000000000000000000000000000000000000000000000000815285851680988201525f818a8183865af18015611403576113f0575b50803b156113ec578c878f6064908f84905195869485937fb53a70b20000000000000000000000000000000000000000000000000000000085528401528d30908401528b60448401525af180156113e257908d916113ca575b50508a51998a52308d8b0152888a8881885afa998a156113c0578c9a611391575b50808a0399808b116113655703611000575f7f9b779b17422d0df92223018b32b4d1fa46e071723d6817e2486d003becc55f005d005b1561134c57508854811690828203611039578a8a7fca9e3a1e000000000000000000000000000000000000000000000000000000008152fd5b88517f38d52e0f00000000000000000000000000000000000000000000000000000000815287818d81875afa90811561093d57889183918d91611311575b50169860648d8d8d5197889485937fba087652000000000000000000000000000000000000000000000000000000008552840152308b8401523060448401525af19283156108aa578a936112e2575b50848951888c8b8a611155856111298b878301947f095ea7b3000000000000000000000000000000000000000000000000000000009a8b875284016020909392919373ffffffffffffffffffffffffffffffffffffffff60408201951681520152565b037fffffffffffffffffffffffffffffffffffffffffffffffffffffffffffffffe081018752866116d3565b828551925af18c513d826112c6575b50501561128d575b50506001541691853b1561089f578851937fde557a320000000000000000000000000000000000000000000000000000000085528b850152878585015260448401526064830152604435608483015260a482015260643560c4820152868160e48183875af1801561071d57849392918891611272575b5050604490865195869384927fdd62ed3e000000000000000000000000000000000000000000000000000000008452308c8501528301525afa9283156106f557508392611244575b50506106a25750505b5f8080808080808080808080610492565b90809250813d831161126b575b61125b81836116d3565b810103126101fa57515f8061122a565b503d611251565b61127f9192939450611676565b61071957908291865f6111e2565b6112b96112bf928c51908b82015289898201528d6044820152604481526112b3816116b7565b8b611b19565b89611b19565b5f8061116c565b9091506112da5750893b15155b5f80611164565b6001146112d3565b9092508681813d831161130a575b6112fa81836116d3565b810103126101fa5751915f6110c6565b503d6112f0565b928092508391503d8311611345575b61132a81836116d3565b8101031261072757518181168103610727578188915f611077565b503d611320565b969850509550505050506113609350611abb565b611233565b50868c60118f7f4e487b7100000000000000000000000000000000000000000000000000000000835252fd5b9099508881813d83116113b9575b6113a981836116d3565b810103126101fa5751985f610fca565b503d61139f565b8b513d8e823e3d90fd5b6113d390611676565b6113de578b5f610fa9565b8b80fd5b8c513d8f823e3d90fd5b8c80fd5b6113fb919d50611676565b5f9b5f610f50565b8d513d5f823e3d90fd5b9094508781813d8311611435575b61142581836116d3565b810103126101fa5751935f610efb565b503d61141b565b8a513d5f823e3d90fd5b835f52600260205260ff875f2054165f1461148a57815f5416610eb657887f8562eb45000000000000000000000000000000000000000000000000000000005f525ffd5b82848a7f38553f6c000000000000000000000000000000000000000000000000000000005f52525ffd5b50346101fa575f6003193601126101fa5760209073ffffffffffffffffffffffffffffffffffffffff6114e561178a565b915191168152f35b5090346101fa5760206003193601126101fa5735907fffffffff00000000000000000000000000000000000000000000000000000000821682036101fa57611536602092611714565b9051908152f35b50346101fa575f6003193601126101fa5760209073ffffffffffffffffffffffffffffffffffffffff5f54169051908152f35b50346101fa575f6003193601126101fa5760209073ffffffffffffffffffffffffffffffffffffffff600154169051908152f35b346101fa5760206003193601126101fa576115bd611630565b73ffffffffffffffffffffffffffffffffffffffff906115e1826001541630611872565b16807fffffffffffffffffffffffff00000000000000000000000000000000000000005f5416175f557f873950c2ac59c570001b99d815ffb260542df229d07132922e2e6f9941fd3da65f80a2005b6004359073ffffffffffffffffffffffffffffffffffffffff821682036101fa57565b6084359073ffffffffffffffffffffffffffffffffffffffff821682036101fa57565b67ffffffffffffffff811161168a57604052565b7f4e487b71000000000000000000000000000000000000000000000000000000005f52604160045260245ffd5b6080810190811067ffffffffffffffff82111761168a57604052565b90601f7fffffffffffffffffffffffffffffffffffffffffffffffffffffffffffffffe0910116810190811067ffffffffffffffff82111761168a57604052565b6040517fffffffff0000000000000000000000000000000000000000000000000000000060208201927f00000000000000000000000000000000000000000000000000000000000000008452166040820152602481526060810181811067ffffffffffffffff82111761168a5760405251902090565b6040517f85f2dbd400000000000000000000000000000000000000000000000000000000815273ffffffffffffffffffffffffffffffffffffffff6020826004817f000000000000000000000000000000000000000000000000000000000000000085165afa91821561183b575f9261180257505090565b9091506020813d602011611833575b8161181e602093836116d3565b810103126101fa575190811681036101fa5790565b3d9150611811565b6040513d5f823e3d90fd5b908160209103126101fa575173ffffffffffffffffffffffffffffffffffffffff811681036101fa5790565b9073ffffffffffffffffffffffffffffffffffffffff8091163303611895575050565b6118c17fffffffff000000000000000000000000000000000000000000000000000000005f3516611714565b91604051907faaabadc50000000000000000000000000000000000000000000000000000000082526020938483600481877f0000000000000000000000000000000000000000000000000000000000000000165afa90811561183b578460649287955f916119e0575b5060405196879586947f9be2a8840000000000000000000000000000000000000000000000000000000086526004860152336024860152166044840152165afa91821561183b575f926119a9575b50501561198157565b7f23dada53000000000000000000000000000000000000000000000000000000005f5260045ffd5b90809250813d83116119d9575b6119c081836116d3565b810103126101fa575180151581036101fa575f80611978565b503d6119b6565b6119f79150863d8811610d9f57610d9081836116d3565b5f61192a565b7f9b779b17422d0df92223018b32b4d1fa46e071723d6817e2486d003becc55f00805c611a2a576001905d565b7f3ee5aeb5000000000000000000000000000000000000000000000000000000005f5260045ffd5b6040517fa9059cbb00000000000000000000000000000000000000000000000000000000602082015273ffffffffffffffffffffffffffffffffffffffff929092166024830152604480830193909352918152611ab991611ab46064836116d3565b611b19565b565b919060407fd6b9382ec1786c32610e376e8ee8f2f16abeda4ace3b6276ac958193c75bbbc89173ffffffffffffffffffffffffffffffffffffffff80918160015416611b08878284611a52565b8451968752602087015216941692a3565b905f602091828151910182855af11561183b575f513d611b97575073ffffffffffffffffffffffffffffffffffffffff81163b155b611b555750565b73ffffffffffffffffffffffffffffffffffffffff907f5274afe7000000000000000000000000000000000000000000000000000000005f521660045260245ffd5b60011415611b4e56fea264697066735822122073c83dc000fd5b369d9011dfbf492cec718293b2c6c551d00cabfa0717bf74f064736f6c634300081b0033",
  "linkReferences": {},
  "deployedLinkReferences": {}
}