{
  "_format": "hh-sol-artifact-1",
  "contractName": "LBPoolFactory",
  "sourceName": "contracts/lbp/LBPoolFactory.sol",
  "abi": [
    {
      "inputs": [
        {
          "internalType": "contract IVault",
          "name": "vault",
          "type": "address"
        },
        {
          "internalType": "uint32",
          "name": "pauseWindowDuration",
          "type": "uint32"
        },
        {
          "internalType": "string",
          "name": "factoryVersion",
          "type": "string"
        },
        {
          "internalType": "string",
          "name": "poolVersion",
          "type": "string"
        },
        {
          "internalType": "address",
          "name": "trustedRouter",
          "type": "address"
        },
        {
          "internalType": "address",
          "name": "migrationRouter",
          "type": "address"
        }
      ],
      "stateMutability": "nonpayable",
      "type": "constructor"
    },
    {
      "inputs": [],
      "name": "CodeDeploymentFailed",
      "type": "error"
    },
    {
      "inputs": [],
      "name": "Create2EmptyBytecode",
      "type": "error"
    },
    {
      "inputs": [],
      "name": "Disabled",
      "type": "error"
    },
    {
      "inputs": [],
      "name": "FailedDeployment",
      "type": "error"
    },
    {
      "inputs": [],
      "name": "IndexOutOfBounds",
      "type": "error"
    },
    {
      "inputs": [
        {
          "internalType": "uint256",
          "name": "balance",
          "type": "uint256"
        },
        {
          "internalType": "uint256",
          "name": "needed",
          "type": "uint256"
        }
      ],
      "name": "InsufficientBalance",
      "type": "error"
    },
    {
      "inputs": [],
      "name": "InvalidBptLockDuration",
      "type": "error"
    },
    {
      "inputs": [],
      "name": "InvalidBptPercentageToMigrate",
      "type": "error"
    },
    {
      "inputs": [],
      "name": "InvalidMigrationWeights",
      "type": "error"
    },
    {
      "inputs": [],
      "name": "InvalidOwner",
      "type": "error"
    },
    {
      "inputs": [
        {
          "internalType": "uint256",
          "name": "resolvedStartTime",
          "type": "uint256"
        },
        {
          "internalType": "uint256",
          "name": "endTime",
          "type": "uint256"
        }
      ],
      "name": "InvalidStartTime",
      "type": "error"
    },
    {
      "inputs": [],
      "name": "InvalidTrustedRouter",
      "type": "error"
    },
    {
      "inputs": [],
      "name": "MinWeight",
      "type": "error"
    },
    {
      "inputs": [],
      "name": "NormalizedWeightInvariant",
      "type": "error"
    },
    {
      "inputs": [],
      "name": "PoolPauseWindowDurationOverflow",
      "type": "error"
    },
    {
      "inputs": [],
      "name": "ReentrancyGuardReentrantCall",
      "type": "error"
    },
    {
      "inputs": [],
      "name": "SenderNotAllowed",
      "type": "error"
    },
    {
      "inputs": [],
      "name": "StandardPoolWithCreator",
      "type": "error"
    },
    {
      "inputs": [],
      "name": "VaultNotSet",
      "type": "error"
    },
    {
      "anonymous": false,
      "inputs": [],
      "name": "FactoryDisabled",
      "type": "event"
    },
    {
      "anonymous": false,
      "inputs": [
        {
          "indexed": true,
          "internalType": "address",
          "name": "pool",
          "type": "address"
        },
        {
          "indexed": true,
          "internalType": "contract IERC20",
          "name": "projectToken",
          "type": "address"
        },
        {
          "indexed": true,
          "internalType": "contract IERC20",
          "name": "reserveToken",
          "type": "address"
        }
      ],
      "name": "LBPoolCreated",
      "type": "event"
    },
    {
      "anonymous": false,
      "inputs": [
        {
          "indexed": true,
          "internalType": "address",
          "name": "pool",
          "type": "address"
        },
        {
          "indexed": false,
          "internalType": "uint256",
          "name": "bptLockDuration",
          "type": "uint256"
        },
        {
          "indexed": false,
          "internalType": "uint256",
          "name": "bptPercentageToMigrate",
          "type": "uint256"
        },
        {
          "indexed": false,
          "internalType": "uint256",
          "name": "migrationWeightProjectToken",
          "type": "uint256"
        },
        {
          "indexed": false,
          "internalType": "uint256",
          "name": "migrationWeightReserveToken",
          "type": "uint256"
        }
      ],
      "name": "MigrationParamsSet",
      "type": "event"
    },
    {
      "anonymous": false,
      "inputs": [
        {
          "indexed": true,
          "internalType": "address",
          "name": "pool",
          "type": "address"
        }
      ],
      "name": "PoolCreated",
      "type": "event"
    },
    {
      "inputs": [
        {
          "internalType": "string",
          "name": "name",
          "type": "string"
        },
        {
          "internalType": "string",
          "name": "symbol",
          "type": "string"
        },
        {
          "components": [
            {
              "internalType": "address",
              "name": "owner",
              "type": "address"
            },
            {
              "internalType": "contract IERC20",
              "name": "projectToken",
              "type": "address"
            },
            {
              "internalType": "contract IERC20",
              "name": "reserveToken",
              "type": "address"
            },
            {
              "internalType": "uint256",
              "name": "projectTokenStartWeight",
              "type": "uint256"
            },
            {
              "internalType": "uint256",
              "name": "reserveTokenStartWeight",
              "type": "uint256"
            },
            {
              "internalType": "uint256",
              "name": "projectTokenEndWeight",
              "type": "uint256"
            },
            {
              "internalType": "uint256",
              "name": "reserveTokenEndWeight",
              "type": "uint256"
            },
            {
              "internalType": "uint256",
              "name": "startTime",
              "type": "uint256"
            },
            {
              "internalType": "uint256",
              "name": "endTime",
              "type": "uint256"
            },
            {
              "internalType": "bool",
              "name": "blockProjectTokenSwapsIn",
              "type": "bool"
            }
          ],
          "internalType": "struct LBPParams",
          "name": "lbpParams",
          "type": "tuple"
        },
        {
          "internalType": "uint256",
          "name": "swapFeePercentage",
          "type": "uint256"
        },
        {
          "internalType": "bytes32",
          "name": "salt",
          "type": "bytes32"
        },
        {
          "internalType": "address",
          "name": "poolCreator",
          "type": "address"
        }
      ],
      "name": "create",
      "outputs": [
        {
          "internalType": "address",
          "name": "pool",
          "type": "address"
        }
      ],
      "stateMutability": "nonpayable",
      "type": "function"
    },
    {
      "inputs": [
        {
          "internalType": "string",
          "name": "name",
          "type": "string"
        },
        {
          "internalType": "string",
          "name": "symbol",
          "type": "string"
        },
        {
          "components": [
            {
              "internalType": "address",
              "name": "owner",
              "type": "address"
            },
            {
              "internalType": "contract IERC20",
              "name": "projectToken",
              "type": "address"
            },
            {
              "internalType": "contract IERC20",
              "name": "reserveToken",
              "type": "address"
            },
            {
              "internalType": "uint256",
              "name": "projectTokenStartWeight",
              "type": "uint256"
            },
            {
              "internalType": "uint256",
              "name": "reserveTokenStartWeight",
              "type": "uint256"
            },
            {
              "internalType": "uint256",
              "name": "projectTokenEndWeight",
              "type": "uint256"
            },
            {
              "internalType": "uint256",
              "name": "reserveTokenEndWeight",
              "type": "uint256"
            },
            {
              "internalType": "uint256",
              "name": "startTime",
              "type": "uint256"
            },
            {
              "internalType": "uint256",
              "name": "endTime",
              "type": "uint256"
            },
            {
              "internalType": "bool",
              "name": "blockProjectTokenSwapsIn",
              "type": "bool"
            }
          ],
          "internalType": "struct LBPParams",
          "name": "lbpParams",
          "type": "tuple"
        },
        {
          "internalType": "uint256",
          "name": "swapFeePercentage",
          "type": "uint256"
        },
        {
          "internalType": "bytes32",
          "name": "salt",
          "type": "bytes32"
        },
        {
          "internalType": "address",
          "name": "poolCreator",
          "type": "address"
        },
        {
          "internalType": "uint256",
          "name": "bptLockDuration",
          "type": "uint256"
        },
        {
          "internalType": "uint256",
          "name": "bptPercentageToMigrate",
          "type": "uint256"
        },
        {
          "internalType": "uint256",
          "name": "migrationWeightProjectToken",
          "type": "uint256"
        },
        {
          "internalType": "uint256",
          "name": "migrationWeightReserveToken",
          "type": "uint256"
        }
      ],
      "name": "createWithMigration",
      "outputs": [
        {
          "internalType": "address",
          "name": "pool",
          "type": "address"
        }
      ],
      "stateMutability": "nonpayable",
      "type": "function"
    },
    {
      "inputs": [],
      "name": "disable",
      "outputs": [],
      "stateMutability": "nonpayable",
      "type": "function"
    },
    {
      "inputs": [
        {
          "internalType": "bytes4",
          "name": "selector",
          "type": "bytes4"
        }
      ],
      "name": "getActionId",
      "outputs": [
        {
          "internalType": "bytes32",
          "name": "",
          "type": "bytes32"
        }
      ],
      "stateMutability": "view",
      "type": "function"
    },
    {
      "inputs": [],
      "name": "getAuthorizer",
      "outputs": [
        {
          "internalType": "contract IAuthorizer",
          "name": "",
          "type": "address"
        }
      ],
      "stateMutability": "view",
      "type": "function"
    },
    {
      "inputs": [],
      "name": "getCreationCode",
      "outputs": [
        {
          "internalType": "bytes",
          "name": "",
          "type": "bytes"
        }
      ],
      "stateMutability": "view",
      "type": "function"
    },
    {
      "inputs": [],
      "name": "getCreationCodeContracts",
      "outputs": [
        {
          "internalType": "address",
          "name": "contractA",
          "type": "address"
        },
        {
          "internalType": "address",
          "name": "contractB",
          "type": "address"
        }
      ],
      "stateMutability": "view",
      "type": "function"
    },
    {
      "inputs": [],
      "name": "getDefaultLiquidityManagement",
      "outputs": [
        {
          "components": [
            {
              "internalType": "bool",
              "name": "disableUnbalancedLiquidity",
              "type": "bool"
            },
            {
              "internalType": "bool",
              "name": "enableAddLiquidityCustom",
              "type": "bool"
            },
            {
              "internalType": "bool",
              "name": "enableRemoveLiquidityCustom",
              "type": "bool"
            },
            {
              "internalType": "bool",
              "name": "enableDonation",
              "type": "bool"
            }
          ],
          "internalType": "struct LiquidityManagement",
          "name": "liquidityManagement",
          "type": "tuple"
        }
      ],
      "stateMutability": "pure",
      "type": "function"
    },
    {
      "inputs": [],
      "name": "getDefaultPoolHooksContract",
      "outputs": [
        {
          "internalType": "address",
          "name": "",
          "type": "address"
        }
      ],
      "stateMutability": "pure",
      "type": "function"
    },
    {
      "inputs": [
        {
          "internalType": "bytes",
          "name": "constructorArgs",
          "type": "bytes"
        },
        {
          "internalType": "bytes32",
          "name": "salt",
          "type": "bytes32"
        }
      ],
      "name": "getDeploymentAddress",
      "outputs": [
        {
          "internalType": "address",
          "name": "",
          "type": "address"
        }
      ],
      "stateMutability": "view",
      "type": "function"
    },
    {
      "inputs": [],
      "name": "getMigrationRouter",
      "outputs": [
        {
          "internalType": "address",
          "name": "",
          "type": "address"
        }
      ],
      "stateMutability": "view",
      "type": "function"
    },
    {
      "inputs": [],
      "name": "getNewPoolPauseWindowEndTime",
      "outputs": [
        {
          "internalType": "uint32",
          "name": "",
          "type": "uint32"
        }
      ],
      "stateMutability": "view",
      "type": "function"
    },
    {
      "inputs": [],
      "name": "getOriginalPauseWindowEndTime",
      "outputs": [
        {
          "internalType": "uint32",
          "name": "",
          "type": "uint32"
        }
      ],
      "stateMutability": "view",
      "type": "function"
    },
    {
      "inputs": [],
      "name": "getPauseWindowDuration",
      "outputs": [
        {
          "internalType": "uint32",
          "name": "",
          "type": "uint32"
        }
      ],
      "stateMutability": "view",
      "type": "function"
    },
    {
      "inputs": [],
      "name": "getPoolCount",
      "outputs": [
        {
          "internalType": "uint256",
          "name": "",
          "type": "uint256"
        }
      ],
      "stateMutability": "view",
      "type": "function"
    },
    {
      "inputs": [],
      "name": "getPoolVersion",
      "outputs": [
        {
          "internalType": "string",
          "name": "",
          "type": "string"
        }
      ],
      "stateMutability": "view",
      "type": "function"
    },
    {
      "inputs": [],
      "name": "getPools",
      "outputs": [
        {
          "internalType": "address[]",
          "name": "",
          "type": "address[]"
        }
      ],
      "stateMutability": "view",
      "type": "function"
    },
    {
      "inputs": [
        {
          "internalType": "uint256",
          "name": "start",
          "type": "uint256"
        },
        {
          "internalType": "uint256",
          "name": "count",
          "type": "uint256"
        }
      ],
      "name": "getPoolsInRange",
      "outputs": [
        {
          "internalType": "address[]",
          "name": "pools",
          "type": "address[]"
        }
      ],
      "stateMutability": "view",
      "type": "function"
    },
    {
      "inputs": [],
      "name": "getTrustedRouter",
      "outputs": [
        {
          "internalType": "address",
          "name": "",
          "type": "address"
        }
      ],
      "stateMutability": "view",
      "type": "function"
    },
    {
      "inputs": [],
      "name": "getVault",
      "outputs": [
        {
          "internalType": "contract IVault",
          "name": "",
          "type": "address"
        }
      ],
      "stateMutability": "view",
      "type": "function"
    },
    {
      "inputs": [],
      "name": "isDisabled",
      "outputs": [
        {
          "internalType": "bool",
          "name": "",
          "type": "bool"
        }
      ],
      "stateMutability": "view",
      "type": "function"
    },
    {
      "inputs": [
        {
          "internalType": "address",
          "name": "pool",
          "type": "address"
        }
      ],
      "name": "isPoolFromFactory",
      "outputs": [
        {
          "internalType": "bool",
          "name": "",
          "type": "bool"
        }
      ],
      "stateMutability": "view",
      "type": "function"
    },
    {
      "inputs": [],
      "name": "version",
      "outputs": [
        {
          "internalType": "string",
          "name": "",
          "type": "string"
        }
      ],
      "stateMutability": "view",
      "type": "function"
    }
  ],
  "bytecode": "0x6101c0604052346100dd5761002161001561018e565b949390939291926103ec565b6040516120089081610668823960805181818161023401526117bd015260a05181611747015260c05181818161025801526117e2015260e05181611768015261010051816116b301526101205181818161034401528181610cac01528181610d3301528181610f4e0152818161149d0152611de301526101405181610bd6015261016051818181611084015261170f015261018051818181610daf01528181610f2c015261147a01526101a051818181610c6901526114580152f35b5f80fd5b634e487b7160e01b5f52604160045260245ffd5b6040519190601f01601f191682016001600160401b0381118382101761011a57604052565b6100e1565b6001600160a01b038116036100dd57565b81601f820112156100dd578051906001600160401b03821161011a5761015f601f8301601f19166020016100f5565b92828452602083830101116100dd57815f9260208093018386015e8301015290565b519061018c8261011f565b565b618300908138038061019f816100f5565b93843982019060c0838303126100dd578251926101bb8461011f565b60208101519363ffffffff851685036100dd5760408201516001600160401b03908181116100dd57856101ef918501610130565b9460608401519182116100dd57610207918401610130565b9261022260a060808501519461021c8661011f565b01610181565b91959493929190565b90600182811c92168015610259575b602083101461024557565b634e487b7160e01b5f52602260045260245ffd5b91607f169161023a565b601f811161026f575050565b60035f5260205f20906020601f840160051c830193106102a9575b601f0160051c01905b81811061029e575050565b5f8155600101610293565b909150819061028a565b601f81116102bf575050565b60045f5260205f20906020601f840160051c830193106102f9575b601f0160051c01905b8181106102ee575050565b5f81556001016102e3565b90915081906102da565b80519091906001600160401b03811161011a5761032a8161032560045461022b565b6102b3565b602080601f831160011461036b5750819061035b93945f92610360575b50508160011b915f199060031b1c19161790565b600455565b015190505f80610347565b60045f52601f198316949091907f8a35acfbc15ff81a39ae7d344fd709f28e8600b4aa8c65c6b64bfe7fe36bd19b925f905b8782106103d45750508360019596106103bc575b505050811b01600455565b01515f1960f88460031b161c191690555f80806103b1565b8060018596829496860151815501950193019061039d565b9194929394615c90610400602082016100f5565b9080825261267060208301398051908160011c918260a052828103928184116104d5578360e052808352610433836105d8565b608052820191825193835261044783610627565b60c052525230610100526001600160a01b0392808416156104c6576101205263ffffffff610477818416426104e9565b8181116104b757610490936101405216610160526104fb565b8316156104a85761018c92610180526101a052610303565b630307417b60e01b5f5260045ffd5b6368755a1160e01b5f5260045ffd5b630647140b60e51b5f5260045ffd5b634e487b7160e01b5f52601160045260245ffd5b919082018092116104f657565b6104d5565b80519091906001600160401b03811161011a576105228161051d60035461022b565b610263565b602080601f83116001146105575750819061055293945f926103605750508160011b915f199060031b1c19161790565b600355565b60035f52601f198316949091907fc2575a0e9e593c00f959f8c92f12db2869c3395a3b0502d05e2516446f71f85b925f905b8782106105c05750508360019596106105a8575b505050811b01600355565b01515f1960f88460031b161c191690555f808061059d565b80600185968294968601518155019501930190610589565b9081517f602038038060206000396000f3fefefefefefefefefefefefefefefefefefefe835260208101835ff092526001600160a01b0382161561061857565b63fef8220760e01b5f5260045ffd5b9081517f60fe600053602038038060206001396001016000f3fefefefefefefefefefefe835260208101835ff092526001600160a01b038216156106185756fe60806040526004361015610011575f80fd5b5f3560e01c8062c194db14610183578063174481fa1461017e578063193ad50f146101795780632f2770db146101745780633f819b6f1461016f57806344f6fec71461016a57806353a72f7e1461016557806354fd4d5014610160578063638d46c71461015b5780636634b75314610156578063673a2a1f146101515780636c57f5a91461014c57806378da80cb14610147578063851c1bb31461014257806386a2d8751461013d5780638d928af8146101385780638eec5d7014610133578063aaabadc51461012e578063af905d1514610129578063db035ebc14610124578063e868c3161461011f578063e9d56e191461011a5763ec88806114610115575f80fd5b6110a8565b611068565b610dfb565b610dd3565b610d90565b610ced565b610cd0565b610c8d565b610c4a565b610bfa565b610bba565b610b98565b610b0a565b610aca565b610a27565b61086b565b610766565b610681565b610484565b6102ce565b61027f565b610215565b6101bb565b5f91031261019257565b5f80fd5b90601f19601f602080948051918291828752018686015e5f8582860101520116010190565b34610192575f600319360112610192576040516020810181811067ffffffffffffffff8211176102105761020c916101f8916040525f8152611744565b604051918291602083526020830190610196565b0390f35b61057e565b34610192575f60031936011261019257604080516001600160a01b03807f00000000000000000000000000000000000000000000000000000000000000001682527f0000000000000000000000000000000000000000000000000000000000000000166020820152f35b34610192575f6003193601126101925760806102996110c2565b6102cc60405180926060809180511515845260208101511515602085015260408101511515604085015201511515910152565bf35b34610192575f6003193601126101925761030a7fffffffff000000000000000000000000000000000000000000000000000000005f3516611688565b6001600160a01b03604051917faaabadc50000000000000000000000000000000000000000000000000000000083526020928381600481867f0000000000000000000000000000000000000000000000000000000000000000165afa801561043c5784926103c3925f92610441575b506040517f9be2a884000000000000000000000000000000000000000000000000000000008152600481019190915233602482015230604482015293849283919082906064820190565b0392165afa91821561043c575f9261040f575b5050156103e7576103e56110e6565b005b7f23dada53000000000000000000000000000000000000000000000000000000005f5260045ffd5b61042e9250803d10610435575b61042681836105f7565b810190611aee565b5f806103d6565b503d61041c565b611702565b610462919250843d8611610469575b61045a81836105f7565b8101906116ed565b905f610379565b503d610450565b906020610481928181520190610196565b90565b34610192575f600319360112610192576040515f6004546104a48161113f565b8084529060209060019081811690811561053657506001146104dd575b61020c856104d1818703826105f7565b60405191829182610470565b60045f90815293507f8a35acfbc15ff81a39ae7d344fd709f28e8600b4aa8c65c6b64bfe7fe36bd19b5b838510610523575050505081016020016104d18261020c6104c1565b8054868601840152938201938101610507565b86955061020c969350602092506104d19491507fffffffffffffffffffffffffffffffffffffffffffffffffffffffffffffff001682840152151560051b82010192936104c1565b7f4e487b71000000000000000000000000000000000000000000000000000000005f52604160045260245ffd5b6080810190811067ffffffffffffffff82111761021057604052565b67ffffffffffffffff811161021057604052565b6060810190811067ffffffffffffffff82111761021057604052565b90601f601f19910116810190811067ffffffffffffffff82111761021057604052565b60405190610140820182811067ffffffffffffffff82111761021057604052565b92919267ffffffffffffffff821161021057604051916106656020601f19601f84011601846105f7565b829481845281830111610192578281602093845f960137010152565b346101925760406003193601126101925760043567ffffffffffffffff81116101925736602382011215610192576001600160a01b036055600b6106d261020c94369060248160040135910161063b565b6106e66106e060243561183e565b91611744565b602081519101209060405191604083015260208201523081520160ff81532016604051918291829190916001600160a01b036020820193169052565b60209060206040818301928281528551809452019301915f5b828110610749575050505090565b83516001600160a01b03168552938101939281019260010161073b565b346101925760406003193601126101925760043560243590600191600154808310156108435781830180841161083e57811061082d575b506107a78161129a565b916107b560405193846105f7565b818352601f196107c48361129a565b013660208501375f5b8281106107e2576040518061020c8682610722565b8061082761080f6107fc6107f789958761128d565b6112df565b90546001600160a01b039160031b1c1690565b6108198388611319565b906001600160a01b03169052565b016107cd565b8281039150811161083e575f61079d565b611260565b7f4e23d035000000000000000000000000000000000000000000000000000000005f5260045ffd5b34610192575f600319360112610192576040515f60035461088b8161113f565b8084529060209060019081811690811561053657506001146108b75761020c856104d1818703826105f7565b60035f90815293507fc2575a0e9e593c00f959f8c92f12db2869c3395a3b0502d05e2516446f71f85b5b8385106108fd575050505081016020016104d18261020c6104c1565b80548686018401529382019381016108e1565b9080601f83011215610192578160206104819335910161063b565b6001600160a01b0381160361019257565b6101c4359061094a8261092b565b565b6044359061094a8261092b565b6064359061094a8261092b565b6084359061094a8261092b565b8015150361019257565b610164359061094a82610973565b7fffffffffffffffffffffffffffffffffffffffffffffffffffffffffffffffbc610140910112610192576109be61061a565b906109c761094c565b82526109d1610959565b60208301526109de610966565b604083015260a435606083015260c435608083015260e43560a08301526101043560c08301526101243560e083015261014435610100830152610a1f61097d565b610120830152565b34610192576102606003193601126101925767ffffffffffffffff60043581811161019257610a5a903690600401610910565b906024359081116101925761020c91610a7a610ab0923690600401610910565b610a833661098b565b91610a8c61093c565b926102443593610224359361020435936101e435936101a43592610184359261132d565b6040516001600160a01b0390911681529081906020820190565b34610192576020600319360112610192576001600160a01b03600435610aef8161092b565b165f525f602052602060ff60405f2054166040519015158152f35b34610192575f60031936011261019257604051806001916001549283825260208092019360015f527fb10e2d527612073b26eecdfd717e6a320cf44b4afac2b0732d9fcbe2b7fa0cf6925f905b828210610b7a5761020c86610b6e818a03826105f7565b60405191829182610722565b84546001600160a01b03168752958601959383019390830190610b57565b34610192575f60031936011261019257602060ff600254166040519015158152f35b34610192575f60031936011261019257602060405163ffffffff7f0000000000000000000000000000000000000000000000000000000000000000168152f35b34610192576020600319360112610192576004357fffffffff000000000000000000000000000000000000000000000000000000008116810361019257610c42602091611688565b604051908152f35b34610192575f6003193601126101925760206040516001600160a01b037f0000000000000000000000000000000000000000000000000000000000000000168152f35b34610192575f6003193601126101925760206040516001600160a01b037f0000000000000000000000000000000000000000000000000000000000000000168152f35b34610192575f600319360112610192576020600154604051908152f35b34610192575f600319360112610192576040517faaabadc50000000000000000000000000000000000000000000000000000000081526001600160a01b036020826004817f000000000000000000000000000000000000000000000000000000000000000085165afa90811561043c576020925f92610d71575b5060405191168152f35b610d89919250833d85116104695761045a81836105f7565b905f610d67565b34610192575f6003193601126101925760206040516001600160a01b037f0000000000000000000000000000000000000000000000000000000000000000168152f35b34610192575f600319360112610192576020610ded61170d565b63ffffffff60405191168152f35b34610192576101e06003193601126101925767ffffffffffffffff60043581811161019257610e2e903690600401610910565b9060243590811161019257610e47903690600401610910565b610e503661098b565b906101c435610e5e8161092b565b610e66611861565b610e6e6110c2565b926001600160a01b039384610e8a83516001600160a01b031690565b161561104057610f8f61100394610f8561020c98610f77610fee95610ee5610eb06118b6565b99610ed5610ec58b516001600160a01b031690565b6001600160a01b031660208d0152565b6001600160a01b031660408b0152565b610f0f60e089015189610100810151606082015160808301519160c060a085015194015194611b03565b50805190602081015160606040830151920151926040519788968c7f0000000000000000000000000000000000000000000000000000000000000000927f00000000000000000000000000000000000000000000000000000000000000009260208b016118e5565b03601f1981018352826105f7565b6101a43590611c1a565b9482610fba6040610fab60208a9701516001600160a01b031690565b9201516001600160a01b031690565b91808316908083169086167f6b01c8c0b16cf8e7a1a9158019b5fe7d40b415d756710eb0fdcb577701dfee845f80a4611d3e565b91610ff76110c2565b92610184359083611dd1565b5f7f9b779b17422d0df92223018b32b4d1fa46e071723d6817e2486d003becc55f005d6040516001600160a01b0390911681529081906020820190565b7f49e27cff000000000000000000000000000000000000000000000000000000005f5260045ffd5b34610192575f60031936011261019257602060405163ffffffff7f0000000000000000000000000000000000000000000000000000000000000000168152f35b34610192575f6003193601126101925760206040515f8152f35b604051906110cf826105ab565b5f6060838281528260208201528260408201520152565b6110ee61180a565b60017fffffffffffffffffffffffffffffffffffffffffffffffffffffffffffffff0060025416176002557f432acbfd662dbb5d8b378384a67159b47ca9d0f1b79f97cf64cf8585fa362d505f80a1565b90600182811c92168015611186575b602083101461115957565b7f4e487b71000000000000000000000000000000000000000000000000000000005f52602260045260245ffd5b91607f169161114e565b6004545f929161119f8261113f565b8082529160209060019081811690811561121c57506001146111c2575b50505050565b9293945060045f527f8a35acfbc15ff81a39ae7d344fd709f28e8600b4aa8c65c6b64bfe7fe36bd19b925f935b85851061120957505050602092500101905f8080806111bc565b80548585018401529382019381016111ef565b91505060209495507fffffffffffffffffffffffffffffffffffffffffffffffffffffffffffffff0091509291921683830152151560051b0101905f8080806111bc565b7f4e487b71000000000000000000000000000000000000000000000000000000005f52601160045260245ffd5b9190820180921161083e57565b67ffffffffffffffff81116102105760051b60200190565b7f4e487b71000000000000000000000000000000000000000000000000000000005f52603260045260245ffd5b6001548110156113145760015f527fb10e2d527612073b26eecdfd717e6a320cf44b4afac2b0732d9fcbe2b7fa0cf601905f90565b6112b2565b80518210156113145760209160051b010190565b989392969897959497919091611341611861565b604093845196611350886105ab565b8752602087019a8b52848701978852606087019586526001600160a01b03938461138185516001600160a01b031690565b1615611040576113c76113926118b6565b9b6113b88d60206113aa89516001600160a01b031690565b6001600160a01b0316910152565b6001600160a01b03168c880152565b6113f160e0850151610100860151606087015160808801519060a08901519260c08a015194611b03565b5061140b8951670de0b6b3a76400009182918a519061128d565b1480159061167f575b801561166d575b611645578c5190811190811561163c575b506116145787516301e13380811190811561160b575b506115e3578751928c518a5189519189519687957f0000000000000000000000000000000000000000000000000000000000000000907f0000000000000000000000000000000000000000000000000000000000000000908b7f00000000000000000000000000000000000000000000000000000000000000009160208b01996114cb9a6119f4565b03601f19810183526114dd90836105f7565b6114e691611c1a565b9889966020830195858751611501906001600160a01b031690565b9401978851611516906001600160a01b031690565b9486808c169851978897169116887f6b01c8c0b16cf8e7a1a9158019b5fe7d40b415d756710eb0fdcb577701dfee845f80a451925191519051928452602084019190915260408301526060909101527fefacf6961627002b9ddb197c362cb69fd417ca3441f3b8ff59a832d0027f81b690608090a2516001600160a01b031690516001600160a01b03166115a991611d3e565b926115b26110c2565b926115bd9483611dd1565b905f7f9b779b17422d0df92223018b32b4d1fa46e071723d6817e2486d003becc55f005d565b7fc715892a000000000000000000000000000000000000000000000000000000005f5260045ffd5b9050155f611442565b7f14533421000000000000000000000000000000000000000000000000000000005f5260045ffd5b9050155f61142c565b7f63ecd650000000000000000000000000000000000000000000000000000000005f5260045ffd5b506702c68af0bb14000088511061141b565b50895115611414565b6040517fffffffff0000000000000000000000000000000000000000000000000000000060208201927f00000000000000000000000000000000000000000000000000000000000000008452166040820152602481526116e7816105db565b51902090565b9081602091031261019257516104818161092b565b6040513d5f823e3d90fd5b7f000000000000000000000000000000000000000000000000000000000000000063ffffffff811642101561173f5790565b505f90565b907f00000000000000000000000000000000000000000000000000000000000000007f00000000000000000000000000000000000000000000000000000000000000008082019081831161083e578451928383019586841161083e5760209260018480946040519a82818d01016040528b52805f838d017f00000000000000000000000000000000000000000000000000000000000000003c8a01017f00000000000000000000000000000000000000000000000000000000000000003c01918501015e565b60ff6002541661181657565b7f75884cda000000000000000000000000000000000000000000000000000000005f5260045ffd5b60405160208101913383524660408301526060820152606081526116e7816105ab565b7f9b779b17422d0df92223018b32b4d1fa46e071723d6817e2486d003becc55f00805c61188e576001905d565b7f3ee5aeb5000000000000000000000000000000000000000000000000000000005f5260045ffd5b604051906060820182811067ffffffffffffffff821117610210576040525f6040838281528260208201520152565b95999897946119b761026098956119a6896119216119dd98976119136119c898610280808652850190610196565b908382036020850152610196565b87516001600160a01b031660408301529660208101516001600160a01b0316606083015260408101516001600160a01b03166080830152606081015160a0830152608081015160c083015260a081015160e083015260c0810151610100908184015260e0820151610120809401528101516101408d015201516101608b019015159052565b6001600160a01b0316610180890152565b6001600160a01b03166101a0870152565b5f6101c08601528481036101e0860152611190565b966102008401526102208301526102408201520152565b969a999895906102609895611abe6119dd96611aad8b611a26611ae098611913611acf98610280808652850190610196565b89516001600160a01b031660408301529860208101516001600160a01b0316606083015260408101516001600160a01b03166080830152606081015160a0830152608081015160c083015260a081015160e083015260c0810151610100809301528d61014060e083015193610120948584015283015191015201516101608d019015159052565b6001600160a01b03166101808b0152565b6001600160a01b03166101a0890152565b6001600160a01b03166101c0870152565b8481036101e0860152611190565b90816020910312610192575161048181610973565b93909492662386f26fc10000808410908115611c10575b8115611c06575b8115611bfc575b50611bd457820180921161083e57670de0b6b3a764000080921492831593611bbd575b505050611b9557804211814218021890808211611b66575090565b907fc9767706000000000000000000000000000000000000000000000000000000005f5260045260245260445ffd5b7f39cf114e000000000000000000000000000000000000000000000000000000005f5260045ffd5b90809293500180911161083e5714155f8080611b4b565b7fbd393583000000000000000000000000000000000000000000000000000000005f5260045ffd5b905084105f611b28565b8084109150611b21565b8083109150611b1a565b906106e0611c279161183e565b805115611d16576020815191015ff5903d1519821516611702576001600160a01b0391828116908115611cee5792611c5d61180a565b815f525f60205260405f2060017fffffffffffffffffffffffffffffffffffffffffffffffffffffffffffffff008254161790556001546801000000000000000081101561021057806001611cb592016001556112df565b819291549060031b9184831b921b19161790557f83a48fbcfc991335314e74d0496aab6a1987e992ddc85dddbcc4d6dd6ef2e9fc5f80a2565b7fb06ebf3d000000000000000000000000000000000000000000000000000000005f5260045ffd5b7f4ca249dc000000000000000000000000000000000000000000000000000000005f5260045ffd5b919060409060405191611d50836105db565b600283525f5b818110611dba57505081936001600160a01b03808316908216908082105f14611daf57505090915b805115611314576020810151908051600110156113145761094a936040610819920151906001600160a01b03169052565b915091509091611d7e565b602090611dc56110c2565b82828701015201611d56565b9294919390946001600160a01b0393847f00000000000000000000000000000000000000000000000000000000000000001695611e0c61170d565b91873b156101925797959493929190604095604051998a987feeec802f000000000000000000000000000000000000000000000000000000008a526004836101a48c01931660048c015260246101a060248d015282518094526101c48c019a6020809401955f935b868510611f485750505050505050508694611ef25f99979395611ee18896611eaf8d99611f249760448b015260648a019063ffffffff169052565b88608489015260a4880190604090816001600160a01b0391828151168552826020820151166020860152015116910152565b6001600160a01b0316610104860152565b805115156101248501526020810151151561014485015260408101511515610164850152606001511515610184840152565b03925af1801561043c57611f355750565b80611f4261094a926105c7565b80610188565b9193959798999a9b9c90929496809e5051838151168252878101516002811015611fa75782899260809284600196015286888201511688830152606080910151151590820152019e0195019290918f9d9c9b9a99989795969492611e74565b866021857f4e487b71000000000000000000000000000000000000000000000000000000005f52525ffdfea2646970667358221220e5fe01c08d87746d993996b764f6a12050951498a42eb8a9c9c9ac15b6c66c6c64736f6c634300081b00336104e060405234610db857615c90803803809161001e826104e0610df2565b6104e039806102808112610db8576104e0516001600160401b038111610db85761005190826104e001906104e001610e15565b610500516001600160401b038111610db85761007961014091846104e001906104e001610e15565b93603f190112610db85760405161014081016001600160401b03811182821017610bd7576040526100ab610520610e6a565b81526100b8610540610e6a565b60208201526100c8610560610e6a565b60408201526105805160608201526105a05160808201526105c05160a08201526105e05160c08201526106005160e082015261062051610100820152610640518015158103610db857610120820152610660516001600160a01b0381168103610db857610136610680610e6a565b916101426106a0610e6a565b6106c0519095906001600160401b038111610db857610169916104e001906104e001610e15565b6106e05161070051610720516107405185516040516001600160a01b039091169b949791959294906060906080906101a081610dbc565b8281528260208201525f60408201528280820152015260018060a01b0360208801511660018060a01b03604089015116115f14610daf575f9960015b6040519b6101e98d610dd7565b60028d5260403660208f01376102088d60ff60608d0151931690610e7e565b5261021b60ff60808b015192168d610e7e565b526040519a6102298c610dbc565b818c528260208d0152600260408d015260608c01528360808c01526040516040810181811060018060401b03821117610bd7576040526001815260208101603160f81b815261027783610ee6565b6101205261028482611069565b6101405282516020840120918260e05251902080610100524660a0526040519060208201927f8b73c3c69bb8fe3d512ecc4cf759cc79239f7b179b0ffacaa9a75d522b39400f8452604083015260608201524660808201523060a082015260a0815260c0810181811060018060401b03821117610bd7576040525190206080523060c0526101608390528051906001600160401b038211610bd75760035490600182811c92168015610da5575b6020831014610bb95781601f849311610d4d575b50602090601f8311600114610cd8575f92610ccd575b50508160011b915f199060031b1c1916176003555b8051906001600160401b038211610bd75760045490600182811c92168015610cc3575b6020831014610bb95781601f849311610c6b575b50602090601f8311600114610bf6575f92610beb575b50508160011b915f199060031b1c1916176004555b610180528051906001600160401b038211610bd75760055490600182811c92168015610bcd575b6020831014610bb95781601f849311610b6b575b50602090601f8311600114610ae3575f92610ad8575b50508160011b915f199060031b1c1916176005555b6040870151806101a05260608801515103610ac9575f975f5b6101a05160ff821610156105645761047060ff821660608b0151610e7e565b5199662386f26fc100008b10610555578a61048a91610ed9565b9960ff82166104c1576101c0525b60ff808216146104ad5760ff16600101610451565b634e487b7160e01b5f52601160045260245ffd5b60ff82166001036104d5576101e052610498565b60ff82166002036104e95761020052610498565b60ff82166003036104fd5761022052610498565b60ff82166004036105115761024052610498565b60ff82166005036105255761026052610498565b60ff82166006036105395761028052610498565b600760ff83161461054b575b50610498565b6102a0525f610545565b63bd39358360e01b5f5260045ffd5b5089670de0b6b3a76400008a03610a6b578015610ab657600780546001600160a01b031990811690915560068054918216831790556001600160a01b03167f8be0079c531659141344cd1fd0a4f28419497f9722a3daafe3b4186f6b6457e05f80a360e08501519661010086015197606087015160808801519060a08901519160c08a015191662386f26fc10000808210908115610aac575b8115610aa2575b8115610a98575b5061055557670de0b6b3a76400009161062391610ed9565b1491821592610a7a575b5050610a6b578881421182421802821811610a4c57428082189082100218610380526101008601516103a0526102c0526102e0526020840180516001600160a01b039081166103005260408601805182166103205261012087015115156104c05260608701516103c05260808701516103e05260a08701516104005260c087015161042052915191517f0f3631f9dab08169d1db21c6dc5f32536fb2b0a6b9bb5330d71c52132f968be0985091811691161115610a415760ff5f8160015b166103605216610340526040519461070286610dd7565b6002865260403660208801376040519461071b86610dd7565b600286526040366020880137606081015161074d60808301516103405190610746610360518c610e7e565b5289610e7e565b5261077460c060a0830151920151610340519061076d610360518a610e7e565b5287610e7e565b526104405261046052610480526104a0526107c161038051916107b36103a0519460405195869586526020860152608060408601526080850190610ea6565b908382036060850152610ea6565b0390a1604051614ab06111a08239608051816137bf015260a0518161388b015260c05181613790015260e0518161380e01526101005181613834015261012051816116310152610140518161165a01526101605181818161042201528181610701015281816109a40152818161111e015281816115f801528181611cac015281816123010152818161279701528181612851015281816134df01526136de015261018051818181610aac01528181610d0101528181610df201528181611037015261176301526101a0518150506101c0518150506101e05181505061020051815050610220518150506102405181505061026051815050610280518150506102a0518150506102c051818181610d820152818161202201526123e201526102e051818181610c280152612a7c01526103005181611f460152610320518161038701526103405181818161185301528181611b83015281816127cc01528181612941015281816129fc0152613b13015261036051818181611832015281816127f20152818161298d01528181612a480152613b5d01526103805181818161194301528181611fed01528181612386015281816128b2015281816137340152613aa601526103a051818181610bf401528181611966015281816128d8015281816137610152613a8501526103c0518181816118a00152818161291f0152613aed01526103e0518181816118740152612969015261040051818181611914015281816129da0152613acc0152610420518181816118e80152612a2401526104405181612aa401526104605181612acb01526104805181612af201526104a05181612b1901526104c05181818161158e01528181611b2001526128890152614ab090f35b60ff6001815f6106eb565b88906364bb3b8360e11b5f52804211814218021860045260245260445ffd5b631ce788a760e11b5f5260045ffd5b670de0b6b3a7640000925090610a8f91610ed9565b14158a8061062d565b905083108e61060b565b8086109150610604565b80841091506105fd565b631e4fbdf760e01b5f525f60045260245ffd5b63aaad13f760e01b5f5260045ffd5b015190505f80610423565b60055f90815293507f036b6384b5eca791c62761152d0c79bb0604c104a5fb6f4eb0703f3154bb3db091905b601f1984168510610b50576001945083601f19811610610b38575b505050811b01600555610438565b01515f1960f88460031b161c191690555f8080610b2a565b81810151835560209485019460019093019290910190610b0f565b90915060055f5260205f20601f840160051c810160208510610bb2575b90849392915b601f830160051c82018110610ba457505061040d565b5f8155859450600101610b8e565b5080610b88565b634e487b7160e01b5f52602260045260245ffd5b91607f16916103f9565b634e487b7160e01b5f52604160045260245ffd5b015190505f806103bd565b60045f90815293505f516020615c705f395f51905f5291905b601f1984168510610c50576001945083601f19811610610c38575b505050811b016004556103d2565b01515f1960f88460031b161c191690555f8080610c2a565b81810151835560209485019460019093019290910190610c0f565b60045f529091505f516020615c705f395f51905f52601f840160051c810160208510610cbc575b90849392915b601f830160051c82018110610cae5750506103a7565b5f8155859450600101610c98565b5080610c92565b91607f1691610393565b015190505f8061035b565b60035f90815293505f516020615c505f395f51905f5291905b601f1984168510610d32576001945083601f19811610610d1a575b505050811b01600355610370565b01515f1960f88460031b161c191690555f8080610d0c565b81810151835560209485019460019093019290910190610cf1565b60035f529091505f516020615c505f395f51905f52601f840160051c810160208510610d9e575b90849392915b601f830160051c82018110610d90575050610345565b5f8155859450600101610d7a565b5080610d74565b91607f1691610331565b6001995f6101dc565b5f80fd5b60a081019081106001600160401b03821117610bd757604052565b606081019081106001600160401b03821117610bd757604052565b601f909101601f19168101906001600160401b03821190821017610bd757604052565b81601f82011215610db8578051906001600160401b038211610bd75760405192610e49601f8401601f191660200185610df2565b82845260208383010111610db857815f9260208093018386015e8301015290565b51906001600160a01b0382168203610db857565b8051821015610e925760209160051b010190565b634e487b7160e01b5f52603260045260245ffd5b9081518082526020808093019301915f5b828110610ec5575050505090565b835185529381019392810192600101610eb7565b919082018092116104ad57565b805160209081811015610f5c5750601f825111610f1e5780825192015190808310610f1057501790565b825f19910360031b1b161790565b60448260405192839163305a27a960e01b83528160048401528051918291826024860152018484015e5f828201840152601f01601f19168101030190fd5b906001600160401b038211610bd7575f54926001938481811c9116801561105f575b83821014610bb957601f811161102c575b5081601f8411600114610fca57509282939183925f94610fbf575b50501b915f199060031b1c1916175f5560ff90565b015192505f80610faa565b919083601f1981165f8052845f20945f905b888383106110125750505010610ffa575b505050811b015f5560ff90565b01515f1960f88460031b161c191690555f8080610fed565b858701518855909601959485019487935090810190610fdc565b5f805284601f845f20920160051c820191601f860160051c015b828110611054575050610f8f565b5f8155018590611046565b90607f1690610f7e565b8051602090818110156110935750601f825111610f1e5780825192015190808310610f1057501790565b9192916001600160401b038111610bd75760019182548381811c91168015611195575b82821014610bb957601f8111611162575b5080601f83116001146111025750819293945f926110f7575b50505f19600383901b1c191690821b17905560ff90565b015190505f806110e0565b90601f19831695845f52825f20925f905b88821061114b5750508385969710611133575b505050811b01905560ff90565b01515f1960f88460031b161c191690555f8080611126565b808785968294968601518155019501930190611113565b835f5283601f835f20920160051c820191601f850160051c015b82811061118a5750506110c7565b5f815501849061117c565b90607f16906110b656fe6080806040526004361015610012575f80fd5b5f3560e01c90816301ffc9a7146130035750806306fdde0314612f5a578063095ea7b314612eea5780630b89f18214612cd25780630ca89848146126d457806316a0b3e0146124a057806318160ddd1461248657806318b6eb55146124465780631c149e281461233857806323b872dd1461229d57806323de66511461226c578063273c1adf1461224a5780632754888d146121e157806330adf81f146121a7578063313ce5671461218c578063351a964d146121685780633644e5151461214e57806338be241d1461210357806345421ec714611f6a5780634837c59614611f275780635211fa7714611ee457806353b79bd714611e9257806354fd4d5014611de95780635687f2b814611d95578063627cdcb914611d6c578063654cf15d14611d4a578063679aefce14611d1257806370a0823114611c4c578063715018a614611bd257806372c9818614611a4757806379ba50971461199b5780637beed220146118025780637ecebe00146117ca57806381fa807c1461171457806384b0196e1461161c5780638d928af8146115d95780638da5cb5b146115b357806395146efb1461157757806395d89b411461147b578063976907cc146113c3578063984de9e8146111d5578063a0e8f5ac1461118d578063a9059cbb146110a1578063aa6ca80814610fec578063abb1dc4414610da6578063af905d1514610d63578063b156aa0a14610cb6578063b677fa5614610c94578063ba5f9f4014610b71578063c0bc6f3314610b05578063ce20ece714610ae5578063d335b0cf14610a60578063d505accf1461082b578063d77153a71461076e578063dd62ed3e14610691578063e30c39781461066b578063e565c29e146103ab578063e594203d14610368578063f2fde38b146102e75763f89f27ed146102b0575f80fd5b346102e3575f6003193601126102e3576102df6102cb613a62565b604051918291602083526020830190613184565b0390f35b5f80fd5b346102e35760206003193601126102e357610300613090565b6103086138b1565b6001600160a01b0380911690817fffffffffffffffffffffffff00000000000000000000000000000000000000006007541617600755600654167f38d16b8cac22d99fc7c124b9cd0de2d3fa1faef420bfe791d8c362d765e227005f80a3005b346102e3575f6003193601126102e35760206040516001600160a01b037f0000000000000000000000000000000000000000000000000000000000000000168152f35b346102e3575f6003193601126102e3576040516101009081810181811067ffffffffffffffff82111761063e5760405260608152602090818101906060825260408101915f8352606082015f8152608083015f815260a08401905f825260c08501925f845260e08601945f86526001600160a01b037f000000000000000000000000000000000000000000000000000000000000000016906040517f535cfd8a0000000000000000000000000000000000000000000000000000000081523060048201525f81602481865afa9081156105e4575f9161061c575b508852610490613a62565b81526040517fb45090f90000000000000000000000000000000000000000000000000000000081523060048201528a81602481865afa9081156105e4575f916105ef575b5089526104df6134a3565b835260405180927ff29486a10000000000000000000000000000000000000000000000000000000082523060048301528160246101a09384935afa9889156105e4578c9961058794610574935f926105b7575b505060e0810151151587528a810151151588526101208091015115158952610558613732565b15158a526040519d8d8f9e938f948552519301528c0190613184565b9051601f198b83030160408c0152613184565b9651606089015251608088015251151560a087015251151560c086015251151560e0850152511515908301520390f35b6105d69250803d106105dd575b6105ce8183613149565b810190613560565b8e80610532565b503d6105c4565b6040513d5f823e3d90fd5b90508a81813d8311610615575b6106068183613149565b810103126102e357518c6104d4565b503d6105fc565b61063891503d805f833e6106308183613149565b810190613669565b8c610485565b7f4e487b71000000000000000000000000000000000000000000000000000000005f52604160045260245ffd5b346102e3575f6003193601126102e35760206001600160a01b0360075416604051908152f35b346102e35760406003193601126102e3576106aa613090565b60206106b46130a6565b9160646001600160a01b0391828060405196879586947f927da1050000000000000000000000000000000000000000000000000000000086523060048701521660248501521660448301527f0000000000000000000000000000000000000000000000000000000000000000165afa80156105e4575f9061073b575b602090604051908152f35b506020813d602011610766575b8161075560209383613149565b810103126102e35760209051610730565b3d9150610748565b346102e3575f6003193601126102e35761014060405161078d81613110565b5f81526020810190604081015f8152606082015f815260808301905f825260a084015f815260c0850160e08601915f83526101009485880194610120809901975f895260018b5260018552600187526040519a5f8c5251151560208c015251151560408b015251151560608a0152511515608089015251151560a088015251151560c087015251151560e08601525115159084015251151590820152f35b346102e35760e06003193601126102e357610844613090565b61084c6130a6565b60443591608435919060643560ff841684036102e357804211610a355761088d826001600160a01b03165f52600260205260405f2080549060018201905590565b9061094f61094660405196602088017f6e71edae12b1b97f4d1f60370fef10105fa2faae0126114a169c64845d6126c981526001600160a01b0398899586891697886040840152878b1660608401528c608084015260a083015260c082015260c081526108f9816130f4565b519020610904613786565b90604051917f190100000000000000000000000000000000000000000000000000000000000083526002830152602282015260c43591604260a4359220613f1a565b90929192613f9c565b16818103610a07576040517fe1f21c670000000000000000000000000000000000000000000000000000000081526001600160a01b03848116600483015285166024820152604481018790526020816064815f7f00000000000000000000000000000000000000000000000000000000000000008b165af180156105e4576109d357005b6020813d6020116109ff575b816109ec60209383613149565b810103126102e3576109fd90613366565b005b3d91506109df565b7f4b800e46000000000000000000000000000000000000000000000000000000005f5260045260245260445ffd5b7f62791302000000000000000000000000000000000000000000000000000000005f5260045260245ffd5b346102e3575f6003193601126102e3576040517fb45090f90000000000000000000000000000000000000000000000000000000081523060048201526020816024816001600160a01b037f0000000000000000000000000000000000000000000000000000000000000000165afa80156105e4575f9061073b57602090604051908152f35b346102e3575f6003193601126102e35760206040516509184e72a0008152f35b346102e3575f6003193601126102e3575f60c0604051610b24816130f4565b60608152606060208201528260408201528260608201528260808201528260a082015201527fd6234725000000000000000000000000000000000000000000000000000000005f5260045ffd5b346102e35760e06003193601126102e357610b8a613090565b610b926130a6565b50600460443510156102e35767ffffffffffffffff6084358181116102e357610bbf9036906004016131b7565b5060a4358181116102e357610bd89036906004016131b7565b5060c4359081116102e357610bf1903690600401613217565b507f0000000000000000000000000000000000000000000000000000000000000000421115610c6c576020906001600160a01b03807f000000000000000000000000000000000000000000000000000000000000000016908115928315610c60575b5050506040519015158152f35b16149050828080610c53565b7ff38b5770000000000000000000000000000000000000000000000000000000005f5260045ffd5b346102e3575f6003193601126102e35760206040516709b6e64a8ec600008152f35b346102e3575f6003193601126102e3576040517f535cfd8a0000000000000000000000000000000000000000000000000000000081523060048201525f816024816001600160a01b037f0000000000000000000000000000000000000000000000000000000000000000165afa80156105e4576102df915f91610d49575b50604051918291602083526020830190613184565b610d5d91503d805f833e6106308183613149565b82610d34565b346102e3575f6003193601126102e35760206040516001600160a01b037f0000000000000000000000000000000000000000000000000000000000000000168152f35b346102e3575f6003193601126102e3576001600160a01b036040517f67e0e0760000000000000000000000000000000000000000000000000000000081523060048201525f81602481857f0000000000000000000000000000000000000000000000000000000000000000165afa80156105e4575f915f935f915f93610ebe575b50610e3d604051946080865260808601906132a2565b6020858203818701528080885193848152019701925f905b838210610e825787806102df89610e748d8b8582036040870152613184565b908382036060850152613184565b909192939783606060019260408c518051610e9c816132de565b8352808501518716858401520151151560408201520199019493920190610e55565b9450925050503d805f843e610ed38184613149565b8201906080838303126102e35782519267ffffffffffffffff938481116102e35783610f009183016133a8565b90602093848201518681116102e357820181601f820112156102e357805190610f288261316c565b96610f366040519889613149565b828852808801816060809502840101928584116102e3578201905b838210610f9757505050505060408201518681116102e35781610f75918401613442565b9560608301519081116102e357610f8c9201613442565b909293909185610e27565b84828703126102e35760405190610fad826130d8565b825160028110156102e357825283830151908a821682036102e3578285928389950152610fdc60408601613366565b6040820152815201910190610f51565b346102e3575f6003193601126102e3576040517fca4f28030000000000000000000000000000000000000000000000000000000081523060048201525f816024816001600160a01b037f0000000000000000000000000000000000000000000000000000000000000000165afa80156105e4576102df915f9161107f575b506040519182916020835260208301906132a2565b61109b91503d805f833e6110938183613149565b810190613419565b8261106a565b346102e35760406003193601126102e35761111160206110bf613090565b6040517fbeabacc80000000000000000000000000000000000000000000000000000000081523360048201526001600160a01b0390911660248083019190915235604482015291829081906064820190565b03815f6001600160a01b037f0000000000000000000000000000000000000000000000000000000000000000165af180156105e457611156575b602060405160018152f35b6020813d602011611185575b8161116f60209383613149565b810103126102e35761118090613366565b61114b565b3d9150611162565b346102e3576003196060813601126102e3576004359067ffffffffffffffff82116102e35760e091360301126102e3576111c56130a6565b50604080515f81525f6020820152f35b346102e35760406003193601126102e35760043567ffffffffffffffff81116102e3576112069036906004016131b7565b60243560028110156102e35761121b816132de565b6113bc5760045b61122a613a62565b908060031461136857806004146112e4578060011461128b57600214611277577f4e487b71000000000000000000000000000000000000000000000000000000005f52605160045260245ffd5b60209161128391614047565b604051908152f35b50670de0b6b3a7640000908181029181830414901517156112b7576020916112b291613bcd565b611283565b7f4e487b71000000000000000000000000000000000000000000000000000000005f52601160045260245ffd5b505f9190670de0b6b3a76400005b815184101561132e5761132660019161132061130e8787613394565b516113198887613394565b5190613be4565b90613c6f565b9301926112f2565b92505050801561134057602090611283565b7f26543689000000000000000000000000000000000000000000000000000000005f5260045ffd5b505f9190670de0b6b3a76400005b815184101561132e57670de0b6b3a76400006113b36001926113ad61139b8888613394565b516113a68988613394565b5190613e81565b90613bba565b04930192611376565b6003611222565b346102e3576101006003193601126102e3576113dd613090565b506113e66130a6565b50600560443510156102e35767ffffffffffffffff6064358181116102e3576114139036906004016131b7565b506084358181116102e35761142c9036906004016131b7565b60c4358281116102e3576114449036906004016131b7565b5060e4359182116102e3576114606102df923690600401613217565b506040519182915f8352604060208401526040830190613184565b346102e3575f6003193601126102e3576040516004545f8261149c83613315565b91828252602093600190856001821691825f146115395750506001146114de575b506114ca92500383613149565b6102df60405192828493845283019061306b565b84915060045f527f8a35acfbc15ff81a39ae7d344fd709f28e8600b4aa8c65c6b64bfe7fe36bd19b905f915b8583106115215750506114ca9350820101856114bd565b8054838901850152879450869390920191810161150a565b7fffffffffffffffffffffffffffffffffffffffffffffffffffffffffffffff0016858201526114ca95151560051b85010192508791506114bd9050565b346102e3575f6003193601126102e35760206040517f000000000000000000000000000000000000000000000000000000000000000015158152f35b346102e3575f6003193601126102e35760206001600160a01b0360065416604051908152f35b346102e3575f6003193601126102e35760206040516001600160a01b037f0000000000000000000000000000000000000000000000000000000000000000168152f35b346102e3575f6003193601126102e3576116557f0000000000000000000000000000000000000000000000000000000000000000613c91565b61167e7f0000000000000000000000000000000000000000000000000000000000000000613dc3565b9060405191602083019280841067ffffffffffffffff85111761063e576116f46102df926116e6956040525f83526040519586957f0f00000000000000000000000000000000000000000000000000000000000000875260e0602088015260e087019061306b565b90858203604087015261306b565b904660608501523060808501525f60a085015283820360c0850152613184565b346102e3575f6003193601126102e3576040517ff29486a10000000000000000000000000000000000000000000000000000000081523060048201526101a09081816024816001600160a01b037f0000000000000000000000000000000000000000000000000000000000000000165afa9081156105e4576040925f926117ad575b505060608282015191015182519182526020820152f35b6117c39250803d106105dd576105ce8183613149565b8280611796565b346102e35760206003193601126102e3576001600160a01b036117eb613090565b165f526002602052602060405f2054604051908152f35b346102e3575f6003193601126102e357610e74604051611821816130d8565b6002815260403660208301376102df7f00000000000000000000000000000000000000000000000000000000000000007f00000000000000000000000000000000000000000000000000000000000000007f000000000000000000000000000000000000000000000000000000000000000061189d8386613394565b527f00000000000000000000000000000000000000000000000000000000000000006118c98286613394565b52604051916118d7836130d8565b60028352604036602085013761190e7f00000000000000000000000000000000000000000000000000000000000000009184613394565b5261193a7f00000000000000000000000000000000000000000000000000000000000000009183613394565b526040519384937f000000000000000000000000000000000000000000000000000000000000000085527f00000000000000000000000000000000000000000000000000000000000000006020860152608060408601526080850190613184565b346102e3575f6003193601126102e3576007546001600160a01b033381831603611a1b577fffffffffffffffffffffffff00000000000000000000000000000000000000008092166007556006549133908316176006553391167f8be0079c531659141344cd1fd0a4f28419497f9722a3daafe3b4186f6b6457e05f80a3005b7f118cdaa7000000000000000000000000000000000000000000000000000000005f523360045260245ffd5b346102e3576003196020813601126102e35760043567ffffffffffffffff918282116102e35760e09082360301126102e35760405191611a86836130f4565b816004013560028110156102e35783526024820135602084015260448201358181116102e357611abc90600436918501016131b7565b60408401526064820135606084015260808301916084810135835260a48101356001600160a01b03811681036102e35760a085015260c48101359182116102e3576004611b0c9236920101613217565b60c0830152611b19613732565b15611baa577f00000000000000000000000000000000000000000000000000000000000000009081611b7e575b50611b56576112836020916138c5565b7f1269438a000000000000000000000000000000000000000000000000000000005f5260045ffd5b9050517f0000000000000000000000000000000000000000000000000000000000000000141582611b46565b7ffdf79845000000000000000000000000000000000000000000000000000000005f5260045ffd5b346102e3575f6003193601126102e357611bea6138b1565b5f6001600160a01b037fffffffffffffffffffffffff00000000000000000000000000000000000000008060075416600755600654908116600655167f8be0079c531659141344cd1fd0a4f28419497f9722a3daafe3b4186f6b6457e08280a3005b346102e3576020806003193601126102e357604481611c69613090565b6040517ff7888aec0000000000000000000000000000000000000000000000000000000081523060048201526001600160a01b03918216602482015292839182907f0000000000000000000000000000000000000000000000000000000000000000165afa9081156105e4575f91611ce5575b50604051908152f35b90508181813d8311611d0b575b611cfc8183613149565b810103126102e3575182611cdc565b503d611cf2565b346102e3575f6003193601126102e3577f18e79a20000000000000000000000000000000000000000000000000000000005f5260045ffd5b346102e3575f6003193601126102e357602060405167016345785d8a00008152f35b346102e3575f6003193601126102e357335f908152600260205260409020805460018101909155005b346102e35760207f8c5be1e5ebec7d5bd14f71427d1e84f3dd0314c0f7b2291e5b200ac8c7c3b925611dc63661326d565b92919390611dd26136d4565b6001600160a01b03809160405195865216941692a3005b346102e3575f6003193601126102e3576040516005545f82611e0a83613315565b91828252602093600190856001821691825f14611539575050600114611e3757506114ca92500383613149565b84915060055f527f036b6384b5eca791c62761152d0c79bb0604c104a5fb6f4eb0703f3154bb3db0905f915b858310611e7a5750506114ca9350820101856114bd565b80548389018501528794508693909201918101611e63565b346102e3575f6003193601126102e357606060408051611eb1816130d8565b82815282602082015201527fd6234725000000000000000000000000000000000000000000000000000000005f5260045ffd5b346102e3576003196040813601126102e3576004359067ffffffffffffffff82116102e35760e091360301126102e357611f1c6130a6565b5060206040515f8152f35b346102e3575f6003193601126102e35760206040516001600160a01b037f0000000000000000000000000000000000000000000000000000000000000000168152f35b346102e35760e06003193601126102e357611f83613090565b611f8b6130a6565b50600560443510156102e35767ffffffffffffffff6064358181116102e357611fb89036906004016131b7565b5060a4358181116102e357611fd19036906004016131b7565b5060c4359081116102e357611fea903690600401613217565b507f00000000000000000000000000000000000000000000000000000000000000004210156120db576001600160a01b0380911690807f00000000000000000000000000000000000000000000000000000000000000001682149182612058575b6020836040519015158152f35b60049250602090604051938480927f5e01eb5a0000000000000000000000000000000000000000000000000000000082525afa9081156105e4576020925f926120ac575b508060065416911614908261204b565b6120cd919250833d85116120d4575b6120c58183613149565b810190613541565b908361209c565b503d6120bb565b7f3eee08c7000000000000000000000000000000000000000000000000000000005f5260045ffd5b346102e35760606003193601126102e35767ffffffffffffffff6004358181116102e3576121359036906004016131b7565b506044359081116102e357611f1c903690600401613217565b346102e3575f6003193601126102e3576020611283613786565b346102e3575f6003193601126102e3576020612182613732565b6040519015158152f35b346102e3575f6003193601126102e357602060405160128152f35b346102e3575f6003193601126102e35760206040517f6e71edae12b1b97f4d1f60370fef10105fa2faae0126114a169c64845d6126c98152f35b346102e3576101006003193601126102e3576121fb613090565b506122046130a6565b50600460443510156102e35767ffffffffffffffff6084358181116102e3576122319036906004016131b7565b5060a4358181116102e35761142c9036906004016131b7565b346102e3575f6003193601126102e35760206040516729a2241af62c00008152f35b346102e35760207fddf252ad1be2c89b69c2b068fc378daa952ba7f163c4a11628f55a4df523b3ef611dc63661326d565b346102e357608460206122af3661326d565b6040517f15dacbea0000000000000000000000000000000000000000000000000000000081523360048201526001600160a01b0393841660248201529183166044830152606482015292839182905f907f0000000000000000000000000000000000000000000000000000000000000000165af180156105e45761115657602060405160018152f35b346102e35760406003193601126102e35767ffffffffffffffff6004358181116102e35761236a9036906004016131b7565b506024359081116102e357612383903690600401613217565b507f00000000000000000000000000000000000000000000000000000000000000004210156120db576040517f5e01eb5a0000000000000000000000000000000000000000000000000000000081526001600160a01b036020826004817f000000000000000000000000000000000000000000000000000000000000000085165afa9081156105e4576020925f92612427575b508060065416911614604051908152f35b61243f919250833d85116120d4576120c58183613149565b9083612416565b346102e3576003196020813601126102e3576004359067ffffffffffffffff82116102e35761018091360301126102e357604080515f81525f6020820152f35b346102e3575f6003193601126102e35760206112836134a3565b346102e35760606003193601126102e35760043567ffffffffffffffff81116102e3576124d19036906004016131b7565b6024356124eb6124e48260443594613394565b519161368f565b60019190828411156126ce5760025b8060031461265d57806004146125ef578060011461259757600214612546577f4e487b71000000000000000000000000000000000000000000000000000000005f52605160045260245ffd5b801561256f5760209361128393611320926ec097ce7bc90715b34b9f0fffffffff040190613be4565b7f0a0c22c7000000000000000000000000000000000000000000000000000000005f5260045ffd5b5080939250156125c257611320611283926020946ec097ce7bc90715b34b9f10000000000490613be4565b7f4e487b71000000000000000000000000000000000000000000000000000000005f52601260045260245ffd5b50670de0b6b3a764000093925f91815b61261d575b5050508215611340576113206112839260209490613be4565b909194670de0b6b3a76400005186101561265757908261264f81936113206126458a86613394565b516113198b613373565b9601926125ff565b94612604565b50670de0b6b3a764000093925f91815b61268a575050508215611340576113206112839260209490613be4565b909194670de0b6b3a764000051861015612657579082670de0b6b3a76400006126c582946113ad6126bb8b87613394565b516113a68c613373565b0496019261266d565b826124fa565b346102e3575f6003193601126102e3576040516101c0810181811067ffffffffffffffff82111761063e576040526060815260606020820152606060408201526060808201525f60808201525f60a08201525f60c08201525f60e08201525f6101008201525f6101208201525f6101408201525f6101608201525f6101808201525f6101a08201526040517fca4f28030000000000000000000000000000000000000000000000000000000081523060048201525f816024816001600160a01b037f0000000000000000000000000000000000000000000000000000000000000000165afa9081156105e4575f91612cb8575b5081527f000000000000000000000000000000000000000000000000000000000000000060c08201527f000000000000000000000000000000000000000000000000000000000000000060e08201526040517f7e361bde0000000000000000000000000000000000000000000000000000000081523060048201525f816024816001600160a01b037f0000000000000000000000000000000000000000000000000000000000000000165afa9081156105e4575f91612c59575b5060208201527f000000000000000000000000000000000000000000000000000000000000000015156101008201527f000000000000000000000000000000000000000000000000000000000000000060808201527f000000000000000000000000000000000000000000000000000000000000000060a0820152604051612908816130d8565b6002815260403660208301378060408301526129667f0000000000000000000000000000000000000000000000000000000000000000917f000000000000000000000000000000000000000000000000000000000000000090613394565b527f00000000000000000000000000000000000000000000000000000000000000006129b67f00000000000000000000000000000000000000000000000000000000000000006040840151613394565b526040516129c3816130d8565b600281526040366020830137806060830152612a217f0000000000000000000000000000000000000000000000000000000000000000917f000000000000000000000000000000000000000000000000000000000000000090613394565b527f0000000000000000000000000000000000000000000000000000000000000000612a717f00000000000000000000000000000000000000000000000000000000000000006060840151613394565b526001600160a01b037f0000000000000000000000000000000000000000000000000000000000000000166101208201527f00000000000000000000000000000000000000000000000000000000000000006101408201527f00000000000000000000000000000000000000000000000000000000000000006101608201527f00000000000000000000000000000000000000000000000000000000000000006101808201527f00000000000000000000000000000000000000000000000000000000000000006101a0820152604051602081528151916101c060208301528251806101e0840152602061020084019401905f5b818110612c3a575050506101a0612bbf8394612baa612b96602086015192601f1993848983030160408a0152613184565b604086015183888303016060890152613184565b90606085015190868303016080870152613184565b91608081015160a085015260a081015160c085015260c081015160e085015260e081015161010085015261010081015115156101208501526001600160a01b03610120820151166101408501526101408101516101608501526101608101516101808501526101808101518285015201516101c08301520390f35b82516001600160a01b0316865260209586019590920191600101612b65565b90503d805f833e612c6a8183613149565b8101906040818303126102e357805167ffffffffffffffff81116102e35782612c94918301613442565b91602082015167ffffffffffffffff81116102e357612cb39201613442565b612881565b612ccc91503d805f833e6110938183613149565b826127c7565b346102e35760e06003193601126102e357612ceb613090565b50612cf46130a6565b6044359067ffffffffffffffff82116102e357366023830112156102e3578160040135612d208161316c565b90612d2e6040519283613149565b808252602093848301906024829360071b820101903682116102e357602401915b818310612e765750505060807fffffffffffffffffffffffffffffffffffffffffffffffffffffffffffffff9c3601126102e3578151600203612e4e57815115612e215751830151612da0816132de565b612da9816132de565b1590811591612df4575b50612dcc57604051906001600160a01b03309116148152f35b7fdf450632000000000000000000000000000000000000000000000000000000005f5260045ffd5b8091505160011015612e215760400151820151612e10816132de565b612e19816132de565b151583612db3565b7f4e487b71000000000000000000000000000000000000000000000000000000005f52603260045260245ffd5b7faaad13f7000000000000000000000000000000000000000000000000000000005f5260045ffd5b6080833603126102e35760405190612e8d826130bc565b6001600160a01b03843581811681036102e35783528885013560028110156102e35789840152604085013590811681036102e3576040830152606090818501359283151584036102e3576080938a93820152815201920191612d4f565b346102e35760406003193601126102e3576111116020612f08613090565b6040517fe1f21c670000000000000000000000000000000000000000000000000000000081523360048201526001600160a01b0390911660248083019190915235604482015291829081906064820190565b346102e3575f6003193601126102e3576040516003545f82612f7b83613315565b91828252602093600190856001821691825f14611539575050600114612fa857506114ca92500383613149565b84915060035f527fc2575a0e9e593c00f959f8c92f12db2869c3395a3b0502d05e2516446f71f85b905f915b858310612feb5750506114ca9350820101856114bd565b80548389018501528794508693909201918101612fd4565b346102e35760206003193601126102e357600435907fffffffff0000000000000000000000000000000000000000000000000000000082168092036102e3577f01ffc9a700000000000000000000000000000000000000000000000000000000602092148152f35b90601f19601f602080948051918291828752018686015e5f8582860101520116010190565b600435906001600160a01b03821682036102e357565b602435906001600160a01b03821682036102e357565b6080810190811067ffffffffffffffff82111761063e57604052565b6060810190811067ffffffffffffffff82111761063e57604052565b60e0810190811067ffffffffffffffff82111761063e57604052565b610140810190811067ffffffffffffffff82111761063e57604052565b6040810190811067ffffffffffffffff82111761063e57604052565b90601f601f19910116810190811067ffffffffffffffff82111761063e57604052565b67ffffffffffffffff811161063e5760051b60200190565b9081518082526020808093019301915f5b8281106131a3575050505090565b835185529381019392810192600101613195565b9080601f830112156102e35760209082356131d18161316c565b936131df6040519586613149565b81855260208086019260051b8201019283116102e357602001905b828210613208575050505090565b813581529083019083016131fa565b81601f820112156102e35780359067ffffffffffffffff821161063e576040519261324c6020601f19601f8601160185613149565b828452602083830101116102e357815f926020809301838601378301015290565b60031960609101126102e3576001600160a01b039060043582811681036102e3579160243590811681036102e3579060443590565b9081518082526020808093019301915f5b8281106132c1575050505090565b83516001600160a01b0316855293810193928101926001016132b3565b600211156132e857565b7f4e487b71000000000000000000000000000000000000000000000000000000005f52602160045260245ffd5b90600182811c9216801561335c575b602083101461332f57565b7f4e487b71000000000000000000000000000000000000000000000000000000005f52602260045260245ffd5b91607f1691613324565b519081151582036102e357565b670de0b6b3a764000051811015612e215760051b670de0b6b3a76400200190565b8051821015612e215760209160051b010190565b9080601f830112156102e3578151906020916133c38161316c565b936133d16040519586613149565b81855260208086019260051b8201019283116102e357602001905b8282106133fa575050505090565b81516001600160a01b03811681036102e35781529083019083016133ec565b906020828203126102e357815167ffffffffffffffff81116102e35761343f92016133a8565b90565b9080601f830112156102e35781519060209161345d8161316c565b9361346b6040519586613149565b81855260208086019260051b8201019283116102e357602001905b828210613494575050505090565b81518152908301908301613486565b6040517fe4dc2aa40000000000000000000000000000000000000000000000000000000081523060048201526020816024816001600160a01b037f0000000000000000000000000000000000000000000000000000000000000000165afa9081156105e4575f91613512575090565b90506020813d602011613539575b8161352d60209383613149565b810103126102e3575190565b3d9150613520565b908160209103126102e357516001600160a01b03811681036102e35790565b809103906101a082126102e35760806040519261357c84613110565b126102e35760405161358d816130bc565b61359682613366565b81526135a460208301613366565b60208201526135b560408301613366565b60408201526135c660608301613366565b606082015282526080810151602083015260a0810151604083015260c0810151606083015260e081015164ffffffffff811681036102e3576080830152610100908181015163ffffffff811681036102e357613662916101809160a086015261012093613634858301613366565b60c08701526136466101408301613366565b60e08701526136586101608301613366565b9086015201613366565b9082015290565b906020828203126102e357815167ffffffffffffffff81116102e35761343f9201613442565b600281106136bf577fc1ab6dc1000000000000000000000000000000000000000000000000000000005f5260045ffd5b6136d0906136cb613a62565b613394565b5190565b6001600160a01b037f000000000000000000000000000000000000000000000000000000000000000016330361370657565b7f089676d5000000000000000000000000000000000000000000000000000000005f523360045260245ffd5b7f00000000000000000000000000000000000000000000000000000000000000004210158061375e5790565b507f000000000000000000000000000000000000000000000000000000000000000042111590565b6001600160a01b037f000000000000000000000000000000000000000000000000000000000000000016301480613888575b156137e1577f000000000000000000000000000000000000000000000000000000000000000090565b60405160208101907f8b73c3c69bb8fe3d512ecc4cf759cc79239f7b179b0ffacaa9a75d522b39400f82527f000000000000000000000000000000000000000000000000000000000000000060408201527f000000000000000000000000000000000000000000000000000000000000000060608201524660808201523060a082015260a0815260c0810181811067ffffffffffffffff82111761063e5760405251902090565b507f000000000000000000000000000000000000000000000000000000000000000046146137b8565b6001600160a01b03600654163303611a1b57565b604081019081516138dc6060830191825190613394565b519251916138f06080820193845190613394565b519181516138fd816132de565b613906816132de565b6139b1576139206139196020925161368f565b945161368f565b910151670de0b6b3a7640000948561393782613b86565b0482116139895761394b6139519282613bd7565b90614047565b848402938085048614901517156112b7576139726139789261398595613bcd565b90613be4565b8381810391100290613bba565b0490565b7f340a4533000000000000000000000000000000000000000000000000000000005f5260045ffd5b6139cb6139c4602092959394955161368f565b925161368f565b920151670de0b6b3a76400006139e085613b86565b048111613a3a578303908382116112b757613a0161397292613a0795614047565b92614047565b7ffffffffffffffffffffffffffffffffffffffffffffffffff21f494c589c000081019081116112b75761343f91613c6f565b7f64590b9f000000000000000000000000000000000000000000000000000000005f5260045ffd5b604051613a6e816130d8565b600281526040366020830137613b44613b11613aca7f00000000000000000000000000000000000000000000000000000000000000007f00000000000000000000000000000000000000000000000000000000000000006149d3565b7f00000000000000000000000000000000000000000000000000000000000000007f0000000000000000000000000000000000000000000000000000000000000000614a18565b7f000000000000000000000000000000000000000000000000000000000000000090613b3d8285613394565b5282613394565b51670de0b6b3a76400009081039081116112b757613b827f000000000000000000000000000000000000000000000000000000000000000083613394565b5290565b90670429d069189e0000918281029281840414901517156112b757565b90612710918281029281840414901517156112b757565b818102929181159184041417156112b757565b81156125c2570490565b919082018092116112b757565b90670de0b6b3a764000090818103613bfb57505090565b671bc16d674ec800008103613c165750508061343f91613c6f565b673782dace9d9000008103613c3a575050613c348161343f92613c6f565b80613c6f565b613c44919261409c565b906001613c5083613ba3565b915f198301040190151502600181018091116112b75761343f91613bd7565b90613c7991613bba565b6001670de0b6b3a76400005f19830104019015150290565b60ff8114613ce55760ff811690601f8211613cbd5760405191613cb38361312d565b8252602082015290565b7fb3512b0c000000000000000000000000000000000000000000000000000000005f5260045ffd5b506040515f815f5491613cf783613315565b80835292602090600190818116908115613d805750600114613d22575b505061343f92500382613149565b9150925f80527f290decd9548b62a8d60345a988386fc84ba6bc95484008f6362f93160ef3e563935f925b828410613d68575061343f9450505081016020015f80613d14565b85548785018301529485019486945092810192613d4d565b90506020935061343f9592507fffffffffffffffffffffffffffffffffffffffffffffffffffffffffffffff0091501682840152151560051b8201015f80613d14565b60ff8114613de55760ff811690601f8211613cbd5760405191613cb38361312d565b506040515f81600191600154613dfa81613315565b8084529360209160018116908115613d805750600114613e2257505061343f92500382613149565b91509260015f527fb10e2d527612073b26eecdfd717e6a320cf44b4afac2b0732d9fcbe2b7fa0cf6935f925b828410613e69575061343f9450505081016020015f80613d14565b85548785018301529485019486945092810192613e4e565b670de0b6b3a764000091808303613e985750905090565b8290671bc16d674ec800008103613eb55750508061398591613bba565b673782dace9d9000008103613ed95750613ed28261398593613bba565b0480613bba565b9050613ee49161409c565b613eed81613ba3565b60015f199384830104019015150290600182018083116112b757811015613f15575050505f90565b030190565b91907f7fffffffffffffffffffffffffffffff5d576e7357a4501ddfe92f46681b20a08411613f91579160209360809260ff5f9560405194855216868401526040830152606082015282805260015afa156105e4575f516001600160a01b03811615613f8757905f905f90565b505f906001905f90565b5050505f9160039190565b60048110156132e85780613fae575050565b60018103613fde577ff645eedf000000000000000000000000000000000000000000000000000000005f5260045ffd5b6002810361401257507ffce698f7000000000000000000000000000000000000000000000000000000005f5260045260245ffd5b60031461401c5750565b7fd78bce0c000000000000000000000000000000000000000000000000000000005f5260045260245ffd5b90801561256f57670de0b6b3a7640000918281029281840414901517156112b7576001905f19830104019015150290565b80156125c2576ec097ce7bc90715b34b9f10000000000590565b81156125c2570590565b9080156149c55781156149bf578160ff1c61499757770bce5086492111aea88f4bb1ca6bcf584181ea8059f7653281101561496f5781670c7d713b49da0000128061495e575b156145fb57670de0b6b3a7640000916ec097ce7bc90715b34b9f100000000090614135908402828101907fffffffffffffffffffffffffffffffffff3f68318436f8ea4cb460f000000000018302614092565b9080828002059181838202058284820205838582020591848684020593858786020595808888020597880205600f900596600d900595600b900594600990059360079005926005900591600390050101010101010160011b918082818507020592050201670de0b6b3a7640000905b057ffffffffffffffffffffffffffffffffffffffffffffffffdc702bd3a30fc000081811315806145e8575b156145c0578190821215806145ad575b15614585575f915f8112614576575b506064906806f05b59d3b20000008112614513577ffffffffffffffffffffffffffffffffffffffffffffffff90fa4a62c4e0000000168056bc75e2d6310000082770195e54c5dd42177f53a27172fa9ec630262827000000000925b02819068ad78ebc5ac620000008112156144da575b6856bc75e2d6310000008112156144a0575b682b5e3af16b18800000811215614468575b6815af1d78b58c400000811215614430575b680ad78ebc5ac62000008112156143f9575b828112156143c2575b6802b5e3af16b188000081121561438b575b68015af1d78b58c40000811215614354575b60028382800205056003848383020505600485848302050585600581868402050560068287830205056007838883020505906008848984020505926009858a8602050595600a868b8902050597600b878c8b02050599600c888d8d0205059b01010101010101010101010102050205905f1461343f5761343f90614078565b6806f5f17757889379377ffffffffffffffffffffffffffffffffffffffffffffffffea50e2874a73c0000849201920205906142d5565b6808f00f760a4b2db55d7ffffffffffffffffffffffffffffffffffffffffffffffffd4a1c50e94e780000849201920205906142c3565b680ebc5fb417461211107ffffffffffffffffffffffffffffffffffffffffffffffffa9438a1d29cf00000849201920205906142b1565b68280e60114edb805d037ffffffffffffffffffffffffffffffffffffffffffffffff5287143a539e00000849201920205906142a8565b690127fa27722cc06cc5e27fffffffffffffffffffffffffffffffffffffffffffffffea50e2874a73c0000084920192020590614296565b693f1fce3da636ea5cf8507fffffffffffffffffffffffffffffffffffffffffffffffd4a1c50e94e780000084920192020590614284565b6b02df0ab5a80a22c61ab5a7007fffffffffffffffffffffffffffffffffffffffffffffffa9438a1d29cf00000084920192020590614272565b6e01855144814a7ff805980ff008400091507fffffffffffffffffffffffffffffffffffffffffffffff5287143a539e00000001614260565b6803782dace9d90000008112614563577ffffffffffffffffffffffffffffffffffffffffffffffffc87d25316270000000168056bc75e2d63100000826b1425982cf597cd205cef73809261424b565b68056bc75e2d631000008260019261424b565b600192505f03905060646141ef565b7fd4794efd000000000000000000000000000000000000000000000000000000005f5260045ffd5b5068070c1cc73b00c800008213156141e0565b7fa2f9f7e3000000000000000000000000000000000000000000000000000000005f5260045ffd5b5068070c1cc73b00c800008213156141d0565b81670de0b6b3a7640000925f91848112614948575b506064905f7e1600ef3172e58d2e933ec884fde10064c63b5372d805e203c000000000000082121561491d575b73011798004d755d3c8bc8e03204cf44619e0000008212156148fc575b820290808302906e01855144814a7ff805980ff008400090818312156148d9575b50506b02df0ab5a80a22c61ab5a700808212156148b9575b50693f1fce3da636ea5cf85080821215614899575b50690127fa27722cc06cc5e280821215614879575b5068280e60114edb805d0380821215614859575b50680ebc5fb4174612111080821215614842575b506808f00f760a4b2db55d80821215614822575b506806f5f177578893793780821215614802575b506806248f33704b286603808212156147e3575b506805c548670b9510e7ac808212156147c4575b5061477168056bc75e2d6310000091827ffffffffffffffffffffffffffffffffffffffffffffffffa9438a1d29cf00000818301920102614092565b9080828002059181838202058284820205916003600560076009600b888a89020598808b8b02059a8b0205059805960594059205010101010160011b0105905f146147bf575f035b026141a4565b6147b9565b68056bc75e2d631000006756bc75e2d63100009202059101905f614735565b68056bc75e2d6310000067ad78ebc5ac6200009202059101905f614721565b68056bc75e2d6310000068015af1d78b58c400009202059101905f61470d565b68056bc75e2d631000006802b5e3af16b18800009202059101905f6146f9565b68056bc75e2d63100000809202059101905f6146e5565b68056bc75e2d63100000680ad78ebc5ac62000009202059101905f6146d1565b68056bc75e2d631000006815af1d78b58c4000009202059101905f6146bd565b68056bc75e2d63100000682b5e3af16b188000009202059101905f6146a8565b68056bc75e2d631000006856bc75e2d6310000009202059101905f614693565b68ad78ebc5ac62000000925069021e19e0c9bab240000002059101905f8061467b565b906b1425982cf597cd205cef73806803782dace9d90000009105910161465a565b50770195e54c5dd42177f53a27172fa9ec63026282700000000090056806f05b59d3b200000061463d565b90506149549150614078565b6001906064614610565b50670f43fc2c04ee000082126140e2565b7fd8317311000000000000000000000000000000000000000000000000000000005f5260045ffd5b7f022701e0000000000000000000000000000000000000000000000000000000005f5260045ffd5b50505f90565b5050670de0b6b3a764000090565b4282116149e8575050670de0b6b3a764000090565b804211156149bf5780420390670de0b6b3a76400008083029283041481421417156112b75761343f920390613bcd565b9190670de0b6b3a764000091828110801590614a71575b614a6a578015614a64578382811115614a545791614a4e920390613bba565b04900390565b614a5f920390613bba565b040190565b50505090565b5091505090565b50818414614a2f56fea2646970667358221220fd644c1b97721f124cbb0a59c8ffaff44535eafd718dc2780101af907dcc908264736f6c634300081b0033c2575a0e9e593c00f959f8c92f12db2869c3395a3b0502d05e2516446f71f85b8a35acfbc15ff81a39ae7d344fd709f28e8600b4aa8c65c6b64bfe7fe36bd19b",
  "linkReferences": {},
  "deployedLinkReferences": {}
}