{
  "_format": "hh-sol-artifact-1",
  "contractName": "WeightedPoolFactory",
  "sourceName": "contracts/WeightedPoolFactory.sol",
  "abi": [
    {
      "inputs": [
        {
          "internalType": "contract IVault",
          "name": "vault",
          "type": "address"
        },
        {
          "internalType": "uint32",
          "name": "pauseWindowDuration",
          "type": "uint32"
        },
        {
          "internalType": "string",
          "name": "factoryVersion",
          "type": "string"
        },
        {
          "internalType": "string",
          "name": "poolVersion",
          "type": "string"
        }
      ],
      "stateMutability": "nonpayable",
      "type": "constructor"
    },
    {
      "inputs": [],
      "name": "CodeDeploymentFailed",
      "type": "error"
    },
    {
      "inputs": [],
      "name": "Create2EmptyBytecode",
      "type": "error"
    },
    {
      "inputs": [],
      "name": "Disabled",
      "type": "error"
    },
    {
      "inputs": [],
      "name": "FailedDeployment",
      "type": "error"
    },
    {
      "inputs": [],
      "name": "IndexOutOfBounds",
      "type": "error"
    },
    {
      "inputs": [
        {
          "internalType": "uint256",
          "name": "balance",
          "type": "uint256"
        },
        {
          "internalType": "uint256",
          "name": "needed",
          "type": "uint256"
        }
      ],
      "name": "InsufficientBalance",
      "type": "error"
    },
    {
      "inputs": [],
      "name": "PoolPauseWindowDurationOverflow",
      "type": "error"
    },
    {
      "inputs": [],
      "name": "SenderNotAllowed",
      "type": "error"
    },
    {
      "inputs": [],
      "name": "StandardPoolWithCreator",
      "type": "error"
    },
    {
      "inputs": [],
      "name": "VaultNotSet",
      "type": "error"
    },
    {
      "anonymous": false,
      "inputs": [],
      "name": "FactoryDisabled",
      "type": "event"
    },
    {
      "anonymous": false,
      "inputs": [
        {
          "indexed": true,
          "internalType": "address",
          "name": "pool",
          "type": "address"
        }
      ],
      "name": "PoolCreated",
      "type": "event"
    },
    {
      "inputs": [
        {
          "internalType": "string",
          "name": "name",
          "type": "string"
        },
        {
          "internalType": "string",
          "name": "symbol",
          "type": "string"
        },
        {
          "components": [
            {
              "internalType": "contract IERC20",
              "name": "token",
              "type": "address"
            },
            {
              "internalType": "enum TokenType",
              "name": "tokenType",
              "type": "uint8"
            },
            {
              "internalType": "contract IRateProvider",
              "name": "rateProvider",
              "type": "address"
            },
            {
              "internalType": "bool",
              "name": "paysYieldFees",
              "type": "bool"
            }
          ],
          "internalType": "struct TokenConfig[]",
          "name": "tokens",
          "type": "tuple[]"
        },
        {
          "internalType": "uint256[]",
          "name": "normalizedWeights",
          "type": "uint256[]"
        },
        {
          "components": [
            {
              "internalType": "address",
              "name": "pauseManager",
              "type": "address"
            },
            {
              "internalType": "address",
              "name": "swapFeeManager",
              "type": "address"
            },
            {
              "internalType": "address",
              "name": "poolCreator",
              "type": "address"
            }
          ],
          "internalType": "struct PoolRoleAccounts",
          "name": "roleAccounts",
          "type": "tuple"
        },
        {
          "internalType": "uint256",
          "name": "swapFeePercentage",
          "type": "uint256"
        },
        {
          "internalType": "address",
          "name": "poolHooksContract",
          "type": "address"
        },
        {
          "internalType": "bool",
          "name": "enableDonation",
          "type": "bool"
        },
        {
          "internalType": "bool",
          "name": "disableUnbalancedLiquidity",
          "type": "bool"
        },
        {
          "internalType": "bytes32",
          "name": "salt",
          "type": "bytes32"
        }
      ],
      "name": "create",
      "outputs": [
        {
          "internalType": "address",
          "name": "pool",
          "type": "address"
        }
      ],
      "stateMutability": "nonpayable",
      "type": "function"
    },
    {
      "inputs": [],
      "name": "disable",
      "outputs": [],
      "stateMutability": "nonpayable",
      "type": "function"
    },
    {
      "inputs": [
        {
          "internalType": "bytes4",
          "name": "selector",
          "type": "bytes4"
        }
      ],
      "name": "getActionId",
      "outputs": [
        {
          "internalType": "bytes32",
          "name": "",
          "type": "bytes32"
        }
      ],
      "stateMutability": "view",
      "type": "function"
    },
    {
      "inputs": [],
      "name": "getAuthorizer",
      "outputs": [
        {
          "internalType": "contract IAuthorizer",
          "name": "",
          "type": "address"
        }
      ],
      "stateMutability": "view",
      "type": "function"
    },
    {
      "inputs": [],
      "name": "getCreationCode",
      "outputs": [
        {
          "internalType": "bytes",
          "name": "",
          "type": "bytes"
        }
      ],
      "stateMutability": "view",
      "type": "function"
    },
    {
      "inputs": [],
      "name": "getCreationCodeContracts",
      "outputs": [
        {
          "internalType": "address",
          "name": "contractA",
          "type": "address"
        },
        {
          "internalType": "address",
          "name": "contractB",
          "type": "address"
        }
      ],
      "stateMutability": "view",
      "type": "function"
    },
    {
      "inputs": [],
      "name": "getDefaultLiquidityManagement",
      "outputs": [
        {
          "components": [
            {
              "internalType": "bool",
              "name": "disableUnbalancedLiquidity",
              "type": "bool"
            },
            {
              "internalType": "bool",
              "name": "enableAddLiquidityCustom",
              "type": "bool"
            },
            {
              "internalType": "bool",
              "name": "enableRemoveLiquidityCustom",
              "type": "bool"
            },
            {
              "internalType": "bool",
              "name": "enableDonation",
              "type": "bool"
            }
          ],
          "internalType": "struct LiquidityManagement",
          "name": "liquidityManagement",
          "type": "tuple"
        }
      ],
      "stateMutability": "pure",
      "type": "function"
    },
    {
      "inputs": [],
      "name": "getDefaultPoolHooksContract",
      "outputs": [
        {
          "internalType": "address",
          "name": "",
          "type": "address"
        }
      ],
      "stateMutability": "pure",
      "type": "function"
    },
    {
      "inputs": [
        {
          "internalType": "bytes",
          "name": "constructorArgs",
          "type": "bytes"
        },
        {
          "internalType": "bytes32",
          "name": "salt",
          "type": "bytes32"
        }
      ],
      "name": "getDeploymentAddress",
      "outputs": [
        {
          "internalType": "address",
          "name": "",
          "type": "address"
        }
      ],
      "stateMutability": "view",
      "type": "function"
    },
    {
      "inputs": [],
      "name": "getNewPoolPauseWindowEndTime",
      "outputs": [
        {
          "internalType": "uint32",
          "name": "",
          "type": "uint32"
        }
      ],
      "stateMutability": "view",
      "type": "function"
    },
    {
      "inputs": [],
      "name": "getOriginalPauseWindowEndTime",
      "outputs": [
        {
          "internalType": "uint32",
          "name": "",
          "type": "uint32"
        }
      ],
      "stateMutability": "view",
      "type": "function"
    },
    {
      "inputs": [],
      "name": "getPauseWindowDuration",
      "outputs": [
        {
          "internalType": "uint32",
          "name": "",
          "type": "uint32"
        }
      ],
      "stateMutability": "view",
      "type": "function"
    },
    {
      "inputs": [],
      "name": "getPoolCount",
      "outputs": [
        {
          "internalType": "uint256",
          "name": "",
          "type": "uint256"
        }
      ],
      "stateMutability": "view",
      "type": "function"
    },
    {
      "inputs": [],
      "name": "getPoolVersion",
      "outputs": [
        {
          "internalType": "string",
          "name": "",
          "type": "string"
        }
      ],
      "stateMutability": "view",
      "type": "function"
    },
    {
      "inputs": [],
      "name": "getPools",
      "outputs": [
        {
          "internalType": "address[]",
          "name": "",
          "type": "address[]"
        }
      ],
      "stateMutability": "view",
      "type": "function"
    },
    {
      "inputs": [
        {
          "internalType": "uint256",
          "name": "start",
          "type": "uint256"
        },
        {
          "internalType": "uint256",
          "name": "count",
          "type": "uint256"
        }
      ],
      "name": "getPoolsInRange",
      "outputs": [
        {
          "internalType": "address[]",
          "name": "pools",
          "type": "address[]"
        }
      ],
      "stateMutability": "view",
      "type": "function"
    },
    {
      "inputs": [],
      "name": "getVault",
      "outputs": [
        {
          "internalType": "contract IVault",
          "name": "",
          "type": "address"
        }
      ],
      "stateMutability": "view",
      "type": "function"
    },
    {
      "inputs": [],
      "name": "isDisabled",
      "outputs": [
        {
          "internalType": "bool",
          "name": "",
          "type": "bool"
        }
      ],
      "stateMutability": "view",
      "type": "function"
    },
    {
      "inputs": [
        {
          "internalType": "address",
          "name": "pool",
          "type": "address"
        }
      ],
      "name": "isPoolFromFactory",
      "outputs": [
        {
          "internalType": "bool",
          "name": "",
          "type": "bool"
        }
      ],
      "stateMutability": "view",
      "type": "function"
    },
    {
      "inputs": [],
      "name": "version",
      "outputs": [
        {
          "internalType": "string",
          "name": "",
          "type": "string"
        }
      ],
      "stateMutability": "view",
      "type": "function"
    }
  ],
  "bytecode": "0x610180604052346100aa5761001e61001561013d565b92919091610385565b60405161189b90816105e38239608051818181610211015261144d015260a051816113d7015260c0518181816102350152611472015260e051816113f80152610100518161116001526101205181818161032e01528181610ac601528181610b5a01528181611369015261164701526101405181610a26015261016051818181610bfb01526111cd0152f35b5f80fd5b634e487b7160e01b5f52604160045260245ffd5b6040519190601f01601f191682016001600160401b038111838210176100e757604052565b6100ae565b81601f820112156100aa578051906001600160401b0382116100e75761011b601f8301601f19166020016100c2565b92828452602083830101116100aa57815f9260208093018386015e8301015290565b6164b9908138038061014e816100c2565b9384398201906080838303126100aa578251906001600160a01b03821682036100aa5760208401519363ffffffff851685036100aa5760408101516001600160401b0394908581116100aa57816101a69184016100ec565b9460608301519081116100aa576101bd92016100ec565b9193929190565b90600182811c921680156101f2575b60208310146101de57565b634e487b7160e01b5f52602260045260245ffd5b91607f16916101d3565b601f8111610208575050565b60035f5260205f20906020601f840160051c83019310610242575b601f0160051c01905b818110610237575050565b5f815560010161022c565b9091508190610223565b601f8111610258575050565b60045f5260205f20906020601f840160051c83019310610292575b601f0160051c01905b818110610287575050565b5f815560010161027c565b9091508190610273565b80519091906001600160401b0381116100e7576102c3816102be6004546101c4565b61024c565b602080601f8311600114610304575081906102f493945f926102f9575b50508160011b915f199060031b1c19161790565b600455565b015190505f806102e0565b60045f52601f198316949091907f8a35acfbc15ff81a39ae7d344fd709f28e8600b4aa8c65c6b64bfe7fe36bd19b925f905b87821061036d575050836001959610610355575b505050811b01600455565b01515f1960f88460031b161c191690555f808061034a565b80600185968294968601518155019501930190610336565b92919261463b610397602082016100c2565b90808252611e7e60208301398051908160011c918260a05282810392818411610450578360e0528083526103ca83610553565b60805282019182519383526103de836105a2565b60c052525230610100526001600160a01b03811615610441576101205263ffffffff9261040d84831642610464565b93808511610432576104309461042b93610140521661016052610476565b61029c565b565b6368755a1160e01b5f5260045ffd5b630647140b60e51b5f5260045ffd5b634e487b7160e01b5f52601160045260245ffd5b9190820180921161047157565b610450565b80519091906001600160401b0381116100e75761049d816104986003546101c4565b6101fc565b602080601f83116001146104d2575081906104cd93945f926102f95750508160011b915f199060031b1c19161790565b600355565b60035f52601f198316949091907fc2575a0e9e593c00f959f8c92f12db2869c3395a3b0502d05e2516446f71f85b925f905b87821061053b575050836001959610610523575b505050811b01600355565b01515f1960f88460031b161c191690555f8080610518565b80600185968294968601518155019501930190610504565b9081517f602038038060206000396000f3fefefefefefefefefefefefefefefefefefefe835260208101835ff092526001600160a01b0382161561059357565b63fef8220760e01b5f5260045ffd5b9081517f60fe600053602038038060206001396001016000f3fefefefefefefefefefefe835260208101835ff092526001600160a01b038216156105935756fe60806040526004361015610011575f80fd5b5f3560e01c8062c194db14610153578063174481fa1461014e578063193ad50f146101495780632f2770db146101445780633f819b6f1461013f57806344f6fec71461013a57806353a72f7e1461013557806354fd4d50146101305780636634b7531461012b578063673a2a1f146101265780636c57f5a91461012157806378da80cb1461011c578063851c1bb3146101175780638d928af8146101125780638eec5d701461010d578063aaabadc514610108578063db035ebc14610103578063e9d56e19146100fe578063ec888061146100f95763fed4cdda146100f4575f80fd5b610e2b565b610c1f565b610bdf565b610bb7565b610b07565b610aea565b610a9a565b610a4a565b610a0a565b6109e8565b61094d565b610900565b61079a565b61067b565b61056f565b61046e565b6102ab565b61025c565b6101e5565b61018b565b5f91031261016257565b5f80fd5b90601f19601f602080948051918291828752018686015e5f8582860101520116010190565b34610162575f600319360112610162576040516020810181811067ffffffffffffffff8211176101e0576101dc916101c8916040525f81526113d4565b604051918291602083526020830190610166565b0390f35b610489565b34610162575f600319360112610162576040805173ffffffffffffffffffffffffffffffffffffffff807f00000000000000000000000000000000000000000000000000000000000000001682527f0000000000000000000000000000000000000000000000000000000000000000166020820152f35b34610162575f600319360112610162576080610276610f09565b6102a960405180926060809180511515845260208101511515602085015260408101511515604085015201511515910152565bf35b34610162575f600319360112610162576102e77fffffffff000000000000000000000000000000000000000000000000000000005f3516611135565b73ffffffffffffffffffffffffffffffffffffffff604051917faaabadc50000000000000000000000000000000000000000000000000000000083526020928381600481867f0000000000000000000000000000000000000000000000000000000000000000165afa80156104265784926103ad925f9261042b575b506040517f9be2a884000000000000000000000000000000000000000000000000000000008152600481019190915233602482015230604482015293849283919082906064820190565b0392165afa918215610426575f926103f9575b5050156103d1576103cf610f2d565b005b7f23dada53000000000000000000000000000000000000000000000000000000005f5260045ffd5b6104189250803d1061041f575b61041081836104e6565b810190611850565b5f806103c0565b503d610406565b6111c0565b61044c919250843d8611610453575b61044481836104e6565b8101906111ab565b905f610363565b503d61043a565b90602061046b928181520190610166565b90565b34610162575f600319360112610162576101dc6101c8610f86565b7f4e487b71000000000000000000000000000000000000000000000000000000005f52604160045260245ffd5b6080810190811067ffffffffffffffff8211176101e057604052565b67ffffffffffffffff81116101e057604052565b90601f601f19910116810190811067ffffffffffffffff8211176101e057604052565b6040519060a0820182811067ffffffffffffffff8211176101e057604052565b92919267ffffffffffffffff82116101e057604051916105536020601f19601f84011601846104e6565b829481845281830111610162578281602093845f960137010152565b346101625760406003193601126101625760043567ffffffffffffffff811161016257366023820112156101625773ffffffffffffffffffffffffffffffffffffffff6055600b6105cd6101dc943690602481600401359101610529565b6105e16105db6024356114ce565b916113d4565b602081519101209060405191604083015260208201523081520160ff815320166040519182918291909173ffffffffffffffffffffffffffffffffffffffff6020820193169052565b60209060206040818301928281528551809452019301915f5b828110610651575050505090565b835173ffffffffffffffffffffffffffffffffffffffff1685529381019392810192600101610643565b346101625760406003193601126101625760043560243590600191600154808310156107725781830180841161076d57811061075c575b506106bc81610c54565b916106ca60405193846104e6565b818352601f196106d983610c54565b013660208501375f5b8281106106f757604051806101dc868261062a565b8061075661073161071161070c8995876110ad565b6110e7565b905473ffffffffffffffffffffffffffffffffffffffff9160031b1c1690565b61073b8388611121565b9073ffffffffffffffffffffffffffffffffffffffff169052565b016106e2565b8281039150811161076d575f6106b2565b611080565b7f4e23d035000000000000000000000000000000000000000000000000000000005f5260045ffd5b34610162575f600319360112610162576040515f60035460018160011c91600181169182156108c8575b60209160208510841461089b57848752602087019390811561085e5750600114610805575b6101dc866107f9818803826104e6565b6040519182918261045a565b60035f90815294509192917fc2575a0e9e593c00f959f8c92f12db2869c3395a3b0502d05e2516446f71f85b5b83861061084d57505050910190506107f9826101dc5f6107e9565b805485870152948201948101610832565b7fffffffffffffffffffffffffffffffffffffffffffffffffffffffffffffff0016845250505090151560051b0190506107f9826101dc5f6107e9565b7f4e487b71000000000000000000000000000000000000000000000000000000005f52602260045260245ffd5b92607f16926107c4565b73ffffffffffffffffffffffffffffffffffffffff81160361016257565b61010435906108fe826108d2565b565b346101625760206003193601126101625773ffffffffffffffffffffffffffffffffffffffff600435610932816108d2565b165f525f602052602060ff60405f2054166040519015158152f35b34610162575f60031936011261016257604051806001916001549283825260208092019360015f527fb10e2d527612073b26eecdfd717e6a320cf44b4afac2b0732d9fcbe2b7fa0cf6925f905b8282106109bd576101dc866109b1818a03826104e6565b6040519182918261062a565b845473ffffffffffffffffffffffffffffffffffffffff16875295860195938301939083019061099a565b34610162575f60031936011261016257602060ff600254166040519015158152f35b34610162575f60031936011261016257602060405163ffffffff7f0000000000000000000000000000000000000000000000000000000000000000168152f35b34610162576020600319360112610162576004357fffffffff000000000000000000000000000000000000000000000000000000008116810361016257610a92602091611135565b604051908152f35b34610162575f60031936011261016257602060405173ffffffffffffffffffffffffffffffffffffffff7f0000000000000000000000000000000000000000000000000000000000000000168152f35b34610162575f600319360112610162576020600154604051908152f35b34610162575f600319360112610162576040517faaabadc500000000000000000000000000000000000000000000000000000000815273ffffffffffffffffffffffffffffffffffffffff6020826004817f000000000000000000000000000000000000000000000000000000000000000085165afa908115610426576020925f92610b98575b5060405191168152f35b610bb0919250833d85116104535761044481836104e6565b905f610b8e565b34610162575f600319360112610162576020610bd16111cb565b63ffffffff60405191168152f35b34610162575f60031936011261016257602060405163ffffffff7f0000000000000000000000000000000000000000000000000000000000000000168152f35b34610162575f6003193601126101625760206040515f8152f35b9080601f830112156101625781602061046b93359101610529565b67ffffffffffffffff81116101e05760051b60200190565b8015150361016257565b61012435906108fe82610c6c565b61014435906108fe82610c6c565b9080601f83011215610162578135916020610cac84610c54565b93604093610cbd60405196876104e6565b818652828087019260071b85010193818511610162578301915b848310610ce75750505050505090565b60808383031261016257855190610cfd826104b6565b8335610d08816108d2565b8252848401359060028210156101625782869283608095015288860135610d2e816108d2565b8982015260608087013590610d4282610c6c565b820152815201920191610cd7565b9080601f83011215610162576020908235610d6a81610c54565b93610d7860405195866104e6565b81855260208086019260051b82010192831161016257602001905b828210610da1575050505090565b81358152908301908301610d93565b7fffffffffffffffffffffffffffffffffffffffffffffffffffffffffffffff7c606091011261016257604051906060820182811067ffffffffffffffff8211176101e05760405281608435610e05816108d2565b815260a435610e13816108d2565b6020820152604060c43591610e27836108d2565b0152565b34610162576101806003193601126101625767ffffffffffffffff60043581811161016257610e5e903690600401610c39565b9060243581811161016257610e77903690600401610c39565b60443582811161016257610e8f903690600401610c92565b606435928311610162576101dc93610eae610ee2943690600401610d50565b90610eb836610db0565b90610ec16108f0565b91610eca610c76565b93610ed3610c84565b95610164359760e435946112de565b60405173ffffffffffffffffffffffffffffffffffffffff90911681529081906020820190565b60405190610f16826104b6565b5f6060838281528260208201528260408201520152565b610f3561149a565b60017fffffffffffffffffffffffffffffffffffffffffffffffffffffffffffffff0060025416176002557f432acbfd662dbb5d8b378384a67159b47ca9d0f1b79f97cf64cf8585fa362d505f80a1565b604051905f6004546001918160011c9260018316908115611076575b60209060208610831461089b57858852879460208601939081156110385750600114610fd8575b5050506108fe925003836104e6565b92509361100660045f527f8a35acfbc15ff81a39ae7d344fd709f28e8600b4aa8c65c6b64bfe7fe36bd19b90565b945f935b828510611022575050506108fe9350015f8080610fc9565b865485850152958601958895509381019361100a565b9150506108fe959293507fffffffffffffffffffffffffffffffffffffffffffffffffffffffffffffff009150168252151560051b015f8080610fc9565b93607f1693610fa2565b7f4e487b71000000000000000000000000000000000000000000000000000000005f52601160045260245ffd5b9190820180921161076d57565b7f4e487b71000000000000000000000000000000000000000000000000000000005f52603260045260245ffd5b60015481101561111c5760015f527fb10e2d527612073b26eecdfd717e6a320cf44b4afac2b0732d9fcbe2b7fa0cf601905f90565b6110ba565b805182101561111c5760209160051b010190565b6040517fffffffff0000000000000000000000000000000000000000000000000000000060208201927f00000000000000000000000000000000000000000000000000000000000000008452166040820152602481526060810181811067ffffffffffffffff8211176101e05760405251902090565b90816020910312610162575161046b816108d2565b6040513d5f823e3d90fd5b7f000000000000000000000000000000000000000000000000000000000000000063ffffffff81164210156111fd5790565b505f90565b9192909260408352611220845160a0604086015260e0850190610166565b60209061125c82870151917fffffffffffffffffffffffffffffffffffffffffffffffffffffffffffffffc09283888303016060890152610166565b9560408101516080870152606081015196828782030160a08801528380895192838152019801905f5b8181106112ca57505050956112ad9160806108fe9697980151908883030160c0890152610166565b94019073ffffffffffffffffffffffffffffffffffffffff169052565b82518a529885019891850191600101611285565b97999891999690929694939473ffffffffffffffffffffffffffffffffffffffff6040870151166113ac576108fe986060986113a5956113376113a09461139296611327610f09565b9d8e9115159101528c9015159052565b8d5190611342610509565b93845260208401526040830152606082015261135c610f86565b60808201526040519283917f00000000000000000000000000000000000000000000000000000000000000009060208401611202565b03601f1981018352826104e6565b6114f7565b9687611628565b7f61ee1764000000000000000000000000000000000000000000000000000000005f5260045ffd5b907f00000000000000000000000000000000000000000000000000000000000000007f00000000000000000000000000000000000000000000000000000000000000008082019081831161076d578451928383019586841161076d5760209260018480946040519a82818d01016040528b52805f838d017f00000000000000000000000000000000000000000000000000000000000000003c8a01017f00000000000000000000000000000000000000000000000000000000000000003c01918501015e565b60ff600254166114a657565b7f75884cda000000000000000000000000000000000000000000000000000000005f5260045ffd5b60405160208101913383524660408301526060820152606081526114f1816104b6565b51902090565b906105db611504916114ce565b805115611600576020815191015ff5903d15198215166111c05773ffffffffffffffffffffffffffffffffffffffff918281169081156115d8579261154761149a565b815f525f60205260405f2060017fffffffffffffffffffffffffffffffffffffffffffffffffffffffffffffff00825416179055600154680100000000000000008110156101e05780600161159f92016001556110e7565b819291549060031b9184831b921b19161790557f83a48fbcfc991335314e74d0496aab6a1987e992ddc85dddbcc4d6dd6ef2e9fc5f80a2565b7fb06ebf3d000000000000000000000000000000000000000000000000000000005f5260045ffd5b7f4ca249dc000000000000000000000000000000000000000000000000000000005f5260045ffd5b92949193909473ffffffffffffffffffffffffffffffffffffffff93847f000000000000000000000000000000000000000000000000000000000000000016956116706111cb565b91873b156101625797959493929190604095604051998a987feeec802f000000000000000000000000000000000000000000000000000000008a526004836101a48c01931660048c015260246101a060248d015282518094526101c48c019a6020809401955f935b8685106117c657505050505050505086946117705f9997939561175288966117138d996117a29760448b015260648a019063ffffffff169052565b88608489015260a48801906040908173ffffffffffffffffffffffffffffffffffffffff91828151168552826020820151166020860152015116910152565b73ffffffffffffffffffffffffffffffffffffffff16610104860152565b805115156101248501526020810151151561014485015260408101511515610164850152606001511515610184840152565b03925af18015610426576117b35750565b806117c06108fe926104d2565b80610158565b9193959798999a9b9c90929496809e50518381511682528781015160028110156118255782899260809284600196015286888201511688830152606080910151151590820152019e0195019290918f9d9c9b9a999897959694926116d8565b866021857f4e487b71000000000000000000000000000000000000000000000000000000005f52525ffd5b90816020910312610162575161046b81610c6c56fea26469706673582212202810f96f7fd31b6bde2e50d5cffac9f3e3199c215416439514532238a4f37f3c64736f6c634300081b00336102c080604052346108e15761463b803803809161001d82856108f5565b833981016040828203126108e15781516001600160401b0381116108e15782019160a0838303126108e1576040519160a083016001600160401b038111848210176107105760405283516001600160401b0381116108e15781610081918601610918565b835260208401516001600160401b0381116108e157816100a2918601610918565b602084019081526040808601519085015260608501519094906001600160401b0381116108e157810182601f820112156108e1578051906001600160401b038211610710578160051b604051926100fc60208301856108f5565b8352602080840191830101918583116108e157602001905b8282106108e55750505060608501526080810151916001600160401b0383116108e1576020926101449201610918565b608084018190529101516001600160a01b03811681036108e15782519351604080519195919081016001600160401b03811182821017610710576040526001815260208101603160f81b81526101998361096d565b610120526101a682610af0565b6101405282516020840120918260e05251902080610100524660a0526040519060208201927f8b73c3c69bb8fe3d512ecc4cf759cc79239f7b179b0ffacaa9a75d522b39400f8452604083015260608201524660808201523060a082015260a0815260c0810181811060018060401b03821117610710576040525190206080523060c0526101608290528051906001600160401b0382116107105760035490600182811c921680156108d7575b60208310146106f25781601f84931161087f575b50602090601f831160011461080a575f926107ff575b50508160011b915f199060031b1c1916176003555b83516001600160401b03811161071057600454600181811c911680156107f5575b60208210146106f257601f8111610796575b506020601f821160011461072f5781929394955f92610724575b50508160011b915f199060031b1c1916176004555b610180528051906001600160401b0382116107105760055490600182811c92168015610706575b60208310146106f25781601f8493116106a4575b50602090601f831160011461061c575f92610611575b50508160011b915f199060031b1c1916176005555b60408101516101a09080825260608301515103610602575f905f5b81519260ff821693841015610494576060850151805185101561048057602090611fe08460051b1601015190662386f26fc100008210610471578181018091116103d95793806103ed57506101c0525b60ff8091169081146103d957600101610375565b634e487b7160e01b5f52601160045260245ffd5b600181036103ff57506101e0526103c5565b600281036104115750610200526103c5565b600381036104235750610220526103c5565b600481036104355750610240526103c5565b600581036104475750610260526103c5565b600681036104595750610280526103c5565b600714610467575b506103c5565b6102a0525f610461565b63bd39358360e01b5f5260045ffd5b634e487b7160e01b5f52603260045260245ffd5b670de0b6b3a76400009150036105f3576040516139f49182610c278339608051826127fe015260a051826128ca015260c051826127cf015260e0518261284d015261010051826128730152610120518261112801526101405182611152015261016051828181610260015281816104880152818161065f01528181610d7e015281816110ed015281816114a60152818161172b015281816119d001528181612110015261276401526101805182818161059d0152818161094a01528181610a1201528181610c7a0152611277015251816128f201526101c0518181816125ca015261294901526101e0518181816125f7015261297601526102005181818161262401526129af01526102205181818161265101526129e801526102405181818161267e0152612a220152610260518181816126ab0152612a5b0152610280518181816126d80152612a9701526102a0518181816127030152612ad10152f35b631ce788a760e11b5f5260045ffd5b63aaad13f760e01b5f5260045ffd5b015190505f80610345565b60055f90815293507f036b6384b5eca791c62761152d0c79bb0604c104a5fb6f4eb0703f3154bb3db091905b601f1984168510610689576001945083601f19811610610671575b505050811b0160055561035a565b01515f1960f88460031b161c191690555f8080610663565b81810151835560209485019460019093019290910190610648565b90915060055f5260205f20601f840160051c8101602085106106eb575b90849392915b601f830160051c820181106106dd57505061032f565b5f81558594506001016106c7565b50806106c1565b634e487b7160e01b5f52602260045260245ffd5b91607f169161031b565b634e487b7160e01b5f52604160045260245ffd5b015190505f806102df565b60045f5260205f20905f5b601f198416811061077e575060019394959683601f19811610610766575b505050811b016004556102f4565b01515f1960f88460031b161c191690555f8080610758565b9091602060018192858b01518155019301910161073a565b60045f527f8a35acfbc15ff81a39ae7d344fd709f28e8600b4aa8c65c6b64bfe7fe36bd19b601f830160051c8101602084106107ee575b601f830160051c820181106107e35750506102c5565b5f81556001016107cd565b50806107cd565b90607f16906102b3565b015190505f8061027d565b60035f90815293505f51602061461b5f395f51905f5291905b601f1984168510610864576001945083601f1981161061084c575b505050811b01600355610292565b01515f1960f88460031b161c191690555f808061083e565b81810151835560209485019460019093019290910190610823565b60035f529091505f51602061461b5f395f51905f52601f840160051c8101602085106108d0575b90849392915b601f830160051c820181106108c2575050610267565b5f81558594506001016108ac565b50806108a6565b91607f1691610253565b5f80fd5b8151815260209182019101610114565b601f909101601f19168101906001600160401b0382119082101761071057604052565b81601f820112156108e1578051906001600160401b038211610710576040519261094c601f8401601f1916602001856108f5565b828452602083830101116108e157815f9260208093018386015e8301015290565b8051602090818110156109e35750601f8251116109a5578082519201519080831061099757501790565b825f19910360031b1b161790565b60448260405192839163305a27a960e01b83528160048401528051918291826024860152018484015e5f828201840152601f01601f19168101030190fd5b906001600160401b038211610710575f54926001938481811c91168015610ae6575b838210146106f257601f8111610ab3575b5081601f8411600114610a5157509282939183925f94610a46575b50501b915f199060031b1c1916175f5560ff90565b015192505f80610a31565b919083601f1981165f8052845f20945f905b88838310610a995750505010610a81575b505050811b015f5560ff90565b01515f1960f88460031b161c191690555f8080610a74565b858701518855909601959485019487935090810190610a63565b5f805284601f845f20920160051c820191601f860160051c015b828110610adb575050610a16565b5f8155018590610acd565b90607f1690610a05565b805160209081811015610b1a5750601f8251116109a5578082519201519080831061099757501790565b9192916001600160401b0381116107105760019182548381811c91168015610c1c575b828210146106f257601f8111610be9575b5080601f8311600114610b895750819293945f92610b7e575b50505f19600383901b1c191690821b17905560ff90565b015190505f80610b67565b90601f19831695845f52825f20925f905b888210610bd25750508385969710610bba575b505050811b01905560ff90565b01515f1960f88460031b161c191690555f8080610bad565b808785968294968601518155019501930190610b9a565b835f5283601f835f20920160051c820191601f850160051c015b828110610c11575050610b4e565b5f8155018490610c03565b90607f1690610b3d56fe6080604090808252600480361015610015575f80fd5b60e05f35811c92836301ffc9a714611d885750826306fdde0314611cd9578263095ea7b314611c5b57826316a0b3e014611a2257826318160ddd14611a0657826323b872dd1461195e57826323de66511461192c578263273c1adf1461190a57826330adf81f146118d0578263313ce567146118b55782633644e5151461189957826353b79bd7146116dd57826354fd4d50146115ed5782635687f2b81461158e578263627cdcb914611565578263654cf15d14611543578263679aefce1461150c57826370a082311461143857826372c981861461131f5782637ecebe00146112db57826381fa807c1461121a57826384b0196e146111115782638d928af8146110c157826395d89b4114610fbb578263984de9e814610df9578263a9059cbb14610ce6578263aa6ca80814610c21578263abb1dc44146109b8578263b156aa0a146108f1578263b677fa56146108cf578263c0bc6f33146105f6578263ce20ece7146105d6578263d335b0cf14610543578263d505accf146102d857508163dd62ed3e146101e5575063f89f27ed146101ae575f80fd5b346101e1575f6003193601126101e1576101dd906101ca6128f0565b9051918291602083526020830190611f9f565b0390f35b5f80fd5b82346101e157806003193601126101e1576020610200611e14565b606461020a611e37565b9473ffffffffffffffffffffffffffffffffffffffff808097875198899687957f927da10500000000000000000000000000000000000000000000000000000000875230908701521660248501521660448301527f0000000000000000000000000000000000000000000000000000000000000000165afa9081156102cf575f9161029a575b6020925051908152f35b90506020823d6020116102c7575b816102b560209383611ec2565b810103126101e1576020915190610290565b3d91506102a8565b513d5f823e3d90fd5b8390346101e1576003193601126101e1576102f1611e14565b906102fa611e37565b604435926084359060643560ff831683036101e157804211610519576103478273ffffffffffffffffffffffffffffffffffffffff165f52600260205260405f2080549060018201905590565b9061041361040a875195602087017f6e71edae12b1b97f4d1f60370fef10105fa2faae0126114a169c64845d6126c9815273ffffffffffffffffffffffffffffffffffffffff97889586891697888d840152878c1660608401528d608084015260a083015260c082015260c081526103be81611e8a565b5190206103c96127b8565b908a51917f190100000000000000000000000000000000000000000000000000000000000083526002830152602282015260c43591604260a4359220612ed0565b90929192612f5f565b168181036104ec5750505f84959661048460209651988996879586947fe1f21c67000000000000000000000000000000000000000000000000000000008652850160409194939294606082019573ffffffffffffffffffffffffffffffffffffffff80921683521660208201520152565b03927f0000000000000000000000000000000000000000000000000000000000000000165af19081156102cf57506104b857005b6020813d6020116104e4575b816104d160209383611ec2565b810103126101e1576104e290612071565b005b3d91506104c4565b877f4b800e46000000000000000000000000000000000000000000000000000000005f525260245260445ffd5b867f62791302000000000000000000000000000000000000000000000000000000005f525260245ffd5b5082346101e1575f6003193601126101e1578051917fb45090f9000000000000000000000000000000000000000000000000000000008352309083015260208260248173ffffffffffffffffffffffffffffffffffffffff7f0000000000000000000000000000000000000000000000000000000000000000165afa9081156102cf575f9161029a576020925051908152f35b83346101e1575f6003193601126101e157602090516509184e72a0008152f35b9150346101e1575f6003193601126101e157825161061381611e8a565b606081526020918282019160608352858101925f8452606082015f815260808301915f835260a08401935f855260c08101955f875273ffffffffffffffffffffffffffffffffffffffff7f000000000000000000000000000000000000000000000000000000000000000016908b517f535cfd8a00000000000000000000000000000000000000000000000000000000815230828201525f81602481865afa90811561087f575f916108ad575b5083528b517f7e361bde00000000000000000000000000000000000000000000000000000000815230828201525f81602481865afa90811561087f575f91610889575b5084528b517fb45090f900000000000000000000000000000000000000000000000000000000815230828201528a81602481865afa90811561087f575f91610852575b5089526107516120c7565b85528b519182917ff29486a100000000000000000000000000000000000000000000000000000000835230908301528160246101a09485935afa91821561084857928b9c926107e0926107f396955f9e9c9d9e9261081b575b50508a81015115158852610120610100918281015115158b52015115158a5283519d8d8f9e938f948552519301528c0190611f9f565b915190601f198b840301908b0152611f9f565b9551606088015251608087015251151560a086015251151560c0850152511515908301520390f35b61083a9250803d10610841575b6108328183611ec2565b81019061247a565b5f806107aa565b503d610828565b8c513d5f823e3d90fd5b90508a81813d8311610878575b6108698183611ec2565b810103126101e157515f610746565b503d61085f565b8d513d5f823e3d90fd5b6108a591503d805f833e61089d8183611ec2565b810190612285565b90505f610703565b6108c991503d805f833e6108c18183611ec2565b81019061259c565b5f6106c0565b83346101e1575f6003193601126101e157602090516709b6e64a8ec600008152f35b8382346101e1575f6003193601126101e1578151907f535cfd8a00000000000000000000000000000000000000000000000000000000825230908201525f8160248173ffffffffffffffffffffffffffffffffffffffff7f0000000000000000000000000000000000000000000000000000000000000000165afa9081156109ae57916101dd925f92610992575b5051918291602083526020830190611f9f565b6109a79192503d805f833e6108c18183611ec2565b908361097f565b82513d5f823e3d90fd5b8382346101e1575f6003193601126101e15773ffffffffffffffffffffffffffffffffffffffff8251917f67e0e07600000000000000000000000000000000000000000000000000000000835230908301525f82602481847f0000000000000000000000000000000000000000000000000000000000000000165afa918215610c17575f935f925f925f95610aed575b5090610a6595949392918151968796608088526080880190611fd2565b6020878203818901528080875193848152019601925f905b838210610aa957898803868b015289806101dd8b610a9b8c8c611f9f565b908382036060850152611f9f565b9184989950606086979860019395978397518051610ac68161201b565b83528685820151168584015201511515898201520198019201899897969594929391610a7d565b955093509150503d805f853e610b038185611ec2565b8301926080818503126101e15780519167ffffffffffffffff928381116101e15785610b3091840161217d565b91602095868201518581116101e157820181601f820112156101e157805190610b5882611ee5565b98610b6586519a8b611ec2565b828a52808a01816060809502840101928584116101e1578201905b838210610bc5575050505050828201518581116101e15781610ba3918401612224565b9460608301519081116101e157610bba9201612224565b919492919386610a48565b84828703126101e157875190610bda82611e5a565b825160028110156101e157825283830151908c821682036101e1578285928389950152610c088b8601612071565b8b820152815201910190610b80565b83513d5f823e3d90fd5b8382346101e1575f6003193601126101e1578151907fca4f280300000000000000000000000000000000000000000000000000000000825230908201525f8160248173ffffffffffffffffffffffffffffffffffffffff7f0000000000000000000000000000000000000000000000000000000000000000165afa9081156109ae57916101dd925f92610cc2575b5051918291602083526020830190611fd2565b610cdf9192503d805f833e610cd78183611ec2565b8101906121fb565b9083610caf565b5082346101e157806003193601126101e1576020610d6492610d06611e14565b83517fbeabacc80000000000000000000000000000000000000000000000000000000081523392810192835273ffffffffffffffffffffffffffffffffffffffff909116602083015260243560408301529384918291606090910190565b03815f73ffffffffffffffffffffffffffffffffffffffff7f0000000000000000000000000000000000000000000000000000000000000000165af18015610def57610db5575b6020905160018152f35b6020823d602011610de7575b81610dce60209383611ec2565b810103126101e157610de1602092612071565b50610dab565b3d9150610dc1565b50513d5f823e3d90fd5b5082346101e157806003193601126101e157813567ffffffffffffffff81116101e157610e299036908401611efd565b60243560028110156101e157610e3e8161201b565b610fb457825b610e4c6128f0565b9080600314610f5f5780600414610ed85780600114610e9557600214610e7f57605184634e487b7160e01b5f525260245ffd5b6020935090610e8d9161300a565b905b51908152f35b509092670de0b6b3a764000091828102928184041490151715610ec55750602092610ebf91612b7c565b90610e8f565b601190634e487b7160e01b5f525260245ffd5b50925f9190670de0b6b3a76400005b8551841015610f2357610f1b600191610f15610f0387876120b3565b51610f0e888b6120b3565b5190612b9a565b90612c25565b930192610ee7565b92509350508015610f38576020925090610e8f565b827f26543689000000000000000000000000000000000000000000000000000000005f525ffd5b50925f9190670de0b6b3a76400005b8551841015610f2357670de0b6b3a7640000610fab600192610fa5610f9388886120b3565b51610f9e898c6120b3565b5190612e37565b90612b69565b04930192610f6e565b6003610e44565b8382346101e1575f6003193601126101e157815191825f8354610fdd81612039565b90818452602095600191876001821691825f1461107c575050600114611020575b5050506101dd9291611011910385611ec2565b51928284938452830190611def565b5f90815286935091907f8a35acfbc15ff81a39ae7d344fd709f28e8600b4aa8c65c6b64bfe7fe36bd19b5b82841061106457505050820101816110116101dd610ffe565b8054848a01860152889550879490930192810161104b565b7fffffffffffffffffffffffffffffffffffffffffffffffffffffffffffffff00168782015293151560051b8601909301935084925061101191506101dd9050610ffe565b83346101e1575f6003193601126101e1576020905173ffffffffffffffffffffffffffffffffffffffff7f0000000000000000000000000000000000000000000000000000000000000000168152f35b9150346101e1575f6003193601126101e15761114c7f0000000000000000000000000000000000000000000000000000000000000000612c47565b926111767f0000000000000000000000000000000000000000000000000000000000000000612d79565b815192602084019084821067ffffffffffffffff8311176112075750916111e7916101dd949382525f84526111da82519788977f0f0000000000000000000000000000000000000000000000000000000000000089528060208a0152880190611def565b9186830390870152611def565b904660608501523060808501525f60a085015283820360c0850152611f9f565b604190634e487b7160e01b5f525260245ffd5b8382346101e1575f6003193601126101e1578151907ff29486a100000000000000000000000000000000000000000000000000000000825230908201526101a090818160248173ffffffffffffffffffffffffffffffffffffffff7f0000000000000000000000000000000000000000000000000000000000000000165afa918215610c17575f926112be575b505060608282015191015182519182526020820152f35b6112d49250803d10610841576108328183611ec2565b82806112a7565b83346101e15760206003193601126101e15760209073ffffffffffffffffffffffffffffffffffffffff61130d611e14565b165f5260028252805f20549051908152f35b8382346101e15760209260031984813601126101e15782359167ffffffffffffffff918284116101e15783360301126101e15783519161135e83611e8a565b8084013560028110156101e157835260248101358684015260448101358281116101e15761139190853691840101611efd565b85840152606481013560608401526084810135608084015260a481013573ffffffffffffffffffffffffffffffffffffffff811681036101e15760a084015260c4810135908282116101e1570192366023850112156101e15780840135918211611207575083519061140c86601f19601f8401160183611ec2565b80825236602482860101116101e15785815f926024610e8d9701838601378301015260c08201526122c9565b8382346101e157602091826003193601126101e15782611456611e14565b604473ffffffffffffffffffffffffffffffffffffffff9485855196879485937ff7888aec00000000000000000000000000000000000000000000000000000000855230908501521660248301527f0000000000000000000000000000000000000000000000000000000000000000165afa918215610def575f926114dd575b5051908152f35b9091508281813d8311611505575b6114f58183611ec2565b810103126101e1575190836114d6565b503d6114eb565b50346101e1575f6003193601126101e1577f18e79a20000000000000000000000000000000000000000000000000000000005f525ffd5b83346101e1575f6003193601126101e1576020905167016345785d8a00008152f35b346101e1575f6003193601126101e157335f908152600260205260409020805460018101909155005b83346101e15760207f8c5be1e5ebec7d5bd14f71427d1e84f3dd0314c0f7b2291e5b200ac8c7c3b9256115c036611f5d565b9391946115cb61274d565b5193845273ffffffffffffffffffffffffffffffffffffffff908116941692a3005b83346101e1575f6003193601126101e15780516005549091825f61161084612039565b808352602094600190866001821691825f1461169d575050600114611642575b50506101dd9291611011910385611ec2565b9085925060055f527f036b6384b5eca791c62761152d0c79bb0604c104a5fb6f4eb0703f3154bb3db0915f925b8284106116855750505082010181611011611630565b8054848a01860152889550879490930192810161166f565b7fffffffffffffffffffffffffffffffffffffffffffffffffffffffffffffff00168682015292151560051b850190920192508391506110119050611630565b5082346101e1575f6003193601126101e1578051906116fb82611e5a565b606082526020908183019160608352818401926060845273ffffffffffffffffffffffffffffffffffffffff95867f0000000000000000000000000000000000000000000000000000000000000000169084517fca4f280300000000000000000000000000000000000000000000000000000000815230828201525f81602481865afa90811561188f57905f92918391611875575b50885260248651809481937f7e361bde00000000000000000000000000000000000000000000000000000000835230908301525afa90811561186b575f91611852575b5081959295526117e16128f0565b84528251948086526080860192519260608288015283518091528160a088019401915f5b82811061183c5788806101dd8a8a61182b8b8b51601f1993848884030190880152611f9f565b915190848303016060850152611f9f565b83518a1686529481019492810192600101611805565b61186691503d805f833e61089d8183611ec2565b6117d3565b84513d5f823e3d90fd5b61188991503d8085833e610cd78183611ec2565b8a611790565b86513d5f823e3d90fd5b83346101e1575f6003193601126101e157602090610e8d6127b8565b83346101e1575f6003193601126101e1576020905160128152f35b83346101e1575f6003193601126101e157602090517f6e71edae12b1b97f4d1f60370fef10105fa2faae0126114a169c64845d6126c98152f35b83346101e1575f6003193601126101e157602090516729a2241af62c00008152f35b83346101e15760207fddf252ad1be2c89b69c2b068fc378daa952ba7f163c4a11628f55a4df523b3ef6115c036611f5d565b5082346101e15760205f608461197336611f5d565b86517f15dacbea000000000000000000000000000000000000000000000000000000008152339881019890985273ffffffffffffffffffffffffffffffffffffffff928316602489015290821660448801526064870152859283917f0000000000000000000000000000000000000000000000000000000000000000165af18015610def57610db5576020905160018152f35b83346101e1575f6003193601126101e157602090610e8d6120c7565b8382346101e15760606003193601126101e157803567ffffffffffffffff81116101e157611a539036908301611efd565b9160243592611a6f611a6885604435936120b3565b51946125c2565b60019081831115611c555760025b80600314611bdf5780600414611b465780600114611b0457600214611aaf57605185634e487b7160e01b5f525260245ffd5b909192938115611ade5750610e8d9260209592610f15926ec097ce7bc90715b34b9f0fffffffff040190612b9a565b7f0a0c22c7000000000000000000000000000000000000000000000000000000005f525ffd5b5080929394915015611b33575092610f15610e8d926020956ec097ce7bc90715b34b9f10000000000490612b9a565b601290634e487b7160e01b5f525260245ffd5b509192939080670de0b6b3a7640000935f925b611b9f575b5050508115611b79575092610f15610e8d9260209590612b9a565b7f26543689000000000000000000000000000000000000000000000000000000005f525ffd5b909193670de0b6b3a764000051851015611bd9579082611bd18193610f15611bc789866120b3565b51610f0e8a61207e565b950192611b59565b93611b5e565b509192939080670de0b6b3a7640000935f925b611c11575050508115611b79575092610f15610e8d9260209590612b9a565b909193670de0b6b3a764000051851015611bd9579082670de0b6b3a7640000611c4c8294610fa5611c428a876120b3565b51610f9e8b61207e565b04950192611bf2565b81611a7d565b5082346101e157806003193601126101e1576020610d6492611c7b611e14565b83517fe1f21c670000000000000000000000000000000000000000000000000000000081523392810192835273ffffffffffffffffffffffffffffffffffffffff909116602083015260243560408301529384918291606090910190565b83346101e1575f6003193601126101e15780516003549091825f611cfc84612039565b808352602094600190866001821691825f1461169d575050600114611d2d5750506101dd9291611011910385611ec2565b9085925060035f527fc2575a0e9e593c00f959f8c92f12db2869c3395a3b0502d05e2516446f71f85b915f925b828410611d705750505082010181611011611630565b8054848a018601528895508794909301928101611d5a565b82346101e15760206003193601126101e15735907fffffffff0000000000000000000000000000000000000000000000000000000082168092036101e1577f01ffc9a700000000000000000000000000000000000000000000000000000000602092148152f35b90601f19601f602080948051918291828752018686015e5f8582860101520116010190565b6004359073ffffffffffffffffffffffffffffffffffffffff821682036101e157565b6024359073ffffffffffffffffffffffffffffffffffffffff821682036101e157565b6060810190811067ffffffffffffffff821117611e7657604052565b634e487b7160e01b5f52604160045260245ffd5b60e0810190811067ffffffffffffffff821117611e7657604052565b6040810190811067ffffffffffffffff821117611e7657604052565b90601f601f19910116810190811067ffffffffffffffff821117611e7657604052565b67ffffffffffffffff8111611e765760051b60200190565b9080601f830112156101e1576020908235611f1781611ee5565b93611f256040519586611ec2565b81855260208086019260051b8201019283116101e157602001905b828210611f4e575050505090565b81358152908301908301611f40565b60031960609101126101e15773ffffffffffffffffffffffffffffffffffffffff9060043582811681036101e1579160243590811681036101e1579060443590565b9081518082526020808093019301915f5b828110611fbe575050505090565b835185529381019392810192600101611fb0565b9081518082526020808093019301915f5b828110611ff1575050505090565b835173ffffffffffffffffffffffffffffffffffffffff1685529381019392810192600101611fe3565b6002111561202557565b634e487b7160e01b5f52602160045260245ffd5b90600182811c92168015612067575b602083101461205357565b634e487b7160e01b5f52602260045260245ffd5b91607f1691612048565b519081151582036101e157565b670de0b6b3a76400005181101561209f5760051b670de0b6b3a76400200190565b634e487b7160e01b5f52603260045260245ffd5b805182101561209f5760209160051b010190565b6040517fe4dc2aa400000000000000000000000000000000000000000000000000000000815230600482015260208160248173ffffffffffffffffffffffffffffffffffffffff7f0000000000000000000000000000000000000000000000000000000000000000165afa908115612172575f91612143575090565b90506020813d60201161216a575b8161215e60209383611ec2565b810103126101e1575190565b3d9150612151565b6040513d5f823e3d90fd5b9080601f830112156101e15781519060209161219881611ee5565b936121a66040519586611ec2565b81855260208086019260051b8201019283116101e157602001905b8282106121cf575050505090565b815173ffffffffffffffffffffffffffffffffffffffff811681036101e15781529083019083016121c1565b906020828203126101e157815167ffffffffffffffff81116101e157612221920161217d565b90565b9080601f830112156101e15781519060209161223f81611ee5565b9361224d6040519586611ec2565b81855260208086019260051b8201019283116101e157602001905b828210612276575050505090565b81518152908301908301612268565b9190916040818403126101e15780519267ffffffffffffffff938481116101e157816122b2918401612224565b9360208301519081116101e1576122219201612224565b604081019081516122e060608301918251906120b3565b519251916122f460808201938451906120b3565b519181516123018161201b565b61230a8161201b565b6123c95761232461231d602092516125c2565b94516125c2565b910151670de0b6b3a7640000948561233b82612b35565b0482116123a15761234f6123559282612b28565b9061300a565b8484029380850486149015171561238d5761237661237c9261238995612b7c565b90612b9a565b8381810391100290612b69565b0490565b634e487b7160e01b5f52601160045260245ffd5b7f340a4533000000000000000000000000000000000000000000000000000000005f5260045ffd5b6123e36123dc60209295939495516125c2565b92516125c2565b920151670de0b6b3a76400006123f885612b35565b0481116124525783039083821161238d576124196123769261241f9561300a565b9261300a565b7ffffffffffffffffffffffffffffffffffffffffffffffffff21f494c589c0000810190811161238d5761222191612c25565b7f64590b9f000000000000000000000000000000000000000000000000000000005f5260045ffd5b6101a0918190038281126101e15760405192610140928385019267ffffffffffffffff9086851082861117611e76576080136101e1576101c0860190811184821017611e76576040526124cc81612071565b83526124da60208201612071565b9261016093848701526124ef60408301612071565b92610180938488015261250460608401612071565b9087015285526080810151602086015260a0810151604086015260c0810151606086015260e081015164ffffffffff811681036101e15760808601526101008082015163ffffffff811681036101e1576125959461258b9160a089015261257f61012097612573898701612071565b60c08b01528501612071565b60e08901528301612071565b9086015201612071565b9082015290565b906020828203126101e157815167ffffffffffffffff81116101e1576122219201612224565b806125ec57507f000000000000000000000000000000000000000000000000000000000000000090565b6001810361261957507f000000000000000000000000000000000000000000000000000000000000000090565b6002810361264657507f000000000000000000000000000000000000000000000000000000000000000090565b6003810361267357507f000000000000000000000000000000000000000000000000000000000000000090565b600481036126a057507f000000000000000000000000000000000000000000000000000000000000000090565b600581036126cd57507f000000000000000000000000000000000000000000000000000000000000000090565b600681036126fa57507f000000000000000000000000000000000000000000000000000000000000000090565b600703612725577f000000000000000000000000000000000000000000000000000000000000000090565b7fc1ab6dc1000000000000000000000000000000000000000000000000000000005f5260045ffd5b73ffffffffffffffffffffffffffffffffffffffff7f000000000000000000000000000000000000000000000000000000000000000016330361278c57565b7f089676d5000000000000000000000000000000000000000000000000000000005f523360045260245ffd5b73ffffffffffffffffffffffffffffffffffffffff7f0000000000000000000000000000000000000000000000000000000000000000163014806128c7575b15612820577f000000000000000000000000000000000000000000000000000000000000000090565b60405160208101907f8b73c3c69bb8fe3d512ecc4cf759cc79239f7b179b0ffacaa9a75d522b39400f82527f000000000000000000000000000000000000000000000000000000000000000060408201527f000000000000000000000000000000000000000000000000000000000000000060608201524660808201523060a082015260a0815260c0810181811067ffffffffffffffff821117611e765760405251902090565b507f000000000000000000000000000000000000000000000000000000000000000046146127f7565b7f000000000000000000000000000000000000000000000000000000000000000061291a81611ee5565b906129286040519283611ec2565b80825261293481611ee5565b601f1960208401910136823782511561209f577f0000000000000000000000000000000000000000000000000000000000000000905281516001101561209f577f000000000000000000000000000000000000000000000000000000000000000060408301526002811115612b245781516002101561209f577f000000000000000000000000000000000000000000000000000000000000000060608301526003811115612b245781516003101561209f577f0000000000000000000000000000000000000000000000000000000000000000608083015260049081811115612b1f578251821015612b0c577f000000000000000000000000000000000000000000000000000000000000000060a08401526005811115612b1f57825160051015612b0c577f000000000000000000000000000000000000000000000000000000000000000060c08401526006811115612b1f57825160061015612b0c576007907f000000000000000000000000000000000000000000000000000000000000000060e085015211612ac4575090565b815160071015612af957507f000000000000000000000000000000000000000000000000000000000000000061010082015290565b603290634e487b7160e01b5f525260245ffd5b603282634e487b7160e01b5f525260245ffd5b505090565b5090565b9190820180921161238d57565b90670429d069189e00009182810292818404149015171561238d57565b906127109182810292818404149015171561238d57565b8181029291811591840414171561238d57565b8115612b86570490565b634e487b7160e01b5f52601260045260245ffd5b90670de0b6b3a764000090818103612bb157505090565b671bc16d674ec800008103612bcc5750508061222191612c25565b673782dace9d9000008103612bf0575050612bea8161222192612c25565b80612c25565b612bfa9192613087565b906001612c0683612b52565b915f1983010401901515026001810180911161238d5761222191612b28565b90612c2f91612b69565b6001670de0b6b3a76400005f19830104019015150290565b60ff8114612c9b5760ff811690601f8211612c735760405191612c6983611ea6565b8252602082015290565b7fb3512b0c000000000000000000000000000000000000000000000000000000005f5260045ffd5b506040515f815f5491612cad83612039565b80835292602090600190818116908115612d365750600114612cd8575b505061222192500382611ec2565b9150925f80527f290decd9548b62a8d60345a988386fc84ba6bc95484008f6362f93160ef3e563935f925b828410612d1e57506122219450505081016020015f80612cca565b85548785018301529485019486945092810192612d03565b9050602093506122219592507fffffffffffffffffffffffffffffffffffffffffffffffffffffffffffffff0091501682840152151560051b8201015f80612cca565b60ff8114612d9b5760ff811690601f8211612c735760405191612c6983611ea6565b506040515f81600191600154612db081612039565b8084529360209160018116908115612d365750600114612dd857505061222192500382611ec2565b91509260015f527fb10e2d527612073b26eecdfd717e6a320cf44b4afac2b0732d9fcbe2b7fa0cf6935f925b828410612e1f57506122219450505081016020015f80612cca565b85548785018301529485019486945092810192612e04565b670de0b6b3a764000091808303612e4e5750905090565b8290671bc16d674ec800008103612e6b5750508061238991612b69565b673782dace9d9000008103612e8f5750612e888261238993612b69565b0480612b69565b9050612e9a91613087565b612ea381612b52565b60015f1993848301040190151502906001820180831161238d57811015612ecb575050505f90565b030190565b91907f7fffffffffffffffffffffffffffffff5d576e7357a4501ddfe92f46681b20a08411612f54579160209360809260ff5f9560405194855216868401526040830152606082015282805260015afa15612172575f5173ffffffffffffffffffffffffffffffffffffffff811615612f4a57905f905f90565b505f906001905f90565b5050505f9160039190565b60048110156120255780612f71575050565b60018103612fa1577ff645eedf000000000000000000000000000000000000000000000000000000005f5260045ffd5b60028103612fd557507ffce698f7000000000000000000000000000000000000000000000000000000005f5260045260245ffd5b600314612fdf5750565b7fd78bce0c000000000000000000000000000000000000000000000000000000005f5260045260245ffd5b90801561303b57670de0b6b3a76400009182810292818404149015171561238d576001905f19830104019015150290565b7f0a0c22c7000000000000000000000000000000000000000000000000000000005f5260045ffd5b8015612b86576ec097ce7bc90715b34b9f10000000000590565b8115612b86570590565b9080156139b05781156139aa578160ff1c61398257770bce5086492111aea88f4bb1ca6bcf584181ea8059f7653281101561395a5781670c7d713b49da00001280613949575b156135e657670de0b6b3a7640000916ec097ce7bc90715b34b9f100000000090613120908402828101907fffffffffffffffffffffffffffffffffff3f68318436f8ea4cb460f00000000001830261307d565b9080828002059181838202058284820205838582020591848684020593858786020595808888020597880205600f900596600d900595600b900594600990059360079005926005900591600390050101010101010160011b918082818507020592050201670de0b6b3a7640000905b057ffffffffffffffffffffffffffffffffffffffffffffffffdc702bd3a30fc000081811315806135d3575b156135ab57819082121580613598575b15613570575f915f8112613561575b506064906806f05b59d3b200000081126134fe577ffffffffffffffffffffffffffffffffffffffffffffffff90fa4a62c4e0000000168056bc75e2d6310000082770195e54c5dd42177f53a27172fa9ec630262827000000000925b02819068ad78ebc5ac620000008112156134c5575b6856bc75e2d63100000081121561348b575b682b5e3af16b18800000811215613453575b6815af1d78b58c40000081121561341b575b680ad78ebc5ac62000008112156133e4575b828112156133ad575b6802b5e3af16b1880000811215613376575b68015af1d78b58c4000081121561333f575b60028382800205056003848383020505600485848302050585600581868402050560068287830205056007838883020505906008848984020505926009858a8602050595600a868b8902050597600b878c8b02050599600c888d8d0205059b01010101010101010101010102050205905f146122215761222190613063565b6806f5f17757889379377ffffffffffffffffffffffffffffffffffffffffffffffffea50e2874a73c0000849201920205906132c0565b6808f00f760a4b2db55d7ffffffffffffffffffffffffffffffffffffffffffffffffd4a1c50e94e780000849201920205906132ae565b680ebc5fb417461211107ffffffffffffffffffffffffffffffffffffffffffffffffa9438a1d29cf000008492019202059061329c565b68280e60114edb805d037ffffffffffffffffffffffffffffffffffffffffffffffff5287143a539e0000084920192020590613293565b690127fa27722cc06cc5e27fffffffffffffffffffffffffffffffffffffffffffffffea50e2874a73c0000084920192020590613281565b693f1fce3da636ea5cf8507fffffffffffffffffffffffffffffffffffffffffffffffd4a1c50e94e78000008492019202059061326f565b6b02df0ab5a80a22c61ab5a7007fffffffffffffffffffffffffffffffffffffffffffffffa9438a1d29cf0000008492019202059061325d565b6e01855144814a7ff805980ff008400091507fffffffffffffffffffffffffffffffffffffffffffffff5287143a539e0000000161324b565b6803782dace9d9000000811261354e577ffffffffffffffffffffffffffffffffffffffffffffffffc87d25316270000000168056bc75e2d63100000826b1425982cf597cd205cef738092613236565b68056bc75e2d6310000082600192613236565b600192505f03905060646131da565b7fd4794efd000000000000000000000000000000000000000000000000000000005f5260045ffd5b5068070c1cc73b00c800008213156131cb565b7fa2f9f7e3000000000000000000000000000000000000000000000000000000005f5260045ffd5b5068070c1cc73b00c800008213156131bb565b81670de0b6b3a7640000925f91848112613933575b506064905f7e1600ef3172e58d2e933ec884fde10064c63b5372d805e203c0000000000000821215613908575b73011798004d755d3c8bc8e03204cf44619e0000008212156138e7575b820290808302906e01855144814a7ff805980ff008400090818312156138c4575b50506b02df0ab5a80a22c61ab5a700808212156138a4575b50693f1fce3da636ea5cf85080821215613884575b50690127fa27722cc06cc5e280821215613864575b5068280e60114edb805d0380821215613844575b50680ebc5fb417461211108082121561382d575b506808f00f760a4b2db55d8082121561380d575b506806f5f1775788937937808212156137ed575b506806248f33704b286603808212156137ce575b506805c548670b9510e7ac808212156137af575b5061375c68056bc75e2d6310000091827ffffffffffffffffffffffffffffffffffffffffffffffffa9438a1d29cf0000081830192010261307d565b9080828002059181838202058284820205916003600560076009600b888a89020598808b8b02059a8b0205059805960594059205010101010160011b0105905f146137aa575f035b0261318f565b6137a4565b68056bc75e2d631000006756bc75e2d63100009202059101905f613720565b68056bc75e2d6310000067ad78ebc5ac6200009202059101905f61370c565b68056bc75e2d6310000068015af1d78b58c400009202059101905f6136f8565b68056bc75e2d631000006802b5e3af16b18800009202059101905f6136e4565b68056bc75e2d63100000809202059101905f6136d0565b68056bc75e2d63100000680ad78ebc5ac62000009202059101905f6136bc565b68056bc75e2d631000006815af1d78b58c4000009202059101905f6136a8565b68056bc75e2d63100000682b5e3af16b188000009202059101905f613693565b68056bc75e2d631000006856bc75e2d6310000009202059101905f61367e565b68ad78ebc5ac62000000925069021e19e0c9bab240000002059101905f80613666565b906b1425982cf597cd205cef73806803782dace9d900000091059101613645565b50770195e54c5dd42177f53a27172fa9ec63026282700000000090056806f05b59d3b2000000613628565b905061393f9150613063565b60019060646135fb565b50670f43fc2c04ee000082126130cd565b7fd8317311000000000000000000000000000000000000000000000000000000005f5260045ffd5b7f022701e0000000000000000000000000000000000000000000000000000000005f5260045ffd5b50505f90565b5050670de0b6b3a76400009056fea2646970667358221220de15b93277e2d83b7b990e236ef23424cf8077d6195855b453f7fc8d2f94548964736f6c634300081b0033c2575a0e9e593c00f959f8c92f12db2869c3395a3b0502d05e2516446f71f85b",
  "linkReferences": {},
  "deployedLinkReferences": {}
}