{
  "_format": "hh-sol-artifact-1",
  "contractName": "AggregatorBatchRouter",
  "sourceName": "contracts/AggregatorBatchRouter.sol",
  "abi": [
    {
      "inputs": [
        {
          "internalType": "contract IVault",
          "name": "vault",
          "type": "address"
        },
        {
          "internalType": "contract IWETH",
          "name": "weth",
          "type": "address"
        },
        {
          "internalType": "string",
          "name": "routerVersion",
          "type": "string"
        }
      ],
      "stateMutability": "nonpayable",
      "type": "constructor"
    },
    {
      "inputs": [],
      "name": "EthTransfer",
      "type": "error"
    },
    {
      "inputs": [],
      "name": "FailedCall",
      "type": "error"
    },
    {
      "inputs": [
        {
          "internalType": "uint256",
          "name": "balance",
          "type": "uint256"
        },
        {
          "internalType": "uint256",
          "name": "needed",
          "type": "uint256"
        }
      ],
      "name": "InsufficientBalance",
      "type": "error"
    },
    {
      "inputs": [],
      "name": "InsufficientEth",
      "type": "error"
    },
    {
      "inputs": [
        {
          "internalType": "address",
          "name": "token",
          "type": "address"
        },
        {
          "internalType": "uint256",
          "name": "senderCredits",
          "type": "uint256"
        },
        {
          "internalType": "uint256",
          "name": "senderDebits",
          "type": "uint256"
        }
      ],
      "name": "InsufficientFunds",
      "type": "error"
    },
    {
      "inputs": [],
      "name": "OperationNotSupported",
      "type": "error"
    },
    {
      "inputs": [],
      "name": "ReentrancyGuardReentrantCall",
      "type": "error"
    },
    {
      "inputs": [
        {
          "internalType": "uint8",
          "name": "bits",
          "type": "uint8"
        },
        {
          "internalType": "uint256",
          "name": "value",
          "type": "uint256"
        }
      ],
      "name": "SafeCastOverflowedUintDowncast",
      "type": "error"
    },
    {
      "inputs": [
        {
          "internalType": "address",
          "name": "token",
          "type": "address"
        }
      ],
      "name": "SafeERC20FailedOperation",
      "type": "error"
    },
    {
      "inputs": [
        {
          "internalType": "address",
          "name": "sender",
          "type": "address"
        }
      ],
      "name": "SenderIsNotVault",
      "type": "error"
    },
    {
      "inputs": [],
      "name": "SwapDeadline",
      "type": "error"
    },
    {
      "inputs": [],
      "name": "TransientIndexOutOfBounds",
      "type": "error"
    },
    {
      "inputs": [],
      "name": "getPermit2",
      "outputs": [
        {
          "internalType": "contract IPermit2",
          "name": "",
          "type": "address"
        }
      ],
      "stateMutability": "view",
      "type": "function"
    },
    {
      "inputs": [],
      "name": "getSender",
      "outputs": [
        {
          "internalType": "address",
          "name": "",
          "type": "address"
        }
      ],
      "stateMutability": "view",
      "type": "function"
    },
    {
      "inputs": [],
      "name": "getVault",
      "outputs": [
        {
          "internalType": "contract IVault",
          "name": "",
          "type": "address"
        }
      ],
      "stateMutability": "view",
      "type": "function"
    },
    {
      "inputs": [],
      "name": "getWeth",
      "outputs": [
        {
          "internalType": "contract IWETH",
          "name": "",
          "type": "address"
        }
      ],
      "stateMutability": "view",
      "type": "function"
    },
    {
      "inputs": [
        {
          "internalType": "bytes[]",
          "name": "",
          "type": "bytes[]"
        }
      ],
      "name": "multicall",
      "outputs": [
        {
          "internalType": "bytes[]",
          "name": "",
          "type": "bytes[]"
        }
      ],
      "stateMutability": "payable",
      "type": "function"
    },
    {
      "inputs": [
        {
          "components": [
            {
              "internalType": "address",
              "name": "token",
              "type": "address"
            },
            {
              "internalType": "address",
              "name": "owner",
              "type": "address"
            },
            {
              "internalType": "address",
              "name": "spender",
              "type": "address"
            },
            {
              "internalType": "uint256",
              "name": "amount",
              "type": "uint256"
            },
            {
              "internalType": "uint256",
              "name": "nonce",
              "type": "uint256"
            },
            {
              "internalType": "uint256",
              "name": "deadline",
              "type": "uint256"
            }
          ],
          "internalType": "struct IRouterCommon.PermitApproval[]",
          "name": "",
          "type": "tuple[]"
        },
        {
          "internalType": "bytes[]",
          "name": "",
          "type": "bytes[]"
        },
        {
          "components": [
            {
              "components": [
                {
                  "internalType": "address",
                  "name": "token",
                  "type": "address"
                },
                {
                  "internalType": "uint160",
                  "name": "amount",
                  "type": "uint160"
                },
                {
                  "internalType": "uint48",
                  "name": "expiration",
                  "type": "uint48"
                },
                {
                  "internalType": "uint48",
                  "name": "nonce",
                  "type": "uint48"
                }
              ],
              "internalType": "struct IAllowanceTransfer.PermitDetails[]",
              "name": "details",
              "type": "tuple[]"
            },
            {
              "internalType": "address",
              "name": "spender",
              "type": "address"
            },
            {
              "internalType": "uint256",
              "name": "sigDeadline",
              "type": "uint256"
            }
          ],
          "internalType": "struct IAllowanceTransfer.PermitBatch",
          "name": "",
          "type": "tuple"
        },
        {
          "internalType": "bytes",
          "name": "",
          "type": "bytes"
        },
        {
          "internalType": "bytes[]",
          "name": "",
          "type": "bytes[]"
        }
      ],
      "name": "permitBatchAndCall",
      "outputs": [
        {
          "internalType": "bytes[]",
          "name": "",
          "type": "bytes[]"
        }
      ],
      "stateMutability": "payable",
      "type": "function"
    },
    {
      "inputs": [
        {
          "components": [
            {
              "internalType": "contract IERC20",
              "name": "tokenIn",
              "type": "address"
            },
            {
              "components": [
                {
                  "internalType": "address",
                  "name": "pool",
                  "type": "address"
                },
                {
                  "internalType": "contract IERC20",
                  "name": "tokenOut",
                  "type": "address"
                },
                {
                  "internalType": "bool",
                  "name": "isBuffer",
                  "type": "bool"
                }
              ],
              "internalType": "struct IBatchRouter.SwapPathStep[]",
              "name": "steps",
              "type": "tuple[]"
            },
            {
              "internalType": "uint256",
              "name": "exactAmountIn",
              "type": "uint256"
            },
            {
              "internalType": "uint256",
              "name": "minAmountOut",
              "type": "uint256"
            }
          ],
          "internalType": "struct IBatchRouter.SwapPathExactAmountIn[]",
          "name": "paths",
          "type": "tuple[]"
        },
        {
          "internalType": "address",
          "name": "sender",
          "type": "address"
        },
        {
          "internalType": "bytes",
          "name": "userData",
          "type": "bytes"
        }
      ],
      "name": "querySwapExactIn",
      "outputs": [
        {
          "internalType": "uint256[]",
          "name": "pathAmountsOut",
          "type": "uint256[]"
        },
        {
          "internalType": "address[]",
          "name": "tokensOut",
          "type": "address[]"
        },
        {
          "internalType": "uint256[]",
          "name": "amountsOut",
          "type": "uint256[]"
        }
      ],
      "stateMutability": "nonpayable",
      "type": "function"
    },
    {
      "inputs": [
        {
          "components": [
            {
              "internalType": "address",
              "name": "sender",
              "type": "address"
            },
            {
              "components": [
                {
                  "internalType": "contract IERC20",
                  "name": "tokenIn",
                  "type": "address"
                },
                {
                  "components": [
                    {
                      "internalType": "address",
                      "name": "pool",
                      "type": "address"
                    },
                    {
                      "internalType": "contract IERC20",
                      "name": "tokenOut",
                      "type": "address"
                    },
                    {
                      "internalType": "bool",
                      "name": "isBuffer",
                      "type": "bool"
                    }
                  ],
                  "internalType": "struct IBatchRouter.SwapPathStep[]",
                  "name": "steps",
                  "type": "tuple[]"
                },
                {
                  "internalType": "uint256",
                  "name": "exactAmountIn",
                  "type": "uint256"
                },
                {
                  "internalType": "uint256",
                  "name": "minAmountOut",
                  "type": "uint256"
                }
              ],
              "internalType": "struct IBatchRouter.SwapPathExactAmountIn[]",
              "name": "paths",
              "type": "tuple[]"
            },
            {
              "internalType": "uint256",
              "name": "deadline",
              "type": "uint256"
            },
            {
              "internalType": "bool",
              "name": "wethIsEth",
              "type": "bool"
            },
            {
              "internalType": "bytes",
              "name": "userData",
              "type": "bytes"
            }
          ],
          "internalType": "struct IBatchRouter.SwapExactInHookParams",
          "name": "params",
          "type": "tuple"
        }
      ],
      "name": "querySwapExactInHook",
      "outputs": [
        {
          "internalType": "uint256[]",
          "name": "pathAmountsOut",
          "type": "uint256[]"
        },
        {
          "internalType": "address[]",
          "name": "tokensOut",
          "type": "address[]"
        },
        {
          "internalType": "uint256[]",
          "name": "amountsOut",
          "type": "uint256[]"
        }
      ],
      "stateMutability": "nonpayable",
      "type": "function"
    },
    {
      "inputs": [
        {
          "components": [
            {
              "internalType": "contract IERC20",
              "name": "tokenIn",
              "type": "address"
            },
            {
              "components": [
                {
                  "internalType": "address",
                  "name": "pool",
                  "type": "address"
                },
                {
                  "internalType": "contract IERC20",
                  "name": "tokenOut",
                  "type": "address"
                },
                {
                  "internalType": "bool",
                  "name": "isBuffer",
                  "type": "bool"
                }
              ],
              "internalType": "struct IBatchRouter.SwapPathStep[]",
              "name": "steps",
              "type": "tuple[]"
            },
            {
              "internalType": "uint256",
              "name": "maxAmountIn",
              "type": "uint256"
            },
            {
              "internalType": "uint256",
              "name": "exactAmountOut",
              "type": "uint256"
            }
          ],
          "internalType": "struct IBatchRouter.SwapPathExactAmountOut[]",
          "name": "paths",
          "type": "tuple[]"
        },
        {
          "internalType": "address",
          "name": "sender",
          "type": "address"
        },
        {
          "internalType": "bytes",
          "name": "userData",
          "type": "bytes"
        }
      ],
      "name": "querySwapExactOut",
      "outputs": [
        {
          "internalType": "uint256[]",
          "name": "pathAmountsIn",
          "type": "uint256[]"
        },
        {
          "internalType": "address[]",
          "name": "tokensIn",
          "type": "address[]"
        },
        {
          "internalType": "uint256[]",
          "name": "amountsIn",
          "type": "uint256[]"
        }
      ],
      "stateMutability": "nonpayable",
      "type": "function"
    },
    {
      "inputs": [
        {
          "components": [
            {
              "internalType": "address",
              "name": "sender",
              "type": "address"
            },
            {
              "components": [
                {
                  "internalType": "contract IERC20",
                  "name": "tokenIn",
                  "type": "address"
                },
                {
                  "components": [
                    {
                      "internalType": "address",
                      "name": "pool",
                      "type": "address"
                    },
                    {
                      "internalType": "contract IERC20",
                      "name": "tokenOut",
                      "type": "address"
                    },
                    {
                      "internalType": "bool",
                      "name": "isBuffer",
                      "type": "bool"
                    }
                  ],
                  "internalType": "struct IBatchRouter.SwapPathStep[]",
                  "name": "steps",
                  "type": "tuple[]"
                },
                {
                  "internalType": "uint256",
                  "name": "maxAmountIn",
                  "type": "uint256"
                },
                {
                  "internalType": "uint256",
                  "name": "exactAmountOut",
                  "type": "uint256"
                }
              ],
              "internalType": "struct IBatchRouter.SwapPathExactAmountOut[]",
              "name": "paths",
              "type": "tuple[]"
            },
            {
              "internalType": "uint256",
              "name": "deadline",
              "type": "uint256"
            },
            {
              "internalType": "bool",
              "name": "wethIsEth",
              "type": "bool"
            },
            {
              "internalType": "bytes",
              "name": "userData",
              "type": "bytes"
            }
          ],
          "internalType": "struct IBatchRouter.SwapExactOutHookParams",
          "name": "params",
          "type": "tuple"
        }
      ],
      "name": "querySwapExactOutHook",
      "outputs": [
        {
          "internalType": "uint256[]",
          "name": "pathAmountsIn",
          "type": "uint256[]"
        },
        {
          "internalType": "address[]",
          "name": "tokensIn",
          "type": "address[]"
        },
        {
          "internalType": "uint256[]",
          "name": "amountsIn",
          "type": "uint256[]"
        }
      ],
      "stateMutability": "nonpayable",
      "type": "function"
    },
    {
      "inputs": [
        {
          "components": [
            {
              "internalType": "contract IERC20",
              "name": "tokenIn",
              "type": "address"
            },
            {
              "components": [
                {
                  "internalType": "address",
                  "name": "pool",
                  "type": "address"
                },
                {
                  "internalType": "contract IERC20",
                  "name": "tokenOut",
                  "type": "address"
                },
                {
                  "internalType": "bool",
                  "name": "isBuffer",
                  "type": "bool"
                }
              ],
              "internalType": "struct IBatchRouter.SwapPathStep[]",
              "name": "steps",
              "type": "tuple[]"
            },
            {
              "internalType": "uint256",
              "name": "exactAmountIn",
              "type": "uint256"
            },
            {
              "internalType": "uint256",
              "name": "minAmountOut",
              "type": "uint256"
            }
          ],
          "internalType": "struct IBatchRouter.SwapPathExactAmountIn[]",
          "name": "paths",
          "type": "tuple[]"
        },
        {
          "internalType": "uint256",
          "name": "deadline",
          "type": "uint256"
        },
        {
          "internalType": "bool",
          "name": "wethIsEth",
          "type": "bool"
        },
        {
          "internalType": "bytes",
          "name": "userData",
          "type": "bytes"
        }
      ],
      "name": "swapExactIn",
      "outputs": [
        {
          "internalType": "uint256[]",
          "name": "pathAmountsOut",
          "type": "uint256[]"
        },
        {
          "internalType": "address[]",
          "name": "tokensOut",
          "type": "address[]"
        },
        {
          "internalType": "uint256[]",
          "name": "amountsOut",
          "type": "uint256[]"
        }
      ],
      "stateMutability": "payable",
      "type": "function"
    },
    {
      "inputs": [
        {
          "components": [
            {
              "internalType": "address",
              "name": "sender",
              "type": "address"
            },
            {
              "components": [
                {
                  "internalType": "contract IERC20",
                  "name": "tokenIn",
                  "type": "address"
                },
                {
                  "components": [
                    {
                      "internalType": "address",
                      "name": "pool",
                      "type": "address"
                    },
                    {
                      "internalType": "contract IERC20",
                      "name": "tokenOut",
                      "type": "address"
                    },
                    {
                      "internalType": "bool",
                      "name": "isBuffer",
                      "type": "bool"
                    }
                  ],
                  "internalType": "struct IBatchRouter.SwapPathStep[]",
                  "name": "steps",
                  "type": "tuple[]"
                },
                {
                  "internalType": "uint256",
                  "name": "exactAmountIn",
                  "type": "uint256"
                },
                {
                  "internalType": "uint256",
                  "name": "minAmountOut",
                  "type": "uint256"
                }
              ],
              "internalType": "struct IBatchRouter.SwapPathExactAmountIn[]",
              "name": "paths",
              "type": "tuple[]"
            },
            {
              "internalType": "uint256",
              "name": "deadline",
              "type": "uint256"
            },
            {
              "internalType": "bool",
              "name": "wethIsEth",
              "type": "bool"
            },
            {
              "internalType": "bytes",
              "name": "userData",
              "type": "bytes"
            }
          ],
          "internalType": "struct IBatchRouter.SwapExactInHookParams",
          "name": "params",
          "type": "tuple"
        }
      ],
      "name": "swapExactInHook",
      "outputs": [
        {
          "internalType": "uint256[]",
          "name": "pathAmountsOut",
          "type": "uint256[]"
        },
        {
          "internalType": "address[]",
          "name": "tokensOut",
          "type": "address[]"
        },
        {
          "internalType": "uint256[]",
          "name": "amountsOut",
          "type": "uint256[]"
        }
      ],
      "stateMutability": "nonpayable",
      "type": "function"
    },
    {
      "inputs": [
        {
          "components": [
            {
              "internalType": "contract IERC20",
              "name": "tokenIn",
              "type": "address"
            },
            {
              "components": [
                {
                  "internalType": "address",
                  "name": "pool",
                  "type": "address"
                },
                {
                  "internalType": "contract IERC20",
                  "name": "tokenOut",
                  "type": "address"
                },
                {
                  "internalType": "bool",
                  "name": "isBuffer",
                  "type": "bool"
                }
              ],
              "internalType": "struct IBatchRouter.SwapPathStep[]",
              "name": "steps",
              "type": "tuple[]"
            },
            {
              "internalType": "uint256",
              "name": "maxAmountIn",
              "type": "uint256"
            },
            {
              "internalType": "uint256",
              "name": "exactAmountOut",
              "type": "uint256"
            }
          ],
          "internalType": "struct IBatchRouter.SwapPathExactAmountOut[]",
          "name": "paths",
          "type": "tuple[]"
        },
        {
          "internalType": "uint256",
          "name": "deadline",
          "type": "uint256"
        },
        {
          "internalType": "bool",
          "name": "wethIsEth",
          "type": "bool"
        },
        {
          "internalType": "bytes",
          "name": "userData",
          "type": "bytes"
        }
      ],
      "name": "swapExactOut",
      "outputs": [
        {
          "internalType": "uint256[]",
          "name": "pathAmountsIn",
          "type": "uint256[]"
        },
        {
          "internalType": "address[]",
          "name": "tokensIn",
          "type": "address[]"
        },
        {
          "internalType": "uint256[]",
          "name": "amountsIn",
          "type": "uint256[]"
        }
      ],
      "stateMutability": "payable",
      "type": "function"
    },
    {
      "inputs": [
        {
          "components": [
            {
              "internalType": "address",
              "name": "sender",
              "type": "address"
            },
            {
              "components": [
                {
                  "internalType": "contract IERC20",
                  "name": "tokenIn",
                  "type": "address"
                },
                {
                  "components": [
                    {
                      "internalType": "address",
                      "name": "pool",
                      "type": "address"
                    },
                    {
                      "internalType": "contract IERC20",
                      "name": "tokenOut",
                      "type": "address"
                    },
                    {
                      "internalType": "bool",
                      "name": "isBuffer",
                      "type": "bool"
                    }
                  ],
                  "internalType": "struct IBatchRouter.SwapPathStep[]",
                  "name": "steps",
                  "type": "tuple[]"
                },
                {
                  "internalType": "uint256",
                  "name": "maxAmountIn",
                  "type": "uint256"
                },
                {
                  "internalType": "uint256",
                  "name": "exactAmountOut",
                  "type": "uint256"
                }
              ],
              "internalType": "struct IBatchRouter.SwapPathExactAmountOut[]",
              "name": "paths",
              "type": "tuple[]"
            },
            {
              "internalType": "uint256",
              "name": "deadline",
              "type": "uint256"
            },
            {
              "internalType": "bool",
              "name": "wethIsEth",
              "type": "bool"
            },
            {
              "internalType": "bytes",
              "name": "userData",
              "type": "bytes"
            }
          ],
          "internalType": "struct IBatchRouter.SwapExactOutHookParams",
          "name": "params",
          "type": "tuple"
        }
      ],
      "name": "swapExactOutHook",
      "outputs": [
        {
          "internalType": "uint256[]",
          "name": "pathAmountsIn",
          "type": "uint256[]"
        },
        {
          "internalType": "address[]",
          "name": "tokensIn",
          "type": "address[]"
        },
        {
          "internalType": "uint256[]",
          "name": "amountsIn",
          "type": "uint256[]"
        }
      ],
      "stateMutability": "nonpayable",
      "type": "function"
    },
    {
      "inputs": [],
      "name": "version",
      "outputs": [
        {
          "internalType": "string",
          "name": "",
          "type": "string"
        }
      ],
      "stateMutability": "view",
      "type": "function"
    },
    {
      "stateMutability": "payable",
      "type": "receive"
    }
  ],
  "bytecode": "0x6101e060409080825234610509576130f6803803809161001f8285610528565b8339810191606082840312610509578151916001600160a01b039081841684036105095760209485820151928316830361050957818401516001600160401b0392838211610509570194601f908282880112156105095786518481116104f557601f19978751946100968b8b878601160187610528565b8286528a838301011161050957815f928b8093018388015e850101526100fa86516100c08161050d565b600b81526a14d95b99195c91dd585c9960aa1b8a8201528751906100e38261050d565b600682526539b2b73232b960d11b8b830152610581565b60805260a05281519283116104f5575f54916001968784811c941680156104eb575b898510146104d7578383869511610485575b508892841160011461042957505f9261041e575b50505f19600383901b1c191690841b175f555b6101a982516101638161050d565b600c81526b2937baba32b921b7b6b6b7b760a11b868201528351906101878261050d565b60118252701a5cd4995d1d5c9b915d1a131bd8dad959607a1b87830152610581565b60c05260e052610100925f84526101209283526101f882516101ca8161050d565b601381527f63757272656e7453776170546f6b656e73496e000000000000000000000000008382015261054b565b61014090815261023a835161020c8161050d565b601481527f63757272656e7453776170546f6b656e734f75740000000000000000000000008482015261054b565b61016090815261027c845161024e8161050d565b601981527f63757272656e7453776170546f6b656e496e416d6f756e7473000000000000008582015261054b565b916101809283526103026102c286516102948161050d565b601a81527f63757272656e7453776170546f6b656e4f7574416d6f756e74730000000000008782015261054b565b946101a09586527f736574746c6564546f6b656e416d6f756e7473000000000000000000000000008751916102f68361050d565b6013835282015261054b565b946101c09586525195612ac2978861063489396080518881816102c8015281816105ff0152611eec015260a051888181610266015281816104eb0152818161056b0152818161132d0152818161151f015281816116fe0152818161193a01528181611be901528181611ddb0152818161208001528181612250015281816123f70152612886015260c05188612918015260e05188818160260152610a5a0152518781816109710152611c0d01525186611b500152518581816118a201528181611add0152611f5c015251848181611584015281816117e601528181611b01015281816122c501526124b201525183818161188001528181611b2e0152611f3a0152518281816115ab015281816118180152611e69015251815050f35b015190505f80610142565b879492919216915f8052885f20925f5b8a82821061046f5750508411610457575b505050811b015f55610155565b01515f1960f88460031b161c191690555f808061044a565b8385015186558a97909501949384019301610439565b90919293505f8052885f208480870160051c8201928b88106104ce575b9187968b92969594930160051c01915b8281106104c057505061012e565b5f81558796508a91016104b2565b925081926104a2565b634e487b7160e01b5f52602260045260245ffd5b93607f169361011c565b634e487b7160e01b5f52604160045260245ffd5b5f80fd5b604081019081106001600160401b038211176104f557604052565b601f909101601f19168101906001600160401b038211908210176104f557604052565b61057e9060405161055b8161050d565b60118152702130ba31b42937baba32b921b7b6b6b7b760791b6020820152610581565b90565b906105ee603a60209260405193849181808401977f62616c616e6365722d6c6162732e76332e73746f726167652e000000000000008952805191829101603986015e830190601760f91b60398301528051928391018583015e015f8382015203601a810184520182610528565b5190205f19810190811161061f576040519060208201908152602082526106148261050d565b9051902060ff191690565b634e487b7160e01b5f52601160045260245ffdfe60406080815260049081361015610074575b50361561001c575f80fd5b6001600160a01b037f000000000000000000000000000000000000000000000000000000000000000016330361004e57005b7f0540ddf6000000000000000000000000000000000000000000000000000000005f525ffd5b5f3560e01c806308a465f614610a7e578063107c279f14610a3b57806319c6989f146109955780631bbf2e2314610952578063286f580d146108be5780632950286e1461079c57806354fd4d501461065a5780635a3c39871461062f5780635e01eb5a146105eb5780638a12a08c1461058f5780638d928af81461054c5780638eb1b65e146103de578063945ed33f14610370578063ac9650d81461031d5763e3b5dff4036100115790346103195760609160606003193601126103195767ffffffffffffffff918035838111610319576101529036908301610e0d565b9161015b610cce565b916044359485116103195761017661017e9536908301610bb3565b959093611ee7565b925f5b85518110156101a257805f896101996001948a6111c4565b51015201610181565b5060206102119261021f876101d95f958b8951936101bf85610c06565b308552878501525f198a8501528760608501523691610ebd565b608082015286519586917f8a12a08c000000000000000000000000000000000000000000000000000000008684015260248301610f7a565b03601f198101865285610c7f565b610259855194859384937fedfa35680000000000000000000000000000000000000000000000000000000085528401526024830190610be1565b0381836001600160a01b037f0000000000000000000000000000000000000000000000000000000000000000165af190811561030f576102c1916102ae915f916102ed575b5060208082518301019101611107565b919390946102c5575b5193849384610b15565b0390f35b5f7f00000000000000000000000000000000000000000000000000000000000000005d6102b7565b61030991503d805f833e6103018183610c7f565b810190611043565b8561029e565b82513d5f823e3d90fd5b5f80fd5b82602060031936011261031957803567ffffffffffffffff8111610319576103489036908301610b82565b50507f29a270f5000000000000000000000000000000000000000000000000000000005f525ffd5b5034610319576103ac6102c16103b161038836610ab0565b936103916112ce565b610399611323565b6103a285611f29565b9391959096610e8d565b611adb565b5f7f9b779b17422d0df92223018b32b4d1fa46e071723d6817e2486d003becc55f005d5193849384610b15565b5060806003193601126103195767ffffffffffffffff9180358381116103195761040b9036908301610e0d565b92610414610ce4565b9360643591821161031957610211926104a460209261046c61043a5f9636908601610bb3565b61044333611ee7565b9a8a519461045086610c06565b338652888601526024358b860152151560608501523691610ebd565b608082015286519586917f945ed33f000000000000000000000000000000000000000000000000000000008684015260248301611205565b6104de855194859384937f48c894910000000000000000000000000000000000000000000000000000000085528401526024830190610be1565b0381836001600160a01b037f0000000000000000000000000000000000000000000000000000000000000000165af190811561030f576102c1916102ae915f91610532575060208082518301019101611107565b61054691503d805f833e6103018183610c7f565b5f61029e565b5034610319575f60031936011261031957602090516001600160a01b037f0000000000000000000000000000000000000000000000000000000000000000168152f35b5034610319576102c1906105ba6105a536610ab0565b6105ad6112ce565b6105b5611323565b6113b2565b909391925f7f9b779b17422d0df92223018b32b4d1fa46e071723d6817e2486d003becc55f005d5193849384610b15565b5034610319575f60031936011261031957517f00000000000000000000000000000000000000000000000000000000000000005c6001600160a01b03168152602090f35b5034610319576102c1906105ba61064536610ab0565b61064d6112ce565b610655611323565b611f29565b5034610319575f600319360112610319578051905f905f549160018360011c9060018516948515610792575b6020958684108114610766578388528794939291879082156107265750506001146106cd575b50506102c192916106be910385610c7f565b51928284938452830190610be1565b5f80805286935091907f290decd9548b62a8d60345a988386fc84ba6bc95484008f6362f93160ef3e5635b82841061070e57505050820101816106be6106ac565b8054848a0186015288955087949093019281016106f8565b7fffffffffffffffffffffffffffffffffffffffffffffffffffffffffffffff00168682015292151560051b850190920192508391506106be90506106ac565b6022897f4e487b71000000000000000000000000000000000000000000000000000000005f525260245ffd5b91607f1691610686565b50346103195760606003193601126103195767ffffffffffffffff918035838111610319576107ce9036908301610e0d565b906107d7610cce565b90604435948511610319576107f26107fa9536908301610bb3565b959092611ee7565b915f5b845181101561082e57806fffffffffffffffffffffffffffffffff87610825600194896111c4565b510152016107fd565b50906108846102119461084c6020945f96998951936101bf85610c06565b608082015286519586917f5a3c3987000000000000000000000000000000000000000000000000000000008684015260248301611205565b6104de855194859384937fedfa35680000000000000000000000000000000000000000000000000000000085528401526024830190610be1565b5060806003193601126103195767ffffffffffffffff918035838111610319576108eb9036908301610e0d565b926108f4610ce4565b9360643591821161031957610211926104a460209261091a61043a5f9636908601610bb3565b608082015286519586917f08a465f6000000000000000000000000000000000000000000000000000000008684015260248301610f7a565b5034610319575f60031936011261031957602090516001600160a01b037f0000000000000000000000000000000000000000000000000000000000000000168152f35b8260031960a0813601126103195767ffffffffffffffff90823582811161031957366023820112156103195780840135908382116103195760249060c036930201011161031957602435828111610319576109f39036908501610b82565b50506044359082821161031957606091360301126103195760643581811161031957610a229036908401610bb3565b5050608435908111610319576103489036908301610b82565b5034610319575f60031936011261031957602090516001600160a01b037f0000000000000000000000000000000000000000000000000000000000000000168152f35b5034610319576103ac6102c16103b1610a9636610ab0565b93610a9f6112ce565b610aa7611323565b6103a2856113b2565b60031990602082820112610319576004359167ffffffffffffffff8311610319578260a0920301126103195760040190565b9081518082526020808093019301915f5b828110610b01575050505090565b835185529381019392810192600101610af3565b939290610b2a90606086526060860190610ae2565b936020948181036020830152602080855192838152019401905f5b818110610b6557505050610b629394506040818403910152610ae2565b90565b82516001600160a01b031686529487019491870191600101610b45565b9181601f840112156103195782359167ffffffffffffffff8311610319576020808501948460051b01011161031957565b9181601f840112156103195782359167ffffffffffffffff8311610319576020838186019501011161031957565b90601f19601f602080948051918291828752018686015e5f8582860101520116010190565b60a0810190811067ffffffffffffffff821117610c2257604052565b7f4e487b71000000000000000000000000000000000000000000000000000000005f52604160045260245ffd5b60e0810190811067ffffffffffffffff821117610c2257604052565b67ffffffffffffffff8111610c2257604052565b90601f601f19910116810190811067ffffffffffffffff821117610c2257604052565b67ffffffffffffffff8111610c225760051b60200190565b35906001600160a01b038216820361031957565b602435906001600160a01b038216820361031957565b60443590811515820361031957565b91909160808184031261031957604092835191608083019467ffffffffffffffff9584811087821117610c225781528395610d2d83610cba565b855260208084013582811161031957840185601f8201121561031957803595610d5587610ca2565b93610d6286519586610c7f565b87855283850191846060809a02850101938185116103195790858a999897969594939201925b848410610da657505050505086015280820135908501520135910152565b90919293949596979884830312610319578751908a820182811085821117610c22578952610dd385610cba565b8252610de0878601610cba565b8783015288850135908115158203610319578288928b8e9501528152019301919089989796959493610d88565b81601f8201121561031957803591602091610e2784610ca2565b93610e356040519586610c7f565b808552838086019160051b8301019280841161031957848301915b848310610e605750505050505090565b823567ffffffffffffffff8111610319578691610e8284848094890101610cf3565b815201920191610e50565b356001600160a01b03811681036103195790565b67ffffffffffffffff8111610c2257601f01601f191660200190565b929192610ec982610ea1565b91610ed76040519384610c7f565b829481845281830111610319578281602093845f960137010152565b9060808101916001600160a01b03808251168352602093848301519460808186015285518092528060a086019601925f905b838210610f475750505050506060816040829301516040850152015191015290565b84518051821689528084015182168985015260409081015115159089015260609097019693820193600190910190610f25565b91909160209081815260c08101916001600160a01b0385511681830152808501519260a06040840152835180915260e08301918060e08360051b8601019501925f905b838210610ff95750505050506080846040610b62959601516060840152606081015115158284015201519060a0601f1982850301910152610be1565b90919293958380611034837fffffffffffffffffffffffffffffffffffffffffffffffffffffffffffffff208a600196030186528a51610ef3565b98019201920190939291610fbd565b6020818303126103195780519067ffffffffffffffff8211610319570181601f820112156103195780519061107782610ea1565b926110856040519485610c7f565b8284526020838301011161031957815f9260208093018386015e8301015290565b9080601f83011215610319578151906020916110c181610ca2565b936110cf6040519586610c7f565b81855260208086019260051b82010192831161031957602001905b8282106110f8575050505090565b815181529083019083016110ea565b90916060828403126103195781519167ffffffffffffffff9283811161031957846111339183016110a6565b936020808301518581116103195783019082601f830112156103195781519161115b83610ca2565b926111696040519485610c7f565b808452828085019160051b83010191858311610319578301905b8282106111a5575050505093604083015190811161031957610b6292016110a6565b81516001600160a01b0381168103610319578152908301908301611183565b80518210156111d85760209160051b010190565b7f4e487b71000000000000000000000000000000000000000000000000000000005f52603260045260245ffd5b91909160209081815260c08101916001600160a01b0385511681830152808501519260a06040840152835180915260e08301918060e08360051b8601019501925f905b8382106112845750505050506080846040610b62959601516060840152606081015115158284015201519060a0601f1982850301910152610be1565b909192939583806112bf837fffffffffffffffffffffffffffffffffffffffffffffffffffffffffffffff208a600196030186528a51610ef3565b98019201920190939291611248565b7f9b779b17422d0df92223018b32b4d1fa46e071723d6817e2486d003becc55f00805c6112fb576001905d565b7f3ee5aeb5000000000000000000000000000000000000000000000000000000005f5260045ffd5b6001600160a01b037f000000000000000000000000000000000000000000000000000000000000000016330361135557565b7f089676d5000000000000000000000000000000000000000000000000000000005f523360045260245ffd5b9061138b82610ca2565b6113986040519182610c7f565b828152601f196113a88294610ca2565b0190602036910137565b9060408201354211611a75576113d56113ce6020840184612548565b9050611381565b913261187d575b5f929192915b6113ef6020830183612548565b90508310156117dd576114198361141461140c6020860186612548565b36939161259c565b610cf3565b926040840151916001600160a01b03855116955f5b6020870151518110156117cc576114436125dc565b6020880151515f19810190811161179f578214806020830152821582525f146117995760608801515b61147a8360208b01516111c4565b51604081015190919015611630576115126001600160a01b03835116916001600160a01b038d1683145f14611629576001925b604051936114ba85610c06565b5f85526114c681612656565b6020850152604084015260609283918b838301526080820152604051809381927f43583be500000000000000000000000000000000000000000000000000000000835260048301612714565b03815f6001600160a01b037f0000000000000000000000000000000000000000000000000000000000000000165af190811561161e576020925f926115ee575b5050925b0151156115d557816001600160a01b0360206115cf936001969561157a8b8b6111c4565b520151166115a8817f00000000000000000000000000000000000000000000000000000000000000006129f8565b507f0000000000000000000000000000000000000000000000000000000000000000612a42565b0161142e565b602001516001600160a01b0316985094506001906115cf565b61160d9250803d10611617575b6116058183610c7f565b81019061268d565b9150505f80611552565b503d6115fb565b6040513d5f823e3d90fd5b5f926114ad565b6001600160a01b038251166001600160a01b038c168114159081611781575b5015611759576116f1888a926116b98e6001600160a01b0380885116938160208a015116956116836080998a810190612605565b9390946040519761169389610c4f565b5f8952602089015216604087015260609889978888015286015260a08501523691610ebd565b60c0820152604051809381927f2bfb780c000000000000000000000000000000000000000000000000000000008352600483016126a8565b03815f6001600160a01b037f0000000000000000000000000000000000000000000000000000000000000000165af190811561161e576020925f92611739575b505092611556565b61174f9250803d10611617576116058183610c7f565b9150505f80611731565b7f29a270f5000000000000000000000000000000000000000000000000000000005f5260045ffd5b90506001600160a01b0360208401511614155f61164f565b5f61146c565b7f4e487b71000000000000000000000000000000000000000000000000000000005f52601160045260245ffd5b5094509450600191500191926113e2565b9150509061180a7f0000000000000000000000000000000000000000000000000000000000000000612763565b916118158351611381565b907f0000000000000000000000000000000000000000000000000000000000000000905f5b855181101561187657806001600160a01b03611858600193896111c4565b51165f528360205260405f205c61186f82876111c4565b520161183a565b5093929050565b917f0000000000000000000000000000000000000000000000000000000000000000907f0000000000000000000000000000000000000000000000000000000000000000905f5b6118d16020870187612548565b905081101561191f57806119196118f460019361141461140c60208c018c612548565b60406001600160a01b0361190b81845116896129f8565b508251169101519087612a42565b016118c4565b5093929061192c90612763565b5f946001600160a01b0392837f000000000000000000000000000000000000000000000000000000000000000016965b8351811015611a68578461197082866111c4565b5116805f528660205260405f205c6040517f15afd40900000000000000000000000000000000000000000000000000000000815260046020828d815f816119d0898b898401602090939291936001600160a01b0360408201951681520152565b03925af191821561161e575f92611a34575b50828210611a0357505050906001915f52866020525f604081205d0161195c565b83907f5c54305e000000000000000000000000000000000000000000000000000000005f525260245260445260645ffd5b9091506020813d602011611a60575b81611a5060209383610c7f565b810103126103195751905f6119e2565b3d9150611a43565b50949350945050506113dc565b7fe08b8af0000000000000000000000000000000000000000000000000000000005f5260045ffd5b905f19820191821360011661179f57565b7f8000000000000000000000000000000000000000000000000000000000000000811461179f575f190190565b7f0000000000000000000000000000000000000000000000000000000000000000805c907f000000000000000000000000000000000000000000000000000000000000000092611b2c845c93611a9d565b7f0000000000000000000000000000000000000000000000000000000000000000957f000000000000000000000000000000000000000000000000000000000000000015908115925b5f905f8112611e5557865f5260209181835f20015c90815f528b84528b604094855f205c92898990611e4e575b15611d8b57505f926001600160a01b0385811682611be2575b50505094611bd7939291611bdd965b8484525281205d886127cf565b50611aae565b611b75565b92935090917f00000000000000000000000000000000000000000000000000000000000000008216917f00000000000000000000000000000000000000000000000000000000000000008116818511611d5a57803b15610319575f80918f936084908d5194859384927f36c785160000000000000000000000000000000000000000000000000000000084528060049916898501528a60248501528b1660448401528860648401525af18015611d5057869492611cec9694925f92611d41575b508b51968795869485937f15afd4090000000000000000000000000000000000000000000000000000000085528401602090939291936001600160a01b0360408201951681520152565b03925af18015611d3757908e9291611d06575b8080611bbb565b8180959493503d8311611d30575b611d1e8183610c7f565b810103126103195790918c905f611cff565b503d611d14565b86513d5f823e3d90fd5b611d4a90610c6b565b5f611ca2565b8a513d5f823e3d90fd5b847f6dfcc650000000000000000000000000000000000000000000000000000000005f5260a060045260245260445ffd5b86517f15afd4090000000000000000000000000000000000000000000000000000000081526001600160a01b03868116600483015260248201959095529093919250908290829060449082905f907f0000000000000000000000000000000000000000000000000000000000000000165af18015611d3757908e9291611e1d575b5094611bd7939291611bdd96611bca565b8180959493503d8311611e47575b611e358183610c7f565b810103126103195790918c905f611e0c565b503d611e2b565b505f611ba2565b5050965050509291611e679150611a9d565b7f0000000000000000000000000000000000000000000000000000000000000000905b5f811215611ea057505050611e9e9061290e565b565b611ee290835f52611bd760205f83828220015c9182825286815286604091611ed58385205c6001600160a01b0387168d612872565b8484525281205d856127cf565b611e8a565b905f917f00000000000000000000000000000000000000000000000000000000000000006001600160a01b03815c1615611f1f575050565b909192505d600190565b90604091828101354211611a7557907f0000000000000000000000000000000000000000000000000000000000000000907f0000000000000000000000000000000000000000000000000000000000000000905f5b60208501611f8c8187612548565b9050821015611fc85790611fc2611fac8261141461140c6001968b612548565b886001600160a01b0361190b81845116896129f8565b01611f7e565b50509290611fd581612763565b905f92321515935b83518110156120fc576001600160a01b03908682611ffb83886111c4565b511692835f52876020918383528c5f205c91612025575b50506001935f52525f8981205d01611fdd565b9091939492508b51907f15afd4090000000000000000000000000000000000000000000000000000000082528482600492815f8161207c898b898401602090939291936001600160a01b0360408201951681520152565b03927f0000000000000000000000000000000000000000000000000000000000000000165af19182156120f2575f926120c3575b50828210611a03578a9395949250612012565b9091508481813d83116120eb575b6120db8183610c7f565b810103126103195751905f6120b0565b503d6120d1565b8d513d5f823e3d90fd5b5092509390506020928383016121156113ce8286612548565b925f5b6121228387612548565b90508110156124db5761213c8161141461140c868a612548565b60608082015190898301918251515f199081810190811161179f578e908c8e5b5f83121561217557505050505050505050600101612118565b6121808389516111c4565b516121896125dc565b82810192851584528a51519188830192831161179f578a92871480915261249b575b83511561246257868c01516001600160a01b038d5116955b848901511561234057509261224c915f946001600160a01b03809351168389168114871461233a5760015b8b51936121fa85610c06565b6001855261220782612656565b8401528a8301528b85830152608082015288519485809481937f43583be500000000000000000000000000000000000000000000000000000000835260048301612714565b03927f0000000000000000000000000000000000000000000000000000000000000000165af1908115612330578f90918c925f91612311575b50925b5115612300578291612299916111c4565b526001600160a01b03809216938901519181830392831161179f576122e96122f293866115a86122f7987f00000000000000000000000000000000000000000000000000000000000000006129f8565b8951168d612a42565b611aae565b8e908c8e61215c565b5050919450506122f7915092611aae565b61232891508a3d8c11611617576116058183610c7f565b915090612285565b85513d5f823e3d90fd5b866121ee565b9250906001600160a01b03908185511682881690818114159081612452575b501561175957858a6123f3958f978f906123ba958888815f9e5116970151169061238e60809384810190612605565b96909781519a61239d8c610c4f565b60018c528b01528901528a88015286015260a08501523691610ebd565b60c082015288519485809481937f2bfb780c000000000000000000000000000000000000000000000000000000008352600483016126a8565b03927f0000000000000000000000000000000000000000000000000000000000000000165af1908115612330578f90918c925f91612433575b5092612288565b61244a91508a3d8c11611617576116058183610c7f565b91509061242c565b905083838801511614155f61235f565b8a6001600160a01b03826124916fffffffffffffffffffffffffffffffff935161248b8b611a9d565b906111c4565b51015116956121c3565b6124d6896001600160a01b0383860151166115a8817f00000000000000000000000000000000000000000000000000000000000000006129f8565b6121ab565b5095919493506124ec919050612763565b6124f68151611381565b915f5b825181101561253e57806001600160a01b03612517600193866111c4565b5116805f52878752895f205c61252d83886111c4565b525f528686525f8981205d016124f9565b5095509391509150565b9035907fffffffffffffffffffffffffffffffffffffffffffffffffffffffffffffffe181360301821215610319570180359067ffffffffffffffff821161031957602001918160051b3603831361031957565b91908110156111d85760051b810135907fffffffffffffffffffffffffffffffffffffffffffffffffffffffffffffff8181360301821215610319570190565b604051906040820182811067ffffffffffffffff821117610c22576040525f6020838281520152565b9035907fffffffffffffffffffffffffffffffffffffffffffffffffffffffffffffffe181360301821215610319570180359067ffffffffffffffff82116103195760200191813603831361031957565b6002111561266057565b7f4e487b71000000000000000000000000000000000000000000000000000000005f52602160045260245ffd5b90816060910312610319578051916040602083015192015190565b61010060c0610b62936020845280516126c081612656565b602085015260208101516001600160a01b0380911660408601528060408301511660608601526060820151166080850152608081015160a085015260a08101518285015201519160e0808201520190610be1565b91909160808060a0830194805161272a81612656565b8452602081015161273a81612656565b60208501526001600160a01b036040820151166040850152606081015160608501520151910152565b90815c61276f81610ca2565b61277c6040519182610c7f565b81815261278882610ca2565b601f196020910136602084013781945f5b8481106127a7575050505050565b600190825f5280845f20015c6001600160a01b036127c583886111c4565b9116905201612799565b6001810191805f5260209183835260405f205c8015155f14612869575f1990818101835c838082019182840361282c575b5050505050815c8181019281841161179f575f93815d835284832001015d5f52525f604081205d600190565b6128396128499388612a5b565b865f52885f2001015c9185612a5b565b835f52808383885f2001015d5f5285855260405f205d5f80808381612800565b50505050505f90565b91908115612909576001600160a01b0390817f00000000000000000000000000000000000000000000000000000000000000001690813b15610319575f60649281958560405198899788967fae63932900000000000000000000000000000000000000000000000000000000885216600487015216602485015260448401525af1801561161e576129005750565b611e9e90610c6b565b505050565b479081156129f4577f00000000000000000000000000000000000000000000000000000000000000005c6129f4578147106129c4575f8080936001600160a01b038294165af13d156129bc573d9061296582610ea1565b916129736040519384610c7f565b82523d5f602084013e5b156129855750565b80511561299457602081519101fd5b7fd6bda275000000000000000000000000000000000000000000000000000000005f5260045ffd5b60609061297d565b50477fcf479181000000000000000000000000000000000000000000000000000000005f5260045260245260445ffd5b5050565b6001810190825f528160205260405f205c155f14612a3b57805c815f52838160205f20015d6001810180911161179f57815d5c915f5260205260405f205d600190565b5050505f90565b905f5260205260405f20805c91820180921161179f575d565b5c1115612a6457565b7f0f4ae0e4000000000000000000000000000000000000000000000000000000005f5260045ffdfea26469706673582212206c924234140444346fe77e5baed1e952896ff74276d2f63531464475f18fcab764736f6c634300081b0033",
  "linkReferences": {},
  "deployedLinkReferences": {}
}