{
  "_format": "hh-sol-artifact-1",
  "contractName": "BatchRouter",
  "sourceName": "contracts/BatchRouter.sol",
  "abi": [
    {
      "inputs": [
        {
          "internalType": "contract IVault",
          "name": "vault",
          "type": "address"
        },
        {
          "internalType": "contract IWETH",
          "name": "weth",
          "type": "address"
        },
        {
          "internalType": "contract IPermit2",
          "name": "permit2",
          "type": "address"
        },
        {
          "internalType": "string",
          "name": "routerVersion",
          "type": "string"
        }
      ],
      "stateMutability": "nonpayable",
      "type": "constructor"
    },
    {
      "inputs": [
        {
          "internalType": "address",
          "name": "target",
          "type": "address"
        }
      ],
      "name": "AddressEmptyCode",
      "type": "error"
    },
    {
      "inputs": [],
      "name": "ErrorSelectorNotFound",
      "type": "error"
    },
    {
      "inputs": [],
      "name": "EthTransfer",
      "type": "error"
    },
    {
      "inputs": [],
      "name": "FailedCall",
      "type": "error"
    },
    {
      "inputs": [],
      "name": "InputLengthMismatch",
      "type": "error"
    },
    {
      "inputs": [
        {
          "internalType": "uint256",
          "name": "balance",
          "type": "uint256"
        },
        {
          "internalType": "uint256",
          "name": "needed",
          "type": "uint256"
        }
      ],
      "name": "InsufficientBalance",
      "type": "error"
    },
    {
      "inputs": [],
      "name": "InsufficientEth",
      "type": "error"
    },
    {
      "inputs": [],
      "name": "OperationNotSupported",
      "type": "error"
    },
    {
      "inputs": [],
      "name": "ReentrancyGuardReentrantCall",
      "type": "error"
    },
    {
      "inputs": [
        {
          "internalType": "uint8",
          "name": "bits",
          "type": "uint8"
        },
        {
          "internalType": "uint256",
          "name": "value",
          "type": "uint256"
        }
      ],
      "name": "SafeCastOverflowedUintDowncast",
      "type": "error"
    },
    {
      "inputs": [
        {
          "internalType": "address",
          "name": "token",
          "type": "address"
        }
      ],
      "name": "SafeERC20FailedOperation",
      "type": "error"
    },
    {
      "inputs": [
        {
          "internalType": "address",
          "name": "sender",
          "type": "address"
        }
      ],
      "name": "SenderIsNotVault",
      "type": "error"
    },
    {
      "inputs": [],
      "name": "SwapDeadline",
      "type": "error"
    },
    {
      "inputs": [],
      "name": "TransientIndexOutOfBounds",
      "type": "error"
    },
    {
      "inputs": [],
      "name": "getPermit2",
      "outputs": [
        {
          "internalType": "contract IPermit2",
          "name": "",
          "type": "address"
        }
      ],
      "stateMutability": "view",
      "type": "function"
    },
    {
      "inputs": [],
      "name": "getSender",
      "outputs": [
        {
          "internalType": "address",
          "name": "",
          "type": "address"
        }
      ],
      "stateMutability": "view",
      "type": "function"
    },
    {
      "inputs": [],
      "name": "getVault",
      "outputs": [
        {
          "internalType": "contract IVault",
          "name": "",
          "type": "address"
        }
      ],
      "stateMutability": "view",
      "type": "function"
    },
    {
      "inputs": [],
      "name": "getWeth",
      "outputs": [
        {
          "internalType": "contract IWETH",
          "name": "",
          "type": "address"
        }
      ],
      "stateMutability": "view",
      "type": "function"
    },
    {
      "inputs": [
        {
          "internalType": "bytes[]",
          "name": "data",
          "type": "bytes[]"
        }
      ],
      "name": "multicall",
      "outputs": [
        {
          "internalType": "bytes[]",
          "name": "results",
          "type": "bytes[]"
        }
      ],
      "stateMutability": "payable",
      "type": "function"
    },
    {
      "inputs": [
        {
          "components": [
            {
              "internalType": "address",
              "name": "token",
              "type": "address"
            },
            {
              "internalType": "address",
              "name": "owner",
              "type": "address"
            },
            {
              "internalType": "address",
              "name": "spender",
              "type": "address"
            },
            {
              "internalType": "uint256",
              "name": "amount",
              "type": "uint256"
            },
            {
              "internalType": "uint256",
              "name": "nonce",
              "type": "uint256"
            },
            {
              "internalType": "uint256",
              "name": "deadline",
              "type": "uint256"
            }
          ],
          "internalType": "struct IRouterCommon.PermitApproval[]",
          "name": "permitBatch",
          "type": "tuple[]"
        },
        {
          "internalType": "bytes[]",
          "name": "permitSignatures",
          "type": "bytes[]"
        },
        {
          "components": [
            {
              "components": [
                {
                  "internalType": "address",
                  "name": "token",
                  "type": "address"
                },
                {
                  "internalType": "uint160",
                  "name": "amount",
                  "type": "uint160"
                },
                {
                  "internalType": "uint48",
                  "name": "expiration",
                  "type": "uint48"
                },
                {
                  "internalType": "uint48",
                  "name": "nonce",
                  "type": "uint48"
                }
              ],
              "internalType": "struct IAllowanceTransfer.PermitDetails[]",
              "name": "details",
              "type": "tuple[]"
            },
            {
              "internalType": "address",
              "name": "spender",
              "type": "address"
            },
            {
              "internalType": "uint256",
              "name": "sigDeadline",
              "type": "uint256"
            }
          ],
          "internalType": "struct IAllowanceTransfer.PermitBatch",
          "name": "permit2Batch",
          "type": "tuple"
        },
        {
          "internalType": "bytes",
          "name": "permit2Signature",
          "type": "bytes"
        },
        {
          "internalType": "bytes[]",
          "name": "multicallData",
          "type": "bytes[]"
        }
      ],
      "name": "permitBatchAndCall",
      "outputs": [
        {
          "internalType": "bytes[]",
          "name": "results",
          "type": "bytes[]"
        }
      ],
      "stateMutability": "payable",
      "type": "function"
    },
    {
      "inputs": [
        {
          "components": [
            {
              "internalType": "contract IERC20",
              "name": "tokenIn",
              "type": "address"
            },
            {
              "components": [
                {
                  "internalType": "address",
                  "name": "pool",
                  "type": "address"
                },
                {
                  "internalType": "contract IERC20",
                  "name": "tokenOut",
                  "type": "address"
                },
                {
                  "internalType": "bool",
                  "name": "isBuffer",
                  "type": "bool"
                }
              ],
              "internalType": "struct IBatchRouter.SwapPathStep[]",
              "name": "steps",
              "type": "tuple[]"
            },
            {
              "internalType": "uint256",
              "name": "exactAmountIn",
              "type": "uint256"
            },
            {
              "internalType": "uint256",
              "name": "minAmountOut",
              "type": "uint256"
            }
          ],
          "internalType": "struct IBatchRouter.SwapPathExactAmountIn[]",
          "name": "paths",
          "type": "tuple[]"
        },
        {
          "internalType": "address",
          "name": "sender",
          "type": "address"
        },
        {
          "internalType": "bytes",
          "name": "userData",
          "type": "bytes"
        }
      ],
      "name": "querySwapExactIn",
      "outputs": [
        {
          "internalType": "uint256[]",
          "name": "pathAmountsOut",
          "type": "uint256[]"
        },
        {
          "internalType": "address[]",
          "name": "tokensOut",
          "type": "address[]"
        },
        {
          "internalType": "uint256[]",
          "name": "amountsOut",
          "type": "uint256[]"
        }
      ],
      "stateMutability": "nonpayable",
      "type": "function"
    },
    {
      "inputs": [
        {
          "components": [
            {
              "internalType": "address",
              "name": "sender",
              "type": "address"
            },
            {
              "components": [
                {
                  "internalType": "contract IERC20",
                  "name": "tokenIn",
                  "type": "address"
                },
                {
                  "components": [
                    {
                      "internalType": "address",
                      "name": "pool",
                      "type": "address"
                    },
                    {
                      "internalType": "contract IERC20",
                      "name": "tokenOut",
                      "type": "address"
                    },
                    {
                      "internalType": "bool",
                      "name": "isBuffer",
                      "type": "bool"
                    }
                  ],
                  "internalType": "struct IBatchRouter.SwapPathStep[]",
                  "name": "steps",
                  "type": "tuple[]"
                },
                {
                  "internalType": "uint256",
                  "name": "exactAmountIn",
                  "type": "uint256"
                },
                {
                  "internalType": "uint256",
                  "name": "minAmountOut",
                  "type": "uint256"
                }
              ],
              "internalType": "struct IBatchRouter.SwapPathExactAmountIn[]",
              "name": "paths",
              "type": "tuple[]"
            },
            {
              "internalType": "uint256",
              "name": "deadline",
              "type": "uint256"
            },
            {
              "internalType": "bool",
              "name": "wethIsEth",
              "type": "bool"
            },
            {
              "internalType": "bytes",
              "name": "userData",
              "type": "bytes"
            }
          ],
          "internalType": "struct IBatchRouter.SwapExactInHookParams",
          "name": "params",
          "type": "tuple"
        }
      ],
      "name": "querySwapExactInHook",
      "outputs": [
        {
          "internalType": "uint256[]",
          "name": "pathAmountsOut",
          "type": "uint256[]"
        },
        {
          "internalType": "address[]",
          "name": "tokensOut",
          "type": "address[]"
        },
        {
          "internalType": "uint256[]",
          "name": "amountsOut",
          "type": "uint256[]"
        }
      ],
      "stateMutability": "nonpayable",
      "type": "function"
    },
    {
      "inputs": [
        {
          "components": [
            {
              "internalType": "contract IERC20",
              "name": "tokenIn",
              "type": "address"
            },
            {
              "components": [
                {
                  "internalType": "address",
                  "name": "pool",
                  "type": "address"
                },
                {
                  "internalType": "contract IERC20",
                  "name": "tokenOut",
                  "type": "address"
                },
                {
                  "internalType": "bool",
                  "name": "isBuffer",
                  "type": "bool"
                }
              ],
              "internalType": "struct IBatchRouter.SwapPathStep[]",
              "name": "steps",
              "type": "tuple[]"
            },
            {
              "internalType": "uint256",
              "name": "maxAmountIn",
              "type": "uint256"
            },
            {
              "internalType": "uint256",
              "name": "exactAmountOut",
              "type": "uint256"
            }
          ],
          "internalType": "struct IBatchRouter.SwapPathExactAmountOut[]",
          "name": "paths",
          "type": "tuple[]"
        },
        {
          "internalType": "address",
          "name": "sender",
          "type": "address"
        },
        {
          "internalType": "bytes",
          "name": "userData",
          "type": "bytes"
        }
      ],
      "name": "querySwapExactOut",
      "outputs": [
        {
          "internalType": "uint256[]",
          "name": "pathAmountsIn",
          "type": "uint256[]"
        },
        {
          "internalType": "address[]",
          "name": "tokensIn",
          "type": "address[]"
        },
        {
          "internalType": "uint256[]",
          "name": "amountsIn",
          "type": "uint256[]"
        }
      ],
      "stateMutability": "nonpayable",
      "type": "function"
    },
    {
      "inputs": [
        {
          "components": [
            {
              "internalType": "address",
              "name": "sender",
              "type": "address"
            },
            {
              "components": [
                {
                  "internalType": "contract IERC20",
                  "name": "tokenIn",
                  "type": "address"
                },
                {
                  "components": [
                    {
                      "internalType": "address",
                      "name": "pool",
                      "type": "address"
                    },
                    {
                      "internalType": "contract IERC20",
                      "name": "tokenOut",
                      "type": "address"
                    },
                    {
                      "internalType": "bool",
                      "name": "isBuffer",
                      "type": "bool"
                    }
                  ],
                  "internalType": "struct IBatchRouter.SwapPathStep[]",
                  "name": "steps",
                  "type": "tuple[]"
                },
                {
                  "internalType": "uint256",
                  "name": "maxAmountIn",
                  "type": "uint256"
                },
                {
                  "internalType": "uint256",
                  "name": "exactAmountOut",
                  "type": "uint256"
                }
              ],
              "internalType": "struct IBatchRouter.SwapPathExactAmountOut[]",
              "name": "paths",
              "type": "tuple[]"
            },
            {
              "internalType": "uint256",
              "name": "deadline",
              "type": "uint256"
            },
            {
              "internalType": "bool",
              "name": "wethIsEth",
              "type": "bool"
            },
            {
              "internalType": "bytes",
              "name": "userData",
              "type": "bytes"
            }
          ],
          "internalType": "struct IBatchRouter.SwapExactOutHookParams",
          "name": "params",
          "type": "tuple"
        }
      ],
      "name": "querySwapExactOutHook",
      "outputs": [
        {
          "internalType": "uint256[]",
          "name": "pathAmountsIn",
          "type": "uint256[]"
        },
        {
          "internalType": "address[]",
          "name": "tokensIn",
          "type": "address[]"
        },
        {
          "internalType": "uint256[]",
          "name": "amountsIn",
          "type": "uint256[]"
        }
      ],
      "stateMutability": "nonpayable",
      "type": "function"
    },
    {
      "inputs": [
        {
          "components": [
            {
              "internalType": "contract IERC20",
              "name": "tokenIn",
              "type": "address"
            },
            {
              "components": [
                {
                  "internalType": "address",
                  "name": "pool",
                  "type": "address"
                },
                {
                  "internalType": "contract IERC20",
                  "name": "tokenOut",
                  "type": "address"
                },
                {
                  "internalType": "bool",
                  "name": "isBuffer",
                  "type": "bool"
                }
              ],
              "internalType": "struct IBatchRouter.SwapPathStep[]",
              "name": "steps",
              "type": "tuple[]"
            },
            {
              "internalType": "uint256",
              "name": "exactAmountIn",
              "type": "uint256"
            },
            {
              "internalType": "uint256",
              "name": "minAmountOut",
              "type": "uint256"
            }
          ],
          "internalType": "struct IBatchRouter.SwapPathExactAmountIn[]",
          "name": "paths",
          "type": "tuple[]"
        },
        {
          "internalType": "uint256",
          "name": "deadline",
          "type": "uint256"
        },
        {
          "internalType": "bool",
          "name": "wethIsEth",
          "type": "bool"
        },
        {
          "internalType": "bytes",
          "name": "userData",
          "type": "bytes"
        }
      ],
      "name": "swapExactIn",
      "outputs": [
        {
          "internalType": "uint256[]",
          "name": "pathAmountsOut",
          "type": "uint256[]"
        },
        {
          "internalType": "address[]",
          "name": "tokensOut",
          "type": "address[]"
        },
        {
          "internalType": "uint256[]",
          "name": "amountsOut",
          "type": "uint256[]"
        }
      ],
      "stateMutability": "payable",
      "type": "function"
    },
    {
      "inputs": [
        {
          "components": [
            {
              "internalType": "address",
              "name": "sender",
              "type": "address"
            },
            {
              "components": [
                {
                  "internalType": "contract IERC20",
                  "name": "tokenIn",
                  "type": "address"
                },
                {
                  "components": [
                    {
                      "internalType": "address",
                      "name": "pool",
                      "type": "address"
                    },
                    {
                      "internalType": "contract IERC20",
                      "name": "tokenOut",
                      "type": "address"
                    },
                    {
                      "internalType": "bool",
                      "name": "isBuffer",
                      "type": "bool"
                    }
                  ],
                  "internalType": "struct IBatchRouter.SwapPathStep[]",
                  "name": "steps",
                  "type": "tuple[]"
                },
                {
                  "internalType": "uint256",
                  "name": "exactAmountIn",
                  "type": "uint256"
                },
                {
                  "internalType": "uint256",
                  "name": "minAmountOut",
                  "type": "uint256"
                }
              ],
              "internalType": "struct IBatchRouter.SwapPathExactAmountIn[]",
              "name": "paths",
              "type": "tuple[]"
            },
            {
              "internalType": "uint256",
              "name": "deadline",
              "type": "uint256"
            },
            {
              "internalType": "bool",
              "name": "wethIsEth",
              "type": "bool"
            },
            {
              "internalType": "bytes",
              "name": "userData",
              "type": "bytes"
            }
          ],
          "internalType": "struct IBatchRouter.SwapExactInHookParams",
          "name": "params",
          "type": "tuple"
        }
      ],
      "name": "swapExactInHook",
      "outputs": [
        {
          "internalType": "uint256[]",
          "name": "pathAmountsOut",
          "type": "uint256[]"
        },
        {
          "internalType": "address[]",
          "name": "tokensOut",
          "type": "address[]"
        },
        {
          "internalType": "uint256[]",
          "name": "amountsOut",
          "type": "uint256[]"
        }
      ],
      "stateMutability": "nonpayable",
      "type": "function"
    },
    {
      "inputs": [
        {
          "components": [
            {
              "internalType": "contract IERC20",
              "name": "tokenIn",
              "type": "address"
            },
            {
              "components": [
                {
                  "internalType": "address",
                  "name": "pool",
                  "type": "address"
                },
                {
                  "internalType": "contract IERC20",
                  "name": "tokenOut",
                  "type": "address"
                },
                {
                  "internalType": "bool",
                  "name": "isBuffer",
                  "type": "bool"
                }
              ],
              "internalType": "struct IBatchRouter.SwapPathStep[]",
              "name": "steps",
              "type": "tuple[]"
            },
            {
              "internalType": "uint256",
              "name": "maxAmountIn",
              "type": "uint256"
            },
            {
              "internalType": "uint256",
              "name": "exactAmountOut",
              "type": "uint256"
            }
          ],
          "internalType": "struct IBatchRouter.SwapPathExactAmountOut[]",
          "name": "paths",
          "type": "tuple[]"
        },
        {
          "internalType": "uint256",
          "name": "deadline",
          "type": "uint256"
        },
        {
          "internalType": "bool",
          "name": "wethIsEth",
          "type": "bool"
        },
        {
          "internalType": "bytes",
          "name": "userData",
          "type": "bytes"
        }
      ],
      "name": "swapExactOut",
      "outputs": [
        {
          "internalType": "uint256[]",
          "name": "pathAmountsIn",
          "type": "uint256[]"
        },
        {
          "internalType": "address[]",
          "name": "tokensIn",
          "type": "address[]"
        },
        {
          "internalType": "uint256[]",
          "name": "amountsIn",
          "type": "uint256[]"
        }
      ],
      "stateMutability": "payable",
      "type": "function"
    },
    {
      "inputs": [
        {
          "components": [
            {
              "internalType": "address",
              "name": "sender",
              "type": "address"
            },
            {
              "components": [
                {
                  "internalType": "contract IERC20",
                  "name": "tokenIn",
                  "type": "address"
                },
                {
                  "components": [
                    {
                      "internalType": "address",
                      "name": "pool",
                      "type": "address"
                    },
                    {
                      "internalType": "contract IERC20",
                      "name": "tokenOut",
                      "type": "address"
                    },
                    {
                      "internalType": "bool",
                      "name": "isBuffer",
                      "type": "bool"
                    }
                  ],
                  "internalType": "struct IBatchRouter.SwapPathStep[]",
                  "name": "steps",
                  "type": "tuple[]"
                },
                {
                  "internalType": "uint256",
                  "name": "maxAmountIn",
                  "type": "uint256"
                },
                {
                  "internalType": "uint256",
                  "name": "exactAmountOut",
                  "type": "uint256"
                }
              ],
              "internalType": "struct IBatchRouter.SwapPathExactAmountOut[]",
              "name": "paths",
              "type": "tuple[]"
            },
            {
              "internalType": "uint256",
              "name": "deadline",
              "type": "uint256"
            },
            {
              "internalType": "bool",
              "name": "wethIsEth",
              "type": "bool"
            },
            {
              "internalType": "bytes",
              "name": "userData",
              "type": "bytes"
            }
          ],
          "internalType": "struct IBatchRouter.SwapExactOutHookParams",
          "name": "params",
          "type": "tuple"
        }
      ],
      "name": "swapExactOutHook",
      "outputs": [
        {
          "internalType": "uint256[]",
          "name": "pathAmountsIn",
          "type": "uint256[]"
        },
        {
          "internalType": "address[]",
          "name": "tokensIn",
          "type": "address[]"
        },
        {
          "internalType": "uint256[]",
          "name": "amountsIn",
          "type": "uint256[]"
        }
      ],
      "stateMutability": "nonpayable",
      "type": "function"
    },
    {
      "inputs": [],
      "name": "version",
      "outputs": [
        {
          "internalType": "string",
          "name": "",
          "type": "string"
        }
      ],
      "stateMutability": "view",
      "type": "function"
    },
    {
      "stateMutability": "payable",
      "type": "receive"
    }
  ],
  "bytecode": "0x6101e060408181523461062757614de4803803809161001e8286610646565b84398201906080838303126106275782516001600160a01b0393848216820361062757602091828201519186831683036106275784810151968716958688036106275760608201516001600160401b0392838211610627570192601f9082828601121561062757845184811161061357601f19958951946100a58a89878601160187610646565b82865289838301011161062757815f928a8093018388015e8501015261010988516100cf8161062b565b600b81526a14d95b99195c91dd585c9960aa1b898201528951906100f28261062b565b600682526539b2b73232b960d11b8a83015261069f565b60805260a0528151928311610613575f54916001928381811c91168015610609575b888210146105f5578281116105b2575b508691841160011461055557839450908392915f9461054a575b50501b915f199060031b1c1916175f555b6101ba83516101748161062b565b600c81526b2937baba32b921b7b6b6b7b760a11b848201528451906101988261062b565b60118252701a5cd4995d1d5c9b915d1a131bd8dad959607a1b8583015261069f565b60c05260e0526101009384526101209215835261020982516101db8161062b565b601381527f63757272656e7453776170546f6b656e73496e0000000000000000000000000083820152610669565b61014090815261024b835161021d8161062b565b601481527f63757272656e7453776170546f6b656e734f757400000000000000000000000084820152610669565b61016090815261028d845161025f8161062b565b601981527f63757272656e7453776170546f6b656e496e416d6f756e74730000000000000085820152610669565b916101809283526103136102d386516102a58161062b565b601a81527f63757272656e7453776170546f6b656e4f7574416d6f756e747300000000000087820152610669565b946101a09586527f736574746c6564546f6b656e416d6f756e7473000000000000000000000000008751916103078361062b565b60138352820152610669565b946101c09586525195614692978861075289396080518881816102cb015281816105990152818161197b0152612ae3015260a0518881816102670152818161050601528181611ad801528181611d3c01528181611f7b015281816121a80152818161234101528181612452015281816124e0015281816125a2015281816129e401528181612cd201528181612eaa01528181612ef201528181612f700152818161301701528181613125015281816131a2015281816134370152818161356601528181613603015281816136c901528181613dc101528181613ef80152818161416d01528181614292015261445c015260c0518881816118e001526138d7015260e051888181602201528181610fb001528181612a7301528181613e1701528181613f92015281816140ff01526143e50152518781816108d101528181610abc01528181610bd00152818161209d0152818161212301528181613297015261426e0152518681816109d10152818161190f015261287301525185818161263e0152818161282501528181612b7f01526137f5015251848181611d9e01528181611fef015281816123a4015281816126a30152818161280101528181612d4701526137c5015251838181611e9c0152818161266a01528181612851015281816134ac015281816137270152613848015251828181611dc5015281816126f6015281816128b101528181612d6f01526134ee0152518181816123ce015281816126d401528181612da00152818161307401526138260152f35b015192505f80610155565b91938316915f805283875f20935f5b898883831061059b5750505010610583575b505050811b015f55610166565b01515f1960f88460031b161c191690555f8080610576565b868601518855909601959485019487935001610564565b5f8052875f208380870160051c8201928a88106105ec575b0160051c019084905b8281106105e157505061013b565b5f81550184906105d3565b925081926105ca565b634e487b7160e01b5f52602260045260245ffd5b90607f169061012b565b634e487b7160e01b5f52604160045260245ffd5b5f80fd5b604081019081106001600160401b0382111761061357604052565b601f909101601f19168101906001600160401b0382119082101761061357604052565b61069c906040516106798161062b565b60118152702130ba31b42937baba32b921b7b6b6b7b760791b602082015261069f565b90565b9061070c603a60209260405193849181808401977f62616c616e6365722d6c6162732e76332e73746f726167652e000000000000008952805191829101603986015e830190601760f91b60398301528051928391018583015e015f8382015203601a810184520182610646565b5190205f19810190811161073d576040519060208201908152602082526107328261062b565b9051902060ff191690565b634e487b7160e01b5f52601160045260245ffdfe60806040526004361015610072575b3615610018575f80fd5b6001600160a01b037f000000000000000000000000000000000000000000000000000000000000000016330361004a57005b7f0540ddf6000000000000000000000000000000000000000000000000000000005f5260045ffd5b5f3560e01c806308a465f614610fd4578063107c279f14610f9157806319c6989f146108f55780631bbf2e23146108b2578063286f580d1461081b5780632950286e1461073057806354fd4d50146105f35780635a3c3987146105ca5780635e01eb5a146105855780638a12a08c1461052a5780638d928af8146104e75780638eb1b65e146103e0578063945ed33f14610365578063ac9650d8146103215763e3b5dff40361000e573461031d5760608060031936011261031d5767ffffffffffffffff60043581811161031d5761014e9036906004016113fb565b6101566112d8565b60443592831161031d57610171610179933690600401611104565b939091612ade565b905f5b835181101561019d57805f87610194600194886117c8565b5101520161017c565b5061021161021f61025a946101d75f9488604051936101bb85611251565b30855260208501525f19604085015286606085015236916114b8565b60808201526040519283917f8a12a08c00000000000000000000000000000000000000000000000000000000602084015260248301611575565b03601f198101835282611289565b604051809481927fedfa3568000000000000000000000000000000000000000000000000000000008352602060048401526024830190611132565b0381836001600160a01b037f0000000000000000000000000000000000000000000000000000000000000000165af1918215610312576102c4926102af915f916102f0575b506020808251830101910161170b565b909391926102c8575b60405193849384611066565b0390f35b5f7f00000000000000000000000000000000000000000000000000000000000000005d6102b8565b61030c91503d805f833e6103048183611289565b810190611684565b8461029f565b6040513d5f823e3d90fd5b5f80fd5b602060031936011261031d5760043567ffffffffffffffff811161031d576103596103536102c49236906004016110d3565b906118d2565b60405191829182611157565b3461031d5761037336611001565b61037b611aa1565b610383611ace565b6103b16102c461039283612b20565b919390946103ab60606103a48361147b565b920161148f565b906127fe565b5f7f9b779b17422d0df92223018b32b4d1fa46e071723d6817e2486d003becc55f005d60405193849384611066565b608060031936011261031d5767ffffffffffffffff60043581811161031d5761040d9036906004016113fb565b906104166112ee565b9060643590811161031d576102116104ac61025a9461047261043d5f953690600401611104565b61044633612ade565b976040519461045486611251565b338652602086015260243560408601521515606085015236916114b8565b60808201526040519283917f945ed33f00000000000000000000000000000000000000000000000000000000602084015260248301611809565b604051809481927f48c89491000000000000000000000000000000000000000000000000000000008352602060048401526024830190611132565b3461031d575f60031936011261031d5760206040516001600160a01b037f0000000000000000000000000000000000000000000000000000000000000000168152f35b3461031d576102c461055361053e36611001565b610546611aa1565b61054e611ace565b611b97565b5f7f9b779b17422d0df92223018b32b4d1fa46e071723d6817e2486d003becc55f009492945d60405193849384611066565b3461031d575f60031936011261031d5760207f00000000000000000000000000000000000000000000000000000000000000005c6001600160a01b0360405191168152f35b3461031d576102c46105536105de36611001565b6105e6611aa1565b6105ee611ace565b612b20565b3461031d575f60031936011261031d576040515f5f549060018260011c9160018416918215610726575b60209485851084146106f95785879486865291825f146106bb575050600114610662575b5061064e92500383611289565b6102c4604051928284938452830190611132565b5f808052859250907f290decd9548b62a8d60345a988386fc84ba6bc95484008f6362f93160ef3e5635b8583106106a357505061064e935082010185610641565b8054838901850152879450869390920191810161068c565b7fffffffffffffffffffffffffffffffffffffffffffffffffffffffffffffff00168582015261064e95151560051b85010192508791506106419050565b7f4e487b71000000000000000000000000000000000000000000000000000000005f52602260045260245ffd5b92607f169261061d565b3461031d57606060031936011261031d5767ffffffffffffffff60043581811161031d576107629036906004016113fb565b9061076b6112d8565b60443591821161031d5761078661078e923690600401611104565b929091612ade565b905f5b84518110156107c357806fffffffffffffffffffffffffffffffff60406107ba600194896117c8565b51015201610791565b5061021161021f856107e15f9461025a97604051936101bb85611251565b60808201526040519283917f5a3c398700000000000000000000000000000000000000000000000000000000602084015260248301611809565b608060031936011261031d5767ffffffffffffffff60043581811161031d576108489036906004016113fb565b906108516112ee565b9060643590811161031d576102116104ac61025a9461087861043d5f953690600401611104565b60808201526040519283917f08a465f600000000000000000000000000000000000000000000000000000000602084015260248301611575565b3461031d575f60031936011261031d5760206040516001600160a01b037f0000000000000000000000000000000000000000000000000000000000000000168152f35b60a060031936011261031d5767ffffffffffffffff6004351161031d5736602360043501121561031d5767ffffffffffffffff600435600401351161031d5736602460c0600435600401350260043501011161031d5760243567ffffffffffffffff811161031d5761096b9036906004016110d3565b67ffffffffffffffff6044351161031d5760606003196044353603011261031d5760643567ffffffffffffffff811161031d576109ac903690600401611104565b60843567ffffffffffffffff811161031d576109cc9036906004016110d3565b9490937f0000000000000000000000000000000000000000000000000000000000000000610f69576109fc611aa1565b806004356004013503610f41575f5b600435600401358110610c9e5750505060443560040135907fffffffffffffffffffffffffffffffffffffffffffffffffffffffffffffffdd60443536030182121561031d57816044350160048101359067ffffffffffffffff821161031d5760248260071b360391011361031d57610aaf575b6102c461035986865f7f9b779b17422d0df92223018b32b4d1fa46e071723d6817e2486d003becc55f005d6118d2565b6001600160a01b039492947f0000000000000000000000000000000000000000000000000000000000000000163b1561031d57604051947f2a2d80d10000000000000000000000000000000000000000000000000000000086523360048701526060602487015260c486019260443501602481019367ffffffffffffffff60048301351161031d57600482013560071b3603851361031d5760606064890152600482013590529192869260e484019291905f905b60048101358210610c2057505050602091601f19601f865f9787956001600160a01b03610b946024604435016112c4565b16608488015260448035013560a48801526003198787030160448801528186528786013787868286010152011601030181836001600160a01b037f0000000000000000000000000000000000000000000000000000000000000000165af1918215610312576102c49361035993610c11575b829450819350610a7f565b610c1a9061123d565b84610c06565b9195945091926001600160a01b03610c37876112c4565b168152602080870135916001600160a01b03831680930361031d57600492600192820152610c6760408901612acb565b65ffffffffffff8091166040830152610c8260608a01612acb565b1660608201526080809101970193019050889495939291610b63565b610cb3610cac828486611a86565b36916114b8565b604051610cbf816111d8565b5f81526020915f838301525f60408301528281015190606060408201519101515f1a91835283830152604082015260c07fffffffffffffffffffffffffffffffffffffffffffffffffffffffffffffffdc818502600435013603011261031d5760405190610d2c82611221565b610d3f602460c0860260043501016112c4565b808352610d55604460c0870260043501016112c4565b908185850152610d6e606460c0880260043501016112c4565b60408581019190915260043560c08802016084810135606087015260a4810135608087015260c4013560a086015283015183519386015160ff91909116926001600160a01b0383163b1561031d575f6001600160a01b03809460e4948b98849860c460c06040519c8d9b8c9a7fd505accf000000000000000000000000000000000000000000000000000000008c521660048b01523060248b0152608482820260043501013560448b0152026004350101356064880152608487015260a486015260c4850152165af19081610f32575b50610f2857610e4b612a9c565b906001600160a01b0381511690836001600160a01b0381830151166044604051809581937fdd62ed3e00000000000000000000000000000000000000000000000000000000835260048301523060248301525afa918215610312575f92610ef8575b506060015103610ec35750506001905b01610a0b565b805115610ed05780519101fd5b7fa7285689000000000000000000000000000000000000000000000000000000005f5260045ffd5b9091508381813d8311610f21575b610f108183611289565b8101031261031d5751906060610ead565b503d610f06565b5050600190610ebd565b610f3b9061123d565b8a610e3e565b7faaad13f7000000000000000000000000000000000000000000000000000000005f5260045ffd5b7f29a270f5000000000000000000000000000000000000000000000000000000005f5260045ffd5b3461031d575f60031936011261031d5760206040516001600160a01b037f0000000000000000000000000000000000000000000000000000000000000000168152f35b3461031d57610fe236611001565b610fea611aa1565b610ff2611ace565b6103b16102c461039283611b97565b6003199060208282011261031d576004359167ffffffffffffffff831161031d578260a09203011261031d5760040190565b9081518082526020808093019301915f5b828110611052575050505090565b835185529381019392810192600101611044565b93929061107b90606086526060860190611033565b936020948181036020830152602080855192838152019401905f5b8181106110b6575050506110b39394506040818403910152611033565b90565b82516001600160a01b031686529487019491870191600101611096565b9181601f8401121561031d5782359167ffffffffffffffff831161031d576020808501948460051b01011161031d57565b9181601f8401121561031d5782359167ffffffffffffffff831161031d576020838186019501011161031d57565b90601f19601f602080948051918291828752018686015e5f8582860101520116010190565b6020808201906020835283518092526040830192602060408460051b8301019501935f915b84831061118c5750505050505090565b90919293949584806111c8837fffffffffffffffffffffffffffffffffffffffffffffffffffffffffffffffc086600196030187528a51611132565b980193019301919493929061117c565b6060810190811067ffffffffffffffff8211176111f457604052565b7f4e487b71000000000000000000000000000000000000000000000000000000005f52604160045260245ffd5b60c0810190811067ffffffffffffffff8211176111f457604052565b67ffffffffffffffff81116111f457604052565b60a0810190811067ffffffffffffffff8211176111f457604052565b60e0810190811067ffffffffffffffff8211176111f457604052565b90601f601f19910116810190811067ffffffffffffffff8211176111f457604052565b67ffffffffffffffff81116111f45760051b60200190565b35906001600160a01b038216820361031d57565b602435906001600160a01b038216820361031d57565b60443590811515820361031d57565b91909160808184031261031d57604090815191608083019467ffffffffffffffff95848110878211176111f45782528395611337846112c4565b85526020908185013590811161031d57840182601f8201121561031d57803590611360826112ac565b9361136d86519586611289565b828552838501908460608095028401019281841161031d578501915b8383106113ab5750505050508401528181013590830152606090810135910152565b848383031261031d578751906113c0826111d8565b6113c9846112c4565b82526113d68785016112c4565b878301528884013590811515820361031d578288928b89950152815201920191611389565b81601f8201121561031d57803591602091611415846112ac565b936114236040519586611289565b808552838086019160051b8301019280841161031d57848301915b84831061144e5750505050505090565b823567ffffffffffffffff811161031d578691611470848480948901016112fd565b81520192019161143e565b356001600160a01b038116810361031d5790565b35801515810361031d5790565b67ffffffffffffffff81116111f457601f01601f191660200190565b9291926114c48261149c565b916114d26040519384611289565b82948184528183011161031d578281602093845f960137010152565b9060808101916001600160a01b03808251168352602093848301519460808186015285518092528060a086019601925f905b8382106115425750505050506060816040829301516040850152015191015290565b84518051821689528084015182168985015260409081015115159089015260609097019693820193600190910190611520565b91909160209081815260c08101916001600160a01b0385511681830152808501519260a06040840152835180915260e08301918060e08360051b8601019501925f905b8382106115f457505050505060808460406110b3959601516060840152606081015115158284015201519060a0601f1982850301910152611132565b9091929395838061162f837fffffffffffffffffffffffffffffffffffffffffffffffffffffffffffffff208a600196030186528a516114ee565b980192019201909392916115b8565b81601f8201121561031d578051906116558261149c565b926116636040519485611289565b8284526020838301011161031d57815f9260208093018386015e8301015290565b9060208282031261031d57815167ffffffffffffffff811161031d576110b3920161163e565b9080601f8301121561031d578151906020916116c5816112ac565b936116d36040519586611289565b81855260208086019260051b82010192831161031d57602001905b8282106116fc575050505090565b815181529083019083016116ee565b909160608284031261031d5781519167ffffffffffffffff9283811161031d57846117379183016116aa565b9360208083015185811161031d5783019082601f8301121561031d5781519161175f836112ac565b9261176d6040519485611289565b808452828085019160051b8301019185831161031d578301905b8282106117a9575050505093604083015190811161031d576110b392016116aa565b81516001600160a01b038116810361031d578152908301908301611787565b80518210156117dc5760209160051b010190565b7f4e487b71000000000000000000000000000000000000000000000000000000005f52603260045260245ffd5b91909160209081815260c08101916001600160a01b0385511681830152808501519260a06040840152835180915260e08301918060e08360051b8601019501925f905b83821061188857505050505060808460406110b3959601516060840152606081015115158284015201519060a0601f1982850301910152611132565b909192939583806118c3837fffffffffffffffffffffffffffffffffffffffffffffffffffffffffffffff208a600196030186528a516114ee565b9801920192019093929161184c565b91906118dd33612ade565b907f000000000000000000000000000000000000000000000000000000000000000093845c611a0d576001906001865d7f0000000000000000000000000000000000000000000000000000000000000000610f695761193b836112ac565b926119496040519485611289565b808452601f19611958826112ac565b015f5b8181106119fc5750505f5b8181106119b35750505050905f6119a892945d7f0000000000000000000000000000000000000000000000000000000000000000805c916119aa575b506138ce565b565b5f905d5f6119a2565b806119e05f806119c8610cac8996888a611a86565b602081519101305af46119d9612a9c565b9030614021565b6119ea82886117c8565b526119f581876117c8565b5001611966565b80606060208093890101520161195b565b7f3ee5aeb5000000000000000000000000000000000000000000000000000000005f5260045ffd5b9035907fffffffffffffffffffffffffffffffffffffffffffffffffffffffffffffffe18136030182121561031d570180359067ffffffffffffffff821161031d5760200191813603831361031d57565b908210156117dc57611a9d9160051b810190611a35565b9091565b7f9b779b17422d0df92223018b32b4d1fa46e071723d6817e2486d003becc55f00805c611a0d576001905d565b6001600160a01b037f0000000000000000000000000000000000000000000000000000000000000000163303611b0057565b7f089676d5000000000000000000000000000000000000000000000000000000005f523360045260245ffd5b90611b36826112ac565b611b436040519182611289565b828152601f19611b5382946112ac565b0190602036910137565b91908201809211611b6a57565b7f4e487b71000000000000000000000000000000000000000000000000000000005f52601160045260245ffd5b604081013542116127985790611bba611bb36020840184613911565b9050611b2c565b915f5b611bca6020830183613911565b905081101561269c57611bf481611bef611be76020860186613911565b369391613965565b6112fd565b936040850151936001600160a01b038651169060208701518051156117dc576020015160400151151580612693575b1561263857611c48611c348661147b565b8784611c4260608a0161148f565b926140de565b5f5b60208801515181101561262857611c5f6139a5565b6020890151515f198101908111611b6a578214806020830152821582525f14612621576060890151905b611c978360208c01516117c8565b51604081015190919015611e4757611d2f6001600160a01b03835116936001600160a01b03881685145f14611e40576001945b60405195611cd787611251565b5f8752611ce3816139db565b6020870152604086015260609485918d838301526080820152604051809381927f43583be500000000000000000000000000000000000000000000000000000000835260048301613c3f565b03815f6001600160a01b037f0000000000000000000000000000000000000000000000000000000000000000165af1938415610312575f94611e09575b50506020015115611def57816001600160a01b036020611de99360019695611d948c8c6117c8565b52015116611dc2817f000000000000000000000000000000000000000000000000000000000000000061407b565b507f00000000000000000000000000000000000000000000000000000000000000006140c5565b01611c4a565b602001519097506001600160a01b03169250600190611de9565b60209294509081611e2e92903d10611e39575b611e268183611289565b810190613a12565b91505092905f611d6c565b503d611e1c565b5f94611cca565b888a6001600160a01b038495945116806001600160a01b038a16145f14612261575050815115905061219d57888a80151580612182575b61207c575b6001600160a01b03939291611f3682611f6e978b5f95897f0000000000000000000000000000000000000000000000000000000000000000921680885282602052604088205c61206b575b5050505b6001611ef58983511660208401998b8b51169080158a146120655750839161440e565b999092511694611f0a60809182810190611a35565b93909460405197611f1a89611221565b88523060208901526040880152606087015285015236916114b8565b60a0820152604051809681927f2145789700000000000000000000000000000000000000000000000000000000835260048301613bce565b0381836001600160a01b037f0000000000000000000000000000000000000000000000000000000000000000165af1938415610312575f9461203b575b5060200151156120185791611fe7826001600160a01b0360019695611fd361201396866117c8565b51611fde8d8d6117c8565b525116926117c8565b5190611dc2817f000000000000000000000000000000000000000000000000000000000000000061407b565b611de9565b98506001929450612031906001600160a01b03926117c8565b5197511692611de9565b602091945061205b903d805f833e6120538183611289565b810190613b86565b5094919050611fab565b9161440e565b61207492614522565b5f8281611ece565b506120899092919261147b565b916120938b6144de565b6001600160a01b037f0000000000000000000000000000000000000000000000000000000000000000163b1561031d576040517f36c785160000000000000000000000000000000000000000000000000000000081526001600160a01b039485166004820152306024820152908416604482015292871660648401525f8380608481010381836001600160a01b037f0000000000000000000000000000000000000000000000000000000000000000165af18015610312578a611f368d611f6e976001600160a01b03975f95612173575b50975092505091929350611e83565b61217c9061123d565b5f612164565b5061218c8261147b565b6001600160a01b0316301415611e7e565b906001600160a01b037f000000000000000000000000000000000000000000000000000000000000000016916001600160a01b0384511692803b1561031d576040517fae6393290000000000000000000000000000000000000000000000000000000081526001600160a01b03949094166004850152306024850152604484018c90525f908490606490829084905af18015610312578a611f368d611f6e976001600160a01b03975f95612252575b50611ed2565b61225b9061123d565b5f61224c565b6001600160a01b0360208796949701511690898183145f14612506576122fc925061233497915060016122a25f96956001600160a01b0393848b511661440e565b509282895116956020890151151588146124dd576122bf8261147b565b945b6122d060809384810190611a35565b959096604051996122e08b611221565b8a521660208901526040880152606087015285015236916114b8565b60a0820152604051809581927f4af29ec400000000000000000000000000000000000000000000000000000000835260048301613b15565b0381836001600160a01b037f0000000000000000000000000000000000000000000000000000000000000000165af1928315610312575f936124b3575b5060200151156123f257816001600160a01b03602061201393600196956123988c8c6117c8565b526123c88383830151167f000000000000000000000000000000000000000000000000000000000000000061407b565b500151167f00000000000000000000000000000000000000000000000000000000000000006140c5565b60208181015191516040517f15afd4090000000000000000000000000000000000000000000000000000000081526001600160a01b03918216600482015260248101859052939a50909116945081806044810103815f6001600160a01b037f0000000000000000000000000000000000000000000000000000000000000000165af1801561031257612488575b50600190611de9565b602090813d83116124ac575b61249e8183611289565b8101031261031d575f61247f565b503d612494565b60209193506124d3903d805f833e6124cb8183611289565b810190613a99565b5093919050612371565b837f000000000000000000000000000000000000000000000000000000000000000016946122c1565b6001600160a01b036125959561255d93949561252760809b8c810190611a35565b939094604051976125378961126d565b5f8952602089015216604087015260609a8b978888015286015260a085015236916114b8565b60c0820152604051809381927f2bfb780c00000000000000000000000000000000000000000000000000000000835260048301613a2d565b03815f6001600160a01b037f0000000000000000000000000000000000000000000000000000000000000000165af1938415610312575f946125fa575b50506020015115611def57816001600160a01b0360206120139360019695611d948c8c6117c8565b6020929450908161261692903d10611e3957611e268183611289565b91505092905f6125d2565b5f90611c89565b5091955090935050600101611bbd565b612662827f000000000000000000000000000000000000000000000000000000000000000061407b565b5061268e86837f00000000000000000000000000000000000000000000000000000000000000006140c5565b611c48565b50321515611c23565b50506126c77f0000000000000000000000000000000000000000000000000000000000000000613c8e565b916126d28351611b2c565b7f0000000000000000000000000000000000000000000000000000000000000000917f000000000000000000000000000000000000000000000000000000000000000091905f5b865181101561278f576001906001600160a01b0380612738838b6117c8565b51165f528560205261276660405f205c82612753858d6117c8565b51165f528860205260405f205c90611b5d565b61277083876117c8565b5261277b828a6117c8565b51165f52856020525f604081205d01612719565b50949391509150565b7fe08b8af0000000000000000000000000000000000000000000000000000000005f5260045ffd5b905f198201918213600116611b6a57565b7f80000000000000000000000000000000000000000000000000000000000000008114611b6a575f190190565b907f000000000000000000000000000000000000000000000000000000000000000090815c7f000000000000000000000000000000000000000000000000000000000000000061284e815c6127c0565b907f0000000000000000000000000000000000000000000000000000000000000000907f000000000000000000000000000000000000000000000000000000000000000015918215935b5f8112156129375750505050506128ae906127c0565b917f0000000000000000000000000000000000000000000000000000000000000000925b5f8112156128e757505050506119a8906138ce565b61293290825f5261292c60205f83828220015c918282528881528860409161291f8a8d8587205c906001600160a01b03891690613d9d565b8484525281205d84613cfa565b506127d1565b6128d2565b825f5260209080825f20015c91825f52838152836040918a8d845f205c908b8b90612a5f575b15612995579261298361292c96938996935f966001600160a01b036129909c16906140de565b8484525281205d85613cfa565b612898565b5084517f15afd4090000000000000000000000000000000000000000000000000000000081526001600160a01b0388811660048301526024820192909252929350839150829060449082905f907f0000000000000000000000000000000000000000000000000000000000000000165af18015612a555790869291612a26575b5061292c9261299095925f92612983565b81809693503d8311612a4e575b612a3d8183611289565b8101031261031d579284905f612a15565b503d612a33565b83513d5f823e3d90fd5b5082801561295d57506001600160a01b03807f0000000000000000000000000000000000000000000000000000000000000000169089161461295d565b3d15612ac6573d90612aad8261149c565b91612abb6040519384611289565b82523d5f602084013e565b606090565b359065ffffffffffff8216820361031d57565b905f917f00000000000000000000000000000000000000000000000000000000000000006001600160a01b03815c1615612b16575050565b909192505d600190565b906040820135421161279857612b3c611bb36020840184613911565b915f5b612b4c6020830183613911565b90508110156137ee57612b6981611bef611be76020860186613911565b606081015190612ba36001600160a01b038251167f000000000000000000000000000000000000000000000000000000000000000061407b565b506020810151515f198101908111611b6a575b5f811215612bc957505050600101612b3f565b612bd78160208401516117c8565b51612be06139a5565b9082156020830152602084015151805f19810111611b6a575f190183148083526137ad575b6020820151156137725760408401516001600160a01b03855116915b604081015115612e3b5783916001600160a01b036060926020612cc5970151151580612e32575b612e0b575b5116906001600160a01b0385168203612e04576001915b60405192612c7184611251565b60018452612c7e816139db565b6020840152604083015288838301526080820152604051809581927f43583be500000000000000000000000000000000000000000000000000000000835260048301613c3f565b03815f6001600160a01b037f0000000000000000000000000000000000000000000000000000000000000000165af19283156103125787918b915f95612ddd575b506020015115612dce57612dc49284612d27612dc9979694612d93946117c8565b526001600160a01b03612d3e8460408a01516139ce565b91612d6b8282167f000000000000000000000000000000000000000000000000000000000000000061407b565b50167f00000000000000000000000000000000000000000000000000000000000000006140c5565b6001600160a01b038551167f00000000000000000000000000000000000000000000000000000000000000006140c5565b6127d1565b612bb6565b505050612dc9919350926127d1565b6020919550612dfa9060603d606011611e3957611e268183611289565b5095919050612d06565b5f91612c64565b612e2d612e178d61147b565b8d8b611c4288604088845116930151930161148f565b612c4d565b50321515612c48565b906001600160a01b03825116806001600160a01b038516145f14613355575060208401516132675750604051927f967870920000000000000000000000000000000000000000000000000000000084526001600160a01b03831660048501526020846024816001600160a01b037f0000000000000000000000000000000000000000000000000000000000000000165afa938415610312575f94613233575b5083916001600160a01b038151166001600160a01b037f0000000000000000000000000000000000000000000000000000000000000000163b1561031d576040517fae6393290000000000000000000000000000000000000000000000000000000081526001600160a01b03909116600482015230602482015260448101959095525f8580606481010381836001600160a01b037f0000000000000000000000000000000000000000000000000000000000000000165af19081156103125761300a955f92613224575b505b611f366001600160a01b03612fc68b82855116836020870151169061440e565b50925116918c6002612fdd60809283810190611a35565b92909360405196612fed88611221565b8752306020880152896040880152606087015285015236916114b8565b0381836001600160a01b037f0000000000000000000000000000000000000000000000000000000000000000165af1938415610312575f94613201575b5060200151156130ed57908291612dc99493613063898d6117c8565b52613098836001600160a01b0384167f00000000000000000000000000000000000000000000000000000000000000006140c5565b808310806130d2575b6130ae575b5050506127d1565b6130c46130ca936130be8b61147b565b926139ce565b91614537565b5f80806130a6565b50306001600160a01b036130e58b61147b565b1614156130a1565b9450908094808210613106575b505050612dc9906127d1565b91613116602092613195946139ce565b9061314b826001600160a01b037f00000000000000000000000000000000000000000000000000000000000000001683614537565b60405193849283927f15afd40900000000000000000000000000000000000000000000000000000000845260048401602090939291936001600160a01b0360408201951681520152565b03815f6001600160a01b037f0000000000000000000000000000000000000000000000000000000000000000165af18015610312576131d6575b80806130fa565b602090813d83116131fa575b6131ec8183611289565b8101031261031d575f6131cf565b503d6131e2565b6020919450613219903d805f833e6120538183611289565b509094919050613047565b61322d9061123d565b5f612fa4565b9093506020813d60201161325f575b8161324f60209383611289565b8101031261031d5751925f612eda565b3d9150613242565b90926132728961147b565b6001600160a01b033091160361328d575b5f61300a94612fa6565b6001600160a01b037f000000000000000000000000000000000000000000000000000000000000000016936132c18a61147b565b6132ca846144de565b90863b1561031d576040517f36c785160000000000000000000000000000000000000000000000000000000081526001600160a01b039182166004820152306024820152918116604483015285166064820152945f908690608490829084905af19081156103125761300a955f92613346575b50945050613283565b61334f9061123d565b5f61333d565b6001600160a01b036020849695940151168a8282145f146136295750505061342a61338c5f92846001600160a01b0388511661440e565b92906133f28c6001600160a01b03808a5116938951151586146135fd576133c16133b58461147b565b935b6080810190611a35565b929093604051966133d188611221565b875216602086015260408501528c60608501526002608085015236916114b8565b60a0820152604051809381927f4af29ec400000000000000000000000000000000000000000000000000000000835260048301613b15565b0381836001600160a01b037f0000000000000000000000000000000000000000000000000000000000000000165af1908115610312575f916135e2575b5060208401518c908a90156135c85783836001600160a01b03936134a16134a79461349a8f9c9b9a98996134d09a6117c8565b51926117c8565b526117c8565b5191167f00000000000000000000000000000000000000000000000000000000000000006140c5565b511561351257612dc992916001600160a01b036020612dc4930151167f0000000000000000000000000000000000000000000000000000000000000000614522565b516040517f15afd4090000000000000000000000000000000000000000000000000000000081526001600160a01b0390911660048201526024810191909152602081806044810103815f6001600160a01b037f0000000000000000000000000000000000000000000000000000000000000000165af180156103125761359d575b50612dc9906127d1565b602090813d83116135c1575b6135b38183611289565b8101031261031d575f613593565b503d6135a9565b50509091506135d9929396506117c8565b519384916134d0565b6135f691503d805f833e6124cb8183611289565b9050613467565b6133c1827f000000000000000000000000000000000000000000000000000000000000000016936133b7565b6136bc965090613684916060948b61364960809998999384810190611a35565b939094604051976136598961126d565b6001895260208901526001600160a01b038b1660408901528888015286015260a085015236916114b8565b60c0820152604051809581927f2bfb780c00000000000000000000000000000000000000000000000000000000835260048301613a2d565b03815f6001600160a01b037f0000000000000000000000000000000000000000000000000000000000000000165af19283156103125787918b915f9561374b575b506020015115612dce57612dc49284613723612dc99796946001600160a01b03946117c8565b52167f00000000000000000000000000000000000000000000000000000000000000006140c5565b60209195506137689060603d606011611e3957611e268183611289565b50959190506136fd565b6fffffffffffffffffffffffffffffffff6001600160a01b0360206137a38188015161379d886127c0565b906117c8565b5101511691612c21565b6137e9856001600160a01b03602084015116611dc2817f000000000000000000000000000000000000000000000000000000000000000061407b565b612c05565b50506138197f0000000000000000000000000000000000000000000000000000000000000000613c8e565b916138248351611b2c565b7f0000000000000000000000000000000000000000000000000000000000000000917f000000000000000000000000000000000000000000000000000000000000000091905f5b865181101561278f576001906001600160a01b038061388a838b6117c8565b51165f52856020526138a560405f205c82612753858d6117c8565b6138af83876117c8565b526138ba828a6117c8565b51165f52856020525f604081205d0161386b565b47801561390d577f00000000000000000000000000000000000000000000000000000000000000005c61390d576001600160a01b036119a89216613fc3565b5050565b9035907fffffffffffffffffffffffffffffffffffffffffffffffffffffffffffffffe18136030182121561031d570180359067ffffffffffffffff821161031d57602001918160051b3603831361031d57565b91908110156117dc5760051b810135907fffffffffffffffffffffffffffffffffffffffffffffffffffffffffffffff818136030182121561031d570190565b604051906040820182811067ffffffffffffffff8211176111f4576040525f6020838281520152565b91908203918211611b6a57565b600211156139e557565b7f4e487b71000000000000000000000000000000000000000000000000000000005f52602160045260245ffd5b9081606091031261031d578051916040602083015192015190565b61010060c06110b393602084528051613a45816139db565b602085015260208101516001600160a01b0380911660408601528060408301511660608601526060820151166080850152608081015160a085015260a08101518285015201519160e0808201520190611132565b909160608284031261031d5781519167ffffffffffffffff9283811161031d5784613ac59183016116aa565b93602082015193604083015190811161031d576110b3920161163e565b9081518082526020808093019301915f5b828110613b01575050505090565b835185529381019392810192600101613af3565b602081526001600160a01b038083511660208301526020830151166040820152613b4e604083015160c0606084015260e0830190613ae2565b9060608301516080820152608083015160058110156139e5576110b39360a0918284015201519060c0601f1982850301910152611132565b9160608383031261031d5782519260208101519267ffffffffffffffff9384811161031d5781613bb79184016116aa565b93604083015190811161031d576110b3920161163e565b602081526001600160a01b03808351166020830152602083015116604082015260408201516060820152613c11606083015160c0608084015260e0830190613ae2565b90608083015160048110156139e5576110b39360a0918284015201519060c0601f1982850301910152611132565b91909160808060a08301948051613c55816139db565b84526020810151613c65816139db565b60208501526001600160a01b036040820151166040850152606081015160608501520151910152565b90815c613c9a816112ac565b613ca76040519182611289565b818152613cb3826112ac565b601f196020910136602084013781945f5b848110613cd2575050505050565b600190825f5280845f20015c6001600160a01b03613cf083886117c8565b9116905201613cc4565b6001810191805f5260209183835260405f205c8015155f14613d94575f1990818101835c8380820191828403613d57575b5050505050815c81810192818411611b6a575f93815d835284832001015d5f52525f604081205d600190565b613d64613d74938861462b565b865f52885f2001015c918561462b565b835f52808383885f2001015d5f5285855260405f205d5f80808381613d2b565b50505050505f90565b909392935f948315613fbb5780613f86575b15613ee957506001600160a01b0390817f000000000000000000000000000000000000000000000000000000000000000016803b1561031d576040517fae6393290000000000000000000000000000000000000000000000000000000081525f8160648183887f000000000000000000000000000000000000000000000000000000000000000016968760048401523060248401528a60448401525af1801561031257613ed6575b508086913b15613ed25781906024604051809481937f2e1a7d4d0000000000000000000000000000000000000000000000000000000083528960048401525af18015613ec757613eaf575b506119a893945016613fc3565b613eb9869161123d565b613ec35784613ea2565b8480fd5b6040513d88823e3d90fd5b5080fd5b613ee191965061123d565b5f945f613e57565b91909293506001600160a01b037f000000000000000000000000000000000000000000000000000000000000000016803b1561031d576040517fae6393290000000000000000000000000000000000000000000000000000000081526001600160a01b03938416600482015293909216602484015260448301525f908290606490829084905af1801561031257613f7d5750565b6119a89061123d565b506001600160a01b03807f00000000000000000000000000000000000000000000000000000000000000001690821614613daf565b505050509050565b814710613ff1575f8080936001600160a01b038294165af1613fe3612a9c565b9015613fec5750565b6145f4565b50477fcf479181000000000000000000000000000000000000000000000000000000005f5260045260245260445ffd5b9061402c57506145f4565b81511580614072575b61403d575090565b6001600160a01b03907f9996b315000000000000000000000000000000000000000000000000000000005f521660045260245ffd5b50803b15614035565b6001810190825f528160205260405f205c155f146140be57805c815f52838160205f20015d60018101809111611b6a57815d5c915f5260205260405f205d600190565b5050505f90565b905f526020526140da60405f2091825c611b5d565b905d565b9192806143d9575b1561425257505080471061422a576001600160a01b03807f00000000000000000000000000000000000000000000000000000000000000001691823b1561031d57604051907fd0e30db00000000000000000000000000000000000000000000000000000000082525f915f8160048185895af1801561031257614213575b506044602092937f00000000000000000000000000000000000000000000000000000000000000001694614199838783614537565b8460405196879485937f15afd409000000000000000000000000000000000000000000000000000000008552600485015260248401525af190811561420757506141e05750565b602090813d8311614200575b6141f68183611289565b8101031261031d57565b503d6141ec565b604051903d90823e3d90fd5b602092506142209061123d565b60445f9250614164565b7fa01a9df6000000000000000000000000000000000000000000000000000000005f5260045ffd5b90915f9080614262575b50505050565b6001600160a01b0393847f00000000000000000000000000000000000000000000000000000000000000001694807f000000000000000000000000000000000000000000000000000000000000000016916142bc846144de565b96803b1561031d576040517f36c785160000000000000000000000000000000000000000000000000000000081526001600160a01b039283166004820152848316602482015297821660448901529186161660648701525f908690608490829084905af194851561031257614381956143c5575b5082936020936040518097819582947f15afd40900000000000000000000000000000000000000000000000000000000845260048401602090939291936001600160a01b0360408201951681520152565b03925af1908115614207575061439a575b80808061425c565b602090813d83116143be575b6143b08183611289565b8101031261031d575f614392565b503d6143a6565b602093506143d29061123d565b5f92614330565b506001600160a01b03807f000000000000000000000000000000000000000000000000000000000000000016908216146140e6565b916044929391936001600160a01b03604094859282808551998a9586947fc9c1661b0000000000000000000000000000000000000000000000000000000086521660048501521660248301527f0000000000000000000000000000000000000000000000000000000000000000165afa938415612a55575f935f956144a7575b50506144a461449d8594611b2c565b94856117c8565b52565b809295508194503d83116144d7575b6144c08183611289565b8101031261031d5760208251920151925f8061448e565b503d6144b6565b6001600160a01b03908181116144f2571690565b7f6dfcc650000000000000000000000000000000000000000000000000000000005f5260a060045260245260445ffd5b905f526020526140da60405f2091825c6139ce565b90916040519060208201907fa9059cbb0000000000000000000000000000000000000000000000000000000082526001600160a01b038095166024840152604483015260448252608082019082821067ffffffffffffffff8311176111f4576020925f92604052519082855af115610312575f513d6145eb57508181163b155b6145bf575050565b7f5274afe7000000000000000000000000000000000000000000000000000000005f521660045260245ffd5b600114156145b7565b80511561460357602081519101fd5b7fd6bda275000000000000000000000000000000000000000000000000000000005f5260045ffd5b5c111561463457565b7f0f4ae0e4000000000000000000000000000000000000000000000000000000005f5260045ffdfea2646970667358221220301eec4abf29f5e602caf79e2a38946bb53ea90464022f5f1f51ec3a2839057c64736f6c634300081b0033",
  "linkReferences": {},
  "deployedLinkReferences": {}
}