{
  "_format": "hh-sol-artifact-1",
  "contractName": "BufferRouter",
  "sourceName": "contracts/BufferRouter.sol",
  "abi": [
    {
      "inputs": [
        {
          "internalType": "contract IVault",
          "name": "vault",
          "type": "address"
        },
        {
          "internalType": "contract IWETH",
          "name": "weth",
          "type": "address"
        },
        {
          "internalType": "contract IPermit2",
          "name": "permit2",
          "type": "address"
        },
        {
          "internalType": "string",
          "name": "routerVersion",
          "type": "string"
        }
      ],
      "stateMutability": "nonpayable",
      "type": "constructor"
    },
    {
      "inputs": [
        {
          "internalType": "address",
          "name": "target",
          "type": "address"
        }
      ],
      "name": "AddressEmptyCode",
      "type": "error"
    },
    {
      "inputs": [],
      "name": "ErrorSelectorNotFound",
      "type": "error"
    },
    {
      "inputs": [],
      "name": "EthTransfer",
      "type": "error"
    },
    {
      "inputs": [],
      "name": "FailedCall",
      "type": "error"
    },
    {
      "inputs": [],
      "name": "InputLengthMismatch",
      "type": "error"
    },
    {
      "inputs": [
        {
          "internalType": "uint256",
          "name": "balance",
          "type": "uint256"
        },
        {
          "internalType": "uint256",
          "name": "needed",
          "type": "uint256"
        }
      ],
      "name": "InsufficientBalance",
      "type": "error"
    },
    {
      "inputs": [],
      "name": "InsufficientEth",
      "type": "error"
    },
    {
      "inputs": [],
      "name": "OperationNotSupported",
      "type": "error"
    },
    {
      "inputs": [],
      "name": "ReentrancyGuardReentrantCall",
      "type": "error"
    },
    {
      "inputs": [
        {
          "internalType": "uint8",
          "name": "bits",
          "type": "uint8"
        },
        {
          "internalType": "uint256",
          "name": "value",
          "type": "uint256"
        }
      ],
      "name": "SafeCastOverflowedUintDowncast",
      "type": "error"
    },
    {
      "inputs": [
        {
          "internalType": "address",
          "name": "token",
          "type": "address"
        }
      ],
      "name": "SafeERC20FailedOperation",
      "type": "error"
    },
    {
      "inputs": [
        {
          "internalType": "address",
          "name": "sender",
          "type": "address"
        }
      ],
      "name": "SenderIsNotVault",
      "type": "error"
    },
    {
      "inputs": [],
      "name": "SwapDeadline",
      "type": "error"
    },
    {
      "inputs": [
        {
          "internalType": "contract IERC4626",
          "name": "wrappedToken",
          "type": "address"
        },
        {
          "internalType": "uint256",
          "name": "maxAmountUnderlyingIn",
          "type": "uint256"
        },
        {
          "internalType": "uint256",
          "name": "maxAmountWrappedIn",
          "type": "uint256"
        },
        {
          "internalType": "uint256",
          "name": "exactSharesToIssue",
          "type": "uint256"
        }
      ],
      "name": "addLiquidityToBuffer",
      "outputs": [
        {
          "internalType": "uint256",
          "name": "amountUnderlyingIn",
          "type": "uint256"
        },
        {
          "internalType": "uint256",
          "name": "amountWrappedIn",
          "type": "uint256"
        }
      ],
      "stateMutability": "nonpayable",
      "type": "function"
    },
    {
      "inputs": [
        {
          "internalType": "contract IERC4626",
          "name": "wrappedToken",
          "type": "address"
        },
        {
          "internalType": "uint256",
          "name": "maxAmountUnderlyingIn",
          "type": "uint256"
        },
        {
          "internalType": "uint256",
          "name": "maxAmountWrappedIn",
          "type": "uint256"
        },
        {
          "internalType": "uint256",
          "name": "exactSharesToIssue",
          "type": "uint256"
        },
        {
          "internalType": "address",
          "name": "sharesOwner",
          "type": "address"
        }
      ],
      "name": "addLiquidityToBufferHook",
      "outputs": [
        {
          "internalType": "uint256",
          "name": "amountUnderlyingIn",
          "type": "uint256"
        },
        {
          "internalType": "uint256",
          "name": "amountWrappedIn",
          "type": "uint256"
        }
      ],
      "stateMutability": "nonpayable",
      "type": "function"
    },
    {
      "inputs": [],
      "name": "getPermit2",
      "outputs": [
        {
          "internalType": "contract IPermit2",
          "name": "",
          "type": "address"
        }
      ],
      "stateMutability": "view",
      "type": "function"
    },
    {
      "inputs": [],
      "name": "getSender",
      "outputs": [
        {
          "internalType": "address",
          "name": "",
          "type": "address"
        }
      ],
      "stateMutability": "view",
      "type": "function"
    },
    {
      "inputs": [],
      "name": "getVault",
      "outputs": [
        {
          "internalType": "contract IVault",
          "name": "",
          "type": "address"
        }
      ],
      "stateMutability": "view",
      "type": "function"
    },
    {
      "inputs": [],
      "name": "getWeth",
      "outputs": [
        {
          "internalType": "contract IWETH",
          "name": "",
          "type": "address"
        }
      ],
      "stateMutability": "view",
      "type": "function"
    },
    {
      "inputs": [
        {
          "internalType": "contract IERC4626",
          "name": "wrappedToken",
          "type": "address"
        },
        {
          "internalType": "uint256",
          "name": "exactAmountUnderlyingIn",
          "type": "uint256"
        },
        {
          "internalType": "uint256",
          "name": "exactAmountWrappedIn",
          "type": "uint256"
        },
        {
          "internalType": "uint256",
          "name": "minIssuedShares",
          "type": "uint256"
        }
      ],
      "name": "initializeBuffer",
      "outputs": [
        {
          "internalType": "uint256",
          "name": "issuedShares",
          "type": "uint256"
        }
      ],
      "stateMutability": "nonpayable",
      "type": "function"
    },
    {
      "inputs": [
        {
          "internalType": "contract IERC4626",
          "name": "wrappedToken",
          "type": "address"
        },
        {
          "internalType": "uint256",
          "name": "exactAmountUnderlyingIn",
          "type": "uint256"
        },
        {
          "internalType": "uint256",
          "name": "exactAmountWrappedIn",
          "type": "uint256"
        },
        {
          "internalType": "uint256",
          "name": "minIssuedShares",
          "type": "uint256"
        },
        {
          "internalType": "address",
          "name": "sharesOwner",
          "type": "address"
        }
      ],
      "name": "initializeBufferHook",
      "outputs": [
        {
          "internalType": "uint256",
          "name": "issuedShares",
          "type": "uint256"
        }
      ],
      "stateMutability": "nonpayable",
      "type": "function"
    },
    {
      "inputs": [
        {
          "internalType": "bytes[]",
          "name": "data",
          "type": "bytes[]"
        }
      ],
      "name": "multicall",
      "outputs": [
        {
          "internalType": "bytes[]",
          "name": "results",
          "type": "bytes[]"
        }
      ],
      "stateMutability": "payable",
      "type": "function"
    },
    {
      "inputs": [
        {
          "components": [
            {
              "internalType": "address",
              "name": "token",
              "type": "address"
            },
            {
              "internalType": "address",
              "name": "owner",
              "type": "address"
            },
            {
              "internalType": "address",
              "name": "spender",
              "type": "address"
            },
            {
              "internalType": "uint256",
              "name": "amount",
              "type": "uint256"
            },
            {
              "internalType": "uint256",
              "name": "nonce",
              "type": "uint256"
            },
            {
              "internalType": "uint256",
              "name": "deadline",
              "type": "uint256"
            }
          ],
          "internalType": "struct IRouterCommon.PermitApproval[]",
          "name": "permitBatch",
          "type": "tuple[]"
        },
        {
          "internalType": "bytes[]",
          "name": "permitSignatures",
          "type": "bytes[]"
        },
        {
          "components": [
            {
              "components": [
                {
                  "internalType": "address",
                  "name": "token",
                  "type": "address"
                },
                {
                  "internalType": "uint160",
                  "name": "amount",
                  "type": "uint160"
                },
                {
                  "internalType": "uint48",
                  "name": "expiration",
                  "type": "uint48"
                },
                {
                  "internalType": "uint48",
                  "name": "nonce",
                  "type": "uint48"
                }
              ],
              "internalType": "struct IAllowanceTransfer.PermitDetails[]",
              "name": "details",
              "type": "tuple[]"
            },
            {
              "internalType": "address",
              "name": "spender",
              "type": "address"
            },
            {
              "internalType": "uint256",
              "name": "sigDeadline",
              "type": "uint256"
            }
          ],
          "internalType": "struct IAllowanceTransfer.PermitBatch",
          "name": "permit2Batch",
          "type": "tuple"
        },
        {
          "internalType": "bytes",
          "name": "permit2Signature",
          "type": "bytes"
        },
        {
          "internalType": "bytes[]",
          "name": "multicallData",
          "type": "bytes[]"
        }
      ],
      "name": "permitBatchAndCall",
      "outputs": [
        {
          "internalType": "bytes[]",
          "name": "results",
          "type": "bytes[]"
        }
      ],
      "stateMutability": "payable",
      "type": "function"
    },
    {
      "inputs": [
        {
          "internalType": "contract IERC4626",
          "name": "wrappedToken",
          "type": "address"
        },
        {
          "internalType": "uint256",
          "name": "exactSharesToIssue",
          "type": "uint256"
        }
      ],
      "name": "queryAddLiquidityToBuffer",
      "outputs": [
        {
          "internalType": "uint256",
          "name": "amountUnderlyingIn",
          "type": "uint256"
        },
        {
          "internalType": "uint256",
          "name": "amountWrappedIn",
          "type": "uint256"
        }
      ],
      "stateMutability": "nonpayable",
      "type": "function"
    },
    {
      "inputs": [
        {
          "internalType": "contract IERC4626",
          "name": "wrappedToken",
          "type": "address"
        },
        {
          "internalType": "uint256",
          "name": "exactSharesToIssue",
          "type": "uint256"
        }
      ],
      "name": "queryAddLiquidityToBufferHook",
      "outputs": [
        {
          "internalType": "uint256",
          "name": "amountUnderlyingIn",
          "type": "uint256"
        },
        {
          "internalType": "uint256",
          "name": "amountWrappedIn",
          "type": "uint256"
        }
      ],
      "stateMutability": "nonpayable",
      "type": "function"
    },
    {
      "inputs": [
        {
          "internalType": "contract IERC4626",
          "name": "wrappedToken",
          "type": "address"
        },
        {
          "internalType": "uint256",
          "name": "exactAmountUnderlyingIn",
          "type": "uint256"
        },
        {
          "internalType": "uint256",
          "name": "exactAmountWrappedIn",
          "type": "uint256"
        }
      ],
      "name": "queryInitializeBuffer",
      "outputs": [
        {
          "internalType": "uint256",
          "name": "issuedShares",
          "type": "uint256"
        }
      ],
      "stateMutability": "nonpayable",
      "type": "function"
    },
    {
      "inputs": [
        {
          "internalType": "contract IERC4626",
          "name": "wrappedToken",
          "type": "address"
        },
        {
          "internalType": "uint256",
          "name": "exactAmountUnderlyingIn",
          "type": "uint256"
        },
        {
          "internalType": "uint256",
          "name": "exactAmountWrappedIn",
          "type": "uint256"
        }
      ],
      "name": "queryInitializeBufferHook",
      "outputs": [
        {
          "internalType": "uint256",
          "name": "issuedShares",
          "type": "uint256"
        }
      ],
      "stateMutability": "nonpayable",
      "type": "function"
    },
    {
      "inputs": [
        {
          "internalType": "contract IERC4626",
          "name": "wrappedToken",
          "type": "address"
        },
        {
          "internalType": "uint256",
          "name": "exactSharesToRemove",
          "type": "uint256"
        }
      ],
      "name": "queryRemoveLiquidityFromBuffer",
      "outputs": [
        {
          "internalType": "uint256",
          "name": "removedUnderlyingBalanceOut",
          "type": "uint256"
        },
        {
          "internalType": "uint256",
          "name": "removedWrappedBalanceOut",
          "type": "uint256"
        }
      ],
      "stateMutability": "nonpayable",
      "type": "function"
    },
    {
      "inputs": [
        {
          "internalType": "contract IERC4626",
          "name": "wrappedToken",
          "type": "address"
        },
        {
          "internalType": "uint256",
          "name": "exactSharesToRemove",
          "type": "uint256"
        }
      ],
      "name": "queryRemoveLiquidityFromBufferHook",
      "outputs": [
        {
          "internalType": "uint256",
          "name": "removedUnderlyingBalanceOut",
          "type": "uint256"
        },
        {
          "internalType": "uint256",
          "name": "removedWrappedBalanceOut",
          "type": "uint256"
        }
      ],
      "stateMutability": "nonpayable",
      "type": "function"
    },
    {
      "inputs": [],
      "name": "version",
      "outputs": [
        {
          "internalType": "string",
          "name": "",
          "type": "string"
        }
      ],
      "stateMutability": "view",
      "type": "function"
    },
    {
      "stateMutability": "payable",
      "type": "receive"
    }
  ],
  "bytecode": "0x61014060409080825234610364576124bd803803809161001f8285610383565b83398101608082820312610364578151926001600160a01b03928385168503610364576020808201519185831683036103645783810151958616948587036103645760608201516001600160401b03928382116103645701601f98828a83011215610364578151848111610350578a92601f19946100a588878c51978601160186610383565b82855287838301011161036457815f92888093018387015e8401015261010987516100cf81610368565b600b81526a14d95b99195c91dd585c9960aa1b878201528851906100f282610368565b600682526539b2b73232b960d11b888301526103a6565b60805260a0528051928311610350575f54916001928381811c91168015610346575b86821014610332578a81116102ef575b5084998411600114610290575082916101bc959697989983925f94610285575b50501b915f199060031b1c1916175f555b835161017781610368565b600c81526b2937baba32b921b7b6b6b7b760a11b82820152701a5cd4995d1d5c9b915d1a131bd8dad959607a1b8551926101b084610368565b601184528301526103a6565b60c05260e052610100928352610120911582525190612064928361045984396080518381816109fe0152611a00015260a05183818161022a01528181610365015281816105170152818161068e015281816107cb015281816108870152818161097d01528181610c8301528181610e3801528181611cf70152611d96015260c051838181611a400152611efd015260e05183818160310152611708015251828181610ec8015281816110e40152818161120b0152611d73015251818181610fef0152611a6f0152f35b015192505f8061015b565b83929316985f8052845f20915f5b8b81106102da5750836101bc9798999a9b106102c2575b505050811b015f5561016c565b01515f1960f88460031b161c191690555f80806102b5565b8183015184559285019291860191860161029e565b5f8052855f208b80870160051c820192888810610329575b0160051c019084905b82811061031e57505061013b565b5f8155018490610310565b92508192610307565b634e487b7160e01b5f52602260045260245ffd5b90607f169061012b565b634e487b7160e01b5f52604160045260245ffd5b5f80fd5b604081019081106001600160401b0382111761035057604052565b601f909101601f19168101906001600160401b0382119082101761035057604052565b90610413603a60209260405193849181808401977f62616c616e6365722d6c6162732e76332e73746f726167652e000000000000008952805191829101603986015e830190601760f91b60398301528051928391018583015e015f8382015203601a810184520182610383565b5190205f1981019081116104445760405190602082019081526020825261043982610368565b9051902060ff191690565b634e487b7160e01b5f52601160045260245ffdfe6080806040526004361015610081575b50361561001a575f80fd5b73ffffffffffffffffffffffffffffffffffffffff7f000000000000000000000000000000000000000000000000000000000000000016330361005957005b7f0540ddf6000000000000000000000000000000000000000000000000000000005f5260045ffd5b5f3560e01c908163107c279f146116de5750806313f7bb4d1461166157806319c6989f14610eec5780631bbf2e2314610e9c578063400f230d14610d965780634fe56ed614610bf9578063502383f414610b7957806354fd4d5014610a3c5780635e01eb5a146109ea578063662727cc146108ab5780638d928af81461085b578063a390260414610744578063ac9650d8146106fc578063b365a3c2146105ab578063d96af0701461048b578063d9f70869146102da5763e0fefe3514610148575f61000f565b3461027757610156366118cb565b73ffffffffffffffffffffffffffffffffffffffff9182604051947fa3902604000000000000000000000000000000000000000000000000000000006020870152166024850152604484015260648301526064825260a082019082821067ffffffffffffffff8311176102ad57815f91816040527fedfa3568000000000000000000000000000000000000000000000000000000008252602060a486015281837fffffffffffffffffffffffffffffffffffffffffffffffffffffffffffffff608761022560c48201826117a1565b0301927f0000000000000000000000000000000000000000000000000000000000000000165af19182156102a2575f9261027b575b505060208180518101031261027757602080910151604051908152f35b5f80fd5b61029b925060a0903d90815f853e6102938285611916565b010190611955565b5f8061025a565b6040513d5f823e3d90fd5b7f4e487b71000000000000000000000000000000000000000000000000000000005f52604160045260245ffd5b34610277576102e836611847565b91906102f5949394611cb3565b6102fd611ce0565b6040517f653eb3b000000000000000000000000000000000000000000000000000000000815273ffffffffffffffffffffffffffffffffffffffff858116600483015260248201879052604482018490526064820192909252838216608482015260209591937f00000000000000000000000000000000000000000000000000000000000000008516929091878160a4815f885af19687156102a25788915f98610458575b50908692916024604051809581937f4afbaf5a00000000000000000000000000000000000000000000000000000000835216978860048301525afa9586156102a257610400966103fb935f9161042b575b501683611d4b565b611d4b565b5f7f9b779b17422d0df92223018b32b4d1fa46e071723d6817e2486d003becc55f005d604051908152f35b61044b91508a3d8c11610451575b6104438183611916565b8101906119ce565b8a6103f3565b503d610439565b828194939299503d8311610484575b6104718183611916565b81010312610277579051958790866103a2565b503d610467565b3461027757604060031936011261027757608460406104a861172c565b6104b0611cb3565b6104b8611ce0565b73ffffffffffffffffffffffffffffffffffffffff9283915f845195869485937febc7955c00000000000000000000000000000000000000000000000000000000855216600484015260243560248401528160448401528160648401527f0000000000000000000000000000000000000000000000000000000000000000165af19081156102a2576040915f915f9161057c575b505f7f9b779b17422d0df92223018b32b4d1fa46e071723d6817e2486d003becc55f005d82519182526020820152f35b905061059e9150823d84116105a4575b6105968183611916565b8101906119b8565b8361054c565b503d61058c565b34610277576106745f61062b6106396105c336611890565b6040517fd9f7086900000000000000000000000000000000000000000000000000000000602082015273ffffffffffffffffffffffffffffffffffffffff90941660248501526044840192909252606483015260848201523360a482015291829060c4820190565b03601f198101835282611916565b604051809381927f48c894910000000000000000000000000000000000000000000000000000000083526020600484015260248301906117a1565b03818373ffffffffffffffffffffffffffffffffffffffff7f0000000000000000000000000000000000000000000000000000000000000000165af19081156102a2575f916106da575b5060208180518101031261027757602080910151604051908152f35b6106f691503d805f833e6106ee8183611916565b810190611955565b816106be565b60206003193601126102775760043567ffffffffffffffff81116102775761073461072e610740923690600401611770565b906119fa565b604051918291826117c6565b0390f35b346102775760a46020610756366118cb565b91610762949194611cb3565b61076a611ce0565b5f73ffffffffffffffffffffffffffffffffffffffff809460405197889687957f653eb3b0000000000000000000000000000000000000000000000000000000008752166004860152602485015260448401528160648401523060848401527f0000000000000000000000000000000000000000000000000000000000000000165af180156102a2575f90610828575b6020905f7f9b779b17422d0df92223018b32b4d1fa46e071723d6817e2486d003becc55f005d604051908152f35b506020813d602011610853575b8161084260209383611916565b8101031261027757602090516107fa565b3d9150610835565b34610277575f60031936011261027757602060405173ffffffffffffffffffffffffffffffffffffffff7f0000000000000000000000000000000000000000000000000000000000000000168152f35b34610277576040600319360112610277576109635f61062b6109286108ce61172c565b6040517f400f230d00000000000000000000000000000000000000000000000000000000602082015273ffffffffffffffffffffffffffffffffffffffff9091166024808301919091523560448201529182906064820190565b604051809381927fedfa35680000000000000000000000000000000000000000000000000000000083526020600484015260248301906117a1565b03818373ffffffffffffffffffffffffffffffffffffffff7f0000000000000000000000000000000000000000000000000000000000000000165af19081156102a2576040916109c4915f916109d0575b50602080825183010191016119b8565b82519182526020820152f35b6109e491503d805f833e6106ee8183611916565b836109b4565b34610277575f6003193601126102775760207f00000000000000000000000000000000000000000000000000000000000000005c73ffffffffffffffffffffffffffffffffffffffff60405191168152f35b34610277575f600319360112610277576040515f5f549060018260011c9160018416918215610b6f575b6020948585108414610b425785879486865291825f14610b04575050600114610aab575b50610a9792500383611916565b6107406040519282849384528301906117a1565b5f808052859250907f290decd9548b62a8d60345a988386fc84ba6bc95484008f6362f93160ef3e5635b858310610aec575050610a97935082010185610a8a565b80548389018501528794508693909201918101610ad5565b7fffffffffffffffffffffffffffffffffffffffffffffffffffffffffffffff001685820152610a9795151560051b8501019250879150610a8a9050565b7f4e487b71000000000000000000000000000000000000000000000000000000005f52602260045260245ffd5b92607f1692610a66565b34610277576109635f61062b610639610b9136611890565b6040517f4fe56ed600000000000000000000000000000000000000000000000000000000602082015273ffffffffffffffffffffffffffffffffffffffff90941660248501526044840192909252606483015260848201523360a482015291829060c4820190565b3461027757610c0736611847565b93919092610c13611cb3565b610c1b611ce0565b604080517fe2a92b1a00000000000000000000000000000000000000000000000000000000815273ffffffffffffffffffffffffffffffffffffffff8581166004830152602482019390935260448101939093526064830194909452848116608483015290927f00000000000000000000000000000000000000000000000000000000000000008216908460a4815f855af19283156102a2575f945f94610d69575b5090602083926024604051809681937f4afbaf5a00000000000000000000000000000000000000000000000000000000835216948560048301525afa9586156102a2576103fb868694604099610d1b975f91610d4a57501683611d4b565b5f7f9b779b17422d0df92223018b32b4d1fa46e071723d6817e2486d003becc55f005d82519182526020820152f35b610d63915060203d602011610451576104438183611916565b8b6103f3565b602095508392919450610d8a9060403d6040116105a4576105968183611916565b95909594919250610cbd565b346102775760406003193601126102775760a46040610db361172c565b610dbb611cb3565b610dc3611ce0565b73ffffffffffffffffffffffffffffffffffffffff9283915f845195869485937fe2a92b1a0000000000000000000000000000000000000000000000000000000085521660048401526fffffffffffffffffffffffffffffffff806024850152604484015260243560648401523060848401527f0000000000000000000000000000000000000000000000000000000000000000165af19081156102a2576040915f915f9161057c57505f7f9b779b17422d0df92223018b32b4d1fa46e071723d6817e2486d003becc55f005d82519182526020820152f35b34610277575f60031936011261027757602060405173ffffffffffffffffffffffffffffffffffffffff7f0000000000000000000000000000000000000000000000000000000000000000168152f35b60a06003193601126102775767ffffffffffffffff60043511610277573660236004350112156102775767ffffffffffffffff60043560040135116102775736602460c060043560040135026004350101116102775760243567ffffffffffffffff811161027757610f62903690600401611770565b67ffffffffffffffff60443511610277576060600319604435360301126102775767ffffffffffffffff60643511610277573660236064350112156102775767ffffffffffffffff606435600401351161027757366024606435600401356064350101116102775760843567ffffffffffffffff811161027757610fea903690600401611770565b9290917f00000000000000000000000000000000000000000000000000000000000000006116395761101a611cb3565b806004356004013503611611575f5b60043560040135811061130257505050604435600401357fffffffffffffffffffffffffffffffffffffffffffffffffffffffffffffffdd60443536030181121561027757806044350160048101359067ffffffffffffffff82116102775760248260071b3603910113610277576110cc575b61074061073484845f7f9b779b17422d0df92223018b32b4d1fa46e071723d6817e2486d003becc55f005d6119fa565b9173ffffffffffffffffffffffffffffffffffffffff7f0000000000000000000000000000000000000000000000000000000000000000163b1561027757604051927f2a2d80d10000000000000000000000000000000000000000000000000000000084523360048501526060602485015260c484019060443501602481019167ffffffffffffffff60048301351161027757600482013560071b36038313610277576060606487015260048201359052849160e48301915f905b6004810135821061126e57505050906020815f9373ffffffffffffffffffffffffffffffffffffffff6111be60246044350161174f565b1660848301526044803581013560a4840152600319838303019083015260643560048101358083529060240184830137600460643501358181018401869052601f01601f191601030181837f000000000000000000000000000000000000000000000000000000000000000073ffffffffffffffffffffffffffffffffffffffff165af19182156102a257610740936107349361125f575b5091509161109c565b61126890611902565b84611256565b9193509173ffffffffffffffffffffffffffffffffffffffff6112908561174f565b1681526020808501359173ffffffffffffffffffffffffffffffffffffffff8316809303610277576004926001928201526112cd60408701611ca0565b65ffffffffffff80911660408301526112e860608801611ca0565b166060820152608080910195019301905086939291611187565b611317611310828486611b9a565b3691611c27565b6040519081606081011067ffffffffffffffff6060840111176102ad57606082016040525f82525f60208301525f6040830152602081015190606060408201519101515f1a9183526020830152604082015260c07fffffffffffffffffffffffffffffffffffffffffffffffffffffffffffffffdc818402600435013603011261027757604051908160c081011067ffffffffffffffff60c0840111176102ad5760c082016040526113d2602460c08502600435010161174f565b8083526113e8604460c08602600435010161174f565b90816020850152611402606460c08702600435010161174f565b60408581019190915260043560c08702016084810135606087015260a4810135608087015260c4013560a0860152830151835160209094015160ff919091169273ffffffffffffffffffffffffffffffffffffffff83163b15610277575f73ffffffffffffffffffffffffffffffffffffffff809460e4948a98849860c460c06040519c8d9b8c9a7fd505accf000000000000000000000000000000000000000000000000000000008c521660048b01523060248b0152608482820260043501013560448b0152026004350101356064880152608487015260a486015260c4850152165af19081611602575b506115f9576114fb611c71565b9073ffffffffffffffffffffffffffffffffffffffff81511690602073ffffffffffffffffffffffffffffffffffffffff81830151166044604051809581937fdd62ed3e00000000000000000000000000000000000000000000000000000000835260048301523060248301525afa9182156102a2575f926115c4575b50606001510361158d57506001905b01611029565b80511561159c57805190602001fd5b7fa7285689000000000000000000000000000000000000000000000000000000005f5260045ffd5b9091506020813d6020116115f1575b816115e060209383611916565b810103126102775751906060611578565b3d91506115d3565b50600190611587565b61160b90611902565b876114ee565b7faaad13f7000000000000000000000000000000000000000000000000000000005f5260045ffd5b7f29a270f5000000000000000000000000000000000000000000000000000000005f5260045ffd5b34610277576040600319360112610277576109635f61062b61092861168461172c565b6040517fd96af07000000000000000000000000000000000000000000000000000000000602082015273ffffffffffffffffffffffffffffffffffffffff9091166024808301919091523560448201529182906064820190565b34610277575f6003193601126102775760209073ffffffffffffffffffffffffffffffffffffffff7f0000000000000000000000000000000000000000000000000000000000000000168152f35b6004359073ffffffffffffffffffffffffffffffffffffffff8216820361027757565b359073ffffffffffffffffffffffffffffffffffffffff8216820361027757565b9181601f840112156102775782359167ffffffffffffffff8311610277576020808501948460051b01011161027757565b90601f19601f602080948051918291828752018686015e5f8582860101520116010190565b6020808201906020835283518092526040830192602060408460051b8301019501935f915b8483106117fb5750505050505090565b9091929394958480611837837fffffffffffffffffffffffffffffffffffffffffffffffffffffffffffffffc086600196030187528a516117a1565b98019301930191949392906117eb565b60031960a09101126102775773ffffffffffffffffffffffffffffffffffffffff6004358181168103610277579160243591604435916064359160843590811681036102775790565b60031960809101126102775760043573ffffffffffffffffffffffffffffffffffffffff811681036102775790602435906044359060643590565b60031960609101126102775760043573ffffffffffffffffffffffffffffffffffffffff8116810361027757906024359060443590565b67ffffffffffffffff81116102ad57604052565b90601f601f19910116810190811067ffffffffffffffff8211176102ad57604052565b67ffffffffffffffff81116102ad57601f01601f191660200190565b6020818303126102775780519067ffffffffffffffff8211610277570181601f820112156102775780519061198982611939565b926119976040519485611916565b8284526020838301011161027757815f9260208093018386015e8301015290565b9190826040910312610277576020825192015190565b90816020910312610277575173ffffffffffffffffffffffffffffffffffffffff811681036102775790565b91905f907f00000000000000000000000000000000000000000000000000000000000000009073ffffffffffffffffffffffffffffffffffffffff825c1615611b75575b7f000000000000000000000000000000000000000000000000000000000000000094855c611b4d576001906001875d7f000000000000000000000000000000000000000000000000000000000000000061163957611a9b83611b82565b92611aa96040519485611916565b808452601f19611ab882611b82565b015f5b818110611b3c5750505f5b818110611af35750505050905f611ae89392955d805c91611aea575b50611ef3565b565b5f905d5f611ae2565b80611b205f80611b086113108996888a611b9a565b602081519101305af4611b19611c71565b9030611f90565b611b2a8288611c5d565b52611b358187611c5d565b5001611ac6565b806060602080938901015201611abb565b7f3ee5aeb5000000000000000000000000000000000000000000000000000000005f5260045ffd5b915033815d600191611a3e565b67ffffffffffffffff81116102ad5760051b60200190565b9190811015611bfa5760051b810135907fffffffffffffffffffffffffffffffffffffffffffffffffffffffffffffffe18136030182121561027757019081359167ffffffffffffffff8311610277576020018236038113610277579190565b7f4e487b71000000000000000000000000000000000000000000000000000000005f52603260045260245ffd5b929192611c3382611939565b91611c416040519384611916565b829481845281830111610277578281602093845f960137010152565b8051821015611bfa5760209160051b010190565b3d15611c9b573d90611c8282611939565b91611c906040519384611916565b82523d5f602084013e565b606090565b359065ffffffffffff8216820361027757565b7f9b779b17422d0df92223018b32b4d1fa46e071723d6817e2486d003becc55f00805c611b4d576001905d565b73ffffffffffffffffffffffffffffffffffffffff7f0000000000000000000000000000000000000000000000000000000000000000163303611d1f57565b7f089676d5000000000000000000000000000000000000000000000000000000005f523360045260245ffd5b90915f9080611d5b575b50505050565b73ffffffffffffffffffffffffffffffffffffffff807f000000000000000000000000000000000000000000000000000000000000000016817f00000000000000000000000000000000000000000000000000000000000000001695828411611ec257821694813b1561027757608483915f809460405196879586947f36c785160000000000000000000000000000000000000000000000000000000086521660048501528b6024850152881660448401528960648401525af180156102a257611eab575b506044829360209360405196879485937f15afd409000000000000000000000000000000000000000000000000000000008552600485015260248401525af1908115611e9f5750611e74575b808080611d55565b602090813d8311611e98575b611e8a8183611916565b81010312610277575f611e6c565b503d611e80565b604051903d90823e3d90fd5b60209250611eb890611902565b60445f9250611e20565b837f6dfcc650000000000000000000000000000000000000000000000000000000005f5260a060045260245260445ffd5b47908115611f8c577f00000000000000000000000000000000000000000000000000000000000000005c611f8c57814710611f5c575f80809373ffffffffffffffffffffffffffffffffffffffff8294165af1611f4e611c71565b9015611f575750565b611ff7565b50477fcf479181000000000000000000000000000000000000000000000000000000005f5260045260245260445ffd5b5050565b90611f9b5750611ff7565b81511580611fee575b611fac575090565b73ffffffffffffffffffffffffffffffffffffffff907f9996b315000000000000000000000000000000000000000000000000000000005f521660045260245ffd5b50803b15611fa4565b80511561200657602081519101fd5b7fd6bda275000000000000000000000000000000000000000000000000000000005f5260045ffdfea26469706673582212201641bc380ca4bc59d52c8986c22e8da55a38c87a258efd5e3b71b9941c90ba6e64736f6c634300081b0033",
  "linkReferences": {},
  "deployedLinkReferences": {}
}