{
  "_format": "hh-sol-artifact-1",
  "contractName": "CompositeLiquidityRouter",
  "sourceName": "contracts/CompositeLiquidityRouter.sol",
  "abi": [
    {
      "inputs": [
        {
          "internalType": "contract IVault",
          "name": "vault",
          "type": "address"
        },
        {
          "internalType": "contract IWETH",
          "name": "weth",
          "type": "address"
        },
        {
          "internalType": "contract IPermit2",
          "name": "permit2",
          "type": "address"
        },
        {
          "internalType": "string",
          "name": "routerVersion",
          "type": "string"
        }
      ],
      "stateMutability": "nonpayable",
      "type": "constructor"
    },
    {
      "inputs": [
        {
          "internalType": "address",
          "name": "target",
          "type": "address"
        }
      ],
      "name": "AddressEmptyCode",
      "type": "error"
    },
    {
      "inputs": [
        {
          "internalType": "contract IERC20",
          "name": "tokenIn",
          "type": "address"
        },
        {
          "internalType": "uint256",
          "name": "amountIn",
          "type": "uint256"
        },
        {
          "internalType": "uint256",
          "name": "maxAmountIn",
          "type": "uint256"
        }
      ],
      "name": "AmountInAboveMax",
      "type": "error"
    },
    {
      "inputs": [
        {
          "internalType": "contract IERC20",
          "name": "tokenOut",
          "type": "address"
        },
        {
          "internalType": "uint256",
          "name": "amountOut",
          "type": "uint256"
        },
        {
          "internalType": "uint256",
          "name": "minAmountOut",
          "type": "uint256"
        }
      ],
      "name": "AmountOutBelowMin",
      "type": "error"
    },
    {
      "inputs": [
        {
          "internalType": "contract IERC4626",
          "name": "wrappedToken",
          "type": "address"
        }
      ],
      "name": "BufferNotInitialized",
      "type": "error"
    },
    {
      "inputs": [
        {
          "internalType": "address",
          "name": "duplicateToken",
          "type": "address"
        }
      ],
      "name": "DuplicateTokenIn",
      "type": "error"
    },
    {
      "inputs": [],
      "name": "ElementNotFound",
      "type": "error"
    },
    {
      "inputs": [],
      "name": "ErrorSelectorNotFound",
      "type": "error"
    },
    {
      "inputs": [],
      "name": "EthTransfer",
      "type": "error"
    },
    {
      "inputs": [],
      "name": "FailedCall",
      "type": "error"
    },
    {
      "inputs": [],
      "name": "InputLengthMismatch",
      "type": "error"
    },
    {
      "inputs": [
        {
          "internalType": "uint256",
          "name": "balance",
          "type": "uint256"
        },
        {
          "internalType": "uint256",
          "name": "needed",
          "type": "uint256"
        }
      ],
      "name": "InsufficientBalance",
      "type": "error"
    },
    {
      "inputs": [],
      "name": "InsufficientEth",
      "type": "error"
    },
    {
      "inputs": [],
      "name": "InvalidAddLiquidityKind",
      "type": "error"
    },
    {
      "inputs": [],
      "name": "InvalidTokenType",
      "type": "error"
    },
    {
      "inputs": [],
      "name": "OperationNotSupported",
      "type": "error"
    },
    {
      "inputs": [],
      "name": "ReentrancyGuardReentrantCall",
      "type": "error"
    },
    {
      "inputs": [
        {
          "internalType": "uint8",
          "name": "bits",
          "type": "uint8"
        },
        {
          "internalType": "uint256",
          "name": "value",
          "type": "uint256"
        }
      ],
      "name": "SafeCastOverflowedUintDowncast",
      "type": "error"
    },
    {
      "inputs": [
        {
          "internalType": "address",
          "name": "token",
          "type": "address"
        }
      ],
      "name": "SafeERC20FailedOperation",
      "type": "error"
    },
    {
      "inputs": [
        {
          "internalType": "address",
          "name": "sender",
          "type": "address"
        }
      ],
      "name": "SenderIsNotVault",
      "type": "error"
    },
    {
      "inputs": [],
      "name": "SwapDeadline",
      "type": "error"
    },
    {
      "inputs": [],
      "name": "TransientIndexOutOfBounds",
      "type": "error"
    },
    {
      "inputs": [
        {
          "internalType": "address[]",
          "name": "actualTokensOut",
          "type": "address[]"
        },
        {
          "internalType": "address[]",
          "name": "expectedTokensOut",
          "type": "address[]"
        }
      ],
      "name": "WrongTokensOut",
      "type": "error"
    },
    {
      "inputs": [
        {
          "components": [
            {
              "internalType": "address",
              "name": "sender",
              "type": "address"
            },
            {
              "internalType": "address",
              "name": "pool",
              "type": "address"
            },
            {
              "internalType": "uint256[]",
              "name": "maxAmountsIn",
              "type": "uint256[]"
            },
            {
              "internalType": "uint256",
              "name": "minBptAmountOut",
              "type": "uint256"
            },
            {
              "internalType": "enum AddLiquidityKind",
              "name": "kind",
              "type": "uint8"
            },
            {
              "internalType": "bool",
              "name": "wethIsEth",
              "type": "bool"
            },
            {
              "internalType": "bytes",
              "name": "userData",
              "type": "bytes"
            }
          ],
          "internalType": "struct AddLiquidityHookParams",
          "name": "params",
          "type": "tuple"
        },
        {
          "internalType": "bool[]",
          "name": "wrapUnderlying",
          "type": "bool[]"
        }
      ],
      "name": "addLiquidityERC4626PoolProportionalHook",
      "outputs": [
        {
          "internalType": "uint256[]",
          "name": "amountsIn",
          "type": "uint256[]"
        }
      ],
      "stateMutability": "nonpayable",
      "type": "function"
    },
    {
      "inputs": [
        {
          "components": [
            {
              "internalType": "address",
              "name": "sender",
              "type": "address"
            },
            {
              "internalType": "address",
              "name": "pool",
              "type": "address"
            },
            {
              "internalType": "uint256[]",
              "name": "maxAmountsIn",
              "type": "uint256[]"
            },
            {
              "internalType": "uint256",
              "name": "minBptAmountOut",
              "type": "uint256"
            },
            {
              "internalType": "enum AddLiquidityKind",
              "name": "kind",
              "type": "uint8"
            },
            {
              "internalType": "bool",
              "name": "wethIsEth",
              "type": "bool"
            },
            {
              "internalType": "bytes",
              "name": "userData",
              "type": "bytes"
            }
          ],
          "internalType": "struct AddLiquidityHookParams",
          "name": "params",
          "type": "tuple"
        },
        {
          "internalType": "bool[]",
          "name": "wrapUnderlying",
          "type": "bool[]"
        }
      ],
      "name": "addLiquidityERC4626PoolUnbalancedHook",
      "outputs": [
        {
          "internalType": "uint256",
          "name": "bptAmountOut",
          "type": "uint256"
        }
      ],
      "stateMutability": "nonpayable",
      "type": "function"
    },
    {
      "inputs": [
        {
          "internalType": "address",
          "name": "pool",
          "type": "address"
        },
        {
          "internalType": "bool[]",
          "name": "wrapUnderlying",
          "type": "bool[]"
        },
        {
          "internalType": "uint256[]",
          "name": "maxAmountsIn",
          "type": "uint256[]"
        },
        {
          "internalType": "uint256",
          "name": "exactBptAmountOut",
          "type": "uint256"
        },
        {
          "internalType": "bool",
          "name": "wethIsEth",
          "type": "bool"
        },
        {
          "internalType": "bytes",
          "name": "userData",
          "type": "bytes"
        }
      ],
      "name": "addLiquidityProportionalToERC4626Pool",
      "outputs": [
        {
          "internalType": "uint256[]",
          "name": "",
          "type": "uint256[]"
        }
      ],
      "stateMutability": "payable",
      "type": "function"
    },
    {
      "inputs": [
        {
          "internalType": "address",
          "name": "parentPool",
          "type": "address"
        },
        {
          "internalType": "address[]",
          "name": "tokensIn",
          "type": "address[]"
        },
        {
          "internalType": "uint256[]",
          "name": "exactAmountsIn",
          "type": "uint256[]"
        },
        {
          "internalType": "address[]",
          "name": "tokensToWrap",
          "type": "address[]"
        },
        {
          "internalType": "uint256",
          "name": "minBptAmountOut",
          "type": "uint256"
        },
        {
          "internalType": "bool",
          "name": "wethIsEth",
          "type": "bool"
        },
        {
          "internalType": "bytes",
          "name": "userData",
          "type": "bytes"
        }
      ],
      "name": "addLiquidityUnbalancedNestedPool",
      "outputs": [
        {
          "internalType": "uint256",
          "name": "",
          "type": "uint256"
        }
      ],
      "stateMutability": "payable",
      "type": "function"
    },
    {
      "inputs": [
        {
          "components": [
            {
              "internalType": "address",
              "name": "sender",
              "type": "address"
            },
            {
              "internalType": "address",
              "name": "pool",
              "type": "address"
            },
            {
              "internalType": "uint256[]",
              "name": "maxAmountsIn",
              "type": "uint256[]"
            },
            {
              "internalType": "uint256",
              "name": "minBptAmountOut",
              "type": "uint256"
            },
            {
              "internalType": "enum AddLiquidityKind",
              "name": "kind",
              "type": "uint8"
            },
            {
              "internalType": "bool",
              "name": "wethIsEth",
              "type": "bool"
            },
            {
              "internalType": "bytes",
              "name": "userData",
              "type": "bytes"
            }
          ],
          "internalType": "struct AddLiquidityHookParams",
          "name": "params",
          "type": "tuple"
        },
        {
          "internalType": "address[]",
          "name": "tokensIn",
          "type": "address[]"
        },
        {
          "internalType": "address[]",
          "name": "tokensToWrap",
          "type": "address[]"
        }
      ],
      "name": "addLiquidityUnbalancedNestedPoolHook",
      "outputs": [
        {
          "internalType": "uint256",
          "name": "exactBptAmountOut",
          "type": "uint256"
        }
      ],
      "stateMutability": "nonpayable",
      "type": "function"
    },
    {
      "inputs": [
        {
          "internalType": "address",
          "name": "pool",
          "type": "address"
        },
        {
          "internalType": "bool[]",
          "name": "wrapUnderlying",
          "type": "bool[]"
        },
        {
          "internalType": "uint256[]",
          "name": "exactAmountsIn",
          "type": "uint256[]"
        },
        {
          "internalType": "uint256",
          "name": "minBptAmountOut",
          "type": "uint256"
        },
        {
          "internalType": "bool",
          "name": "wethIsEth",
          "type": "bool"
        },
        {
          "internalType": "bytes",
          "name": "userData",
          "type": "bytes"
        }
      ],
      "name": "addLiquidityUnbalancedToERC4626Pool",
      "outputs": [
        {
          "internalType": "uint256",
          "name": "bptAmountOut",
          "type": "uint256"
        }
      ],
      "stateMutability": "payable",
      "type": "function"
    },
    {
      "inputs": [],
      "name": "getPermit2",
      "outputs": [
        {
          "internalType": "contract IPermit2",
          "name": "",
          "type": "address"
        }
      ],
      "stateMutability": "view",
      "type": "function"
    },
    {
      "inputs": [],
      "name": "getSender",
      "outputs": [
        {
          "internalType": "address",
          "name": "",
          "type": "address"
        }
      ],
      "stateMutability": "view",
      "type": "function"
    },
    {
      "inputs": [],
      "name": "getVault",
      "outputs": [
        {
          "internalType": "contract IVault",
          "name": "",
          "type": "address"
        }
      ],
      "stateMutability": "view",
      "type": "function"
    },
    {
      "inputs": [],
      "name": "getWeth",
      "outputs": [
        {
          "internalType": "contract IWETH",
          "name": "",
          "type": "address"
        }
      ],
      "stateMutability": "view",
      "type": "function"
    },
    {
      "inputs": [
        {
          "internalType": "bytes[]",
          "name": "data",
          "type": "bytes[]"
        }
      ],
      "name": "multicall",
      "outputs": [
        {
          "internalType": "bytes[]",
          "name": "results",
          "type": "bytes[]"
        }
      ],
      "stateMutability": "payable",
      "type": "function"
    },
    {
      "inputs": [
        {
          "components": [
            {
              "internalType": "address",
              "name": "token",
              "type": "address"
            },
            {
              "internalType": "address",
              "name": "owner",
              "type": "address"
            },
            {
              "internalType": "address",
              "name": "spender",
              "type": "address"
            },
            {
              "internalType": "uint256",
              "name": "amount",
              "type": "uint256"
            },
            {
              "internalType": "uint256",
              "name": "nonce",
              "type": "uint256"
            },
            {
              "internalType": "uint256",
              "name": "deadline",
              "type": "uint256"
            }
          ],
          "internalType": "struct IRouterCommon.PermitApproval[]",
          "name": "permitBatch",
          "type": "tuple[]"
        },
        {
          "internalType": "bytes[]",
          "name": "permitSignatures",
          "type": "bytes[]"
        },
        {
          "components": [
            {
              "components": [
                {
                  "internalType": "address",
                  "name": "token",
                  "type": "address"
                },
                {
                  "internalType": "uint160",
                  "name": "amount",
                  "type": "uint160"
                },
                {
                  "internalType": "uint48",
                  "name": "expiration",
                  "type": "uint48"
                },
                {
                  "internalType": "uint48",
                  "name": "nonce",
                  "type": "uint48"
                }
              ],
              "internalType": "struct IAllowanceTransfer.PermitDetails[]",
              "name": "details",
              "type": "tuple[]"
            },
            {
              "internalType": "address",
              "name": "spender",
              "type": "address"
            },
            {
              "internalType": "uint256",
              "name": "sigDeadline",
              "type": "uint256"
            }
          ],
          "internalType": "struct IAllowanceTransfer.PermitBatch",
          "name": "permit2Batch",
          "type": "tuple"
        },
        {
          "internalType": "bytes",
          "name": "permit2Signature",
          "type": "bytes"
        },
        {
          "internalType": "bytes[]",
          "name": "multicallData",
          "type": "bytes[]"
        }
      ],
      "name": "permitBatchAndCall",
      "outputs": [
        {
          "internalType": "bytes[]",
          "name": "results",
          "type": "bytes[]"
        }
      ],
      "stateMutability": "payable",
      "type": "function"
    },
    {
      "inputs": [
        {
          "internalType": "address",
          "name": "pool",
          "type": "address"
        },
        {
          "internalType": "bool[]",
          "name": "wrapUnderlying",
          "type": "bool[]"
        },
        {
          "internalType": "uint256",
          "name": "exactBptAmountOut",
          "type": "uint256"
        },
        {
          "internalType": "address",
          "name": "sender",
          "type": "address"
        },
        {
          "internalType": "bytes",
          "name": "userData",
          "type": "bytes"
        }
      ],
      "name": "queryAddLiquidityProportionalToERC4626Pool",
      "outputs": [
        {
          "internalType": "uint256[]",
          "name": "",
          "type": "uint256[]"
        }
      ],
      "stateMutability": "nonpayable",
      "type": "function"
    },
    {
      "inputs": [
        {
          "internalType": "address",
          "name": "parentPool",
          "type": "address"
        },
        {
          "internalType": "address[]",
          "name": "tokensIn",
          "type": "address[]"
        },
        {
          "internalType": "uint256[]",
          "name": "exactAmountsIn",
          "type": "uint256[]"
        },
        {
          "internalType": "address[]",
          "name": "tokensToWrap",
          "type": "address[]"
        },
        {
          "internalType": "address",
          "name": "sender",
          "type": "address"
        },
        {
          "internalType": "bytes",
          "name": "userData",
          "type": "bytes"
        }
      ],
      "name": "queryAddLiquidityUnbalancedNestedPool",
      "outputs": [
        {
          "internalType": "uint256",
          "name": "",
          "type": "uint256"
        }
      ],
      "stateMutability": "nonpayable",
      "type": "function"
    },
    {
      "inputs": [
        {
          "internalType": "address",
          "name": "pool",
          "type": "address"
        },
        {
          "internalType": "bool[]",
          "name": "wrapUnderlying",
          "type": "bool[]"
        },
        {
          "internalType": "uint256[]",
          "name": "exactAmountsIn",
          "type": "uint256[]"
        },
        {
          "internalType": "address",
          "name": "sender",
          "type": "address"
        },
        {
          "internalType": "bytes",
          "name": "userData",
          "type": "bytes"
        }
      ],
      "name": "queryAddLiquidityUnbalancedToERC4626Pool",
      "outputs": [
        {
          "internalType": "uint256",
          "name": "bptAmountOut",
          "type": "uint256"
        }
      ],
      "stateMutability": "nonpayable",
      "type": "function"
    },
    {
      "inputs": [
        {
          "internalType": "address",
          "name": "pool",
          "type": "address"
        },
        {
          "internalType": "bool[]",
          "name": "unwrapWrapped",
          "type": "bool[]"
        },
        {
          "internalType": "uint256",
          "name": "exactBptAmountIn",
          "type": "uint256"
        },
        {
          "internalType": "address",
          "name": "sender",
          "type": "address"
        },
        {
          "internalType": "bytes",
          "name": "userData",
          "type": "bytes"
        }
      ],
      "name": "queryRemoveLiquidityProportionalFromERC4626Pool",
      "outputs": [
        {
          "internalType": "uint256[]",
          "name": "",
          "type": "uint256[]"
        }
      ],
      "stateMutability": "nonpayable",
      "type": "function"
    },
    {
      "inputs": [
        {
          "internalType": "address",
          "name": "parentPool",
          "type": "address"
        },
        {
          "internalType": "uint256",
          "name": "exactBptAmountIn",
          "type": "uint256"
        },
        {
          "internalType": "address[]",
          "name": "tokensOut",
          "type": "address[]"
        },
        {
          "internalType": "address[]",
          "name": "tokensToUnwrap",
          "type": "address[]"
        },
        {
          "internalType": "address",
          "name": "sender",
          "type": "address"
        },
        {
          "internalType": "bytes",
          "name": "userData",
          "type": "bytes"
        }
      ],
      "name": "queryRemoveLiquidityProportionalNestedPool",
      "outputs": [
        {
          "internalType": "uint256[]",
          "name": "amountsOut",
          "type": "uint256[]"
        }
      ],
      "stateMutability": "nonpayable",
      "type": "function"
    },
    {
      "inputs": [
        {
          "components": [
            {
              "internalType": "address",
              "name": "sender",
              "type": "address"
            },
            {
              "internalType": "address",
              "name": "pool",
              "type": "address"
            },
            {
              "internalType": "uint256[]",
              "name": "minAmountsOut",
              "type": "uint256[]"
            },
            {
              "internalType": "uint256",
              "name": "maxBptAmountIn",
              "type": "uint256"
            },
            {
              "internalType": "enum RemoveLiquidityKind",
              "name": "kind",
              "type": "uint8"
            },
            {
              "internalType": "bool",
              "name": "wethIsEth",
              "type": "bool"
            },
            {
              "internalType": "bytes",
              "name": "userData",
              "type": "bytes"
            }
          ],
          "internalType": "struct RemoveLiquidityHookParams",
          "name": "params",
          "type": "tuple"
        },
        {
          "internalType": "bool[]",
          "name": "unwrapWrapped",
          "type": "bool[]"
        }
      ],
      "name": "removeLiquidityERC4626PoolProportionalHook",
      "outputs": [
        {
          "internalType": "uint256[]",
          "name": "amountsOut",
          "type": "uint256[]"
        }
      ],
      "stateMutability": "nonpayable",
      "type": "function"
    },
    {
      "inputs": [
        {
          "internalType": "address",
          "name": "pool",
          "type": "address"
        },
        {
          "internalType": "bool[]",
          "name": "unwrapWrapped",
          "type": "bool[]"
        },
        {
          "internalType": "uint256",
          "name": "exactBptAmountIn",
          "type": "uint256"
        },
        {
          "internalType": "uint256[]",
          "name": "minAmountsOut",
          "type": "uint256[]"
        },
        {
          "internalType": "bool",
          "name": "wethIsEth",
          "type": "bool"
        },
        {
          "internalType": "bytes",
          "name": "userData",
          "type": "bytes"
        }
      ],
      "name": "removeLiquidityProportionalFromERC4626Pool",
      "outputs": [
        {
          "internalType": "uint256[]",
          "name": "",
          "type": "uint256[]"
        }
      ],
      "stateMutability": "payable",
      "type": "function"
    },
    {
      "inputs": [
        {
          "internalType": "address",
          "name": "parentPool",
          "type": "address"
        },
        {
          "internalType": "uint256",
          "name": "exactBptAmountIn",
          "type": "uint256"
        },
        {
          "internalType": "address[]",
          "name": "tokensOut",
          "type": "address[]"
        },
        {
          "internalType": "uint256[]",
          "name": "minAmountsOut",
          "type": "uint256[]"
        },
        {
          "internalType": "address[]",
          "name": "tokensToUnwrap",
          "type": "address[]"
        },
        {
          "internalType": "bool",
          "name": "wethIsEth",
          "type": "bool"
        },
        {
          "internalType": "bytes",
          "name": "userData",
          "type": "bytes"
        }
      ],
      "name": "removeLiquidityProportionalNestedPool",
      "outputs": [
        {
          "internalType": "uint256[]",
          "name": "amountsOut",
          "type": "uint256[]"
        }
      ],
      "stateMutability": "payable",
      "type": "function"
    },
    {
      "inputs": [
        {
          "components": [
            {
              "internalType": "address",
              "name": "sender",
              "type": "address"
            },
            {
              "internalType": "address",
              "name": "pool",
              "type": "address"
            },
            {
              "internalType": "uint256[]",
              "name": "minAmountsOut",
              "type": "uint256[]"
            },
            {
              "internalType": "uint256",
              "name": "maxBptAmountIn",
              "type": "uint256"
            },
            {
              "internalType": "enum RemoveLiquidityKind",
              "name": "kind",
              "type": "uint8"
            },
            {
              "internalType": "bool",
              "name": "wethIsEth",
              "type": "bool"
            },
            {
              "internalType": "bytes",
              "name": "userData",
              "type": "bytes"
            }
          ],
          "internalType": "struct RemoveLiquidityHookParams",
          "name": "params",
          "type": "tuple"
        },
        {
          "internalType": "address[]",
          "name": "tokensOut",
          "type": "address[]"
        },
        {
          "internalType": "address[]",
          "name": "tokensToUnwrap",
          "type": "address[]"
        }
      ],
      "name": "removeLiquidityProportionalNestedPoolHook",
      "outputs": [
        {
          "internalType": "uint256[]",
          "name": "amountsOut",
          "type": "uint256[]"
        }
      ],
      "stateMutability": "nonpayable",
      "type": "function"
    },
    {
      "inputs": [],
      "name": "version",
      "outputs": [
        {
          "internalType": "string",
          "name": "",
          "type": "string"
        }
      ],
      "stateMutability": "view",
      "type": "function"
    },
    {
      "stateMutability": "payable",
      "type": "receive"
    }
  ],
  "bytecode": "0x6101e060408181523461066d576161d8803803809161001e828661068c565b843982019060808383031261066d5782516001600160a01b0393848216820361066d576020918282015191868316830361066d57848101519687169586880361066d5760608201516001600160401b039283821161066d570192601f9082828601121561066d57845184811161065957601f19958951946100a58a8987860116018761068c565b82865289838301011161066d57815f928a8093018388015e8501015261010988516100cf81610671565b600b81526a14d95b99195c91dd585c9960aa1b898201528951906100f282610671565b600682526539b2b73232b960d11b8a8301526106e5565b60805260a0528151928311610659575f54916001928381811c9116801561064f575b8882101461063b578281116105f8575b508691841160011461059b57839450908392915f94610590575b50501b915f199060031b1c1916175f555b6101ba835161017481610671565b600c81526b2937baba32b921b7b6b6b7b760a11b8482015284519061019882610671565b60118252701a5cd4995d1d5c9b915d1a131bd8dad959607a1b858301526106e5565b60c05260e0526101009384526101209215835261020982516101db81610671565b601381527f63757272656e7453776170546f6b656e73496e00000000000000000000000000838201526106af565b61014090815261024b835161021d81610671565b601481527f63757272656e7453776170546f6b656e734f7574000000000000000000000000848201526106af565b61016090815261028d845161025f81610671565b601981527f63757272656e7453776170546f6b656e496e416d6f756e747300000000000000858201526106af565b916101809283526103136102d386516102a581610671565b601a81527f63757272656e7453776170546f6b656e4f7574416d6f756e7473000000000000878201526106af565b946101a09586527f736574746c6564546f6b656e416d6f756e74730000000000000000000000000087519161030783610671565b601383528201526106af565b946101c09586525195615a40978861079889396080518881816102e1015281816108530152818161153f01528181614422015261450f015260a05188818161019a01528181610431015281816106a5015281816107fe0152818161096e01528181610b7e01528181610c8501528181610d8d01528181610e8301528181610f0601528181610f880152818161121b015281816113aa01528181611744015281816117e7015281816118f301528181611a0701528181611b9401528181611c9001528181611d1f01528181611dc201528181611e4901528181611ec501528181611f2f01528181611f9c0152818161203b015281816121a701528181612582015281816127300152818161282a01528181612910015281816129e7015281816132710152818161338201528181613514015281816145830152818161461b015281816149a501528181614b3701528181614fb60152818161518a015281816153790152818161541e015281816155510152615770015260c05188818161438701526147ee015260e05188818160240152818161375001528181614f4b01528181615301015281816153d10152818161547401526155eb015251878181612aee01528181612d0001528181612e1a0152615167015251868181612c15015281816143b60152614efc015251858181610ad501528181614d43015261581c0152518481816122720152818161235301528181612387015281816124860152818161252701528181614ac40152614d1f015251838181610aa801528181610d160152818161102101528181614d6f01526157dc0152518281816123d201528181614aed0152614da7015251818181610e07015281816110a4015261114e0152f35b015192505f80610155565b91938316915f805283875f20935f5b89888383106105e157505050106105c9575b505050811b015f55610166565b01515f1960f88460031b161c191690555f80806105bc565b8686015188559096019594850194879350016105aa565b5f8052875f208380870160051c8201928a8810610632575b0160051c019084905b82811061062757505061013b565b5f8155018490610619565b92508192610610565b634e487b7160e01b5f52602260045260245ffd5b90607f169061012b565b634e487b7160e01b5f52604160045260245ffd5b5f80fd5b604081019081106001600160401b0382111761065957604052565b601f909101601f19168101906001600160401b0382119082101761065957604052565b6106e2906040516106bf81610671565b60118152702130ba31b42937baba32b921b7b6b6b7b760791b60208201526106e5565b90565b90610752603a60209260405193849181808401977f62616c616e6365722d6c6162732e76332e73746f726167652e000000000000008952805191829101603986015e830190601760f91b60398301528051928391018583015e015f8382015203601a81018452018261068c565b5190205f1981019081116107835760405190602082019081526020825261077882610671565b9051902060ff191690565b634e487b7160e01b5f52601160045260245ffdfe60a0806040526004361015610074575b50361561001a575f80fd5b6001600160a01b037f000000000000000000000000000000000000000000000000000000000000000016330361004c57005b7f0540ddf6000000000000000000000000000000000000000000000000000000005f5260045ffd5b5f3560e01c908163107c279f1461373357508063175f31c61461361957806319aceff3146131c557806319c6989f14612b125780631bbf2e2314612acf57806327bfb13a146127805780633121edfc1461261257806347cd1d0214611c1f5780634c97a878146116ad57806354fd4d50146115705780635e01eb5a1461152b578063698cc74b146113545780636c1fb3201461123f5780638d928af8146111fc578063a5bb0bd114610a19578063ac9650d8146109d5578063c1da024c14610894578063c9b8ddb2146106e6578063d2b1b9031461058d578063d8a7f9fe1461048c578063e3c3e64f146103595763f921696e14610172575f61000f565b346103555761018d61018336613bbd565b919293949061450a565b936001600160a01b0392837f00000000000000000000000000000000000000000000000000000000000000001690604051947fca4f2803000000000000000000000000000000000000000000000000000000008652831660048601525f85602481855afa80156103285761021a5f969561029c9561025294610260948a998a91610333575b505191614ea5565b966040519283916020997f4c97a878000000000000000000000000000000000000000000000000000000008b850152602484016144f3565b03601f19810183528261381c565b6040519485809481937fedfa35680000000000000000000000000000000000000000000000000000000083528960048401526024830190613a4e565b03925af18015610328576102c0915f91610306575b508280825183010191016141a8565b916102de575b6102da604051928284938452830190613a1b565b0390f35b5f7f00000000000000000000000000000000000000000000000000000000000000005d6102c6565b61032291503d805f833e61031a818361381c565b810190613e1e565b5f6102b1565b6040513d5f823e3d90fd5b61034f91503d808c833e610347818361381c565b810190614055565b5f610212565b5f80fd5b61042d6103f15f8061036a36613c28565b61037b99959892949391993361450a565b996001600160a01b039560405193610392856137b4565b3385528760209c168c86015260408501526060840152876080840152151560a083015260c08201526102526040519384927f19aceff3000000000000000000000000000000000000000000000000000000008b850152602484016142e4565b6040519485809481937f48c894910000000000000000000000000000000000000000000000000000000083528960048401526024830190613a4e565b03927f0000000000000000000000000000000000000000000000000000000000000000165af18015610328576102c0915f9161047257508280825183010191016141a8565b61048691503d805f833e61031a818361381c565b846102b1565b60c0600319360112610355576104a0613774565b67ffffffffffffffff90602435828111610355576104c2903690600401613b54565b91606435818111610355576104db9036906004016138bf565b92608435918215158093036103555760a435908111610355575f9283926103f161050c61042d943690600401613980565b976105163361450a565b986001600160a01b03946040519261052d846137b4565b3384528660209b168b8501526040840152604435606084015287608084015260a083015260c08201526102526040519384927f4c97a878000000000000000000000000000000000000000000000000000000008b850152602484016144f3565b346103555760c0600319360112610355576105a6613774565b67ffffffffffffffff604435818111610355576105c7903690600401613857565b90606435818111610355576105e0903690600401613857565b906105e961378a565b9160a4359182116103555761065e610623610698946106166106105f963690600401613980565b9161450a565b9787519060243590614ea5565b946102526040519384926020987f47cd1d02000000000000000000000000000000000000000000000000000000008a8601526024850161435e565b604051809381927fedfa35680000000000000000000000000000000000000000000000000000000083528660048401526024830190613a4e565b0381836001600160a01b037f0000000000000000000000000000000000000000000000000000000000000000165af18015610328576102c0915f9161047257508280825183010191016141a8565b346103555760a0600319360112610355576106ff613774565b67ffffffffffffffff9060243582811161035557610721903690600401613b54565b916044358181116103555761073a9036906004016138bf565b92606435906001600160a01b0390818316830361035557608435938411610355576107bd6107856107fa945f9861077f6107798b993690600401613980565b9261450a565b986148a0565b6102526040519384927f27bfb13a000000000000000000000000000000000000000000000000000000006020850152602484016142e4565b6040519586809481937fedfa3568000000000000000000000000000000000000000000000000000000008352602060048401526024830190613a4e565b03927f0000000000000000000000000000000000000000000000000000000000000000165af1918215610328575f92610878575b506020828051810103126103555760208092015190610850575b604051908152f35b5f7f00000000000000000000000000000000000000000000000000000000000000005d610848565b61088d9192503d805f833e61031a818361381c565b908261082e565b61096a61092e5f806108a536613c28565b6108b79995999892949391983361450a565b986001600160a01b0395604051936108ce856137b4565b3385528760209d168d8601526040850152606084015260016080840152151560a083015260c08201526102526040519384927f27bfb13a000000000000000000000000000000000000000000000000000000008c850152602484016142e4565b6040519485809481937f48c894910000000000000000000000000000000000000000000000000000000083528a60048401526024830190613a4e565b03927f0000000000000000000000000000000000000000000000000000000000000000165af1908115610328575f916109bb575b508281805181010312610355578201519061085057604051908152f35b6109cf91503d805f833e61031a818361381c565b8361099e565b60206003193601126103555760043567ffffffffffffffff811161035557610a0d610a076102da92369060040161399e565b90614379565b60405191829182613a73565b3461035557610a2736613af4565b9091608052610a3461454c565b610a3c614579565b5f9060406080510190610a5d610a5483608051613e58565b865191506148e9565b5f5b8451811015610b2857610a7e81610a7885608051613e58565b90614038565b3580610a8e575b50600101610a5f565b6001600160a01b03610aa08388613edd565b511690815f527f000000000000000000000000000000000000000000000000000000000000000060205260405f205d610af9817f0000000000000000000000000000000000000000000000000000000000000000614e60565b610a85577f60a054e0000000000000000000000000000000000000000000000000000000005f5260045260245ffd5b50825f610b39602060805101613e44565b926001600160a01b03604051947fca4f28030000000000000000000000000000000000000000000000000000000086521660048501525f846024816001600160a01b037f0000000000000000000000000000000000000000000000000000000000000000165afa938415610328575f946111e0575b508351610bba81613eac565b945f5b828110610cf35750505050610c29575b6020915032610c02575b5f7f9b779b17422d0df92223018b32b4d1fa46e071723d6817e2486d003becc55f005d604051908152f35b610c24610c10608051613e44565b610c1e60a060805101614048565b90614d1c565b610bd7565b505f610c45610c789232158314610ce25730905b6080516146b2565b604051809381927f4af29ec400000000000000000000000000000000000000000000000000000000835260048301613fc8565b0381836001600160a01b037f0000000000000000000000000000000000000000000000000000000000000000165af18015610328576020915f91610cbd575b50610bcd565b610cd991503d805f833e610cd1818361381c565b810190613f7f565b50905082610cb7565b610ced608051613e44565b90610c3d565b6001600160a01b03610d058284613edd565b5116610d118582614999565b815f527f000000000000000000000000000000000000000000000000000000000000000060205260405f205c90600381101561111f57600181036111965750505f6040517fca4f28030000000000000000000000000000000000000000000000000000000081528260048201525f816024816001600160a01b037f0000000000000000000000000000000000000000000000000000000000000000165afa908115610328575f9161117c575b50805190610dca82613eac565b915f915f5b828110610ffd57505050610e35575b505b80610df0575b5050600101610bbd565b6001965086929181610e02848c613edd565b525f527f000000000000000000000000000000000000000000000000000000000000000060205260405f205d9088610de6565b9050608080608051013591600583101561035557610ec15f92610ef994610eba610e6660c06080510160805161422d565b92909360405196610e76886137ec565b8a88526001600160a01b037f000000000000000000000000000000000000000000000000000000000000000016602089015260408801528760608801528601613ca8565b369161394a565b60a0820152604051809381927f4af29ec400000000000000000000000000000000000000000000000000000000835260048301613fc8565b0381836001600160a01b037f0000000000000000000000000000000000000000000000000000000000000000165af1908115610328575f91610fe0575b506040517f15afd4090000000000000000000000000000000000000000000000000000000081526001600160a01b038316600482015260248101829052602081806044810103815f6001600160a01b037f0000000000000000000000000000000000000000000000000000000000000000165af180156103285715610dde57602090813d8311610fd9575b610fcb818361381c565b810103126103555789610dde565b503d610fc1565b610ff491503d805f833e610cd1818361381c565b50905089610f36565b6001600160a01b0361100f8284613edd565b511661101b8c82614999565b5f8281527f0000000000000000000000000000000000000000000000000000000000000000602052604081205c918261114c575b600381101561111f57600281036110db5750905061107182321560805161575f565b905b81151590816110d2575b5061108d575b5050600101610dcf565b600195508592918161109f848a613edd565b525f527f000000000000000000000000000000000000000000000000000000000000000060205260405f205d908f611083565b9050155f61107d565b8015159081611113575b5015611073577fa1e9dd9d000000000000000000000000000000000000000000000000000000005f5260045ffd5b6001915014155f6110e5565b7f4e487b71000000000000000000000000000000000000000000000000000000005f52602160045260245ffd5b7f000000000000000000000000000000000000000000000000000000000000000060205260405f205c915061104f565b61119091503d805f833e610347818361381c565b8a610dbd565b600281036111b35750506111ae81321560805161575f565b610de0565b15610de0577fa1e9dd9d000000000000000000000000000000000000000000000000000000005f5260045ffd5b6111f59194503d805f833e610347818361381c565b9284610bae565b34610355575f6003193601126103555760206040516001600160a01b037f0000000000000000000000000000000000000000000000000000000000000000168152f35b60e060031936011261035557611253613774565b67ffffffffffffffff9060443582811161035557611275903690600401613857565b6064358381116103555761128d9036906004016138bf565b92608435818111610355576112a6903690600401613857565b936112af61391f565b60c435928311610355575f936103f161042d936102526112d488973690600401613980565b996112de3361450a565b9a6001600160a01b0396604051946112f5866137b4565b3386528860209d168d87015260408601526024356060860152896080860152151560a085015260c08401526040519485937f47cd1d02000000000000000000000000000000000000000000000000000000008c8601526024850161435e565b346103555761137061136536613bbd565b91949093929361450a565b92604051926020938481019080821067ffffffffffffffff8311176114fe575f916040525261139d61486a565b506001600160a01b0392837f00000000000000000000000000000000000000000000000000000000000000001693604051927fca4f280300000000000000000000000000000000000000000000000000000000845216918260048201525f81602481885afa908115610328575f916114e4575b50519661141c88613eac565b975f5b8181106114bf5750509261026061149c935f969387968b60405193611443856137b4565b3085528b850152604084015260608301528660808301528660a083015260c08201526102526040519384927f19aceff3000000000000000000000000000000000000000000000000000000008b850152602484016142e4565b03925af18015610328576102c0915f9161047257508280825183010191016141a8565b806fffffffffffffffffffffffffffffffff6114dd6001938d613edd565b520161141f565b6114f891503d805f833e610347818361381c565b88611410565b7f4e487b71000000000000000000000000000000000000000000000000000000005f52604160045260245ffd5b34610355575f6003193601126103555760207f00000000000000000000000000000000000000000000000000000000000000005c6001600160a01b0360405191168152f35b34610355575f600319360112610355576040515f5f549060018260011c91600184169182156116a3575b60209485851084146116765785879486865291825f146116385750506001146115df575b506115cb9250038361381c565b6102da604051928284938452830190613a4e565b5f808052859250907f290decd9548b62a8d60345a988386fc84ba6bc95484008f6362f93160ef3e5635b8583106116205750506115cb9350820101856115be565b80548389018501528794508693909201918101611609565b7fffffffffffffffffffffffffffffffffffffffffffffffffffffffffffffff0016858201526115cb95151560051b85010192508791506115be9050565b7f4e487b71000000000000000000000000000000000000000000000000000000005f52602260045260245ffd5b92607f169261159a565b34610355576116bb366139cf565b916116c461454c565b6116cc614579565b60208101926116f3816116de86613e44565b6116eb6040860186613e58565b9190506145d7565b9390946116ff81613e44565b6001600160a01b03604051917fbe7d628a0000000000000000000000000000000000000000000000000000000083521660048201526020816024816001600160a01b037f0000000000000000000000000000000000000000000000000000000000000000165afa908115610328575f91611bf0575b5015611b45575f6117876117da92613e44565b61179086613e44565b61179d6040880188613e58565b60409591955195869485947fa07d604000000000000000000000000000000000000000000000000000000000865260608c013591600487016141ce565b0381836001600160a01b037f0000000000000000000000000000000000000000000000000000000000000000165af1908115610328575f91611b23575b50915b61182385613eac565b955f5b868110611868576102da885f7f9b779b17422d0df92223018b32b4d1fa46e071723d6817e2486d003becc55f005d604051918291602083526020830190613a1b565b6001600160a01b0361187a8284613edd565b51166118868287613edd565b519061189b611896848789614038565b614048565b916118ad84610a7860408c018c613e58565b35915f935f14611af5576040517f4afbaf5a0000000000000000000000000000000000000000000000000000000081528160048201526020816024816001600160a01b037f0000000000000000000000000000000000000000000000000000000000000000165afa8015610328576001600160a01b03915f91611ac6575b5016918215611a9a5780611997575b50505b81831061195b57505090600191611954828b613edd565b5201611826565b6001600160a01b0383917f2f785e46000000000000000000000000000000000000000000000000000000005f521660045260245260445260645ffd5b60405194506119fa916119a9866137d0565b5f8652600160208701526040860152606094859182820152846080820152604051809381927f43583be500000000000000000000000000000000000000000000000000000000835260048301614796565b03815f6001600160a01b037f0000000000000000000000000000000000000000000000000000000000000000165af1938415610328575f94611a68575b50508289321561193a57611a619183611a5b60a0611a5485613e44565b9401614048565b926153fa565b8b8961193a565b611a88929450803d10611a93575b611a80818361381c565b81019061477b565b915050918b80611a37565b503d611a76565b507f85f41299000000000000000000000000000000000000000000000000000000005f5260045260245ffd5b611ae8915060203d602011611aee575b611ae0818361381c565b810190614752565b8e61192b565b503d611ad6565b90925080898432611b09575b50505061193d565b611b1b92611a5b60a0611a5485613e44565b8b8981611b01565b611b3f91503d805f833e611b37818361381c565b8101906141a8565b86611817565b50611b875f611b5486866148f0565b604051809381927f214578970000000000000000000000000000000000000000000000000000000083526004830161414c565b0381836001600160a01b037f0000000000000000000000000000000000000000000000000000000000000000165af1908115610328575f91611bcb575b509161181a565b611be791503d805f833e611bdf818361381c565b8101906140f7565b50905086611bc4565b611c12915060203d602011611c18575b611c0a818361381c565b8101906140df565b87611774565b503d611c00565b3461035557611c2d36613af4565b91611c3661454c565b611c3e614579565b60208101611c4b81613e44565b906001600160a01b03604051927fca4f28030000000000000000000000000000000000000000000000000000000084521660048301525f826024816001600160a01b037f0000000000000000000000000000000000000000000000000000000000000000165afa918215610328575f926125f6575b50611cd1610a546040850185613e58565b611cda81613e44565b6001600160a01b03604051917fbe7d628a0000000000000000000000000000000000000000000000000000000083521660048201526020816024816001600160a01b037f0000000000000000000000000000000000000000000000000000000000000000165afa908115610328575f916125d7575b5015612565575f611d62611db592613e44565b611d6b85613e44565b611d786040870187613e58565b60409591955195869485947fa07d604000000000000000000000000000000000000000000000000000000000865260608b013591600487016141ce565b0381836001600160a01b037f0000000000000000000000000000000000000000000000000000000000000000165af1908115610328575f9161254b575b5091905b5f935b815185101561226b576001600160a01b03611e148684613edd565b511692611e218686613edd565b5193611e2d8882614999565b600381101561111f576001810361224557506001600160a01b037f0000000000000000000000000000000000000000000000000000000000000000163b15610355576040517fae6393290000000000000000000000000000000000000000000000000000000081526001600160a01b0382166004820152306024820152604481018690525f8180606481010381836001600160a01b037f0000000000000000000000000000000000000000000000000000000000000000165af1801561032857612236575b50604051947fca4f28030000000000000000000000000000000000000000000000000000000086528160048701525f866024816001600160a01b037f0000000000000000000000000000000000000000000000000000000000000000165afa958615610328575f9661221a575b506040517fbe7d628a0000000000000000000000000000000000000000000000000000000081528260048201526020816024816001600160a01b037f0000000000000000000000000000000000000000000000000000000000000000165afa908115610328575f916121fb575b5015612103575f90611fde8751613eac565b9261202e60405194859384937fa07d604000000000000000000000000000000000000000000000000000000000855260048501523060248501526044840152608060648401526084830190613a1b565b0381836001600160a01b037f0000000000000000000000000000000000000000000000000000000000000000165af1908115610328575f916120e9575b50945b5f5b85518110156120d5576001600160a01b0361208b8288613edd565b5116906120988189613edd565b51916120a48b82614999565b92600384101561111f576001936002036120c7576120c191614b22565b01612070565b6120d091614abe565b6120c1565b5093509350936001905b0193929192611df9565b6120fd91503d805f833e611b37818361381c565b8861206b565b61210d8651613eac565b91608091828501359060048210156103555761219a94610eba612162935f9661213960c08b018b61422d565b949095604051986121498a6137ec565b89523060208a015260408901526060880152860161427e565b60a0820152604051809381927f214578970000000000000000000000000000000000000000000000000000000083526004830161414c565b0381836001600160a01b037f0000000000000000000000000000000000000000000000000000000000000000165af1908115610328575f916121de575b509461206e565b6121f291503d805f833e611bdf818361381c565b509050886121d7565b612214915060203d602011611c1857611c0a818361381c565b8a611fcc565b61222f9196503d805f833e610347818361381c565b9489611f5f565b61223f90613808565b88611ef2565b92969195946001936002036122625761225d91614b22565b6120df565b61225d91614abe565b82815190817f00000000000000000000000000000000000000000000000000000000000000005c03612521576122a082613eac565b916122aa8161383f565b6122b7604051918261381c565b818152601f196122c68361383f565b013660208301375f5b828110612338576102da858532612319575b505f7f9b779b17422d0df92223018b32b4d1fa46e071723d6817e2486d003becc55f005d604051918291602083526020830190613a1b565b80610c1e60a061232b61233294613e44565b9201614048565b826122e1565b6001600160a01b0361234a8288613edd565b5116805f5260017f00000000000000000000000000000000000000000000000000000000000000000160205260405f205c80156124f9575f8281527f0000000000000000000000000000000000000000000000000000000000000000600101602052604090205c1580156124e3575b612480576123cc5f196001920185613edd565b52805f527f000000000000000000000000000000000000000000000000000000000000000060205260405f205c6124038388613edd565b5261240e8287613edd565b5161242083610a786040890189613e58565b351161242f57506001016122cf565b8461244d83610a78612441828b613edd565b51936040810190613e58565b35917f2f785e46000000000000000000000000000000000000000000000000000000005f5260045260245260445260645ffd5b876124aa7f0000000000000000000000000000000000000000000000000000000000000000614c72565b6124df6040519283927f94ae280c0000000000000000000000000000000000000000000000000000000084526004840161428a565b0390fd5b506124f15f19820185613edd565b5115156123b9565b7f66af5392000000000000000000000000000000000000000000000000000000005f5260045ffd5b826124aa7f0000000000000000000000000000000000000000000000000000000000000000614c72565b61255f91503d805f833e611b37818361381c565b85611df2565b506125755f611b548351856148f0565b0381836001600160a01b037f0000000000000000000000000000000000000000000000000000000000000000165af1908115610328575f916125ba575b509190611df6565b6125ce91503d805f833e611bdf818361381c565b509050856125b2565b6125f0915060203d602011611c1857611c0a818361381c565b86611d4f565b61260b9192503d805f833e610347818361381c565b9085611cc0565b346103555760c06003193601126103555761262b613774565b67ffffffffffffffff906024358281116103555761264d903690600401613857565b91604435818111610355576126669036906004016138bf565b926064358281116103555761267f903690600401613857565b61268761378a565b9060a435938411610355576102526126b26126e8936127239861077f6107795f993690600401613980565b916040519485937fa5bb0bd100000000000000000000000000000000000000000000000000000000602086015260248501613da1565b604051809481927fedfa3568000000000000000000000000000000000000000000000000000000008352602060048401526024830190613a4e565b0381836001600160a01b037f0000000000000000000000000000000000000000000000000000000000000000165af1918215610328575f926108785750602082805181010312610355576020809201519061085057604051908152f35b346103555761278e366139cf565b61279661454c565b61279e614579565b6127bb816127ae60208601613e44565b6116eb6040870187613e58565b9190926127c783613eac565b935f5b8481106128965761281d875f6127ea896127e384613e44565b90846146b2565b604051809481927f4af29ec400000000000000000000000000000000000000000000000000000000835260048301613fc8565b0381836001600160a01b037f0000000000000000000000000000000000000000000000000000000000000000165af1908115610328576020925f9261286f575b5061286a610bd791613e44565b6147e5565b610bd791925061288b61286a913d805f833e610cd1818361381c565b50905092915061285d565b6001600160a01b036128a88284613edd565b5116906128bc81610a7860408b018b613e58565b356128cb611896838888614038565b5f91908015612ac9576040517f4afbaf5a0000000000000000000000000000000000000000000000000000000081528560048201526020816024816001600160a01b037f0000000000000000000000000000000000000000000000000000000000000000165afa908115610328575f91612aaa575b505b8180612a99575b612a6d578232612a4d575b505015612a425780612978575b50600192505b6129718289613edd565b52016127ca565b6129da91506040519361298a856137d0565b5f85525f602086015260408501526060938491828201525f6080820152604051809381927f43583be500000000000000000000000000000000000000000000000000000000835260048301614796565b03815f6001600160a01b037f0000000000000000000000000000000000000000000000000000000000000000165af1908115610328576001935f92612a22575b505089612961565b612a389250803d10611a9357611a80818361381c565b9150508980612a1a565b905060019250612967565b612a66918d612a6060a061232b83613e44565b90614ef5565b8b82612954565b857f85f41299000000000000000000000000000000000000000000000000000000005f5260045260245ffd5b506001600160a01b03811615612949565b612ac3915060203d602011611aee57611ae0818361381c565b8c612940565b84612942565b34610355575f6003193601126103555760206040516001600160a01b037f0000000000000000000000000000000000000000000000000000000000000000168152f35b60a06003193601126103555767ffffffffffffffff60043511610355573660236004350112156103555767ffffffffffffffff60043560040135116103555736602460c060043560040135026004350101116103555760243567ffffffffffffffff811161035557612b8890369060040161399e565b67ffffffffffffffff60443511610355576060600319604435360301126103555767ffffffffffffffff60643511610355573660236064350112156103555767ffffffffffffffff606435600401351161035557366024606435600401356064350101116103555760843567ffffffffffffffff811161035557612c1090369060040161399e565b9290917f000000000000000000000000000000000000000000000000000000000000000061319d57612c4061454c565b612c5081600435600401356148e9565b5f5b600435600401358110612eea57505050604435600401357fffffffffffffffffffffffffffffffffffffffffffffffffffffffffffffffdd60443536030181121561035557806044350160048101359067ffffffffffffffff82116103555760248260071b360391011361035557612cf5575b6102da610a0d84845f7f9b779b17422d0df92223018b32b4d1fa46e071723d6817e2486d003becc55f005d614379565b916001600160a01b037f0000000000000000000000000000000000000000000000000000000000000000163b1561035557604051927f2a2d80d10000000000000000000000000000000000000000000000000000000084523360048501526060602485015260c484019060443501602481019167ffffffffffffffff60048301351161035557600482013560071b36038313610355576060606487015260048201359052849160e48301915f905b60048101358210612e7057505050906020815f936001600160a01b03612dcd6024604435016137a0565b1660848301526044803581013560a4840152600319838303019083015260643560048101358083529060240184830137600460643501358181018401869052601f01601f191601030181837f00000000000000000000000000000000000000000000000000000000000000006001600160a01b03165af1918215610328576102da93610a0d93612e61575b50915091612cc5565b612e6a90613808565b84612e58565b919350916001600160a01b03612e85856137a0565b168152602080850135916001600160a01b03831680930361035557600492600192820152612eb560408701614857565b65ffffffffffff8091166040830152612ed060608801614857565b166060820152608080910195019301905086939291612da3565b612ef8610eba8284866144dc565b60405180606081011067ffffffffffffffff6060830111176114fe57606081016040525f81526020915f838301525f60408301528281015190606060408201519101515f1a91835283830152604082015260c07fffffffffffffffffffffffffffffffffffffffffffffffffffffffffffffffdc81850260043501360301126103555760405190612f88826137ec565b612f9b602460c0860260043501016137a0565b808352612fb1604460c0870260043501016137a0565b908185850152612fca606460c0880260043501016137a0565b60408581019190915260043560c08802016084810135606087015260a4810135608087015260c4013560a086015283015183519386015160ff91909116926001600160a01b0383163b15610355575f6001600160a01b03809460e4948b98849860c460c06040519c8d9b8c9a7fd505accf000000000000000000000000000000000000000000000000000000008c521660048b01523060248b0152608482820260043501013560448b0152026004350101356064880152608487015260a486015260c4850152165af1908161318e575b50613184576130a7614828565b906001600160a01b0381511690836001600160a01b0381830151166044604051809581937fdd62ed3e00000000000000000000000000000000000000000000000000000000835260048301523060248301525afa918215610328575f92613154575b50606001510361311f5750506001905b01612c52565b80511561312c5780519101fd5b7fa7285689000000000000000000000000000000000000000000000000000000005f5260045ffd5b9091508381813d831161317d575b61316c818361381c565b810103126103555751906060613109565b503d613162565b5050600190613119565b61319790613808565b8861309a565b7f29a270f5000000000000000000000000000000000000000000000000000000005f5260045ffd5b34610355576131d3366139cf565b916131dc61454c565b6131e4614579565b613201836131f460208401613e44565b6116eb6040850185613e58565b909261320c82613eac565b945f5b8381106135f4575090613264915f6132318861322a88613e44565b90886146b2565b604051809581927f4af29ec400000000000000000000000000000000000000000000000000000000835260048301613fc8565b0381836001600160a01b037f0000000000000000000000000000000000000000000000000000000000000000165af1928315610328575f936135d6575b506132ab84613eac565b955f5b8581106132fc576102da886132c561286a8a613e44565b5f7f9b779b17422d0df92223018b32b4d1fa46e071723d6817e2486d003becc55f005d604051918291602083526020830190613a1b565b6001600160a01b0361330e8284613edd565b51169061331b8187613edd565b519161332b611896838789614038565b61333c83610a7860408d018d613e58565b35935f9282156135cf576040517f4afbaf5a0000000000000000000000000000000000000000000000000000000081528160048201526020816024816001600160a01b037f0000000000000000000000000000000000000000000000000000000000000000165afa8015610328576001600160a01b03915f916135b0575b5016925b808061359f575b611a9a578c8732613576575b50508261349d575b50508483116134615750326133ff575b50600192506133f8828b613edd565b52016132ae565b6134088a613e44565b9380838103116134345760019461342e928461342660a08f01614048565b9303916153fa565b8a6133e9565b7f4e487b71000000000000000000000000000000000000000000000000000000005f52601160045260245ffd5b6001600160a01b0385927f8eda85e4000000000000000000000000000000000000000000000000000000005f521660045260245260445260645ffd5b919350901561356f57604051906134b3826137d0565b600182525f60208301526040820152613507606082858280950152876080820152604051809381927f43583be500000000000000000000000000000000000000000000000000000000835260048301614796565b03815f6001600160a01b037f0000000000000000000000000000000000000000000000000000000000000000165af1918215610328575f9261354f575b5050915b8c806133d9565b6135659250803d10611a9357611a80818361381c565b5090508c80613544565b5081613548565b8161358860a061232b61359895613e44565b6001600160a01b03881691614ef5565b8c876133d1565b506001600160a01b038416156133c5565b6135c9915060203d602011611aee57611ae0818361381c565b8f6133ba565b80926133be565b6135eb9193503d805f833e610cd1818361381c565b505091866132a1565b806fffffffffffffffffffffffffffffffff6136126001938a613edd565b520161320f565b60e06003193601126103555761362d613774565b67ffffffffffffffff906024358281116103555761364f903690600401613857565b604435838111610355576136679036906004016138bf565b9260643581811161035557613680903690600401613857565b9261368961391f565b9460c435928311610355575f9361092e61096a936102526136af88973690600401613980565b986136b93361450a565b996001600160a01b039b8c97604051956136d2876137b4565b33875260209e8f9116908701526040860152608435606086015260016080860152151560a085015260c08401526040519485937fa5bb0bd1000000000000000000000000000000000000000000000000000000008d86015260248501613da1565b34610355575f600319360112610355576020906001600160a01b037f0000000000000000000000000000000000000000000000000000000000000000168152f35b600435906001600160a01b038216820361035557565b608435906001600160a01b038216820361035557565b35906001600160a01b038216820361035557565b60e0810190811067ffffffffffffffff8211176114fe57604052565b60a0810190811067ffffffffffffffff8211176114fe57604052565b60c0810190811067ffffffffffffffff8211176114fe57604052565b67ffffffffffffffff81116114fe57604052565b90601f601f19910116810190811067ffffffffffffffff8211176114fe57604052565b67ffffffffffffffff81116114fe5760051b60200190565b9080601f830112156103555760209082356138718161383f565b9361387f604051958661381c565b81855260208086019260051b82010192831161035557602001905b8282106138a8575050505090565b8380916138b4846137a0565b81520191019061389a565b9080601f830112156103555760209082356138d98161383f565b936138e7604051958661381c565b81855260208086019260051b82010192831161035557602001905b828210613910575050505090565b81358152908301908301613902565b60a43590811515820361035557565b67ffffffffffffffff81116114fe57601f01601f191660200190565b9291926139568261392e565b91613964604051938461381c565b829481845281830111610355578281602093845f960137010152565b9080601f830112156103555781602061399b9335910161394a565b90565b9181601f840112156103555782359167ffffffffffffffff8311610355576020808501948460051b01011161035557565b906003196040818401126103555760043567ffffffffffffffff918282116103555760e0908286030112610355576004019260243591821161035557613a179160040161399e565b9091565b9081518082526020808093019301915f5b828110613a3a575050505090565b835185529381019392810192600101613a2c565b90601f19601f602080948051918291828752018686015e5f8582860101520116010190565b6020808201906020835283518092526040830192602060408460051b8301019501935f915b848310613aa85750505050505090565b9091929394958480613ae4837fffffffffffffffffffffffffffffffffffffffffffffffffffffffffffffffc086600196030187528a51613a4e565b9801930193019194939290613a98565b600319916060838301126103555760043567ffffffffffffffff938482116103555760e090828503011261035557600401926024358181116103555783613b3d91600401613857565b926044359182116103555761399b91600401613857565b9080601f83011215610355576020908235613b6e8161383f565b93613b7c604051958661381c565b81855260208086019260051b82010192831161035557602001905b828210613ba5575050505090565b81358015158103610355578152908301908301613b97565b9060a0600319830112610355576001600160a01b036004358181168103610355579267ffffffffffffffff926024358481116103555782613c0091600401613b54565b9360443593606435908116810361035557926084359182116103555761399b91600401613980565b60c0600319820112610355576004356001600160a01b0381168103610355579167ffffffffffffffff6024358181116103555783613c6891600401613b54565b926044358281116103555781613c80916004016138bf565b92606435926084358015158103610355579260a4359182116103555761399b91600401613980565b600582101561111f5752565b9081518082526020808093019301915f5b828110613cd3575050505090565b835185529381019392810192600101613cc5565b90600582101561111f5752565b61399b916001600160a01b03808351168252602083015116602082015260c0613d2c604084015160e0604085015260e0840190613cb4565b9260608101516060840152613d4960808201516080850190613ce7565b60a0810151151560a084015201519060c0818403910152613a4e565b9081518082526020808093019301915f5b828110613d84575050505090565b83516001600160a01b031685529381019392810192600101613d76565b91613dca90613dbc61399b9593606086526060860190613cf4565b908482036020860152613d65565b916040818403910152613d65565b81601f8201121561035557805190613def8261392e565b92613dfd604051948561381c565b8284526020838301011161035557815f9260208093018386015e8301015290565b9060208282031261035557815167ffffffffffffffff81116103555761399b9201613dd8565b356001600160a01b03811681036103555790565b9035907fffffffffffffffffffffffffffffffffffffffffffffffffffffffffffffffe181360301821215610355570180359067ffffffffffffffff821161035557602001918160051b3603831361035557565b90613eb68261383f565b613ec3604051918261381c565b828152601f19613ed3829461383f565b0190602036910137565b8051821015613ef15760209160051b010190565b7f4e487b71000000000000000000000000000000000000000000000000000000005f52603260045260245ffd5b9080601f8301121561035557815190602091613f398161383f565b93613f47604051958661381c565b81855260208086019260051b82010192831161035557602001905b828210613f70575050505090565b81518152908301908301613f62565b90916060828403126103555781519167ffffffffffffffff928381116103555784613fab918301613f1e565b9360208201519360408301519081116103555761399b9201613dd8565b9061399b91602081526001600160a01b03808351166020830152602083015116604082015260a0614008604084015160c0606085015260e0840190613cb4565b9260608101516080840152614024608082015183850190613ce7565b01519060c0601f1982850301910152613a4e565b9190811015613ef15760051b0190565b3580151581036103555790565b60209081818403126103555780519067ffffffffffffffff821161035557019180601f8401121561035557825161408b8161383f565b93614099604051958661381c565b818552838086019260051b820101928311610355578301905b8282106140c0575050505090565b81516001600160a01b03811681036103555781529083019083016140b2565b90816020910312610355575180151581036103555790565b916060838303126103555782519260208101519267ffffffffffffffff938481116103555781614128918401613f1e565b9360408301519081116103555761399b9201613dd8565b90600482101561111f5752565b9061399b91602081526001600160a01b0380835116602083015260208301511660408201526040820151606082015260a0614196606084015160c0608085015260e0840190613cb4565b9261402460808201518385019061413f565b9060208282031261035557815167ffffffffffffffff81116103555761399b9201613f1e565b92916001600160a01b0380921684521660208301526040820152608060608201528260808201527f07ffffffffffffffffffffffffffffffffffffffffffffffffffffffffffffff83116103555760a09260051b809284830137010190565b9035907fffffffffffffffffffffffffffffffffffffffffffffffffffffffffffffffe181360301821215610355570180359067ffffffffffffffff82116103555760200191813603831361035557565b600482101561111f5752565b90916142a161399b93604084526040840190613d65565b916020818403910152613d65565b9081518082526020808093019301915f5b8281106142ce575050505090565b83511515855293810193928101926001016142c0565b90916142fb61399b93604084526040840190613cf4565b9160208184039101526142af565b61399b916001600160a01b03808351168252602083015116602082015260c0614341604084015160e0604085015260e0840190613cb4565b9260608101516060840152613d496080820151608085019061413f565b91613dca90613dbc61399b9593606086526060860190614309565b91906143843361450a565b907f000000000000000000000000000000000000000000000000000000000000000093845c6144b4576001906001865d7f000000000000000000000000000000000000000000000000000000000000000061319d576143e28361383f565b926143f0604051948561381c565b808452601f196143ff8261383f565b015f5b8181106144a35750505f5b81811061445a5750505050905f61444f92945d7f0000000000000000000000000000000000000000000000000000000000000000805c91614451575b506147e5565b565b5f905d5f614449565b806144875f8061446f610eba8996888a6144dc565b602081519101305af4614480614828565b9030615948565b6144918288613edd565b5261449c8187613edd565b500161440d565b806060602080938901015201614402565b7f3ee5aeb5000000000000000000000000000000000000000000000000000000005f5260045ffd5b90821015613ef157613a179160051b81019061422d565b90916142fb61399b93604084526040840190614309565b905f917f00000000000000000000000000000000000000000000000000000000000000006001600160a01b03815c1615614542575050565b909192505d600190565b7f9b779b17422d0df92223018b32b4d1fa46e071723d6817e2486d003becc55f00805c6144b4576001905d565b6001600160a01b037f00000000000000000000000000000000000000000000000000000000000000001633036145ab57565b7f089676d5000000000000000000000000000000000000000000000000000000005f523360045260245ffd5b905f602494926001600160a01b0395869160405197889384927fca4f28030000000000000000000000000000000000000000000000000000000084521660048301527f0000000000000000000000000000000000000000000000000000000000000000165afa938415610328575f94614696575b508351928184149182159261468b575b505061466357565b7faaad13f7000000000000000000000000000000000000000000000000000000005f5260045ffd5b141590505f8061465b565b6146ab9194503d805f833e610347818361381c565b925f61464b565b90606060a06040516146c3816137ec565b5f81525f60208201528260408201525f838201525f608082015201526146eb60208301613e44565b9060808301359260058410156103555761474a9360608261471260c0610eba95018261422d565b959096604051996147228b6137ec565b6001600160a01b038092168b521660208a015260408901520135606087015260808601613ca8565b60a082015290565b9081602091031261035557516001600160a01b03811681036103555790565b6002111561111f57565b90816060910312610355578051916040602083015192015190565b91909160808060a083019480516147ac81614771565b845260208101516147bc81614771565b60208501526001600160a01b036040820151166040850152606081015160608501520151910152565b478015614824577f00000000000000000000000000000000000000000000000000000000000000005c614824576001600160a01b0361444f921661561c565b5050565b3d15614852573d906148398261392e565b91614847604051938461381c565b82523d5f602084013e565b606090565b359065ffffffffffff8216820361035557565b60405190614877826137b4565b606060c0835f81525f60208201528260408201525f838201525f60808201525f60a08201520152565b91906148aa61486a565b506001600160a01b03604051936148c0856137b4565b30855216602084015260408301525f6060830152600160808301525f60a083015260c082015290565b0361466357565b606060a0604051614900816137ec565b5f81525f60208201525f604082015282808201525f6080820152015261492860208201613e44565b61493a61493483613e44565b93613eac565b9160808101359260048410156103555761474a93610eba91606061496160c086018661422d565b959096604051996149718b6137ec565b6001600160a01b038092168b521660208a01520135604088015260608701526080860161427e565b906001600160a01b03807f000000000000000000000000000000000000000000000000000000000000000016604051917fc673bdaf00000000000000000000000000000000000000000000000000000000835284168060048401526020928381602481865afa908115610328575f91614aa1575b5015614a1d575050505050600190565b82906024604051809481937f6844846b00000000000000000000000000000000000000000000000000000000835260048301525afa918215610328575f92614a84575b505015614a7e57614a709161567a565b15614a7a57600290565b5f90565b50505f90565b614a9a9250803d10611c1857611c0a818361381c565b5f80614a60565b614ab89150843d8611611c1857611c0a818361381c565b5f614a0d565b614ae8817f0000000000000000000000000000000000000000000000000000000000000000614e60565b505f527f000000000000000000000000000000000000000000000000000000000000000060205260405f20805c918201809211613434575d565b614bb4909291926001600160a01b03936060857f00000000000000000000000000000000000000000000000000000000000000001692604096875191614b67836137d0565b5f83526001602084015216928388830152828201525f60808201528651809581927f43583be500000000000000000000000000000000000000000000000000000000835260048301614796565b03815f865af1928315614c68575f93614c41575b5060209060248651809481937f4afbaf5a00000000000000000000000000000000000000000000000000000000835260048301525afa908115614c375761444f9394505f91614c18575b50614abe565b614c31915060203d602011611aee57611ae0818361381c565b5f614c12565b84513d5f823e3d90fd5b6020919350614c5e9060603d606011611a9357611a80818361381c565b9150509290614bc8565b85513d5f823e3d90fd5b90815c614c7e8161383f565b614c8b604051918261381c565b818152614c978261383f565b601f196020910136602084013781945f5b848110614cb6575050505050565b600190825f5280845f20015c6001600160a01b03614cd48388613edd565b9116905201614ca8565b905f19820191821360011661343457565b7f80000000000000000000000000000000000000000000000000000000000000008114613434575f190190565b907f000000000000000000000000000000000000000000000000000000000000000090815c7f0000000000000000000000000000000000000000000000000000000000000000614d6c815c614cde565b907f0000000000000000000000000000000000000000000000000000000000000000915b5f811215614e2d57505050614da490614cde565b917f0000000000000000000000000000000000000000000000000000000000000000925b5f811215614ddd575050505061444f906147e5565b614e2890825f52614e2260205f83828220015c9182825288815288604091614e158a8d8587205c906001600160a01b038916906153fa565b8484525281205d846156bc565b50614cef565b614dc8565b614e5b90825f52614e22885f88876020614e1587828620015c95868652838352866040958688205c92614ef5565b614d90565b5f82815260018201602052604090205c614a7e57805c90805f52828260205f20015d6001820180921161343457600191815d805c925f520160205260405f205d600190565b9291614eb990614eb361486a565b50613eac565b6001600160a01b0360405194614ece866137b4565b308652166020850152604084015260608301525f60808301525f60a083015260c082015290565b9291905f937f00000000000000000000000000000000000000000000000000000000000000001580156153bd575b15615328576001600160a01b0380931691806152fd575b1561515257505081471061512a57807f00000000000000000000000000000000000000000000000000000000000000001692833b156151275760409182517fd0e30db00000000000000000000000000000000000000000000000000000000081528281600481888a5af1801561511d57908391615105575b50507f000000000000000000000000000000000000000000000000000000000000000016928251946020958681017fa9059cbb00000000000000000000000000000000000000000000000000000000815286602483015283604483015260448252608082019082821067ffffffffffffffff8311176114fe57889286928852519082855af1156150fb5782513d6150f25750803b155b6150c757906044869284865197889485937f15afd409000000000000000000000000000000000000000000000000000000008552600485015260248401525af19182156150bd575050615099575050565b813d83116150b6575b6150ac818361381c565b8101031261035557565b503d6150a2565b51903d90823e3d90fd5b7f5274afe7000000000000000000000000000000000000000000000000000000008352600452602482fd5b60011415615048565b83513d84823e3d90fd5b61510e90613808565b61511957815f614fb2565b5080fd5b84513d85823e3d90fd5b80fd5b6004837fa01a9df6000000000000000000000000000000000000000000000000000000008152fd5b839193949294615164575b5050505050565b847f000000000000000000000000000000000000000000000000000000000000000016857f000000000000000000000000000000000000000000000000000000000000000016918684116152cc57813b1561035557608487915f80946040519a8b9586947f36c78516000000000000000000000000000000000000000000000000000000008652166004850152876024850152881660448401528960648401525af194851561032857615267956152b8575b5082936020936040518097819582947f15afd40900000000000000000000000000000000000000000000000000000000845260048401602090939291936001600160a01b0360408201951681520152565b03925af19081156152ac5750615281575b8080808061515d565b602090813d83116152a5575b615297818361381c565b81010312610355575f615278565b503d61528d565b604051903d90823e3d90fd5b602093506152c590613808565b5f92615216565b837f6dfcc650000000000000000000000000000000000000000000000000000000005f5260a060045260245260445ffd5b50827f0000000000000000000000000000000000000000000000000000000000000000168214614f3a565b50506040517f15afd4090000000000000000000000000000000000000000000000000000000081526001600160a01b0391821660048201526024810192909252909150602090829060449082905f907f0000000000000000000000000000000000000000000000000000000000000000165af18015610328576153a85750565b602090813d83116150b6576150ac818361381c565b50818015614f2357506001600160a01b03807f00000000000000000000000000000000000000000000000000000000000000001690841614614f23565b909392935f94831561561457806155df575b1561554257506001600160a01b0390817f000000000000000000000000000000000000000000000000000000000000000016803b15610355576040517fae6393290000000000000000000000000000000000000000000000000000000081525f8160648183887f000000000000000000000000000000000000000000000000000000000000000016968760048401523060248401528a60448401525af180156103285761552f575b508086913b156151195781906024604051809481937f2e1a7d4d0000000000000000000000000000000000000000000000000000000083528960048401525af180156155245761550c575b5061444f9394501661561c565b6155168691613808565b61552057846154ff565b8480fd5b6040513d88823e3d90fd5b61553a919650613808565b5f945f6154b4565b91909293506001600160a01b037f000000000000000000000000000000000000000000000000000000000000000016803b15610355576040517fae6393290000000000000000000000000000000000000000000000000000000081526001600160a01b03938416600482015293909216602484015260448301525f908290606490829084905af18015610328576155d65750565b61444f90613808565b506001600160a01b03807f0000000000000000000000000000000000000000000000000000000000000000169082161461540c565b505050509050565b81471061564a575f8080936001600160a01b038294165af161563c614828565b90156156455750565b6159a2565b50477fcf479181000000000000000000000000000000000000000000000000000000005f5260045260245260445ffd5b8151915f5b83811061568e57505050505f90565b6001600160a01b03806156a18385613edd565b5116908416146156b35760010161567f565b50505050600190565b6001810191805f5260209183835260405f205c8015155f14615756575f1990818101835c8380820191828403615719575b5050505050815c81810192818411613434575f93815d835284832001015d5f52525f604081205d600190565b61572661573693886159d9565b865f52885f2001015c91856159d9565b835f52808383885f2001015d5f5285855260405f205d5f808083816156ed565b50505050505f90565b9192905f926001600160a01b0391827f0000000000000000000000000000000000000000000000000000000000000000166040938451977f4afbaf5a000000000000000000000000000000000000000000000000000000008952168060048901526020928389602481865afa98891561593e575f9961591f575b507f000000000000000000000000000000000000000000000000000000000000000094895f52858552865f205c9182615849575b5050505050856158405f9596977f00000000000000000000000000000000000000000000000000000000000000006156bc565b5084525281205d565b8a9950916158b89391815f9c6060979515615905575b50505087519161586e836137d0565b8b83528b8784015288830152848201528960808201528651998a809481937f43583be500000000000000000000000000000000000000000000000000000000835260048301614796565b03925af180156158fb575f94959685916158d9575b5094935f80808061580d565b6158f2915060603d606011611a9357611a80818361381c565b9150505f6158cd565b83513d5f823e3d90fd5b82612a6060a061232b61591796613e44565b5f818b61585f565b615937919950843d8611611aee57611ae0818361381c565b975f6157d9565b86513d5f823e3d90fd5b9061595357506159a2565b81511580615999575b615964575090565b6001600160a01b03907f9996b315000000000000000000000000000000000000000000000000000000005f521660045260245ffd5b50803b1561595c565b8051156159b157602081519101fd5b7fd6bda275000000000000000000000000000000000000000000000000000000005f5260045ffd5b5c11156159e257565b7f0f4ae0e4000000000000000000000000000000000000000000000000000000005f5260045ffdfea2646970667358221220251a127944bd94dc4b5f5c33e74b76463f7c0bf72e7ff374dd6623de11c9e12264736f6c634300081b0033",
  "linkReferences": {},
  "deployedLinkReferences": {}
}