{
  "_format": "hh-sol-artifact-1",
  "contractName": "Router",
  "sourceName": "contracts/Router.sol",
  "abi": [
    {
      "inputs": [
        {
          "internalType": "contract IVault",
          "name": "vault",
          "type": "address"
        },
        {
          "internalType": "contract IWETH",
          "name": "weth",
          "type": "address"
        },
        {
          "internalType": "contract IPermit2",
          "name": "permit2",
          "type": "address"
        },
        {
          "internalType": "string",
          "name": "routerVersion",
          "type": "string"
        }
      ],
      "stateMutability": "nonpayable",
      "type": "constructor"
    },
    {
      "inputs": [
        {
          "internalType": "address",
          "name": "target",
          "type": "address"
        }
      ],
      "name": "AddressEmptyCode",
      "type": "error"
    },
    {
      "inputs": [],
      "name": "ErrorSelectorNotFound",
      "type": "error"
    },
    {
      "inputs": [],
      "name": "EthTransfer",
      "type": "error"
    },
    {
      "inputs": [],
      "name": "FailedCall",
      "type": "error"
    },
    {
      "inputs": [],
      "name": "InputLengthMismatch",
      "type": "error"
    },
    {
      "inputs": [
        {
          "internalType": "uint256",
          "name": "balance",
          "type": "uint256"
        },
        {
          "internalType": "uint256",
          "name": "needed",
          "type": "uint256"
        }
      ],
      "name": "InsufficientBalance",
      "type": "error"
    },
    {
      "inputs": [],
      "name": "InsufficientEth",
      "type": "error"
    },
    {
      "inputs": [
        {
          "internalType": "contract IERC20",
          "name": "token",
          "type": "address"
        }
      ],
      "name": "InsufficientPayment",
      "type": "error"
    },
    {
      "inputs": [],
      "name": "OperationNotSupported",
      "type": "error"
    },
    {
      "inputs": [],
      "name": "ReentrancyGuardReentrantCall",
      "type": "error"
    },
    {
      "inputs": [
        {
          "internalType": "uint8",
          "name": "bits",
          "type": "uint8"
        },
        {
          "internalType": "uint256",
          "name": "value",
          "type": "uint256"
        }
      ],
      "name": "SafeCastOverflowedUintDowncast",
      "type": "error"
    },
    {
      "inputs": [
        {
          "internalType": "address",
          "name": "token",
          "type": "address"
        }
      ],
      "name": "SafeERC20FailedOperation",
      "type": "error"
    },
    {
      "inputs": [
        {
          "internalType": "address",
          "name": "sender",
          "type": "address"
        }
      ],
      "name": "SenderIsNotVault",
      "type": "error"
    },
    {
      "inputs": [],
      "name": "SwapDeadline",
      "type": "error"
    },
    {
      "inputs": [
        {
          "internalType": "address",
          "name": "pool",
          "type": "address"
        },
        {
          "internalType": "uint256[]",
          "name": "maxAmountsIn",
          "type": "uint256[]"
        },
        {
          "internalType": "uint256",
          "name": "minBptAmountOut",
          "type": "uint256"
        },
        {
          "internalType": "bool",
          "name": "wethIsEth",
          "type": "bool"
        },
        {
          "internalType": "bytes",
          "name": "userData",
          "type": "bytes"
        }
      ],
      "name": "addLiquidityCustom",
      "outputs": [
        {
          "internalType": "uint256[]",
          "name": "amountsIn",
          "type": "uint256[]"
        },
        {
          "internalType": "uint256",
          "name": "bptAmountOut",
          "type": "uint256"
        },
        {
          "internalType": "bytes",
          "name": "returnData",
          "type": "bytes"
        }
      ],
      "stateMutability": "payable",
      "type": "function"
    },
    {
      "inputs": [
        {
          "components": [
            {
              "internalType": "address",
              "name": "sender",
              "type": "address"
            },
            {
              "internalType": "address",
              "name": "pool",
              "type": "address"
            },
            {
              "internalType": "uint256[]",
              "name": "maxAmountsIn",
              "type": "uint256[]"
            },
            {
              "internalType": "uint256",
              "name": "minBptAmountOut",
              "type": "uint256"
            },
            {
              "internalType": "enum AddLiquidityKind",
              "name": "kind",
              "type": "uint8"
            },
            {
              "internalType": "bool",
              "name": "wethIsEth",
              "type": "bool"
            },
            {
              "internalType": "bytes",
              "name": "userData",
              "type": "bytes"
            }
          ],
          "internalType": "struct AddLiquidityHookParams",
          "name": "params",
          "type": "tuple"
        }
      ],
      "name": "addLiquidityHook",
      "outputs": [
        {
          "internalType": "uint256[]",
          "name": "amountsIn",
          "type": "uint256[]"
        },
        {
          "internalType": "uint256",
          "name": "bptAmountOut",
          "type": "uint256"
        },
        {
          "internalType": "bytes",
          "name": "returnData",
          "type": "bytes"
        }
      ],
      "stateMutability": "nonpayable",
      "type": "function"
    },
    {
      "inputs": [
        {
          "internalType": "address",
          "name": "pool",
          "type": "address"
        },
        {
          "internalType": "uint256[]",
          "name": "maxAmountsIn",
          "type": "uint256[]"
        },
        {
          "internalType": "uint256",
          "name": "exactBptAmountOut",
          "type": "uint256"
        },
        {
          "internalType": "bool",
          "name": "wethIsEth",
          "type": "bool"
        },
        {
          "internalType": "bytes",
          "name": "userData",
          "type": "bytes"
        }
      ],
      "name": "addLiquidityProportional",
      "outputs": [
        {
          "internalType": "uint256[]",
          "name": "amountsIn",
          "type": "uint256[]"
        }
      ],
      "stateMutability": "payable",
      "type": "function"
    },
    {
      "inputs": [
        {
          "internalType": "address",
          "name": "pool",
          "type": "address"
        },
        {
          "internalType": "contract IERC20",
          "name": "tokenIn",
          "type": "address"
        },
        {
          "internalType": "uint256",
          "name": "maxAmountIn",
          "type": "uint256"
        },
        {
          "internalType": "uint256",
          "name": "exactBptAmountOut",
          "type": "uint256"
        },
        {
          "internalType": "bool",
          "name": "wethIsEth",
          "type": "bool"
        },
        {
          "internalType": "bytes",
          "name": "userData",
          "type": "bytes"
        }
      ],
      "name": "addLiquiditySingleTokenExactOut",
      "outputs": [
        {
          "internalType": "uint256",
          "name": "amountIn",
          "type": "uint256"
        }
      ],
      "stateMutability": "payable",
      "type": "function"
    },
    {
      "inputs": [
        {
          "internalType": "address",
          "name": "pool",
          "type": "address"
        },
        {
          "internalType": "uint256[]",
          "name": "exactAmountsIn",
          "type": "uint256[]"
        },
        {
          "internalType": "uint256",
          "name": "minBptAmountOut",
          "type": "uint256"
        },
        {
          "internalType": "bool",
          "name": "wethIsEth",
          "type": "bool"
        },
        {
          "internalType": "bytes",
          "name": "userData",
          "type": "bytes"
        }
      ],
      "name": "addLiquidityUnbalanced",
      "outputs": [
        {
          "internalType": "uint256",
          "name": "bptAmountOut",
          "type": "uint256"
        }
      ],
      "stateMutability": "payable",
      "type": "function"
    },
    {
      "inputs": [
        {
          "internalType": "address",
          "name": "pool",
          "type": "address"
        },
        {
          "internalType": "uint256[]",
          "name": "amountsIn",
          "type": "uint256[]"
        },
        {
          "internalType": "bool",
          "name": "wethIsEth",
          "type": "bool"
        },
        {
          "internalType": "bytes",
          "name": "userData",
          "type": "bytes"
        }
      ],
      "name": "donate",
      "outputs": [],
      "stateMutability": "payable",
      "type": "function"
    },
    {
      "inputs": [],
      "name": "getPermit2",
      "outputs": [
        {
          "internalType": "contract IPermit2",
          "name": "",
          "type": "address"
        }
      ],
      "stateMutability": "view",
      "type": "function"
    },
    {
      "inputs": [],
      "name": "getSender",
      "outputs": [
        {
          "internalType": "address",
          "name": "",
          "type": "address"
        }
      ],
      "stateMutability": "view",
      "type": "function"
    },
    {
      "inputs": [],
      "name": "getVault",
      "outputs": [
        {
          "internalType": "contract IVault",
          "name": "",
          "type": "address"
        }
      ],
      "stateMutability": "view",
      "type": "function"
    },
    {
      "inputs": [],
      "name": "getWeth",
      "outputs": [
        {
          "internalType": "contract IWETH",
          "name": "",
          "type": "address"
        }
      ],
      "stateMutability": "view",
      "type": "function"
    },
    {
      "inputs": [
        {
          "internalType": "address",
          "name": "pool",
          "type": "address"
        },
        {
          "internalType": "contract IERC20[]",
          "name": "tokens",
          "type": "address[]"
        },
        {
          "internalType": "uint256[]",
          "name": "exactAmountsIn",
          "type": "uint256[]"
        },
        {
          "internalType": "uint256",
          "name": "minBptAmountOut",
          "type": "uint256"
        },
        {
          "internalType": "bool",
          "name": "wethIsEth",
          "type": "bool"
        },
        {
          "internalType": "bytes",
          "name": "userData",
          "type": "bytes"
        }
      ],
      "name": "initialize",
      "outputs": [
        {
          "internalType": "uint256",
          "name": "bptAmountOut",
          "type": "uint256"
        }
      ],
      "stateMutability": "payable",
      "type": "function"
    },
    {
      "inputs": [
        {
          "components": [
            {
              "internalType": "address",
              "name": "sender",
              "type": "address"
            },
            {
              "internalType": "address",
              "name": "pool",
              "type": "address"
            },
            {
              "internalType": "contract IERC20[]",
              "name": "tokens",
              "type": "address[]"
            },
            {
              "internalType": "uint256[]",
              "name": "exactAmountsIn",
              "type": "uint256[]"
            },
            {
              "internalType": "uint256",
              "name": "minBptAmountOut",
              "type": "uint256"
            },
            {
              "internalType": "bool",
              "name": "wethIsEth",
              "type": "bool"
            },
            {
              "internalType": "bytes",
              "name": "userData",
              "type": "bytes"
            }
          ],
          "internalType": "struct InitializeHookParams",
          "name": "params",
          "type": "tuple"
        }
      ],
      "name": "initializeHook",
      "outputs": [
        {
          "internalType": "uint256",
          "name": "bptAmountOut",
          "type": "uint256"
        }
      ],
      "stateMutability": "nonpayable",
      "type": "function"
    },
    {
      "inputs": [
        {
          "internalType": "bytes[]",
          "name": "data",
          "type": "bytes[]"
        }
      ],
      "name": "multicall",
      "outputs": [
        {
          "internalType": "bytes[]",
          "name": "results",
          "type": "bytes[]"
        }
      ],
      "stateMutability": "payable",
      "type": "function"
    },
    {
      "inputs": [
        {
          "components": [
            {
              "internalType": "address",
              "name": "token",
              "type": "address"
            },
            {
              "internalType": "address",
              "name": "owner",
              "type": "address"
            },
            {
              "internalType": "address",
              "name": "spender",
              "type": "address"
            },
            {
              "internalType": "uint256",
              "name": "amount",
              "type": "uint256"
            },
            {
              "internalType": "uint256",
              "name": "nonce",
              "type": "uint256"
            },
            {
              "internalType": "uint256",
              "name": "deadline",
              "type": "uint256"
            }
          ],
          "internalType": "struct IRouterCommon.PermitApproval[]",
          "name": "permitBatch",
          "type": "tuple[]"
        },
        {
          "internalType": "bytes[]",
          "name": "permitSignatures",
          "type": "bytes[]"
        },
        {
          "components": [
            {
              "components": [
                {
                  "internalType": "address",
                  "name": "token",
                  "type": "address"
                },
                {
                  "internalType": "uint160",
                  "name": "amount",
                  "type": "uint160"
                },
                {
                  "internalType": "uint48",
                  "name": "expiration",
                  "type": "uint48"
                },
                {
                  "internalType": "uint48",
                  "name": "nonce",
                  "type": "uint48"
                }
              ],
              "internalType": "struct IAllowanceTransfer.PermitDetails[]",
              "name": "details",
              "type": "tuple[]"
            },
            {
              "internalType": "address",
              "name": "spender",
              "type": "address"
            },
            {
              "internalType": "uint256",
              "name": "sigDeadline",
              "type": "uint256"
            }
          ],
          "internalType": "struct IAllowanceTransfer.PermitBatch",
          "name": "permit2Batch",
          "type": "tuple"
        },
        {
          "internalType": "bytes",
          "name": "permit2Signature",
          "type": "bytes"
        },
        {
          "internalType": "bytes[]",
          "name": "multicallData",
          "type": "bytes[]"
        }
      ],
      "name": "permitBatchAndCall",
      "outputs": [
        {
          "internalType": "bytes[]",
          "name": "results",
          "type": "bytes[]"
        }
      ],
      "stateMutability": "payable",
      "type": "function"
    },
    {
      "inputs": [
        {
          "internalType": "address",
          "name": "pool",
          "type": "address"
        },
        {
          "internalType": "uint256[]",
          "name": "maxAmountsIn",
          "type": "uint256[]"
        },
        {
          "internalType": "uint256",
          "name": "minBptAmountOut",
          "type": "uint256"
        },
        {
          "internalType": "address",
          "name": "sender",
          "type": "address"
        },
        {
          "internalType": "bytes",
          "name": "userData",
          "type": "bytes"
        }
      ],
      "name": "queryAddLiquidityCustom",
      "outputs": [
        {
          "internalType": "uint256[]",
          "name": "amountsIn",
          "type": "uint256[]"
        },
        {
          "internalType": "uint256",
          "name": "bptAmountOut",
          "type": "uint256"
        },
        {
          "internalType": "bytes",
          "name": "returnData",
          "type": "bytes"
        }
      ],
      "stateMutability": "nonpayable",
      "type": "function"
    },
    {
      "inputs": [
        {
          "components": [
            {
              "internalType": "address",
              "name": "sender",
              "type": "address"
            },
            {
              "internalType": "address",
              "name": "pool",
              "type": "address"
            },
            {
              "internalType": "uint256[]",
              "name": "maxAmountsIn",
              "type": "uint256[]"
            },
            {
              "internalType": "uint256",
              "name": "minBptAmountOut",
              "type": "uint256"
            },
            {
              "internalType": "enum AddLiquidityKind",
              "name": "kind",
              "type": "uint8"
            },
            {
              "internalType": "bool",
              "name": "wethIsEth",
              "type": "bool"
            },
            {
              "internalType": "bytes",
              "name": "userData",
              "type": "bytes"
            }
          ],
          "internalType": "struct AddLiquidityHookParams",
          "name": "params",
          "type": "tuple"
        }
      ],
      "name": "queryAddLiquidityHook",
      "outputs": [
        {
          "internalType": "uint256[]",
          "name": "amountsIn",
          "type": "uint256[]"
        },
        {
          "internalType": "uint256",
          "name": "bptAmountOut",
          "type": "uint256"
        },
        {
          "internalType": "bytes",
          "name": "returnData",
          "type": "bytes"
        }
      ],
      "stateMutability": "nonpayable",
      "type": "function"
    },
    {
      "inputs": [
        {
          "internalType": "address",
          "name": "pool",
          "type": "address"
        },
        {
          "internalType": "uint256",
          "name": "exactBptAmountOut",
          "type": "uint256"
        },
        {
          "internalType": "address",
          "name": "sender",
          "type": "address"
        },
        {
          "internalType": "bytes",
          "name": "userData",
          "type": "bytes"
        }
      ],
      "name": "queryAddLiquidityProportional",
      "outputs": [
        {
          "internalType": "uint256[]",
          "name": "amountsIn",
          "type": "uint256[]"
        }
      ],
      "stateMutability": "nonpayable",
      "type": "function"
    },
    {
      "inputs": [
        {
          "internalType": "address",
          "name": "pool",
          "type": "address"
        },
        {
          "internalType": "contract IERC20",
          "name": "tokenIn",
          "type": "address"
        },
        {
          "internalType": "uint256",
          "name": "exactBptAmountOut",
          "type": "uint256"
        },
        {
          "internalType": "address",
          "name": "sender",
          "type": "address"
        },
        {
          "internalType": "bytes",
          "name": "userData",
          "type": "bytes"
        }
      ],
      "name": "queryAddLiquiditySingleTokenExactOut",
      "outputs": [
        {
          "internalType": "uint256",
          "name": "amountIn",
          "type": "uint256"
        }
      ],
      "stateMutability": "nonpayable",
      "type": "function"
    },
    {
      "inputs": [
        {
          "internalType": "address",
          "name": "pool",
          "type": "address"
        },
        {
          "internalType": "uint256[]",
          "name": "exactAmountsIn",
          "type": "uint256[]"
        },
        {
          "internalType": "address",
          "name": "sender",
          "type": "address"
        },
        {
          "internalType": "bytes",
          "name": "userData",
          "type": "bytes"
        }
      ],
      "name": "queryAddLiquidityUnbalanced",
      "outputs": [
        {
          "internalType": "uint256",
          "name": "bptAmountOut",
          "type": "uint256"
        }
      ],
      "stateMutability": "nonpayable",
      "type": "function"
    },
    {
      "inputs": [
        {
          "internalType": "address",
          "name": "pool",
          "type": "address"
        },
        {
          "internalType": "uint256",
          "name": "maxBptAmountIn",
          "type": "uint256"
        },
        {
          "internalType": "uint256[]",
          "name": "minAmountsOut",
          "type": "uint256[]"
        },
        {
          "internalType": "address",
          "name": "sender",
          "type": "address"
        },
        {
          "internalType": "bytes",
          "name": "userData",
          "type": "bytes"
        }
      ],
      "name": "queryRemoveLiquidityCustom",
      "outputs": [
        {
          "internalType": "uint256",
          "name": "bptAmountIn",
          "type": "uint256"
        },
        {
          "internalType": "uint256[]",
          "name": "amountsOut",
          "type": "uint256[]"
        },
        {
          "internalType": "bytes",
          "name": "returnData",
          "type": "bytes"
        }
      ],
      "stateMutability": "nonpayable",
      "type": "function"
    },
    {
      "inputs": [
        {
          "components": [
            {
              "internalType": "address",
              "name": "sender",
              "type": "address"
            },
            {
              "internalType": "address",
              "name": "pool",
              "type": "address"
            },
            {
              "internalType": "uint256[]",
              "name": "minAmountsOut",
              "type": "uint256[]"
            },
            {
              "internalType": "uint256",
              "name": "maxBptAmountIn",
              "type": "uint256"
            },
            {
              "internalType": "enum RemoveLiquidityKind",
              "name": "kind",
              "type": "uint8"
            },
            {
              "internalType": "bool",
              "name": "wethIsEth",
              "type": "bool"
            },
            {
              "internalType": "bytes",
              "name": "userData",
              "type": "bytes"
            }
          ],
          "internalType": "struct RemoveLiquidityHookParams",
          "name": "params",
          "type": "tuple"
        }
      ],
      "name": "queryRemoveLiquidityHook",
      "outputs": [
        {
          "internalType": "uint256",
          "name": "bptAmountIn",
          "type": "uint256"
        },
        {
          "internalType": "uint256[]",
          "name": "amountsOut",
          "type": "uint256[]"
        },
        {
          "internalType": "bytes",
          "name": "returnData",
          "type": "bytes"
        }
      ],
      "stateMutability": "nonpayable",
      "type": "function"
    },
    {
      "inputs": [
        {
          "internalType": "address",
          "name": "pool",
          "type": "address"
        },
        {
          "internalType": "uint256",
          "name": "exactBptAmountIn",
          "type": "uint256"
        },
        {
          "internalType": "address",
          "name": "sender",
          "type": "address"
        },
        {
          "internalType": "bytes",
          "name": "userData",
          "type": "bytes"
        }
      ],
      "name": "queryRemoveLiquidityProportional",
      "outputs": [
        {
          "internalType": "uint256[]",
          "name": "amountsOut",
          "type": "uint256[]"
        }
      ],
      "stateMutability": "nonpayable",
      "type": "function"
    },
    {
      "inputs": [
        {
          "internalType": "address",
          "name": "pool",
          "type": "address"
        },
        {
          "internalType": "uint256",
          "name": "exactBptAmountIn",
          "type": "uint256"
        }
      ],
      "name": "queryRemoveLiquidityRecovery",
      "outputs": [
        {
          "internalType": "uint256[]",
          "name": "amountsOut",
          "type": "uint256[]"
        }
      ],
      "stateMutability": "nonpayable",
      "type": "function"
    },
    {
      "inputs": [
        {
          "internalType": "address",
          "name": "pool",
          "type": "address"
        },
        {
          "internalType": "address",
          "name": "sender",
          "type": "address"
        },
        {
          "internalType": "uint256",
          "name": "exactBptAmountIn",
          "type": "uint256"
        }
      ],
      "name": "queryRemoveLiquidityRecoveryHook",
      "outputs": [
        {
          "internalType": "uint256[]",
          "name": "amountsOut",
          "type": "uint256[]"
        }
      ],
      "stateMutability": "nonpayable",
      "type": "function"
    },
    {
      "inputs": [
        {
          "internalType": "address",
          "name": "pool",
          "type": "address"
        },
        {
          "internalType": "uint256",
          "name": "exactBptAmountIn",
          "type": "uint256"
        },
        {
          "internalType": "contract IERC20",
          "name": "tokenOut",
          "type": "address"
        },
        {
          "internalType": "address",
          "name": "sender",
          "type": "address"
        },
        {
          "internalType": "bytes",
          "name": "userData",
          "type": "bytes"
        }
      ],
      "name": "queryRemoveLiquiditySingleTokenExactIn",
      "outputs": [
        {
          "internalType": "uint256",
          "name": "amountOut",
          "type": "uint256"
        }
      ],
      "stateMutability": "nonpayable",
      "type": "function"
    },
    {
      "inputs": [
        {
          "internalType": "address",
          "name": "pool",
          "type": "address"
        },
        {
          "internalType": "contract IERC20",
          "name": "tokenOut",
          "type": "address"
        },
        {
          "internalType": "uint256",
          "name": "exactAmountOut",
          "type": "uint256"
        },
        {
          "internalType": "address",
          "name": "sender",
          "type": "address"
        },
        {
          "internalType": "bytes",
          "name": "userData",
          "type": "bytes"
        }
      ],
      "name": "queryRemoveLiquiditySingleTokenExactOut",
      "outputs": [
        {
          "internalType": "uint256",
          "name": "bptAmountIn",
          "type": "uint256"
        }
      ],
      "stateMutability": "nonpayable",
      "type": "function"
    },
    {
      "inputs": [
        {
          "components": [
            {
              "internalType": "address",
              "name": "sender",
              "type": "address"
            },
            {
              "internalType": "enum SwapKind",
              "name": "kind",
              "type": "uint8"
            },
            {
              "internalType": "address",
              "name": "pool",
              "type": "address"
            },
            {
              "internalType": "contract IERC20",
              "name": "tokenIn",
              "type": "address"
            },
            {
              "internalType": "contract IERC20",
              "name": "tokenOut",
              "type": "address"
            },
            {
              "internalType": "uint256",
              "name": "amountGiven",
              "type": "uint256"
            },
            {
              "internalType": "uint256",
              "name": "limit",
              "type": "uint256"
            },
            {
              "internalType": "uint256",
              "name": "deadline",
              "type": "uint256"
            },
            {
              "internalType": "bool",
              "name": "wethIsEth",
              "type": "bool"
            },
            {
              "internalType": "bytes",
              "name": "userData",
              "type": "bytes"
            }
          ],
          "internalType": "struct SwapSingleTokenHookParams",
          "name": "params",
          "type": "tuple"
        }
      ],
      "name": "querySwapHook",
      "outputs": [
        {
          "internalType": "uint256",
          "name": "",
          "type": "uint256"
        }
      ],
      "stateMutability": "nonpayable",
      "type": "function"
    },
    {
      "inputs": [
        {
          "internalType": "address",
          "name": "pool",
          "type": "address"
        },
        {
          "internalType": "contract IERC20",
          "name": "tokenIn",
          "type": "address"
        },
        {
          "internalType": "contract IERC20",
          "name": "tokenOut",
          "type": "address"
        },
        {
          "internalType": "uint256",
          "name": "exactAmountIn",
          "type": "uint256"
        },
        {
          "internalType": "address",
          "name": "sender",
          "type": "address"
        },
        {
          "internalType": "bytes",
          "name": "userData",
          "type": "bytes"
        }
      ],
      "name": "querySwapSingleTokenExactIn",
      "outputs": [
        {
          "internalType": "uint256",
          "name": "amountCalculated",
          "type": "uint256"
        }
      ],
      "stateMutability": "nonpayable",
      "type": "function"
    },
    {
      "inputs": [
        {
          "internalType": "address",
          "name": "pool",
          "type": "address"
        },
        {
          "internalType": "contract IERC20",
          "name": "tokenIn",
          "type": "address"
        },
        {
          "internalType": "contract IERC20",
          "name": "tokenOut",
          "type": "address"
        },
        {
          "internalType": "uint256",
          "name": "exactAmountOut",
          "type": "uint256"
        },
        {
          "internalType": "address",
          "name": "sender",
          "type": "address"
        },
        {
          "internalType": "bytes",
          "name": "userData",
          "type": "bytes"
        }
      ],
      "name": "querySwapSingleTokenExactOut",
      "outputs": [
        {
          "internalType": "uint256",
          "name": "amountCalculated",
          "type": "uint256"
        }
      ],
      "stateMutability": "nonpayable",
      "type": "function"
    },
    {
      "inputs": [
        {
          "internalType": "address",
          "name": "pool",
          "type": "address"
        },
        {
          "internalType": "uint256",
          "name": "maxBptAmountIn",
          "type": "uint256"
        },
        {
          "internalType": "uint256[]",
          "name": "minAmountsOut",
          "type": "uint256[]"
        },
        {
          "internalType": "bool",
          "name": "wethIsEth",
          "type": "bool"
        },
        {
          "internalType": "bytes",
          "name": "userData",
          "type": "bytes"
        }
      ],
      "name": "removeLiquidityCustom",
      "outputs": [
        {
          "internalType": "uint256",
          "name": "bptAmountIn",
          "type": "uint256"
        },
        {
          "internalType": "uint256[]",
          "name": "amountsOut",
          "type": "uint256[]"
        },
        {
          "internalType": "bytes",
          "name": "returnData",
          "type": "bytes"
        }
      ],
      "stateMutability": "payable",
      "type": "function"
    },
    {
      "inputs": [
        {
          "components": [
            {
              "internalType": "address",
              "name": "sender",
              "type": "address"
            },
            {
              "internalType": "address",
              "name": "pool",
              "type": "address"
            },
            {
              "internalType": "uint256[]",
              "name": "minAmountsOut",
              "type": "uint256[]"
            },
            {
              "internalType": "uint256",
              "name": "maxBptAmountIn",
              "type": "uint256"
            },
            {
              "internalType": "enum RemoveLiquidityKind",
              "name": "kind",
              "type": "uint8"
            },
            {
              "internalType": "bool",
              "name": "wethIsEth",
              "type": "bool"
            },
            {
              "internalType": "bytes",
              "name": "userData",
              "type": "bytes"
            }
          ],
          "internalType": "struct RemoveLiquidityHookParams",
          "name": "params",
          "type": "tuple"
        }
      ],
      "name": "removeLiquidityHook",
      "outputs": [
        {
          "internalType": "uint256",
          "name": "bptAmountIn",
          "type": "uint256"
        },
        {
          "internalType": "uint256[]",
          "name": "amountsOut",
          "type": "uint256[]"
        },
        {
          "internalType": "bytes",
          "name": "returnData",
          "type": "bytes"
        }
      ],
      "stateMutability": "nonpayable",
      "type": "function"
    },
    {
      "inputs": [
        {
          "internalType": "address",
          "name": "pool",
          "type": "address"
        },
        {
          "internalType": "uint256",
          "name": "exactBptAmountIn",
          "type": "uint256"
        },
        {
          "internalType": "uint256[]",
          "name": "minAmountsOut",
          "type": "uint256[]"
        },
        {
          "internalType": "bool",
          "name": "wethIsEth",
          "type": "bool"
        },
        {
          "internalType": "bytes",
          "name": "userData",
          "type": "bytes"
        }
      ],
      "name": "removeLiquidityProportional",
      "outputs": [
        {
          "internalType": "uint256[]",
          "name": "amountsOut",
          "type": "uint256[]"
        }
      ],
      "stateMutability": "payable",
      "type": "function"
    },
    {
      "inputs": [
        {
          "internalType": "address",
          "name": "pool",
          "type": "address"
        },
        {
          "internalType": "uint256",
          "name": "exactBptAmountIn",
          "type": "uint256"
        },
        {
          "internalType": "uint256[]",
          "name": "minAmountsOut",
          "type": "uint256[]"
        }
      ],
      "name": "removeLiquidityRecovery",
      "outputs": [
        {
          "internalType": "uint256[]",
          "name": "amountsOut",
          "type": "uint256[]"
        }
      ],
      "stateMutability": "payable",
      "type": "function"
    },
    {
      "inputs": [
        {
          "internalType": "address",
          "name": "pool",
          "type": "address"
        },
        {
          "internalType": "address",
          "name": "sender",
          "type": "address"
        },
        {
          "internalType": "uint256",
          "name": "exactBptAmountIn",
          "type": "uint256"
        },
        {
          "internalType": "uint256[]",
          "name": "minAmountsOut",
          "type": "uint256[]"
        }
      ],
      "name": "removeLiquidityRecoveryHook",
      "outputs": [
        {
          "internalType": "uint256[]",
          "name": "amountsOut",
          "type": "uint256[]"
        }
      ],
      "stateMutability": "nonpayable",
      "type": "function"
    },
    {
      "inputs": [
        {
          "internalType": "address",
          "name": "pool",
          "type": "address"
        },
        {
          "internalType": "uint256",
          "name": "exactBptAmountIn",
          "type": "uint256"
        },
        {
          "internalType": "contract IERC20",
          "name": "tokenOut",
          "type": "address"
        },
        {
          "internalType": "uint256",
          "name": "minAmountOut",
          "type": "uint256"
        },
        {
          "internalType": "bool",
          "name": "wethIsEth",
          "type": "bool"
        },
        {
          "internalType": "bytes",
          "name": "userData",
          "type": "bytes"
        }
      ],
      "name": "removeLiquiditySingleTokenExactIn",
      "outputs": [
        {
          "internalType": "uint256",
          "name": "amountOut",
          "type": "uint256"
        }
      ],
      "stateMutability": "payable",
      "type": "function"
    },
    {
      "inputs": [
        {
          "internalType": "address",
          "name": "pool",
          "type": "address"
        },
        {
          "internalType": "uint256",
          "name": "maxBptAmountIn",
          "type": "uint256"
        },
        {
          "internalType": "contract IERC20",
          "name": "tokenOut",
          "type": "address"
        },
        {
          "internalType": "uint256",
          "name": "exactAmountOut",
          "type": "uint256"
        },
        {
          "internalType": "bool",
          "name": "wethIsEth",
          "type": "bool"
        },
        {
          "internalType": "bytes",
          "name": "userData",
          "type": "bytes"
        }
      ],
      "name": "removeLiquiditySingleTokenExactOut",
      "outputs": [
        {
          "internalType": "uint256",
          "name": "bptAmountIn",
          "type": "uint256"
        }
      ],
      "stateMutability": "payable",
      "type": "function"
    },
    {
      "inputs": [
        {
          "internalType": "address",
          "name": "pool",
          "type": "address"
        },
        {
          "internalType": "contract IERC20",
          "name": "tokenIn",
          "type": "address"
        },
        {
          "internalType": "contract IERC20",
          "name": "tokenOut",
          "type": "address"
        },
        {
          "internalType": "uint256",
          "name": "exactAmountIn",
          "type": "uint256"
        },
        {
          "internalType": "uint256",
          "name": "minAmountOut",
          "type": "uint256"
        },
        {
          "internalType": "uint256",
          "name": "deadline",
          "type": "uint256"
        },
        {
          "internalType": "bool",
          "name": "wethIsEth",
          "type": "bool"
        },
        {
          "internalType": "bytes",
          "name": "userData",
          "type": "bytes"
        }
      ],
      "name": "swapSingleTokenExactIn",
      "outputs": [
        {
          "internalType": "uint256",
          "name": "",
          "type": "uint256"
        }
      ],
      "stateMutability": "payable",
      "type": "function"
    },
    {
      "inputs": [
        {
          "internalType": "address",
          "name": "pool",
          "type": "address"
        },
        {
          "internalType": "contract IERC20",
          "name": "tokenIn",
          "type": "address"
        },
        {
          "internalType": "contract IERC20",
          "name": "tokenOut",
          "type": "address"
        },
        {
          "internalType": "uint256",
          "name": "exactAmountOut",
          "type": "uint256"
        },
        {
          "internalType": "uint256",
          "name": "maxAmountIn",
          "type": "uint256"
        },
        {
          "internalType": "uint256",
          "name": "deadline",
          "type": "uint256"
        },
        {
          "internalType": "bool",
          "name": "wethIsEth",
          "type": "bool"
        },
        {
          "internalType": "bytes",
          "name": "userData",
          "type": "bytes"
        }
      ],
      "name": "swapSingleTokenExactOut",
      "outputs": [
        {
          "internalType": "uint256",
          "name": "",
          "type": "uint256"
        }
      ],
      "stateMutability": "payable",
      "type": "function"
    },
    {
      "inputs": [
        {
          "components": [
            {
              "internalType": "address",
              "name": "sender",
              "type": "address"
            },
            {
              "internalType": "enum SwapKind",
              "name": "kind",
              "type": "uint8"
            },
            {
              "internalType": "address",
              "name": "pool",
              "type": "address"
            },
            {
              "internalType": "contract IERC20",
              "name": "tokenIn",
              "type": "address"
            },
            {
              "internalType": "contract IERC20",
              "name": "tokenOut",
              "type": "address"
            },
            {
              "internalType": "uint256",
              "name": "amountGiven",
              "type": "uint256"
            },
            {
              "internalType": "uint256",
              "name": "limit",
              "type": "uint256"
            },
            {
              "internalType": "uint256",
              "name": "deadline",
              "type": "uint256"
            },
            {
              "internalType": "bool",
              "name": "wethIsEth",
              "type": "bool"
            },
            {
              "internalType": "bytes",
              "name": "userData",
              "type": "bytes"
            }
          ],
          "internalType": "struct SwapSingleTokenHookParams",
          "name": "params",
          "type": "tuple"
        }
      ],
      "name": "swapSingleTokenHook",
      "outputs": [
        {
          "internalType": "uint256",
          "name": "",
          "type": "uint256"
        }
      ],
      "stateMutability": "nonpayable",
      "type": "function"
    },
    {
      "inputs": [],
      "name": "version",
      "outputs": [
        {
          "internalType": "string",
          "name": "",
          "type": "string"
        }
      ],
      "stateMutability": "view",
      "type": "function"
    },
    {
      "stateMutability": "payable",
      "type": "receive"
    }
  ],
  "bytecode": "0x6101406040908082523461048a57615e31803803809161001f82856104a9565b8339810160808282031261048a578151926001600160a01b0392838516850361048a5760208082015191858316830361048a57838101519586169485870361048a5760608201516001600160401b039283821161048a5701601f98828a8301121561048a578151848111610476578a92601f19946100a588878c519786011601866104a9565b82855287838301011161048a57815f92888093018387015e8401015261010987516100cf8161048e565b600b81526a14d95b99195c91dd585c9960aa1b878201528851906100f28261048e565b600682526539b2b73232b960d11b888301526104cc565b60805260a0528051928311610476575f54916001928381811c9116801561046c575b86821014610458578a8111610415575b50849984116001146103b6575082916101bc959697989983925f946103ab575b50501b915f199060031b1c1916175f555b83516101778161048e565b600c81526b2937baba32b921b7b6b6b7b760a11b82820152701a5cd4995d1d5c9b915d1a131bd8dad959607a1b8551926101b08461048e565b601184528301526104cc565b60c05260e0526101009283526101209115825251906158b2928361057f84396080518381816104f8015281816109a901528181610bdd01528181611126015281816120460152818161290a01528181614a1b0152614b42015260a0518381816103200152818161049701528181610625015281816107b50152818161094901528181610ba601528181610d4a01528181610e9c01528181610fb4015281816112bc01528181611356015281816113dd015281816116c001528181611a4101528181611b8101528181611d7d01528181611f2401528181612173015281816121f6015281816123360152818161274d015281816128aa01528181612a5901528181612b2601528181612cf101528181613680015281816138fd01528181613a8d01528181613d8a01528181614bb601528181614d3f01528181614fa0015281816151730152818161532d015281816153e40152818161551b0152615711015260c0518381816149800152614eda015260e051838181602201528181611c9101528181611e9f0152818161240b0152818161363e01528181614f36015281816152f30152818161543a01526155ac015251828181612e820152818161306d0152818161316f0152615150015251818181611bf8015281816122590152818161227b01528181612f8201526149af0152f35b015192505f8061015b565b83929316985f8052845f20915f5b8b81106104005750836101bc9798999a9b106103e8575b505050811b015f5561016c565b01515f1960f88460031b161c191690555f80806103db565b818301518455928501929186019186016103c4565b5f8052855f208b80870160051c82019288881061044f575b0160051c019084905b82811061044457505061013b565b5f8155018490610436565b9250819261042d565b634e487b7160e01b5f52602260045260245ffd5b90607f169061012b565b634e487b7160e01b5f52604160045260245ffd5b5f80fd5b604081019081106001600160401b0382111761047657604052565b601f909101601f19168101906001600160401b0382119082101761047657604052565b90610539603a60209260405193849181808401977f62616c616e6365722d6c6162732e76332e73746f726167652e000000000000008952805191829101603986015e830190601760f91b60398301528051928391018583015e015f8382015203601a8101845201826104a9565b5190205f19810190811161056a5760405190602082019081526020825261055f8261048e565b9051902060ff191690565b634e487b7160e01b5f52601160045260245ffdfe60806040526004361015610072575b3615610018575f80fd5b6001600160a01b037f000000000000000000000000000000000000000000000000000000000000000016330361004a57005b7f0540ddf6000000000000000000000000000000000000000000000000000000005f5260045ffd5b5f3560e01c8063026b3d9514613ba9578063086fad661461395957806308c047931461383b5780630ca078ec146137a35780630f71088814613662578063107c279f1461361f578063175d44081461354057806319c6989f14612ea65780631bbf2e2314612e635780631d56798d14612cc857806323b3924114612ac65780633ebc54e514612949578063452db952146127c557806351682750146126b257806353d0bb98146125fd57806354fd4d50146124c05780635b343791146120775780635e01eb5a146120325780635f9815ff14611eef57806368a24fe014611bc2578063724dba3314611aa957806372657d171461195e578063750283bc146118e15780637b03c7ba1461169657806382bf2b24146115c257806382cd54fb1461137a5780638d928af81461133757806394e86ef8146111ac5780639de9051814610f8d578063ac9650d814610f49578063b037ed3614610db8578063b24bd57114610c6e578063be5ae84114610c19578063bf6ee3fd14610a80578063c08bc851146109e8578063c330c7be14610821578063da001f7d14610690578063e7326def1461053f578063ecb2182c146103a15763efd85f140361000e573461039d5761023c36613ffb565b610244614bac565b6001600160a01b039061025960208201614c0a565b61026282614c0a565b926102706040840184614c1e565b9093608081013593600585101561039d57836102db61031c966060856102c65f9c9b6102b699878f9e6102a960c06102e29d0187614ad5565b9a909b6040519e8f613ea8565b168d521660208c01523691613f13565b6040890152013560608701526080860161460d565b3691613faa565b60a08201526040519485809481937f4af29ec400000000000000000000000000000000000000000000000000000000835260048301614dcb565b03927f0000000000000000000000000000000000000000000000000000000000000000165af18015610392575f905f925f91610368575b5061036490604051938493846140ef565b0390f35b9050610364925061038b91503d805f833e6103838183613ed8565b8101906146d0565b9092610353565b6040513d5f823e3d90fd5b5f80fd5b6104576103d05f610449816104936103b836614455565b97939a92999094916103c933614b3d565b9a83614cf1565b9790946001600160a01b039b8c96604051946103eb86613e6f565b33865260209e8f9116908601526040850152606084015260016080840152151560a083015260c08201526040519283917f7b03c7ba000000000000000000000000000000000000000000000000000000008c840152602483016147ed565b03601f198101835282613ed8565b6040519586809481937f48c894910000000000000000000000000000000000000000000000000000000083528b600484015260248301906140ca565b03927f0000000000000000000000000000000000000000000000000000000000000000165af1918215610392576104e6926104de915f9161051d575b5085808251830101910161484b565b509050614931565b51906104f5575b604051908152f35b5f7f00000000000000000000000000000000000000000000000000000000000000005d6104ed565b61053991503d805f833e6105318183613ed8565b810190614531565b866104cf565b6104496105e55f8061062161057061055636614455565b916105699b959b9a949691939a33614b3d565b9a8c614cf1565b50916001600160a01b03956040519361058885613e6f565b3385528760209d168d8601526040850152606084015260026080840152151560a083015260c08201526040519283917f7b03c7ba000000000000000000000000000000000000000000000000000000008b840152602483016147ed565b6040519485809481937f48c894910000000000000000000000000000000000000000000000000000000083528a600484015260248301906140ca565b03927f0000000000000000000000000000000000000000000000000000000000000000165af1801561039257610667915f91610676575b5083808251830101910161484b565b5050906104f557604051908152f35b61068a91503d805f833e6105318183613ed8565b84610658565b3461039d57608060031936011261039d576106a9613e03565b67ffffffffffffffff60243581811161039d576106ca903690600401613f61565b906106d3613e45565b60643591821161039d576107b15f92916104496107756107016106fb87963690600401613fe0565b93614b3d565b966001600160a01b03936040519161071883613e6f565b3083528560209b168b8401526040830152866060830152600160808301528660a083015260c08201526040519283917fefd85f14000000000000000000000000000000000000000000000000000000008b84015260248301614653565b6040519485809481937fedfa35680000000000000000000000000000000000000000000000000000000083528a600484015260248301906140ca565b03927f0000000000000000000000000000000000000000000000000000000000000000165af18015610392576107f7915f91610807575b508380825183010191016146d0565b509190506104f557604051908152f35b61081b91503d805f833e6105318183613ed8565b846107e8565b3461039d5760a060031936011261039d5761083a613e03565b67ffffffffffffffff60443581811161039d5761085b903690600401613f61565b91610864613e19565b9160843590811161039d575f93610449610908869461089361088d610945963690600401613fe0565b97614b3d565b966001600160a01b039485604051936108ab85613e6f565b30855216602084015260408301526024356060830152600360808301528660a083015260c08201526040519283917fb24bd571000000000000000000000000000000000000000000000000000000006020840152602483016147ed565b6040519586809481937fedfa35680000000000000000000000000000000000000000000000000000000083526020600484015260248301906140ca565b03927f0000000000000000000000000000000000000000000000000000000000000000165af19182156103925761036492610991915f916109ce575b506020808251830101910161484b565b909391926109a6575b6040519384938461442a565b5f7f00000000000000000000000000000000000000000000000000000000000000005d61099a565b6109e291503d805f833e6105318183613ed8565b84610981565b6104496105e55f806107b16109fc36614060565b610a0c9993919892949933614b3d565b986001600160a01b039560405193610a2385613e6f565b3385528760209d168d8601526040850152606084015260016080840152151560a083015260c08201526040519283917f5b343791000000000000000000000000000000000000000000000000000000008b84015260248301614653565b608060031936011261039d57610a94613e03565b67ffffffffffffffff9060243582811161039d57610ab6903690600401613f61565b906044359283151580940361039d5760643590811161039d575f92610449610b658594610aea610ba2953690600401613fe0565b610af333614b3d565b986001600160a01b03958660405194610b0b86613e6f565b33865216602085015260408401528760608401526003608084015260a083015260c08201526040519283917f5b34379100000000000000000000000000000000000000000000000000000000602084015260248301614653565b6040519485809481937f48c894910000000000000000000000000000000000000000000000000000000083526020600484015260248301906140ca565b03927f0000000000000000000000000000000000000000000000000000000000000000165af1801561039257610bff575b50610bda57005b5f7f00000000000000000000000000000000000000000000000000000000000000005d005b610c12903d805f833e6105318183613ed8565b5081610bd3565b3461039d576020610c41610c2c3661437e565b610c34614b7f565b610c3c614bac565b6155dd565b50505f7f9b779b17422d0df92223018b32b4d1fa46e071723d6817e2486d003becc55f005d604051908152f35b3461039d57610c7c36613ffb565b610c84614bac565b6001600160a01b03610c9860208301614c0a565b610ca183614c0a565b91610caf6040850185614c1e565b9490608082013593600485101561039d57836102db610d4696610cfe610d0c955f9b606089878f9e6102a960c0610ce79e0184614ad5565b168d521660208c0152013560408a01523691613f13565b6060870152608086016147d4565b60a08201526040519485809481937f2145789700000000000000000000000000000000000000000000000000000000835260048301614e75565b03927f0000000000000000000000000000000000000000000000000000000000000000165af18015610392575f905f925f91610d8e575b50610364906040519384938461442a565b90506103649250610db191503d805f833e610da98183613ed8565b81019061484b565b9092610d7d565b3461039d57604060031936011261039d57610dd1613e03565b6001600160a01b0360405190806020937f5f9815ff000000000000000000000000000000000000000000000000000000008585015216602483015230604483015260243560648301526064825260a082019082821067ffffffffffffffff831117610f1c57815f91816040527fedfa35680000000000000000000000000000000000000000000000000000000082528560a486015281837fffffffffffffffffffffffffffffffffffffffffffffffffffffffffffffff6087610e9760c48201826140ca565b0301927f0000000000000000000000000000000000000000000000000000000000000000165af190811561039257610ee0925f92610ef5575b50508280825183010191016145e7565b9061036460405192828493845283019061402d565b610f15925060a0903d90815f853e610f0d8285613ed8565b010190614531565b8380610ed0565b7f4e487b71000000000000000000000000000000000000000000000000000000005f52604160045260245ffd5b602060031936011261039d5760043567ffffffffffffffff811161039d57610f81610f7b6103649236906004016141d6565b90614972565b60405191829182614235565b3461039d57610fa7610f9e36614118565b92919390614b3d565b916001600160a01b0390817f00000000000000000000000000000000000000000000000000000000000000001691604051937fca4f280300000000000000000000000000000000000000000000000000000000855216928360048201525f81602481865afa908115610392575f9161118a575b505194611026866147a3565b955f5b8181106111655750505f926104496110a78886956110e3956040519261104e84613e6f565b30845260209a8b850152604084015260608301528660808301528660a083015260c08201526040519283917fefd85f14000000000000000000000000000000000000000000000000000000008a84015260248301614653565b6040519485809481937fedfa356800000000000000000000000000000000000000000000000000000000835289600484015260248301906140ca565b03925af1801561039257611107915f9161114b575b508280825183010191016146d0565b505091611123575b61036460405192828493845283019061402d565b5f7f00000000000000000000000000000000000000000000000000000000000000005d61110f565b61115f91503d805f833e6105318183613ed8565b846110f8565b806fffffffffffffffffffffffffffffffff6111836001938b614931565b5201611029565b6111a691503d805f833e61119e8183613ed8565b810190614719565b8661101a565b6111b5366143b1565b949095939193336111c590614b3d565b97604051996111d38b613e8b565b338b5260208b01600190526001600160a01b031660408b01526001600160a01b031660608a01526001600160a01b0316608089015260a088015260c087015260e08601521515610100850152369061122a92613faa565b6101208301526040517f68a24fe000000000000000000000000000000000000000000000000000000000602082015291829061126990602483016148a0565b03601f198101835261127b9083613ed8565b60405180927f48c894910000000000000000000000000000000000000000000000000000000082526004820160209052602482016112b8916140ca565b03827f00000000000000000000000000000000000000000000000000000000000000006001600160a01b031691815a5f948591f1918215610392575f9261131b575b5060208280518101031261039d57602080920151906104f557604051908152f35b6113309192503d805f833e6105318183613ed8565b90826112fa565b3461039d575f60031936011261039d5760206040516001600160a01b037f0000000000000000000000000000000000000000000000000000000000000000168152f35b3461039d57608060031936011261039d57611393613e03565b61139b613e2f565b906064359067ffffffffffffffff821161039d576113c0611436923690600401613f61565b906113c9614b7f565b6113d1614bac565b6001600160a01b035f817f00000000000000000000000000000000000000000000000000000000000000001693604051809681927fa07d60400000000000000000000000000000000000000000000000000000000083526044358a8860048601614557565b038183875af1938415610392575f9461159e575b5080604051927fca4f28030000000000000000000000000000000000000000000000000000000084521660048301525f82602481865afa918215610392575f92611582575b505f5b825181101561153e576114a58186614931565b5190816114b7575b6001915001611492565b826114c28286614931565b5116853b1561039d576040517fae6393290000000000000000000000000000000000000000000000000000000081526001600160a01b039182166004820152908816602482015260448101929092525f8260648183895af19182156103925760019261152f575b506114ad565b61153890613ec4565b87611529565b6103648561154b88614ed1565b5f7f9b779b17422d0df92223018b32b4d1fa46e071723d6817e2486d003becc55f005d60405191829160208352602083019061402d565b6115979192503d805f833e61119e8183613ed8565b908561148f565b6115bb9194503d805f833e6115b38183613ed8565b8101906145e7565b928561144a565b5f610449816109456116596115d636614315565b906115e698949295939833614b3d565b986001600160a01b039687604051956115fe87613e6f565b3387521660208601526040850152606084015260036080840152151560a083015260c08201526040519283917f7b03c7ba000000000000000000000000000000000000000000000000000000006020840152602483016147ed565b6040519586809481937f48c894910000000000000000000000000000000000000000000000000000000083526020600484015260248301906140ca565b3461039d576116a436613ffb565b6116ac614b7f565b6116b4614bac565b6001600160a01b0390817f00000000000000000000000000000000000000000000000000000000000000001660208201916116ee83614c0a565b936116f882614c0a565b6117056040840184614c1e565b969091608085013590600482101561039d57846102db61176093610cfe5f976117989d61173560c08d018d614ad5565b969097816040519b6117468d613ea8565b168b521660208a015260608c013560408a01523691613f13565b60a0820152604051809781927f2145789700000000000000000000000000000000000000000000000000000000835260048301614e75565b038183875af1918215610392575f945f965f946118b2575b508260246117be5f93614c0a565b60405197889384927fca4f28030000000000000000000000000000000000000000000000000000000084521660048301525afa938415610392575f94611896575b50919360a0830192905f5b85518110156118505760019061184a61182285614c0a565b8661182d848b614931565b5116611839848d614931565b51906118448a614ca2565b926153c0565b0161180a565b50610364866118676118628a95614c0a565b614ed1565b5f7f9b779b17422d0df92223018b32b4d1fa46e071723d6817e2486d003becc55f005d6040519384938461442a565b6118ab9194503d805f833e61119e8183613ed8565b92866117ff565b602497506117be96505f9194506118d384913d8085833e610da98183613ed8565b9099509097509491506117b0565b6118ea366143b1565b949095939193336118fa90614b3d565b97604051996119088b613e8b565b338b5260208b015f90526001600160a01b031660408b01526001600160a01b031660608a01526001600160a01b0316608089015260a088015260c087015260e08601521515610100850152369061122a92613faa565b60c060031936011261039d57611972613e03565b61197a613e2f565b611982613f7f565b60a4359067ffffffffffffffff821161039d575f611a3d6119a882943690600401613fe0565b926104496104576119c66119bb33614b3d565b98604435908b614cf1565b966001600160a01b0394604051926119dd84613e6f565b3384528660209d168d8501526040840152606435606084015260026080840152151560a083015260c08201526040519283917f5b343791000000000000000000000000000000000000000000000000000000008c84015260248301614653565b03927f0000000000000000000000000000000000000000000000000000000000000000165af1918215610392576104e692611a88915f91611a8f575b508580825183010191016146d0565b5050614931565b611aa391503d805f833e6105318183613ed8565b86611a79565b610449611b415f80611b7d611abd36614060565b611ace999391999892949833614b3d565b996001600160a01b039560405193611ae585613e6f565b3385528760209c168c86015260408501526060840152876080840152151560a083015260c08201526040519283917f5b343791000000000000000000000000000000000000000000000000000000008a84015260248301614653565b6040519485809481937f48c8949100000000000000000000000000000000000000000000000000000000835289600484015260248301906140ca565b03927f0000000000000000000000000000000000000000000000000000000000000000165af1801561039257611107915f9161114b57508280825183010191016146d0565b3461039d57611bd03661437e565b611bd8614b7f565b611be0614bac565b60e08101354211611ec757611bf4816155dd565b92907f0000000000000000000000000000000000000000000000000000000000000000158015611e73575b15611cf757602093611c57611c7a92611c3785614c0a565b90611c4460608701614c0a565b611c516101008801614ca2565b92614f14565b611c6083614c0a565b90611c6d60808501614c0a565b6118446101008601614ca2565b611c8660608201614c0a565b6001600160a01b03807f000000000000000000000000000000000000000000000000000000000000000016911614611ce5575b505f7f9b779b17422d0df92223018b32b4d1fa46e071723d6817e2486d003becc55f005d604051908152f35b611862611cf191614c0a565b82611cb9565b6020820135600281101561039d5780611e6557611d7760a0840135915b6001600160a01b036060860193602081611d2d87614c0a565b60405196879283927f15afd40900000000000000000000000000000000000000000000000000000000845260048401602090939291936001600160a01b0360408201951681520152565b03815f867f0000000000000000000000000000000000000000000000000000000000000000165af1938415610392575f94611e31575b508310611dfc575091611c7a939160016020989414611dcf575b505050611c57565b611dee611df493611de8611de289614c0a565b94614c0a565b92614e3b565b9161531c565b858080611dc7565b611e0584614c0a565b7f02150b55000000000000000000000000000000000000000000000000000000005f521660045260245ffd5b9093506020813d602011611e5d575b81611e4d60209383613ed8565b8101031261039d57519289611dad565b3d9150611e40565b611d7760c084013591611d14565b50611e816101008301614ca2565b8015611c1f5750611e9460608301614c0a565b6001600160a01b03807f000000000000000000000000000000000000000000000000000000000000000016911614611c1f565b7fe08b8af0000000000000000000000000000000000000000000000000000000005f5260045ffd5b3461039d57606060031936011261039d57611f08613e03565b611f10613e2f565b611f18614bac565b6001600160a01b0390817f000000000000000000000000000000000000000000000000000000000000000016604051927fca4f2803000000000000000000000000000000000000000000000000000000008452841660048401525f83602481845afa938415610392575f611f99611fd49682968391612018575b50516147a3565b93604051968795869485937fa07d60400000000000000000000000000000000000000000000000000000000085526044359160048601614557565b03925af1801561039257610364915f91611ffe575b5060405191829160208352602083019061402d565b61201291503d805f833e6115b38183613ed8565b82611fe9565b61202c91503d8085833e61119e8183613ed8565b88611f92565b3461039d575f60031936011261039d5760207f00000000000000000000000000000000000000000000000000000000000000005c6001600160a01b0360405191168152f35b3461039d5761208536613ffb565b61208d614b7f565b612095614bac565b60208101906120a382614c0a565b906120ad81614c0a565b916120bb6040830183614c1e565b60056080859493940135101561039d57612166946001600160a01b0361210e5f9561212e946120ed60c08a018a614ad5565b94909581604051996120fe8b613ea8565b1689521660208801523691613f13565b6040850152606086013560608501526102db60808701356080860161460d565b60a0820152604051809481927f4af29ec400000000000000000000000000000000000000000000000000000000835260048301614dcb565b0381836001600160a01b037f0000000000000000000000000000000000000000000000000000000000000000165af1918215610392575f935f915f94612499575b506121b190614c0a565b906001600160a01b03604051927fca4f28030000000000000000000000000000000000000000000000000000000084521660048301525f826024816001600160a01b037f0000000000000000000000000000000000000000000000000000000000000000165afa918215610392575f9261247d575b505f5b825181101561243c576001600160a01b036122448285614931565b51166122508288614931565b518015612432577f0000000000000000000000000000000000000000000000000000000000000000157f00000000000000000000000000000000000000000000000000000000000000006123ed575b156122c857600192916122c2916122b588614c0a565b91611c5160a08a01614ca2565b01612229565b906122e0836122da6040890189614c1e565b90614c92565b6040517f15afd4090000000000000000000000000000000000000000000000000000000081526001600160a01b0383166004820152903560248201819052909290602084806044810103815f6001600160a01b037f0000000000000000000000000000000000000000000000000000000000000000165af1938415610392575f946123b9575b50831061238d579161238891611dee600195946123828a614c0a565b93614e3b565b6122c2565b507f02150b55000000000000000000000000000000000000000000000000000000005f5260045260245ffd5b9093506020813d6020116123e5575b816123d560209383613ed8565b8101031261039d5751928a612366565b3d91506123c8565b506123fa60a08701614ca2565b801561229f57506001600160a01b037f000000000000000000000000000000000000000000000000000000000000000016821461229f565b50506001906122c2565b50846103648561244e61186287614c0a565b5f7f9b779b17422d0df92223018b32b4d1fa46e071723d6817e2486d003becc55f005d604051938493846140ef565b6124929192503d805f833e61119e8183613ed8565b9085612226565b9093506121b194506124b591503d805f833e6103838183613ed8565b9194909193906121a7565b3461039d575f60031936011261039d576040515f5f549060018260011c91600184169182156125f3575b60209485851084146125c65785879486865291825f1461258857505060011461252f575b5061251b92500383613ed8565b6103646040519282849384528301906140ca565b5f808052859250907f290decd9548b62a8d60345a988386fc84ba6bc95484008f6362f93160ef3e5635b85831061257057505061251b93508201018561250e565b80548389018501528794508693909201918101612559565b7fffffffffffffffffffffffffffffffffffffffffffffffffffffffffffffff00168582015261251b95151560051b850101925087915061250e9050565b7f4e487b71000000000000000000000000000000000000000000000000000000005f52602260045260245ffd5b92607f16926124ea565b3461039d5761262e6126275f8061062161077561044961261c366142b6565b95939a929990614b3d565b988a614cf1565b506001600160a01b03936040519161264583613e6f565b3083528560209b168b84015260408301526fffffffffffffffffffffffffffffffff6060830152600260808301528660a083015260c08201526040519283917fb24bd571000000000000000000000000000000000000000000000000000000008b840152602483016147ed565b610449611b415f806127496126c636614315565b6126d69993949892919933614b3d565b996001600160a01b0395604051936126ed85613e6f565b3385528760209c168c86015260408501526060840152876080840152151560a083015260c08201526040519283917f7b03c7ba000000000000000000000000000000000000000000000000000000008a840152602483016147ed565b03927f0000000000000000000000000000000000000000000000000000000000000000165af180156103925761278f915f916127ab575b5082808251830101910161484b565b509290506111235761036460405192828493845283019061402d565b6127bf91503d805f833e6105318183613ed8565b84612780565b3461039d5760a060031936011261039d576127de613e03565b67ffffffffffffffff60243581811161039d576127ff903690600401613f61565b91612808613e19565b9160843590811161039d575f93610449610908869461283161088d6128a6963690600401613fe0565b966001600160a01b0394856040519361284985613e6f565b30855216602084015260408301526044356060830152600460808301528660a083015260c08201526040519283917fefd85f1400000000000000000000000000000000000000000000000000000000602084015260248301614653565b03927f0000000000000000000000000000000000000000000000000000000000000000165af191821561039257610364926128f2915f9161292f575b50602080825183010191016146d0565b90939192612907575b604051938493846140ef565b5f7f00000000000000000000000000000000000000000000000000000000000000005d6128fb565b61294391503d805f833e6105318183613ed8565b846128e2565b3461039d576129573661416a565b906129659094939294614b3d565b936001600160a01b038093816040519661297e88613e8b565b3388528160209a8b8a015f905216604089015216606087015216608085015260a084015260c083015f905260e083016fffffffffffffffffffffffffffffffff905261010083015f905261012083015260405180928582017fbe5ae8410000000000000000000000000000000000000000000000000000000090526024820190612a07916148a0565b03601f1981018352612a199083613ed8565b6040518080937fedfa356800000000000000000000000000000000000000000000000000000000825286600483015260248201612a55916140ca565b03917f00000000000000000000000000000000000000000000000000000000000000001691815a5f948591f1908115610392575f91612aac575b50828180518101031261039d57820151906104f557604051908152f35b612ac091503d805f833e6105318183613ed8565b83612a8f565b3461039d5760a060031936011261039d57612adf613e03565b612ae7613e45565b90612af0613e19565b60843567ffffffffffffffff811161039d57612b13612b19913690600401613fe0565b91614b3d565b916001600160a01b0391827f0000000000000000000000000000000000000000000000000000000000000000169280604051937fc9c1661b0000000000000000000000000000000000000000000000000000000085521695866004850152166024830152604082604481865afa918215610392575f905f93612c89575b505f93610449612c258694612bad612c61956147a3565b906001612bba8984614931565b5260405191612bc883613e6f565b30835260209b8c84015260408301526024356060830152600160808301528660a083015260c08201526040519283917fb24bd571000000000000000000000000000000000000000000000000000000008c840152602483016147ed565b6040519586809481937fedfa35680000000000000000000000000000000000000000000000000000000083528b600484015260248301906140ca565b03925af1918215610392576104e6926104de915f9161051d575085808251830101910161484b565b925050916040823d604011612cc0575b81612ca660409383613ed8565b8101031261039d578151602090920151909290915f612b96565b3d9150612c99565b3461039d57612ce4612cd9366142b6565b929490939193614b3d565b926001600160a01b0392837f0000000000000000000000000000000000000000000000000000000000000000169380604051947fc9c1661b0000000000000000000000000000000000000000000000000000000086521696876004860152166024840152604083604481875afa928315610392575f905f94612e26575b5093610449612c255f9694612dfe94612d7a89976147a3565b916fffffffffffffffffffffffffffffffff612d968a85614931565b5260405192612da484613e6f565b30845260209c8d85015260408401526060830152600260808301528660a083015260c08201526040519283917fefd85f14000000000000000000000000000000000000000000000000000000008c84015260248301614653565b03925af1918215610392576104e692611a88915f91611a8f57508580825183010191016146d0565b9350506040833d604011612e5b575b81612e4260409383613ed8565b8101031261039d57825160209093015192610449612d61565b3d9150612e35565b3461039d575f60031936011261039d5760206040516001600160a01b037f0000000000000000000000000000000000000000000000000000000000000000168152f35b60a060031936011261039d5767ffffffffffffffff6004351161039d5736602360043501121561039d5767ffffffffffffffff600435600401351161039d5736602460c0600435600401350260043501011161039d5760243567ffffffffffffffff811161039d57612f1c9036906004016141d6565b67ffffffffffffffff6044351161039d5760606003196044353603011261039d5760643567ffffffffffffffff811161039d57612f5d903690600401614207565b60843567ffffffffffffffff811161039d57612f7d9036906004016141d6565b9490937f000000000000000000000000000000000000000000000000000000000000000061351857612fad614b7f565b8060043560040135036134f0575f5b60043560040135811061323d5750505060443560040135907fffffffffffffffffffffffffffffffffffffffffffffffffffffffffffffffdd60443536030182121561039d57816044350160048101359067ffffffffffffffff821161039d5760248260071b360391011361039d57613060575b610364610f8186865f7f9b779b17422d0df92223018b32b4d1fa46e071723d6817e2486d003becc55f005d614972565b6001600160a01b039492947f0000000000000000000000000000000000000000000000000000000000000000163b1561039d57604051947f2a2d80d10000000000000000000000000000000000000000000000000000000086523360048701526060602487015260c486019260443501602481019367ffffffffffffffff60048301351161039d57600482013560071b3603851361039d5760606064890152600482013590529192869260e484019291905f905b600481013582106131bf5750505082915f94613162926001600160a01b03613140602460443501613e5b565b16608486015260448035013560a4860152600319858403016044860152614c72565b0381836001600160a01b037f0000000000000000000000000000000000000000000000000000000000000000165af19182156103925761036493610f81936131b0575b829450819350613030565b6131b990613ec4565b846131a5565b9195945091926001600160a01b036131d687613e5b565b168152602080870135916001600160a01b03831680930361039d5760049260019282015261320660408901614cde565b65ffffffffffff809116604083015261322160608a01614cde565b1660608201526080809101970193019050889495939291613114565b61324b6102db828486614b26565b60405180606081011067ffffffffffffffff606083011117610f1c57606081016040525f81526020915f838301525f60408301528281015190606060408201519101515f1a91835283830152604082015260c07fffffffffffffffffffffffffffffffffffffffffffffffffffffffffffffffdc818502600435013603011261039d57604051906132db82613ea8565b6132ee602460c086026004350101613e5b565b808352613304604460c087026004350101613e5b565b90818585015261331d606460c088026004350101613e5b565b60408581019190915260043560c08802016084810135606087015260a4810135608087015260c4013560a086015283015183519386015160ff91909116926001600160a01b0383163b1561039d575f6001600160a01b03809460e4948b98849860c460c06040519c8d9b8c9a7fd505accf000000000000000000000000000000000000000000000000000000008c521660048b01523060248b0152608482820260043501013560448b0152026004350101356064880152608487015260a486015260c4850152165af190816134e1575b506134d7576133fa614caf565b906001600160a01b0381511690836001600160a01b0381830151166044604051809581937fdd62ed3e00000000000000000000000000000000000000000000000000000000835260048301523060248301525afa918215610392575f926134a7575b5060600151036134725750506001905b01612fbc565b80511561347f5780519101fd5b7fa7285689000000000000000000000000000000000000000000000000000000005f5260045ffd5b9091508381813d83116134d0575b6134bf8183613ed8565b8101031261039d575190606061345c565b503d6134b5565b505060019061346c565b6134ea90613ec4565b8a6133ed565b7faaad13f7000000000000000000000000000000000000000000000000000000005f5260045ffd5b7f29a270f5000000000000000000000000000000000000000000000000000000005f5260045ffd5b3461039d5761354e3661416a565b9061355c9094939294614b3d565b936001600160a01b038093816040519661357588613e8b565b3388528160209a8b8a016001905216604089015216606087015216608085015260a084015260c083016fffffffffffffffffffffffffffffffff905260e083017fffffffffffffffffffffffffffffffffffffffffffffffffffffffffffffffff905261010083015f905261012083015260405180928582017fbe5ae8410000000000000000000000000000000000000000000000000000000090526024820190612a07916148a0565b3461039d575f60031936011261039d5760206040516001600160a01b037f0000000000000000000000000000000000000000000000000000000000000000168152f35b3461039d57613673610f9e36614118565b926001600160a01b0392837f00000000000000000000000000000000000000000000000000000000000000001693604051937fca4f280300000000000000000000000000000000000000000000000000000000855216938460048501525f84602481845afa938415610392576110a75f9594613766946136ff88976104499589916137895750516147a3565b916040519261370d84613e6f565b30845260209a8b850152604084015260608301528660808301528660a083015260c08201526040519283917fb24bd571000000000000000000000000000000000000000000000000000000008a840152602483016147ed565b03925af180156103925761278f915f916127ab575082808251830101910161484b565b61379d91503d808b833e61119e8183613ed8565b8c611f92565b5f610449816128a66116596137b736614060565b906137c89894929895939533614b3d565b986001600160a01b039687604051956137e087613e6f565b3387521660208601526040850152606084015260046080840152151560a083015260c08201526040519283917f5b34379100000000000000000000000000000000000000000000000000000000602084015260248301614653565b606060031936011261039d5761384f613e03565b60443567ffffffffffffffff811161039d575f6104496138b66138796138f0943690600401613f61565b6040519283916020977f82cd54fb000000000000000000000000000000000000000000000000000000008985015260243590339060248601614557565b604051809381927f48c8949100000000000000000000000000000000000000000000000000000000835286600484015260248301906140ca565b0381836001600160a01b037f0000000000000000000000000000000000000000000000000000000000000000165af1801561039257610ee0915f9161393f575b508280825183010191016145e7565b61395391503d805f833e6105318183613ed8565b83613930565b3461039d5761396736613ffb565b61396f614b7f565b613977614bac565b60206001600160a01b0361398c838301614c0a565b9261399681614c0a565b9160408201946139a68684614c1e565b6139b66060869593950186614c1e565b90826139c560c0890189614ad5565b949096866040519b7fba8a2be0000000000000000000000000000000000000000000000000000000008d528c60048360c4830195169101521660248c015260c060448c01525260e4890196905f5b8b828210613b8a57505050506003198887030160648901528186527f07ffffffffffffffffffffffffffffffffffffffffffffffffffffffffffffff821161039d57613a89889586948b8694819a5f9760051b8092848301370160808c01356084870152601c8682030160a48701520191614c72565b03927f0000000000000000000000000000000000000000000000000000000000000000165af1918215610392575f92613b5b575b50909160a0820191905f5b613ad28684614c1e565b9050811015613b2257600190613b1c613aea85614c0a565b613b00613afb846122da8c8a614c1e565b614c0a565b613b11846122da60608a018a614c1e565b3590611c5189614ca2565b01613ac8565b5083613b3061186284614c0a565b5f7f9b779b17422d0df92223018b32b4d1fa46e071723d6817e2486d003becc55f005d604051908152f35b9091508281813d8311613b83575b613b738183613ed8565b8101031261039d57519084613abd565b503d613b69565b80849a89613b9b6001959697613e5b565b168152019901929101613a13565b60c060031936011261039d57613bbd613e03565b6024359067ffffffffffffffff80831161039d573660238401121561039d57826004013591613beb83613efb565b92613bf96040519485613ed8565b80845260209460248686019260051b8201019136831161039d576024879201905b838210613dec575050505060443582811161039d57613c3d903690600401613f61565b92613c46613f7f565b9260a43590811161039d57613c5f903690600401613fe0565b93613c6933614b3d565b946001600160a01b039460405192613c8084613e6f565b338452868985019616865260408401948552606084019081526080840194606435865260a08501921515835260c0850193845287604051977f086fad66000000000000000000000000000000000000000000000000000000008c8a01528b60248a0152816101248a0197511660448a015251166064880152519360e0608488015284518091528961014488019501905f5b8b828210613dd6575050505094610449613d86955f989583956105e595613d668c9b51937fffffffffffffffffffffffffffffffffffffffffffffffffffffffffffffffbc94858983030160a48a01526144b8565b935160c487015251151560e48601525190848303016101048501526140ca565b03927f0000000000000000000000000000000000000000000000000000000000000000165af1908115610392575f91612aac5750828180518101031261039d57820151906104f557604051908152f35b83518b1688529687019690920191600101613d11565b828091613df884613e5b565b815201910190613c1a565b600435906001600160a01b038216820361039d57565b606435906001600160a01b038216820361039d57565b602435906001600160a01b038216820361039d57565b604435906001600160a01b038216820361039d57565b35906001600160a01b038216820361039d57565b60e0810190811067ffffffffffffffff821117610f1c57604052565b610140810190811067ffffffffffffffff821117610f1c57604052565b60c0810190811067ffffffffffffffff821117610f1c57604052565b67ffffffffffffffff8111610f1c57604052565b90601f601f19910116810190811067ffffffffffffffff821117610f1c57604052565b67ffffffffffffffff8111610f1c5760051b60200190565b9291613f1e82613efb565b91613f2c6040519384613ed8565b829481845260208094019160051b810192831161039d57905b828210613f525750505050565b81358152908301908301613f45565b9080601f8301121561039d57816020613f7c93359101613f13565b90565b60843590811515820361039d57565b67ffffffffffffffff8111610f1c57601f01601f191660200190565b929192613fb682613f8e565b91613fc46040519384613ed8565b82948184528183011161039d578281602093845f960137010152565b9080601f8301121561039d57816020613f7c93359101613faa565b6003199060208282011261039d576004359167ffffffffffffffff831161039d578260e09203011261039d5760040190565b9081518082526020808093019301915f5b82811061404c575050505090565b83518552938101939281019260010161403e565b9060a060031983011261039d576004356001600160a01b038116810361039d579167ffffffffffffffff9060243582811161039d57816140a291600401613f61565b9260443592606435801515810361039d579260843591821161039d57613f7c91600401613fe0565b90601f19601f602080948051918291828752018686015e5f8582860101520116010190565b614105613f7c949260608352606083019061402d565b92602082015260408184039101526140ca565b608060031982011261039d576001600160a01b0390600435828116810361039d579260243592604435908116810361039d57916064359067ffffffffffffffff821161039d57613f7c91600401613fe0565b60c060031982011261039d576001600160a01b0391600435838116810361039d5792602435818116810361039d5792604435828116810361039d579260643592608435908116810361039d579160a4359067ffffffffffffffff821161039d57613f7c91600401613fe0565b9181601f8401121561039d5782359167ffffffffffffffff831161039d576020808501948460051b01011161039d57565b9181601f8401121561039d5782359167ffffffffffffffff831161039d576020838186019501011161039d57565b6020808201906020835283518092526040830192602060408460051b8301019501935f915b84831061426a5750505050505090565b90919293949584806142a6837fffffffffffffffffffffffffffffffffffffffffffffffffffffffffffffffc086600196030187528a516140ca565b980193019301919493929061425a565b9060a060031983011261039d576001600160a01b03600435818116810361039d5792602435828116810361039d579260443592606435908116810361039d57916084359067ffffffffffffffff821161039d57613f7c91600401613fe0565b60a060031982011261039d576004356001600160a01b038116810361039d57916024359167ffffffffffffffff9160443583811161039d578261435a91600401613f61565b92606435801515810361039d579260843591821161039d57613f7c91600401613fe0565b6003199060208282011261039d576004359167ffffffffffffffff831161039d57826101409203011261039d5760040190565b61010060031982011261039d576001600160a01b0390600435828116810361039d5792602435838116810361039d5792604435908116810361039d5791606435916084359160a4359160c435801515810361039d579160e4359067ffffffffffffffff821161039d5761442691600401614207565b9091565b9161444790613f7c9492845260606020850152606084019061402d565b9160408184039101526140ca565b60c060031982011261039d576001600160a01b0390600435828116810361039d579260243592604435908116810361039d579160643591608435801515810361039d579160a4359067ffffffffffffffff821161039d57613f7c91600401613fe0565b9081518082526020808093019301915f5b8281106144d7575050505090565b8351855293810193928101926001016144c9565b81601f8201121561039d5780519061450282613f8e565b926145106040519485613ed8565b8284526020838301011161039d57815f9260208093018386015e8301015290565b9060208282031261039d57815167ffffffffffffffff811161039d57613f7c92016144eb565b9092613f7c94936080936001600160a01b0380921684521660208301526040820152816060820152019061402d565b9080601f8301121561039d578151906020916145a181613efb565b936145af6040519586613ed8565b81855260208086019260051b82010192831161039d57602001905b8282106145d8575050505090565b815181529083019083016145ca565b9060208282031261039d57815167ffffffffffffffff811161039d57613f7c9201614586565b60058210156146195752565b7f4e487b71000000000000000000000000000000000000000000000000000000005f52602160045260245ffd5b9060058210156146195752565b90613f7c91602081526001600160a01b03808351166020830152602083015116604082015260c0614694604084015160e060608501526101008401906144b8565b92606081015160808401526146b1608082015160a0850190614646565b60a081015115158284015201519060e0601f19828503019101526140ca565b909160608284031261039d5781519167ffffffffffffffff9283811161039d57846146fc918301614586565b93602082015193604083015190811161039d57613f7c92016144eb565b602090818184031261039d5780519067ffffffffffffffff821161039d57019180601f8401121561039d57825161474f81613efb565b9361475d6040519586613ed8565b818552838086019260051b82010192831161039d578301905b828210614784575050505090565b81516001600160a01b038116810361039d578152908301908301614776565b906147ad82613efb565b6147ba6040519182613ed8565b828152601f196147ca8294613efb565b0190602036910137565b60048210156146195752565b9060048210156146195752565b90613f7c91602081526001600160a01b03808351166020830152602083015116604082015260c061482e604084015160e060608501526101008401906144b8565b92606081015160808401526146b1608082015160a08501906147e0565b9160608383031261039d5782519260208101519267ffffffffffffffff9384811161039d578161487c918401614586565b93604083015190811161039d57613f7c92016144eb565b9060028210156146195752565b610160613f7c92602083526001600160a01b038082511660208501526148ce60208301516040860190614893565b80604083015116606085015280606083015116608085015260808201511660a084015260a081015160c084015260c081015160e084015260e0810151610100908185015281015190610120911515828501520151916101408082015201906140ca565b80518210156149455760209160051b010190565b7f4e487b71000000000000000000000000000000000000000000000000000000005f52603260045260245ffd5b919061497d33614b3d565b907f000000000000000000000000000000000000000000000000000000000000000093845c614aad576001906001865d7f0000000000000000000000000000000000000000000000000000000000000000613518576149db83613efb565b926149e96040519485613ed8565b808452601f196149f882613efb565b015f5b818110614a9c5750505f5b818110614a535750505050905f614a4892945d7f0000000000000000000000000000000000000000000000000000000000000000805c91614a4a575b50614ed1565b565b5f905d5f614a42565b80614a805f80614a686102db8996888a614b26565b602081519101305af4614a79614caf565b90306157eb565b614a8a8288614931565b52614a958187614931565b5001614a06565b8060606020809389010152016149fb565b7f3ee5aeb5000000000000000000000000000000000000000000000000000000005f5260045ffd5b9035907fffffffffffffffffffffffffffffffffffffffffffffffffffffffffffffffe18136030182121561039d570180359067ffffffffffffffff821161039d5760200191813603831361039d57565b90821015614945576144269160051b810190614ad5565b905f917f00000000000000000000000000000000000000000000000000000000000000006001600160a01b03815c1615614b75575050565b909192505d600190565b7f9b779b17422d0df92223018b32b4d1fa46e071723d6817e2486d003becc55f00805c614aad576001905d565b6001600160a01b037f0000000000000000000000000000000000000000000000000000000000000000163303614bde57565b7f089676d5000000000000000000000000000000000000000000000000000000005f523360045260245ffd5b356001600160a01b038116810361039d5790565b9035907fffffffffffffffffffffffffffffffffffffffffffffffffffffffffffffffe18136030182121561039d570180359067ffffffffffffffff821161039d57602001918160051b3603831361039d57565b601f8260209493601f1993818652868601375f8582860101520116010190565b91908110156149455760051b0190565b35801515810361039d5790565b3d15614cd9573d90614cc082613f8e565b91614cce6040519384613ed8565b82523d5f602084013e565b606090565b359065ffffffffffff8216820361039d57565b916044929391936001600160a01b03604094859282808551998a9586947fc9c1661b0000000000000000000000000000000000000000000000000000000086521660048501521660248301527f0000000000000000000000000000000000000000000000000000000000000000165afa938415614dc1575f935f95614d8a575b5050614d87614d8085946147a3565b9485614931565b52565b809295508194503d8311614dba575b614da38183613ed8565b8101031261039d5760208251920151925f80614d71565b503d614d99565b83513d5f823e3d90fd5b90613f7c91602081526001600160a01b03808351166020830152602083015116604082015260a0614e0b604084015160c0606085015260e08401906144b8565b9260608101516080840152614e27608082015183850190614646565b01519060c0601f19828503019101526140ca565b91908203918211614e4857565b7f4e487b71000000000000000000000000000000000000000000000000000000005f52601160045260245ffd5b90613f7c91602081526001600160a01b0380835116602083015260208301511660408201526040820151606082015260a0614ebf606084015160c0608085015260e08401906144b8565b92614e276080820151838501906147e0565b478015614f10577f00000000000000000000000000000000000000000000000000000000000000005c614f10576001600160a01b03614a48921661578d565b5050565b9192806152e7575b1561513457505080471061510c576001600160a01b0390817f00000000000000000000000000000000000000000000000000000000000000001691823b1561039d576040908151907fd0e30db00000000000000000000000000000000000000000000000000000000082525f915f81600481888a5af18015615102576150ef575b507f000000000000000000000000000000000000000000000000000000000000000016928251946020958681017fa9059cbb00000000000000000000000000000000000000000000000000000000815286602483015283604483015260448252608082019082821067ffffffffffffffff831117610f1c57889286928852519082855af1156150e55782513d6150dc5750803b155b6150b157906044869284865197889485937f15afd409000000000000000000000000000000000000000000000000000000008552600485015260248401525af19182156150a7575050615083575050565b813d83116150a0575b6150968183613ed8565b8101031261039d57565b503d61508c565b51903d90823e3d90fd5b7f5274afe7000000000000000000000000000000000000000000000000000000008352600452602482fd5b60011415615032565b83513d84823e3d90fd5b6150fa919250613ec4565b5f905f614f9d565b84513d5f823e3d90fd5b7fa01a9df6000000000000000000000000000000000000000000000000000000005f5260045ffd5b90915f9080615144575b50505050565b6001600160a01b0393847f000000000000000000000000000000000000000000000000000000000000000016857f000000000000000000000000000000000000000000000000000000000000000016918684116152b657813b1561039d57608487915f80946040519a8b9586947f36c7851600000000000000000000000000000000000000000000000000000000865216600485015287602485015280891660448501528a1660648401525af194851561039257615252956152a2575b5082936020936040518097819582947f15afd40900000000000000000000000000000000000000000000000000000000845260048401602090939291936001600160a01b0360408201951681520152565b03925af1908115615296575061526b575b80808061513e565b602090813d831161528f575b6152818183613ed8565b8101031261039d575f615263565b503d615277565b604051903d90823e3d90fd5b602093506152af90613ec4565b5f92615201565b837f6dfcc650000000000000000000000000000000000000000000000000000000005f5260a060045260245260445ffd5b506001600160a01b03807f00000000000000000000000000000000000000000000000000000000000000001690821614614f1c565b9180156153bb576001600160a01b037f000000000000000000000000000000000000000000000000000000000000000016803b1561039d576040517fae6393290000000000000000000000000000000000000000000000000000000081526001600160a01b03938416600482015293909216602484015260448301525f908290606490829084905af18015610392576153b25750565b614a4890613ec4565b505050565b909392935f9483156155d557806155a0575b1561550c57506001600160a01b0390817f000000000000000000000000000000000000000000000000000000000000000016803b1561039d576040517fae6393290000000000000000000000000000000000000000000000000000000081525f8160648183887f000000000000000000000000000000000000000000000000000000000000000016968760048401523060248401528a60448401525af18015610392576154f9575b508086913b156154f55781906024604051809481937f2e1a7d4d0000000000000000000000000000000000000000000000000000000083528960048401525af180156154ea576154d2575b50614a489394501661578d565b6154dc8691613ec4565b6154e657846154c5565b8480fd5b6040513d88823e3d90fd5b5080fd5b615504919650613ec4565b5f945f61547a565b91909293506001600160a01b037f000000000000000000000000000000000000000000000000000000000000000016803b1561039d576040517fae6393290000000000000000000000000000000000000000000000000000000081526001600160a01b03938416600482015293909216602484015260448301525f908290606490829084905af18015610392576153b25750565b506001600160a01b03807f000000000000000000000000000000000000000000000000000000000000000016908216146153d2565b505050509050565b60e08101354211611ec7576001600160a01b03602082013591600283101561039d5760409261560d828501614c0a565b9280606094859384860161562090614c0a565b9561562d60808201614c0a565b908461563d610120830183614ad5565b91908c519561564b87613e6f565b8652816020870197168752818d87019b168b52818a870195168552608086019260a0850135845260a087019460c001358552369061568892613faa565b9360c08601948552818d519b8c9a8b998a997f2bfb780c000000000000000000000000000000000000000000000000000000008b5260048b016020905260248b019051906156d591614893565b5116604489015251166064870152511660848501525160a48401525160c48301525160e4820160e09052610104820161570d916140ca565b03917f0000000000000000000000000000000000000000000000000000000000000000165a905f91f1908115614dc1575f935f935f93615750575b505050909192565b92509250809350813d8311615786575b61576a8183613ed8565b8101031261039d578151602083015191909201515f8080615748565b503d615760565b8147106157bb575f8080936001600160a01b038294165af16157ad614caf565b90156157b65750565b615845565b50477fcf479181000000000000000000000000000000000000000000000000000000005f5260045260245260445ffd5b906157f65750615845565b8151158061583c575b615807575090565b6001600160a01b03907f9996b315000000000000000000000000000000000000000000000000000000005f521660045260245ffd5b50803b156157ff565b80511561585457602081519101fd5b7fd6bda275000000000000000000000000000000000000000000000000000000005f5260045ffdfea2646970667358221220823367f6ceca0c262c2c331fe83c0fcb78922a8751e79d0aa4f3935cc5b64e4764736f6c634300081b0033",
  "linkReferences": {},
  "deployedLinkReferences": {}
}