{
  "_format": "hh-sol-artifact-1",
  "contractName": "Router",
  "sourceName": "contracts/Router.sol",
  "abi": [
    {
      "inputs": [
        {
          "internalType": "contract IVault",
          "name": "vault",
          "type": "address"
        },
        {
          "internalType": "contract IWETH",
          "name": "weth",
          "type": "address"
        },
        {
          "internalType": "contract IPermit2",
          "name": "permit2",
          "type": "address"
        },
        {
          "internalType": "string",
          "name": "routerVersion",
          "type": "string"
        }
      ],
      "stateMutability": "nonpayable",
      "type": "constructor"
    },
    {
      "inputs": [
        {
          "internalType": "address",
          "name": "target",
          "type": "address"
        }
      ],
      "name": "AddressEmptyCode",
      "type": "error"
    },
    {
      "inputs": [
        {
          "internalType": "int256",
          "name": "respCode",
          "type": "int256"
        }
      ],
      "name": "AssociateFail",
      "type": "error"
    },
    {
      "inputs": [],
      "name": "ErrorSelectorNotFound",
      "type": "error"
    },
    {
      "inputs": [],
      "name": "EthTransfer",
      "type": "error"
    },
    {
      "inputs": [],
      "name": "FailedCall",
      "type": "error"
    },
    {
      "inputs": [],
      "name": "InputLengthMismatch",
      "type": "error"
    },
    {
      "inputs": [
        {
          "internalType": "uint256",
          "name": "balance",
          "type": "uint256"
        },
        {
          "internalType": "uint256",
          "name": "needed",
          "type": "uint256"
        }
      ],
      "name": "InsufficientBalance",
      "type": "error"
    },
    {
      "inputs": [],
      "name": "InsufficientEth",
      "type": "error"
    },
    {
      "inputs": [
        {
          "internalType": "contract IERC20",
          "name": "token",
          "type": "address"
        }
      ],
      "name": "InsufficientPayment",
      "type": "error"
    },
    {
      "inputs": [],
      "name": "ReentrancyGuardReentrantCall",
      "type": "error"
    },
    {
      "inputs": [
        {
          "internalType": "uint8",
          "name": "bits",
          "type": "uint8"
        },
        {
          "internalType": "uint256",
          "name": "value",
          "type": "uint256"
        }
      ],
      "name": "SafeCastOverflowedUintDowncast",
      "type": "error"
    },
    {
      "inputs": [
        {
          "internalType": "address",
          "name": "token",
          "type": "address"
        }
      ],
      "name": "SafeERC20FailedOperation",
      "type": "error"
    },
    {
      "inputs": [
        {
          "internalType": "address",
          "name": "sender",
          "type": "address"
        }
      ],
      "name": "SenderIsNotVault",
      "type": "error"
    },
    {
      "inputs": [],
      "name": "SwapDeadline",
      "type": "error"
    },
    {
      "inputs": [
        {
          "internalType": "address",
          "name": "pool",
          "type": "address"
        },
        {
          "internalType": "uint256[]",
          "name": "maxAmountsIn",
          "type": "uint256[]"
        },
        {
          "internalType": "uint256",
          "name": "minBptAmountOut",
          "type": "uint256"
        },
        {
          "internalType": "bool",
          "name": "wethIsEth",
          "type": "bool"
        },
        {
          "internalType": "bytes",
          "name": "userData",
          "type": "bytes"
        }
      ],
      "name": "addLiquidityCustom",
      "outputs": [
        {
          "internalType": "uint256[]",
          "name": "amountsIn",
          "type": "uint256[]"
        },
        {
          "internalType": "uint256",
          "name": "bptAmountOut",
          "type": "uint256"
        },
        {
          "internalType": "bytes",
          "name": "returnData",
          "type": "bytes"
        }
      ],
      "stateMutability": "payable",
      "type": "function"
    },
    {
      "inputs": [
        {
          "components": [
            {
              "internalType": "address",
              "name": "sender",
              "type": "address"
            },
            {
              "internalType": "address",
              "name": "pool",
              "type": "address"
            },
            {
              "internalType": "uint256[]",
              "name": "maxAmountsIn",
              "type": "uint256[]"
            },
            {
              "internalType": "uint256",
              "name": "minBptAmountOut",
              "type": "uint256"
            },
            {
              "internalType": "enum AddLiquidityKind",
              "name": "kind",
              "type": "uint8"
            },
            {
              "internalType": "bool",
              "name": "wethIsEth",
              "type": "bool"
            },
            {
              "internalType": "bytes",
              "name": "userData",
              "type": "bytes"
            }
          ],
          "internalType": "struct AddLiquidityHookParams",
          "name": "params",
          "type": "tuple"
        }
      ],
      "name": "addLiquidityHook",
      "outputs": [
        {
          "internalType": "uint256[]",
          "name": "amountsIn",
          "type": "uint256[]"
        },
        {
          "internalType": "uint256",
          "name": "bptAmountOut",
          "type": "uint256"
        },
        {
          "internalType": "bytes",
          "name": "returnData",
          "type": "bytes"
        }
      ],
      "stateMutability": "nonpayable",
      "type": "function"
    },
    {
      "inputs": [
        {
          "internalType": "address",
          "name": "pool",
          "type": "address"
        },
        {
          "internalType": "uint256[]",
          "name": "maxAmountsIn",
          "type": "uint256[]"
        },
        {
          "internalType": "uint256",
          "name": "exactBptAmountOut",
          "type": "uint256"
        },
        {
          "internalType": "bool",
          "name": "wethIsEth",
          "type": "bool"
        },
        {
          "internalType": "bytes",
          "name": "userData",
          "type": "bytes"
        }
      ],
      "name": "addLiquidityProportional",
      "outputs": [
        {
          "internalType": "uint256[]",
          "name": "amountsIn",
          "type": "uint256[]"
        }
      ],
      "stateMutability": "payable",
      "type": "function"
    },
    {
      "inputs": [
        {
          "internalType": "address",
          "name": "pool",
          "type": "address"
        },
        {
          "internalType": "contract IERC20",
          "name": "tokenIn",
          "type": "address"
        },
        {
          "internalType": "uint256",
          "name": "maxAmountIn",
          "type": "uint256"
        },
        {
          "internalType": "uint256",
          "name": "exactBptAmountOut",
          "type": "uint256"
        },
        {
          "internalType": "bool",
          "name": "wethIsEth",
          "type": "bool"
        },
        {
          "internalType": "bytes",
          "name": "userData",
          "type": "bytes"
        }
      ],
      "name": "addLiquiditySingleTokenExactOut",
      "outputs": [
        {
          "internalType": "uint256",
          "name": "amountIn",
          "type": "uint256"
        }
      ],
      "stateMutability": "payable",
      "type": "function"
    },
    {
      "inputs": [
        {
          "internalType": "address",
          "name": "pool",
          "type": "address"
        },
        {
          "internalType": "uint256[]",
          "name": "exactAmountsIn",
          "type": "uint256[]"
        },
        {
          "internalType": "uint256",
          "name": "minBptAmountOut",
          "type": "uint256"
        },
        {
          "internalType": "bool",
          "name": "wethIsEth",
          "type": "bool"
        },
        {
          "internalType": "bytes",
          "name": "userData",
          "type": "bytes"
        }
      ],
      "name": "addLiquidityUnbalanced",
      "outputs": [
        {
          "internalType": "uint256",
          "name": "bptAmountOut",
          "type": "uint256"
        }
      ],
      "stateMutability": "payable",
      "type": "function"
    },
    {
      "inputs": [
        {
          "internalType": "address",
          "name": "pool",
          "type": "address"
        },
        {
          "internalType": "uint256[]",
          "name": "amountsIn",
          "type": "uint256[]"
        },
        {
          "internalType": "bool",
          "name": "wethIsEth",
          "type": "bool"
        },
        {
          "internalType": "bytes",
          "name": "userData",
          "type": "bytes"
        }
      ],
      "name": "donate",
      "outputs": [],
      "stateMutability": "payable",
      "type": "function"
    },
    {
      "inputs": [],
      "name": "getPermit2",
      "outputs": [
        {
          "internalType": "contract IPermit2",
          "name": "",
          "type": "address"
        }
      ],
      "stateMutability": "view",
      "type": "function"
    },
    {
      "inputs": [],
      "name": "getSender",
      "outputs": [
        {
          "internalType": "address",
          "name": "",
          "type": "address"
        }
      ],
      "stateMutability": "view",
      "type": "function"
    },
    {
      "inputs": [],
      "name": "getWeth",
      "outputs": [
        {
          "internalType": "contract IWETH",
          "name": "",
          "type": "address"
        }
      ],
      "stateMutability": "view",
      "type": "function"
    },
    {
      "inputs": [
        {
          "internalType": "address",
          "name": "pool",
          "type": "address"
        },
        {
          "internalType": "contract IERC20[]",
          "name": "tokens",
          "type": "address[]"
        },
        {
          "internalType": "uint256[]",
          "name": "exactAmountsIn",
          "type": "uint256[]"
        },
        {
          "internalType": "uint256",
          "name": "minBptAmountOut",
          "type": "uint256"
        },
        {
          "internalType": "bool",
          "name": "wethIsEth",
          "type": "bool"
        },
        {
          "internalType": "bytes",
          "name": "userData",
          "type": "bytes"
        }
      ],
      "name": "initialize",
      "outputs": [
        {
          "internalType": "uint256",
          "name": "bptAmountOut",
          "type": "uint256"
        }
      ],
      "stateMutability": "payable",
      "type": "function"
    },
    {
      "inputs": [
        {
          "components": [
            {
              "internalType": "address",
              "name": "sender",
              "type": "address"
            },
            {
              "internalType": "address",
              "name": "pool",
              "type": "address"
            },
            {
              "internalType": "contract IERC20[]",
              "name": "tokens",
              "type": "address[]"
            },
            {
              "internalType": "uint256[]",
              "name": "exactAmountsIn",
              "type": "uint256[]"
            },
            {
              "internalType": "uint256",
              "name": "minBptAmountOut",
              "type": "uint256"
            },
            {
              "internalType": "bool",
              "name": "wethIsEth",
              "type": "bool"
            },
            {
              "internalType": "bytes",
              "name": "userData",
              "type": "bytes"
            }
          ],
          "internalType": "struct InitializeHookParams",
          "name": "params",
          "type": "tuple"
        }
      ],
      "name": "initializeHook",
      "outputs": [
        {
          "internalType": "uint256",
          "name": "bptAmountOut",
          "type": "uint256"
        }
      ],
      "stateMutability": "nonpayable",
      "type": "function"
    },
    {
      "inputs": [
        {
          "internalType": "bytes[]",
          "name": "data",
          "type": "bytes[]"
        }
      ],
      "name": "multicall",
      "outputs": [
        {
          "internalType": "bytes[]",
          "name": "results",
          "type": "bytes[]"
        }
      ],
      "stateMutability": "payable",
      "type": "function"
    },
    {
      "inputs": [
        {
          "components": [
            {
              "internalType": "address",
              "name": "token",
              "type": "address"
            },
            {
              "internalType": "address",
              "name": "owner",
              "type": "address"
            },
            {
              "internalType": "address",
              "name": "spender",
              "type": "address"
            },
            {
              "internalType": "uint256",
              "name": "amount",
              "type": "uint256"
            },
            {
              "internalType": "uint256",
              "name": "nonce",
              "type": "uint256"
            },
            {
              "internalType": "uint256",
              "name": "deadline",
              "type": "uint256"
            }
          ],
          "internalType": "struct IRouterCommon.PermitApproval[]",
          "name": "permitBatch",
          "type": "tuple[]"
        },
        {
          "internalType": "bytes[]",
          "name": "permitSignatures",
          "type": "bytes[]"
        },
        {
          "components": [
            {
              "components": [
                {
                  "internalType": "address",
                  "name": "token",
                  "type": "address"
                },
                {
                  "internalType": "uint160",
                  "name": "amount",
                  "type": "uint160"
                },
                {
                  "internalType": "uint48",
                  "name": "expiration",
                  "type": "uint48"
                },
                {
                  "internalType": "uint48",
                  "name": "nonce",
                  "type": "uint48"
                }
              ],
              "internalType": "struct IAllowanceTransfer.PermitDetails[]",
              "name": "details",
              "type": "tuple[]"
            },
            {
              "internalType": "address",
              "name": "spender",
              "type": "address"
            },
            {
              "internalType": "uint256",
              "name": "sigDeadline",
              "type": "uint256"
            }
          ],
          "internalType": "struct IAllowanceTransfer.PermitBatch",
          "name": "permit2Batch",
          "type": "tuple"
        },
        {
          "internalType": "bytes",
          "name": "permit2Signature",
          "type": "bytes"
        },
        {
          "internalType": "bytes[]",
          "name": "multicallData",
          "type": "bytes[]"
        }
      ],
      "name": "permitBatchAndCall",
      "outputs": [
        {
          "internalType": "bytes[]",
          "name": "results",
          "type": "bytes[]"
        }
      ],
      "stateMutability": "payable",
      "type": "function"
    },
    {
      "inputs": [
        {
          "internalType": "address",
          "name": "pool",
          "type": "address"
        },
        {
          "internalType": "uint256[]",
          "name": "maxAmountsIn",
          "type": "uint256[]"
        },
        {
          "internalType": "uint256",
          "name": "minBptAmountOut",
          "type": "uint256"
        },
        {
          "internalType": "address",
          "name": "sender",
          "type": "address"
        },
        {
          "internalType": "bytes",
          "name": "userData",
          "type": "bytes"
        }
      ],
      "name": "queryAddLiquidityCustom",
      "outputs": [
        {
          "internalType": "uint256[]",
          "name": "amountsIn",
          "type": "uint256[]"
        },
        {
          "internalType": "uint256",
          "name": "bptAmountOut",
          "type": "uint256"
        },
        {
          "internalType": "bytes",
          "name": "returnData",
          "type": "bytes"
        }
      ],
      "stateMutability": "nonpayable",
      "type": "function"
    },
    {
      "inputs": [
        {
          "components": [
            {
              "internalType": "address",
              "name": "sender",
              "type": "address"
            },
            {
              "internalType": "address",
              "name": "pool",
              "type": "address"
            },
            {
              "internalType": "uint256[]",
              "name": "maxAmountsIn",
              "type": "uint256[]"
            },
            {
              "internalType": "uint256",
              "name": "minBptAmountOut",
              "type": "uint256"
            },
            {
              "internalType": "enum AddLiquidityKind",
              "name": "kind",
              "type": "uint8"
            },
            {
              "internalType": "bool",
              "name": "wethIsEth",
              "type": "bool"
            },
            {
              "internalType": "bytes",
              "name": "userData",
              "type": "bytes"
            }
          ],
          "internalType": "struct AddLiquidityHookParams",
          "name": "params",
          "type": "tuple"
        }
      ],
      "name": "queryAddLiquidityHook",
      "outputs": [
        {
          "internalType": "uint256[]",
          "name": "amountsIn",
          "type": "uint256[]"
        },
        {
          "internalType": "uint256",
          "name": "bptAmountOut",
          "type": "uint256"
        },
        {
          "internalType": "bytes",
          "name": "returnData",
          "type": "bytes"
        }
      ],
      "stateMutability": "nonpayable",
      "type": "function"
    },
    {
      "inputs": [
        {
          "internalType": "address",
          "name": "pool",
          "type": "address"
        },
        {
          "internalType": "uint256",
          "name": "exactBptAmountOut",
          "type": "uint256"
        },
        {
          "internalType": "address",
          "name": "sender",
          "type": "address"
        },
        {
          "internalType": "bytes",
          "name": "userData",
          "type": "bytes"
        }
      ],
      "name": "queryAddLiquidityProportional",
      "outputs": [
        {
          "internalType": "uint256[]",
          "name": "amountsIn",
          "type": "uint256[]"
        }
      ],
      "stateMutability": "nonpayable",
      "type": "function"
    },
    {
      "inputs": [
        {
          "internalType": "address",
          "name": "pool",
          "type": "address"
        },
        {
          "internalType": "contract IERC20",
          "name": "tokenIn",
          "type": "address"
        },
        {
          "internalType": "uint256",
          "name": "exactBptAmountOut",
          "type": "uint256"
        },
        {
          "internalType": "address",
          "name": "sender",
          "type": "address"
        },
        {
          "internalType": "bytes",
          "name": "userData",
          "type": "bytes"
        }
      ],
      "name": "queryAddLiquiditySingleTokenExactOut",
      "outputs": [
        {
          "internalType": "uint256",
          "name": "amountIn",
          "type": "uint256"
        }
      ],
      "stateMutability": "nonpayable",
      "type": "function"
    },
    {
      "inputs": [
        {
          "internalType": "address",
          "name": "pool",
          "type": "address"
        },
        {
          "internalType": "uint256[]",
          "name": "exactAmountsIn",
          "type": "uint256[]"
        },
        {
          "internalType": "address",
          "name": "sender",
          "type": "address"
        },
        {
          "internalType": "bytes",
          "name": "userData",
          "type": "bytes"
        }
      ],
      "name": "queryAddLiquidityUnbalanced",
      "outputs": [
        {
          "internalType": "uint256",
          "name": "bptAmountOut",
          "type": "uint256"
        }
      ],
      "stateMutability": "nonpayable",
      "type": "function"
    },
    {
      "inputs": [
        {
          "internalType": "address",
          "name": "pool",
          "type": "address"
        },
        {
          "internalType": "uint256",
          "name": "maxBptAmountIn",
          "type": "uint256"
        },
        {
          "internalType": "uint256[]",
          "name": "minAmountsOut",
          "type": "uint256[]"
        },
        {
          "internalType": "address",
          "name": "sender",
          "type": "address"
        },
        {
          "internalType": "bytes",
          "name": "userData",
          "type": "bytes"
        }
      ],
      "name": "queryRemoveLiquidityCustom",
      "outputs": [
        {
          "internalType": "uint256",
          "name": "bptAmountIn",
          "type": "uint256"
        },
        {
          "internalType": "uint256[]",
          "name": "amountsOut",
          "type": "uint256[]"
        },
        {
          "internalType": "bytes",
          "name": "returnData",
          "type": "bytes"
        }
      ],
      "stateMutability": "nonpayable",
      "type": "function"
    },
    {
      "inputs": [
        {
          "components": [
            {
              "internalType": "address",
              "name": "sender",
              "type": "address"
            },
            {
              "internalType": "address",
              "name": "pool",
              "type": "address"
            },
            {
              "internalType": "uint256[]",
              "name": "minAmountsOut",
              "type": "uint256[]"
            },
            {
              "internalType": "uint256",
              "name": "maxBptAmountIn",
              "type": "uint256"
            },
            {
              "internalType": "enum RemoveLiquidityKind",
              "name": "kind",
              "type": "uint8"
            },
            {
              "internalType": "bool",
              "name": "wethIsEth",
              "type": "bool"
            },
            {
              "internalType": "bytes",
              "name": "userData",
              "type": "bytes"
            }
          ],
          "internalType": "struct RemoveLiquidityHookParams",
          "name": "params",
          "type": "tuple"
        }
      ],
      "name": "queryRemoveLiquidityHook",
      "outputs": [
        {
          "internalType": "uint256",
          "name": "bptAmountIn",
          "type": "uint256"
        },
        {
          "internalType": "uint256[]",
          "name": "amountsOut",
          "type": "uint256[]"
        },
        {
          "internalType": "bytes",
          "name": "returnData",
          "type": "bytes"
        }
      ],
      "stateMutability": "nonpayable",
      "type": "function"
    },
    {
      "inputs": [
        {
          "internalType": "address",
          "name": "pool",
          "type": "address"
        },
        {
          "internalType": "uint256",
          "name": "exactBptAmountIn",
          "type": "uint256"
        },
        {
          "internalType": "address",
          "name": "sender",
          "type": "address"
        },
        {
          "internalType": "bytes",
          "name": "userData",
          "type": "bytes"
        }
      ],
      "name": "queryRemoveLiquidityProportional",
      "outputs": [
        {
          "internalType": "uint256[]",
          "name": "amountsOut",
          "type": "uint256[]"
        }
      ],
      "stateMutability": "nonpayable",
      "type": "function"
    },
    {
      "inputs": [
        {
          "internalType": "address",
          "name": "pool",
          "type": "address"
        },
        {
          "internalType": "uint256",
          "name": "exactBptAmountIn",
          "type": "uint256"
        }
      ],
      "name": "queryRemoveLiquidityRecovery",
      "outputs": [
        {
          "internalType": "uint256[]",
          "name": "amountsOut",
          "type": "uint256[]"
        }
      ],
      "stateMutability": "nonpayable",
      "type": "function"
    },
    {
      "inputs": [
        {
          "internalType": "address",
          "name": "pool",
          "type": "address"
        },
        {
          "internalType": "address",
          "name": "sender",
          "type": "address"
        },
        {
          "internalType": "uint256",
          "name": "exactBptAmountIn",
          "type": "uint256"
        }
      ],
      "name": "queryRemoveLiquidityRecoveryHook",
      "outputs": [
        {
          "internalType": "uint256[]",
          "name": "amountsOut",
          "type": "uint256[]"
        }
      ],
      "stateMutability": "nonpayable",
      "type": "function"
    },
    {
      "inputs": [
        {
          "internalType": "address",
          "name": "pool",
          "type": "address"
        },
        {
          "internalType": "uint256",
          "name": "exactBptAmountIn",
          "type": "uint256"
        },
        {
          "internalType": "contract IERC20",
          "name": "tokenOut",
          "type": "address"
        },
        {
          "internalType": "address",
          "name": "sender",
          "type": "address"
        },
        {
          "internalType": "bytes",
          "name": "userData",
          "type": "bytes"
        }
      ],
      "name": "queryRemoveLiquiditySingleTokenExactIn",
      "outputs": [
        {
          "internalType": "uint256",
          "name": "amountOut",
          "type": "uint256"
        }
      ],
      "stateMutability": "nonpayable",
      "type": "function"
    },
    {
      "inputs": [
        {
          "internalType": "address",
          "name": "pool",
          "type": "address"
        },
        {
          "internalType": "contract IERC20",
          "name": "tokenOut",
          "type": "address"
        },
        {
          "internalType": "uint256",
          "name": "exactAmountOut",
          "type": "uint256"
        },
        {
          "internalType": "address",
          "name": "sender",
          "type": "address"
        },
        {
          "internalType": "bytes",
          "name": "userData",
          "type": "bytes"
        }
      ],
      "name": "queryRemoveLiquiditySingleTokenExactOut",
      "outputs": [
        {
          "internalType": "uint256",
          "name": "bptAmountIn",
          "type": "uint256"
        }
      ],
      "stateMutability": "nonpayable",
      "type": "function"
    },
    {
      "inputs": [
        {
          "components": [
            {
              "internalType": "address",
              "name": "sender",
              "type": "address"
            },
            {
              "internalType": "enum SwapKind",
              "name": "kind",
              "type": "uint8"
            },
            {
              "internalType": "address",
              "name": "pool",
              "type": "address"
            },
            {
              "internalType": "contract IERC20",
              "name": "tokenIn",
              "type": "address"
            },
            {
              "internalType": "contract IERC20",
              "name": "tokenOut",
              "type": "address"
            },
            {
              "internalType": "uint256",
              "name": "amountGiven",
              "type": "uint256"
            },
            {
              "internalType": "uint256",
              "name": "limit",
              "type": "uint256"
            },
            {
              "internalType": "uint256",
              "name": "deadline",
              "type": "uint256"
            },
            {
              "internalType": "bool",
              "name": "wethIsEth",
              "type": "bool"
            },
            {
              "internalType": "bytes",
              "name": "userData",
              "type": "bytes"
            }
          ],
          "internalType": "struct SwapSingleTokenHookParams",
          "name": "params",
          "type": "tuple"
        }
      ],
      "name": "querySwapHook",
      "outputs": [
        {
          "internalType": "uint256",
          "name": "",
          "type": "uint256"
        }
      ],
      "stateMutability": "nonpayable",
      "type": "function"
    },
    {
      "inputs": [
        {
          "internalType": "address",
          "name": "pool",
          "type": "address"
        },
        {
          "internalType": "contract IERC20",
          "name": "tokenIn",
          "type": "address"
        },
        {
          "internalType": "contract IERC20",
          "name": "tokenOut",
          "type": "address"
        },
        {
          "internalType": "uint256",
          "name": "exactAmountIn",
          "type": "uint256"
        },
        {
          "internalType": "address",
          "name": "sender",
          "type": "address"
        },
        {
          "internalType": "bytes",
          "name": "userData",
          "type": "bytes"
        }
      ],
      "name": "querySwapSingleTokenExactIn",
      "outputs": [
        {
          "internalType": "uint256",
          "name": "amountCalculated",
          "type": "uint256"
        }
      ],
      "stateMutability": "nonpayable",
      "type": "function"
    },
    {
      "inputs": [
        {
          "internalType": "address",
          "name": "pool",
          "type": "address"
        },
        {
          "internalType": "contract IERC20",
          "name": "tokenIn",
          "type": "address"
        },
        {
          "internalType": "contract IERC20",
          "name": "tokenOut",
          "type": "address"
        },
        {
          "internalType": "uint256",
          "name": "exactAmountOut",
          "type": "uint256"
        },
        {
          "internalType": "address",
          "name": "sender",
          "type": "address"
        },
        {
          "internalType": "bytes",
          "name": "userData",
          "type": "bytes"
        }
      ],
      "name": "querySwapSingleTokenExactOut",
      "outputs": [
        {
          "internalType": "uint256",
          "name": "amountCalculated",
          "type": "uint256"
        }
      ],
      "stateMutability": "nonpayable",
      "type": "function"
    },
    {
      "inputs": [
        {
          "internalType": "address",
          "name": "pool",
          "type": "address"
        },
        {
          "internalType": "uint256",
          "name": "maxBptAmountIn",
          "type": "uint256"
        },
        {
          "internalType": "uint256[]",
          "name": "minAmountsOut",
          "type": "uint256[]"
        },
        {
          "internalType": "bool",
          "name": "wethIsEth",
          "type": "bool"
        },
        {
          "internalType": "bytes",
          "name": "userData",
          "type": "bytes"
        }
      ],
      "name": "removeLiquidityCustom",
      "outputs": [
        {
          "internalType": "uint256",
          "name": "bptAmountIn",
          "type": "uint256"
        },
        {
          "internalType": "uint256[]",
          "name": "amountsOut",
          "type": "uint256[]"
        },
        {
          "internalType": "bytes",
          "name": "returnData",
          "type": "bytes"
        }
      ],
      "stateMutability": "payable",
      "type": "function"
    },
    {
      "inputs": [
        {
          "components": [
            {
              "internalType": "address",
              "name": "sender",
              "type": "address"
            },
            {
              "internalType": "address",
              "name": "pool",
              "type": "address"
            },
            {
              "internalType": "uint256[]",
              "name": "minAmountsOut",
              "type": "uint256[]"
            },
            {
              "internalType": "uint256",
              "name": "maxBptAmountIn",
              "type": "uint256"
            },
            {
              "internalType": "enum RemoveLiquidityKind",
              "name": "kind",
              "type": "uint8"
            },
            {
              "internalType": "bool",
              "name": "wethIsEth",
              "type": "bool"
            },
            {
              "internalType": "bytes",
              "name": "userData",
              "type": "bytes"
            }
          ],
          "internalType": "struct RemoveLiquidityHookParams",
          "name": "params",
          "type": "tuple"
        }
      ],
      "name": "removeLiquidityHook",
      "outputs": [
        {
          "internalType": "uint256",
          "name": "bptAmountIn",
          "type": "uint256"
        },
        {
          "internalType": "uint256[]",
          "name": "amountsOut",
          "type": "uint256[]"
        },
        {
          "internalType": "bytes",
          "name": "returnData",
          "type": "bytes"
        }
      ],
      "stateMutability": "nonpayable",
      "type": "function"
    },
    {
      "inputs": [
        {
          "internalType": "address",
          "name": "pool",
          "type": "address"
        },
        {
          "internalType": "uint256",
          "name": "exactBptAmountIn",
          "type": "uint256"
        },
        {
          "internalType": "uint256[]",
          "name": "minAmountsOut",
          "type": "uint256[]"
        },
        {
          "internalType": "bool",
          "name": "wethIsEth",
          "type": "bool"
        },
        {
          "internalType": "bytes",
          "name": "userData",
          "type": "bytes"
        }
      ],
      "name": "removeLiquidityProportional",
      "outputs": [
        {
          "internalType": "uint256[]",
          "name": "amountsOut",
          "type": "uint256[]"
        }
      ],
      "stateMutability": "payable",
      "type": "function"
    },
    {
      "inputs": [
        {
          "internalType": "address",
          "name": "pool",
          "type": "address"
        },
        {
          "internalType": "uint256",
          "name": "exactBptAmountIn",
          "type": "uint256"
        },
        {
          "internalType": "uint256[]",
          "name": "minAmountsOut",
          "type": "uint256[]"
        }
      ],
      "name": "removeLiquidityRecovery",
      "outputs": [
        {
          "internalType": "uint256[]",
          "name": "amountsOut",
          "type": "uint256[]"
        }
      ],
      "stateMutability": "payable",
      "type": "function"
    },
    {
      "inputs": [
        {
          "internalType": "address",
          "name": "pool",
          "type": "address"
        },
        {
          "internalType": "address",
          "name": "sender",
          "type": "address"
        },
        {
          "internalType": "uint256",
          "name": "exactBptAmountIn",
          "type": "uint256"
        },
        {
          "internalType": "uint256[]",
          "name": "minAmountsOut",
          "type": "uint256[]"
        }
      ],
      "name": "removeLiquidityRecoveryHook",
      "outputs": [
        {
          "internalType": "uint256[]",
          "name": "amountsOut",
          "type": "uint256[]"
        }
      ],
      "stateMutability": "nonpayable",
      "type": "function"
    },
    {
      "inputs": [
        {
          "internalType": "address",
          "name": "pool",
          "type": "address"
        },
        {
          "internalType": "uint256",
          "name": "exactBptAmountIn",
          "type": "uint256"
        },
        {
          "internalType": "contract IERC20",
          "name": "tokenOut",
          "type": "address"
        },
        {
          "internalType": "uint256",
          "name": "minAmountOut",
          "type": "uint256"
        },
        {
          "internalType": "bool",
          "name": "wethIsEth",
          "type": "bool"
        },
        {
          "internalType": "bytes",
          "name": "userData",
          "type": "bytes"
        }
      ],
      "name": "removeLiquiditySingleTokenExactIn",
      "outputs": [
        {
          "internalType": "uint256",
          "name": "amountOut",
          "type": "uint256"
        }
      ],
      "stateMutability": "payable",
      "type": "function"
    },
    {
      "inputs": [
        {
          "internalType": "address",
          "name": "pool",
          "type": "address"
        },
        {
          "internalType": "uint256",
          "name": "maxBptAmountIn",
          "type": "uint256"
        },
        {
          "internalType": "contract IERC20",
          "name": "tokenOut",
          "type": "address"
        },
        {
          "internalType": "uint256",
          "name": "exactAmountOut",
          "type": "uint256"
        },
        {
          "internalType": "bool",
          "name": "wethIsEth",
          "type": "bool"
        },
        {
          "internalType": "bytes",
          "name": "userData",
          "type": "bytes"
        }
      ],
      "name": "removeLiquiditySingleTokenExactOut",
      "outputs": [
        {
          "internalType": "uint256",
          "name": "bptAmountIn",
          "type": "uint256"
        }
      ],
      "stateMutability": "payable",
      "type": "function"
    },
    {
      "inputs": [
        {
          "internalType": "address",
          "name": "pool",
          "type": "address"
        },
        {
          "internalType": "contract IERC20",
          "name": "tokenIn",
          "type": "address"
        },
        {
          "internalType": "contract IERC20",
          "name": "tokenOut",
          "type": "address"
        },
        {
          "internalType": "uint256",
          "name": "exactAmountIn",
          "type": "uint256"
        },
        {
          "internalType": "uint256",
          "name": "minAmountOut",
          "type": "uint256"
        },
        {
          "internalType": "uint256",
          "name": "deadline",
          "type": "uint256"
        },
        {
          "internalType": "bool",
          "name": "wethIsEth",
          "type": "bool"
        },
        {
          "internalType": "bytes",
          "name": "userData",
          "type": "bytes"
        }
      ],
      "name": "swapSingleTokenExactIn",
      "outputs": [
        {
          "internalType": "uint256",
          "name": "",
          "type": "uint256"
        }
      ],
      "stateMutability": "payable",
      "type": "function"
    },
    {
      "inputs": [
        {
          "internalType": "address",
          "name": "pool",
          "type": "address"
        },
        {
          "internalType": "contract IERC20",
          "name": "tokenIn",
          "type": "address"
        },
        {
          "internalType": "contract IERC20",
          "name": "tokenOut",
          "type": "address"
        },
        {
          "internalType": "uint256",
          "name": "exactAmountOut",
          "type": "uint256"
        },
        {
          "internalType": "uint256",
          "name": "maxAmountIn",
          "type": "uint256"
        },
        {
          "internalType": "uint256",
          "name": "deadline",
          "type": "uint256"
        },
        {
          "internalType": "bool",
          "name": "wethIsEth",
          "type": "bool"
        },
        {
          "internalType": "bytes",
          "name": "userData",
          "type": "bytes"
        }
      ],
      "name": "swapSingleTokenExactOut",
      "outputs": [
        {
          "internalType": "uint256",
          "name": "",
          "type": "uint256"
        }
      ],
      "stateMutability": "payable",
      "type": "function"
    },
    {
      "inputs": [
        {
          "components": [
            {
              "internalType": "address",
              "name": "sender",
              "type": "address"
            },
            {
              "internalType": "enum SwapKind",
              "name": "kind",
              "type": "uint8"
            },
            {
              "internalType": "address",
              "name": "pool",
              "type": "address"
            },
            {
              "internalType": "contract IERC20",
              "name": "tokenIn",
              "type": "address"
            },
            {
              "internalType": "contract IERC20",
              "name": "tokenOut",
              "type": "address"
            },
            {
              "internalType": "uint256",
              "name": "amountGiven",
              "type": "uint256"
            },
            {
              "internalType": "uint256",
              "name": "limit",
              "type": "uint256"
            },
            {
              "internalType": "uint256",
              "name": "deadline",
              "type": "uint256"
            },
            {
              "internalType": "bool",
              "name": "wethIsEth",
              "type": "bool"
            },
            {
              "internalType": "bytes",
              "name": "userData",
              "type": "bytes"
            }
          ],
          "internalType": "struct SwapSingleTokenHookParams",
          "name": "params",
          "type": "tuple"
        }
      ],
      "name": "swapSingleTokenHook",
      "outputs": [
        {
          "internalType": "uint256",
          "name": "",
          "type": "uint256"
        }
      ],
      "stateMutability": "nonpayable",
      "type": "function"
    },
    {
      "inputs": [],
      "name": "version",
      "outputs": [
        {
          "internalType": "string",
          "name": "",
          "type": "string"
        }
      ],
      "stateMutability": "view",
      "type": "function"
    },
    {
      "stateMutability": "payable",
      "type": "receive"
    }
  ],
  "bytecode": "0x61014060408181523461042257615e1a803803809161001e828661053b565b843982016080838203126104225782516001600160a01b0393848216820361042257602092838201519086821693848303610422578684015197881688036104225760608401516001600160401b0394858211610422570182601f820112156104225780519061008d8261055e565b9361009a8a51958661053b565b82855288838301011161042257815f92898093018387015e840101526100fe87516100c481610520565b600b81526a14d95b99195c91dd585c9960aa1b888201528851906100e782610520565b600682526539b2b73232b960d11b89830152610579565b60805260a052805183811161042f575f54916001928381811c91168015610516575b8882101461050257601f81116104bc575b508690601f831160011461045d579282939183925f94610452575b50501b915f199060031b1c1916175f555b6101b1855161016b81610520565b600c81526b2937baba32b921b7b6b6b7b760a11b8682015286519061018f82610520565b60118252701a5cd4995d1d5c9b915d1a131bd8dad959607a1b87830152610579565b60c05260e05261010094855281151580610443575b610387575b505050610120905f8252519061571f92836106fb84396080518381816104ed0152818161099e01528181610bd20152818161111b01528181611f9b015281816127e90152818161488801526149af015260a0518381816103150152818161048c0152818161061a015281816107aa0152818161093e01528181610b9b01528181610d3f01528181610e9101528181610fa9015281816112b10152818161138f01528181611672015281816119f301528181611b3301528181611d2601528181611e79015281816120bc015281816121450152818161223c0152818161262c015281816127890152818161293801528181612a0501528181612bd0015281816135120152818161378f0152818161391f01528181613c1c01528181614a2301528181614bac01528181614e0d01528181614fe00152818161519a0152818161525101528181615388015261557e015260c0518381816148120152614d47015260e051838181602201528181611c3a015281816134d001528181614da301528181615160015281816152a70152615419015251828181612d6101528181612f27015281816130290152614fbd015251818181611baa015261217a0152f35b8351918383019063248a35ef60e11b825230602485015260448401526044835260808301918383109083111761042f575f92839286525190826101675af16103cd61062b565b90156104265781818051810103126104225701518060030b8103610422575b60030b601681141580610417575b6104055780806101cb565b6317151aa560e01b5f5260045260245ffd5b5060c28114156103fa565b5f80fd5b505060156103ec565b634e487b7160e01b5f52604160045260245ffd5b5061044d8261065a565b6101c6565b015192505f8061014c565b90601f198316915f805283895f20935f5b8b888383106104a5575050501061048d575b505050811b015f5561015d565b01515f1960f88460031b161c191690555f8080610480565b86860151885590960195948501948793500161046e565b5f8052875f20601f840160051c8101918985106104f8575b601f0160051c019084905b8281106104ed575050610131565b5f81550184906104df565b90915081906104d4565b634e487b7160e01b5f52602260045260245ffd5b90607f1690610120565b604081019081106001600160401b0382111761042f57604052565b601f909101601f19168101906001600160401b0382119082101761042f57604052565b6001600160401b03811161042f57601f01601f191660200190565b906105e6603a60209260405193849181808401977f62616c616e6365722d6c6162732e76332e73746f726167652e000000000000008952805191829101603986015e830190601760f91b60398301528051928391018583015e015f8382015203601a81018452018261053b565b5190205f1981019081116106175760405190602082019081526020825261060c82610520565b9051902060ff191690565b634e487b7160e01b5f52601160045260245ffd5b3d15610655573d9061063c8261055e565b9161064a604051938461053b565b82523d5f602084013e565b606090565b6040516319f3736160e01b602082019081526001600160a01b0390921660248083019190915281529060608201906001600160401b0382118383101761042f575f9283926040525190826101675af16106b161062b565b90156106f557604081805181010312610422576020810151908160070b80920361042257604001519081151582036104225760161490816106f0575090565b905090565b505f9056fe60806040526004361015610072575b3615610018575f80fd5b6001600160a01b037f000000000000000000000000000000000000000000000000000000000000000016330361004a57005b7f0540ddf6000000000000000000000000000000000000000000000000000000005f5260045ffd5b5f3560e01c8063026b3d9514613a3b578063086fad66146137eb57806308c04793146136cd5780630ca078ec146136355780630f710888146134f4578063107c279f146134b1578063175d4408146133d257806319c6989f14612d855780631bbf2e2314612d425780631d56798d14612ba757806323b39241146129a55780633ebc54e514612828578063452db952146126a4578063516827501461259157806353d0bb98146124dc57806354fd4d501461239f5780635b34379114611fcc5780635e01eb5a14611f875780635f9815ff14611e4457806368a24fe014611b74578063724dba3314611a5b57806372657d1714611910578063750283bc146118935780637b03c7ba1461164857806382bf2b241461157457806382cd54fb1461132c57806394e86ef8146111a15780639de9051814610f82578063ac9650d814610f3e578063b037ed3614610dad578063b24bd57114610c63578063be5ae84114610c0e578063bf6ee3fd14610a75578063c08bc851146109dd578063c330c7be14610816578063da001f7d14610685578063e7326def14610534578063ecb2182c146103965763efd85f140361000e57346103925761023136613e8d565b610239614a19565b6001600160a01b039061024e60208201614a77565b61025782614a77565b926102656040840184614a8b565b9093608081013593600585101561039257836102d0610311966060856102bb5f9c9b6102ab99878f9e61029e60c06102d79d0187614942565b9a909b6040519e8f613d3a565b168d521660208c01523691613da5565b6040890152013560608701526080860161449f565b3691613e3c565b60a08201526040519485809481937f4af29ec400000000000000000000000000000000000000000000000000000000835260048301614c38565b03927f0000000000000000000000000000000000000000000000000000000000000000165af18015610387575f905f925f9161035d575b506103599060405193849384613f81565b0390f35b9050610359925061038091503d805f833e6103788183613d6a565b810190614562565b9092610348565b6040513d5f823e3d90fd5b5f80fd5b61044c6103c55f61043e816104886103ad366142e7565b97939a92999094916103be336149aa565b9a83614b5e565b9790946001600160a01b039b8c96604051946103e086613d01565b33865260209e8f9116908601526040850152606084015260016080840152151560a083015260c08201526040519283917f7b03c7ba000000000000000000000000000000000000000000000000000000008c8401526024830161467f565b03601f198101835282613d6a565b6040519586809481937f48c894910000000000000000000000000000000000000000000000000000000083528b60048401526024830190613f5c565b03927f0000000000000000000000000000000000000000000000000000000000000000165af1918215610387576104db926104d3915f91610512575b508580825183010191016146dd565b5090506147c3565b51906104ea575b604051908152f35b5f7f00000000000000000000000000000000000000000000000000000000000000005d6104e2565b61052e91503d805f833e6105268183613d6a565b8101906143c3565b866104c4565b61043e6105da5f8061061661056561054b366142e7565b9161055e9b959b9a949691939a336149aa565b9a8c614b5e565b50916001600160a01b03956040519361057d85613d01565b3385528760209d168d8601526040850152606084015260026080840152151560a083015260c08201526040519283917f7b03c7ba000000000000000000000000000000000000000000000000000000008b8401526024830161467f565b6040519485809481937f48c894910000000000000000000000000000000000000000000000000000000083528a60048401526024830190613f5c565b03927f0000000000000000000000000000000000000000000000000000000000000000165af180156103875761065c915f9161066b575b508380825183010191016146dd565b5050906104ea57604051908152f35b61067f91503d805f833e6105268183613d6a565b8461064d565b346103925760806003193601126103925761069e613c95565b67ffffffffffffffff602435818111610392576106bf903690600401613df3565b906106c8613cd7565b606435918211610392576107a65f929161043e61076a6106f66106f087963690600401613e72565b936149aa565b966001600160a01b03936040519161070d83613d01565b3083528560209b168b8401526040830152866060830152600160808301528660a083015260c08201526040519283917fefd85f14000000000000000000000000000000000000000000000000000000008b840152602483016144e5565b6040519485809481937fedfa35680000000000000000000000000000000000000000000000000000000083528a60048401526024830190613f5c565b03927f0000000000000000000000000000000000000000000000000000000000000000165af18015610387576107ec915f916107fc575b50838082518301019101614562565b509190506104ea57604051908152f35b61081091503d805f833e6105268183613d6a565b846107dd565b346103925760a06003193601126103925761082f613c95565b67ffffffffffffffff60443581811161039257610850903690600401613df3565b91610859613cab565b91608435908111610392575f9361043e6108fd869461088861088261093a963690600401613e72565b976149aa565b966001600160a01b039485604051936108a085613d01565b30855216602084015260408301526024356060830152600360808301528660a083015260c08201526040519283917fb24bd5710000000000000000000000000000000000000000000000000000000060208401526024830161467f565b6040519586809481937fedfa3568000000000000000000000000000000000000000000000000000000008352602060048401526024830190613f5c565b03927f0000000000000000000000000000000000000000000000000000000000000000165af19182156103875761035992610986915f916109c3575b50602080825183010191016146dd565b9093919261099b575b604051938493846142bc565b5f7f00000000000000000000000000000000000000000000000000000000000000005d61098f565b6109d791503d805f833e6105268183613d6a565b84610976565b61043e6105da5f806107a66109f136613ef2565b610a0199939198929499336149aa565b986001600160a01b039560405193610a1885613d01565b3385528760209d168d8601526040850152606084015260016080840152151560a083015260c08201526040519283917f5b343791000000000000000000000000000000000000000000000000000000008b840152602483016144e5565b608060031936011261039257610a89613c95565b67ffffffffffffffff9060243582811161039257610aab903690600401613df3565b906044359283151580940361039257606435908111610392575f9261043e610b5a8594610adf610b97953690600401613e72565b610ae8336149aa565b986001600160a01b03958660405194610b0086613d01565b33865216602085015260408401528760608401526003608084015260a083015260c08201526040519283917f5b343791000000000000000000000000000000000000000000000000000000006020840152602483016144e5565b6040519485809481937f48c89491000000000000000000000000000000000000000000000000000000008352602060048401526024830190613f5c565b03927f0000000000000000000000000000000000000000000000000000000000000000165af1801561038757610bf4575b50610bcf57005b5f7f00000000000000000000000000000000000000000000000000000000000000005d005b610c07903d805f833e6105268183613d6a565b5081610bc8565b34610392576020610c36610c2136614210565b610c296149ec565b610c31614a19565b61544a565b50505f7f9b779b17422d0df92223018b32b4d1fa46e071723d6817e2486d003becc55f005d604051908152f35b3461039257610c7136613e8d565b610c79614a19565b6001600160a01b03610c8d60208301614a77565b610c9683614a77565b91610ca46040850185614a8b565b9490608082013593600485101561039257836102d0610d3b96610cf3610d01955f9b606089878f9e61029e60c0610cdc9e0184614942565b168d521660208c0152013560408a01523691613da5565b606087015260808601614666565b60a08201526040519485809481937f2145789700000000000000000000000000000000000000000000000000000000835260048301614ce2565b03927f0000000000000000000000000000000000000000000000000000000000000000165af18015610387575f905f925f91610d83575b5061035990604051938493846142bc565b90506103599250610da691503d805f833e610d9e8183613d6a565b8101906146dd565b9092610d72565b3461039257604060031936011261039257610dc6613c95565b6001600160a01b0360405190806020937f5f9815ff000000000000000000000000000000000000000000000000000000008585015216602483015230604483015260243560648301526064825260a082019082821067ffffffffffffffff831117610f1157815f91816040527fedfa35680000000000000000000000000000000000000000000000000000000082528560a486015281837fffffffffffffffffffffffffffffffffffffffffffffffffffffffffffffff6087610e8c60c4820182613f5c565b0301927f0000000000000000000000000000000000000000000000000000000000000000165af190811561038757610ed5925f92610eea575b5050828082518301019101614479565b90610359604051928284938452830190613ebf565b610f0a925060a0903d90815f853e610f028285613d6a565b0101906143c3565b8380610ec5565b7f4e487b71000000000000000000000000000000000000000000000000000000005f52604160045260245ffd5b60206003193601126103925760043567ffffffffffffffff811161039257610f76610f70610359923690600401614068565b90614804565b604051918291826140c7565b3461039257610f9c610f9336613faa565b929193906149aa565b916001600160a01b0390817f00000000000000000000000000000000000000000000000000000000000000001691604051937fca4f280300000000000000000000000000000000000000000000000000000000855216928360048201525f81602481865afa908115610387575f9161117f575b50519461101b86614635565b955f5b81811061115a5750505f9261043e61109c8886956110d8956040519261104384613d01565b30845260209a8b850152604084015260608301528660808301528660a083015260c08201526040519283917fefd85f14000000000000000000000000000000000000000000000000000000008a840152602483016144e5565b6040519485809481937fedfa35680000000000000000000000000000000000000000000000000000000083528960048401526024830190613f5c565b03925af18015610387576110fc915f91611140575b50828082518301019101614562565b505091611118575b610359604051928284938452830190613ebf565b5f7f00000000000000000000000000000000000000000000000000000000000000005d611104565b61115491503d805f833e6105268183613d6a565b846110ed565b806fffffffffffffffffffffffffffffffff6111786001938b6147c3565b520161101e565b61119b91503d805f833e6111938183613d6a565b8101906145ab565b8661100f565b6111aa36614243565b949095939193336111ba906149aa565b97604051996111c88b613d1d565b338b5260208b01600190526001600160a01b031660408b01526001600160a01b031660608a01526001600160a01b0316608089015260a088015260c087015260e08601521515610100850152369061121f92613e3c565b6101208301526040517f68a24fe000000000000000000000000000000000000000000000000000000000602082015291829061125e9060248301614732565b03601f19810183526112709083613d6a565b60405180927f48c894910000000000000000000000000000000000000000000000000000000082526004820160209052602482016112ad91613f5c565b03827f00000000000000000000000000000000000000000000000000000000000000006001600160a01b031691815a5f948591f1918215610387575f92611310575b5060208280518101031261039257602080920151906104ea57604051908152f35b6113259192503d805f833e6105268183613d6a565b90826112ef565b3461039257608060031936011261039257611345613c95565b61134d613cc1565b906064359067ffffffffffffffff8211610392576113726113e8923690600401613df3565b9061137b6149ec565b611383614a19565b6001600160a01b035f817f00000000000000000000000000000000000000000000000000000000000000001693604051809681927fa07d60400000000000000000000000000000000000000000000000000000000083526044358a88600486016143e9565b038183875af1938415610387575f94611550575b5080604051927fca4f28030000000000000000000000000000000000000000000000000000000084521660048301525f82602481865afa918215610387575f92611534575b505f5b82518110156114f05761145781866147c3565b519081611469575b6001915001611444565b8261147482866147c3565b5116853b15610392576040517fae6393290000000000000000000000000000000000000000000000000000000081526001600160a01b039182166004820152908816602482015260448101929092525f8260648183895af1918215610387576001926114e1575b5061145f565b6114ea90613d56565b876114db565b610359856114fd88614d3e565b5f7f9b779b17422d0df92223018b32b4d1fa46e071723d6817e2486d003becc55f005d604051918291602083526020830190613ebf565b6115499192503d805f833e6111938183613d6a565b9085611441565b61156d9194503d805f833e6115658183613d6a565b810190614479565b92856113fc565b5f61043e8161093a61160b611588366141a7565b90611598989492959398336149aa565b986001600160a01b039687604051956115b087613d01565b3387521660208601526040850152606084015260036080840152151560a083015260c08201526040519283917f7b03c7ba0000000000000000000000000000000000000000000000000000000060208401526024830161467f565b6040519586809481937f48c89491000000000000000000000000000000000000000000000000000000008352602060048401526024830190613f5c565b346103925761165636613e8d565b61165e6149ec565b611666614a19565b6001600160a01b0390817f00000000000000000000000000000000000000000000000000000000000000001660208201916116a083614a77565b936116aa82614a77565b6116b76040840184614a8b565b969091608085013590600482101561039257846102d061171293610cf35f9761174a9d6116e760c08d018d614942565b969097816040519b6116f88d613d3a565b168b521660208a015260608c013560408a01523691613da5565b60a0820152604051809781927f2145789700000000000000000000000000000000000000000000000000000000835260048301614ce2565b038183875af1918215610387575f945f965f94611864575b508260246117705f93614a77565b60405197889384927fca4f28030000000000000000000000000000000000000000000000000000000084521660048301525afa938415610387575f94611848575b50919360a0830192905f5b8551811015611802576001906117fc6117d485614a77565b866117df848b6147c3565b51166117eb848d6147c3565b51906117f68a614b0f565b9261522d565b016117bc565b50610359866118196118148a95614a77565b614d3e565b5f7f9b779b17422d0df92223018b32b4d1fa46e071723d6817e2486d003becc55f005d604051938493846142bc565b61185d9194503d805f833e6111938183613d6a565b92866117b1565b6024975061177096505f91945061188584913d8085833e610d9e8183613d6a565b909950909750949150611762565b61189c36614243565b949095939193336118ac906149aa565b97604051996118ba8b613d1d565b338b5260208b015f90526001600160a01b031660408b01526001600160a01b031660608a01526001600160a01b0316608089015260a088015260c087015260e08601521515610100850152369061121f92613e3c565b60c060031936011261039257611924613c95565b61192c613cc1565b611934613e11565b60a4359067ffffffffffffffff8211610392575f6119ef61195a82943690600401613e72565b9261043e61044c61197861196d336149aa565b98604435908b614b5e565b966001600160a01b03946040519261198f84613d01565b3384528660209d168d8501526040840152606435606084015260026080840152151560a083015260c08201526040519283917f5b343791000000000000000000000000000000000000000000000000000000008c840152602483016144e5565b03927f0000000000000000000000000000000000000000000000000000000000000000165af1918215610387576104db92611a3a915f91611a41575b50858082518301019101614562565b50506147c3565b611a5591503d805f833e6105268183613d6a565b86611a2b565b61043e611af35f80611b2f611a6f36613ef2565b611a809993919998929498336149aa565b996001600160a01b039560405193611a9785613d01565b3385528760209c168c86015260408501526060840152876080840152151560a083015260c08201526040519283917f5b343791000000000000000000000000000000000000000000000000000000008a840152602483016144e5565b6040519485809481937f48c894910000000000000000000000000000000000000000000000000000000083528960048401526024830190613f5c565b03927f0000000000000000000000000000000000000000000000000000000000000000165af18015610387576110fc915f916111405750828082518301019101614562565b3461039257611b8236614210565b611b8a6149ec565b611b92614a19565b60e08101354211611e1c57611ba68161544a565b92907f0000000000000000000000000000000000000000000000000000000000000000611ca057602093611c00611c2392611be085614a77565b90611bed60608701614a77565b611bfa6101008801614b0f565b92614d81565b611c0983614a77565b90611c1660808501614a77565b6117f66101008601614b0f565b611c2f60608201614a77565b6001600160a01b03807f000000000000000000000000000000000000000000000000000000000000000016911614611c8e575b505f7f9b779b17422d0df92223018b32b4d1fa46e071723d6817e2486d003becc55f005d604051908152f35b611814611c9a91614a77565b82611c62565b602082013560028110156103925780611e0e57611d2060a0840135915b6001600160a01b036060860193602081611cd687614a77565b60405196879283927f15afd40900000000000000000000000000000000000000000000000000000000845260048401602090939291936001600160a01b0360408201951681520152565b03815f867f0000000000000000000000000000000000000000000000000000000000000000165af1938415610387575f94611dda575b508310611da5575091611c23939160016020989414611d78575b505050611c00565b611d97611d9d93611d91611d8b89614a77565b94614a77565b92614ca8565b91615189565b858080611d70565b611dae84614a77565b7f02150b55000000000000000000000000000000000000000000000000000000005f521660045260245ffd5b9093506020813d602011611e06575b81611df660209383613d6a565b8101031261039257519289611d56565b3d9150611de9565b611d2060c084013591611cbd565b7fe08b8af0000000000000000000000000000000000000000000000000000000005f5260045ffd5b3461039257606060031936011261039257611e5d613c95565b611e65613cc1565b611e6d614a19565b6001600160a01b0390817f000000000000000000000000000000000000000000000000000000000000000016604051927fca4f2803000000000000000000000000000000000000000000000000000000008452841660048401525f83602481845afa938415610387575f611eee611f299682968391611f6d575b5051614635565b93604051968795869485937fa07d604000000000000000000000000000000000000000000000000000000000855260443591600486016143e9565b03925af1801561038757610359915f91611f53575b50604051918291602083526020830190613ebf565b611f6791503d805f833e6115658183613d6a565b82611f3e565b611f8191503d8085833e6111938183613d6a565b88611ee7565b34610392575f6003193601126103925760207f00000000000000000000000000000000000000000000000000000000000000005c6001600160a01b0360405191168152f35b3461039257611fda36613e8d565b611fe26149ec565b611fea614a19565b611ff660208201614a77565b9061200081614a77565b9060408101906120108282614a8b565b9390600560808401351015610392576102ab956001600160a01b03612053612073936120af98835f9761204660c08b018b614942565b9690976040519e8f613d3a565b6040890152606085013560608901526102d0608086013560808a0161449f565b9460a09560a0820152604051809581927f4af29ec400000000000000000000000000000000000000000000000000000000835260048301614c38565b0381836001600160a01b037f0000000000000000000000000000000000000000000000000000000000000000165af1908115610387575f925f945f9361237a575b506120fd60208301614a77565b956001600160a01b03604051977fca4f28030000000000000000000000000000000000000000000000000000000089521660048801526024965f816024816001600160a01b037f0000000000000000000000000000000000000000000000000000000000000000165afa908115610387575f91612360575b5093957f000000000000000000000000000000000000000000000000000000000000000094905f5b825181101561231f576001600160a01b036121b882856147c3565b51166121c4828a6147c3565b519081156123155788156122f3576121e6836121e0898b614a8b565b90614aff565b6040517f15afd4090000000000000000000000000000000000000000000000000000000081526001600160a01b0383166004820152903560248201819052909290602084806044810103815f6001600160a01b037f0000000000000000000000000000000000000000000000000000000000000000165af1938415610387575f946122bf575b508310612294579161228e91611d97600195946122888c614a77565b93614ca8565b0161219d565b8c827f02150b55000000000000000000000000000000000000000000000000000000005f526004525ffd5b9093506020813d6020116122eb575b816122db60209383613d6a565b810103126103925751928e61226c565b3d91506122ce565b61231090600193926123048a614a77565b91611bfa898c01614b0f565b61228e565b505060019061228e565b50866103598961233161181489614a77565b5f7f9b779b17422d0df92223018b32b4d1fa46e071723d6817e2486d003becc55f005d60405193849384613f81565b61237491503d805f833e6111938183613d6a565b88612175565b919350935061239391503d805f833e6103788183613d6a565b939192909391866120f0565b34610392575f600319360112610392576040515f5f549060018260011c91600184169182156124d2575b60209485851084146124a55785879486865291825f1461246757505060011461240e575b506123fa92500383613d6a565b610359604051928284938452830190613f5c565b5f808052859250907f290decd9548b62a8d60345a988386fc84ba6bc95484008f6362f93160ef3e5635b85831061244f5750506123fa9350820101856123ed565b80548389018501528794508693909201918101612438565b7fffffffffffffffffffffffffffffffffffffffffffffffffffffffffffffff0016858201526123fa95151560051b85010192508791506123ed9050565b7f4e487b71000000000000000000000000000000000000000000000000000000005f52602260045260245ffd5b92607f16926123c9565b346103925761250d6125065f8061061661076a61043e6124fb36614148565b95939a9299906149aa565b988a614b5e565b506001600160a01b03936040519161252483613d01565b3083528560209b168b84015260408301526fffffffffffffffffffffffffffffffff6060830152600260808301528660a083015260c08201526040519283917fb24bd571000000000000000000000000000000000000000000000000000000008b8401526024830161467f565b61043e611af35f806126286125a5366141a7565b6125b599939498929199336149aa565b996001600160a01b0395604051936125cc85613d01565b3385528760209c168c86015260408501526060840152876080840152151560a083015260c08201526040519283917f7b03c7ba000000000000000000000000000000000000000000000000000000008a8401526024830161467f565b03927f0000000000000000000000000000000000000000000000000000000000000000165af180156103875761266e915f9161268a575b508280825183010191016146dd565b5092905061111857610359604051928284938452830190613ebf565b61269e91503d805f833e6105268183613d6a565b8461265f565b346103925760a0600319360112610392576126bd613c95565b67ffffffffffffffff602435818111610392576126de903690600401613df3565b916126e7613cab565b91608435908111610392575f9361043e6108fd8694612710610882612785963690600401613e72565b966001600160a01b0394856040519361272885613d01565b30855216602084015260408301526044356060830152600460808301528660a083015260c08201526040519283917fefd85f14000000000000000000000000000000000000000000000000000000006020840152602483016144e5565b03927f0000000000000000000000000000000000000000000000000000000000000000165af191821561038757610359926127d1915f9161280e575b5060208082518301019101614562565b909391926127e6575b60405193849384613f81565b5f7f00000000000000000000000000000000000000000000000000000000000000005d6127da565b61282291503d805f833e6105268183613d6a565b846127c1565b346103925761283636613ffc565b9061284490949392946149aa565b936001600160a01b038093816040519661285d88613d1d565b3388528160209a8b8a015f905216604089015216606087015216608085015260a084015260c083015f905260e083016fffffffffffffffffffffffffffffffff905261010083015f905261012083015260405180928582017fbe5ae84100000000000000000000000000000000000000000000000000000000905260248201906128e691614732565b03601f19810183526128f89083613d6a565b6040518080937fedfa35680000000000000000000000000000000000000000000000000000000082528660048301526024820161293491613f5c565b03917f00000000000000000000000000000000000000000000000000000000000000001691815a5f948591f1908115610387575f9161298b575b50828180518101031261039257820151906104ea57604051908152f35b61299f91503d805f833e6105268183613d6a565b8361296e565b346103925760a0600319360112610392576129be613c95565b6129c6613cd7565b906129cf613cab565b60843567ffffffffffffffff8111610392576129f26129f8913690600401613e72565b916149aa565b916001600160a01b0391827f0000000000000000000000000000000000000000000000000000000000000000169280604051937fc9c1661b0000000000000000000000000000000000000000000000000000000085521695866004850152166024830152604082604481865afa918215610387575f905f93612b68575b505f9361043e612b048694612a8c612b4095614635565b906001612a9989846147c3565b5260405191612aa783613d01565b30835260209b8c84015260408301526024356060830152600160808301528660a083015260c08201526040519283917fb24bd571000000000000000000000000000000000000000000000000000000008c8401526024830161467f565b6040519586809481937fedfa35680000000000000000000000000000000000000000000000000000000083528b60048401526024830190613f5c565b03925af1918215610387576104db926104d3915f9161051257508580825183010191016146dd565b925050916040823d604011612b9f575b81612b8560409383613d6a565b81010312610392578151602090920151909290915f612a75565b3d9150612b78565b3461039257612bc3612bb836614148565b9294909391936149aa565b926001600160a01b0392837f0000000000000000000000000000000000000000000000000000000000000000169380604051947fc9c1661b0000000000000000000000000000000000000000000000000000000086521696876004860152166024840152604083604481875afa928315610387575f905f94612d05575b509361043e612b045f9694612cdd94612c598997614635565b916fffffffffffffffffffffffffffffffff612c758a856147c3565b5260405192612c8384613d01565b30845260209c8d85015260408401526060830152600260808301528660a083015260c08201526040519283917fefd85f14000000000000000000000000000000000000000000000000000000008c840152602483016144e5565b03925af1918215610387576104db92611a3a915f91611a415750858082518301019101614562565b9350506040833d604011612d3a575b81612d2160409383613d6a565b810103126103925782516020909301519261043e612c40565b3d9150612d14565b34610392575f6003193601126103925760206040516001600160a01b037f0000000000000000000000000000000000000000000000000000000000000000168152f35b60a06003193601126103925767ffffffffffffffff60043511610392573660236004350112156103925767ffffffffffffffff60043560040135116103925736602460c060043560040135026004350101116103925760243567ffffffffffffffff811161039257612dfb903690600401614068565b67ffffffffffffffff60443511610392576060600319604435360301126103925760643567ffffffffffffffff811161039257612e3c903690600401614099565b60843567ffffffffffffffff811161039257612e5c903690600401614068565b949093612e676149ec565b8060043560040135036133aa575f5b6004356004013581106130f75750505060443560040135907fffffffffffffffffffffffffffffffffffffffffffffffffffffffffffffffdd60443536030182121561039257816044350160048101359067ffffffffffffffff82116103925760248260071b360391011361039257612f1a575b610359610f7686865f7f9b779b17422d0df92223018b32b4d1fa46e071723d6817e2486d003becc55f005d614804565b6001600160a01b039492947f0000000000000000000000000000000000000000000000000000000000000000163b1561039257604051947f2a2d80d10000000000000000000000000000000000000000000000000000000086523360048701526060602487015260c486019260443501602481019367ffffffffffffffff60048301351161039257600482013560071b360385136103925760606064890152600482013590529192869260e484019291905f905b600481013582106130795750505082915f9461301c926001600160a01b03612ffa602460443501613ced565b16608486015260448035013560a4860152600319858403016044860152614adf565b0381836001600160a01b037f0000000000000000000000000000000000000000000000000000000000000000165af19182156103875761035993610f769361306a575b829450819350612eea565b61307390613d56565b8461305f565b9195945091926001600160a01b0361309087613ced565b168152602080870135916001600160a01b038316809303610392576004926001928201526130c060408901614b4b565b65ffffffffffff80911660408301526130db60608a01614b4b565b1660608201526080809101970193019050889495939291612fce565b6131056102d0828486614993565b60405180606081011067ffffffffffffffff606083011117610f1157606081016040525f81526020915f838301525f60408301528281015190606060408201519101515f1a91835283830152604082015260c07fffffffffffffffffffffffffffffffffffffffffffffffffffffffffffffffdc8185026004350136030112610392576040519061319582613d3a565b6131a8602460c086026004350101613ced565b8083526131be604460c087026004350101613ced565b9081858501526131d7606460c088026004350101613ced565b60408581019190915260043560c08802016084810135606087015260a4810135608087015260c4013560a086015283015183519386015160ff91909116926001600160a01b0383163b15610392575f6001600160a01b03809460e4948b98849860c460c06040519c8d9b8c9a7fd505accf000000000000000000000000000000000000000000000000000000008c521660048b01523060248b0152608482820260043501013560448b0152026004350101356064880152608487015260a486015260c4850152165af1908161339b575b50613391576132b4614b1c565b906001600160a01b0381511690836001600160a01b0381830151166044604051809581937fdd62ed3e00000000000000000000000000000000000000000000000000000000835260048301523060248301525afa918215610387575f92613361575b50606001510361332c5750506001905b01612e76565b8051156133395780519101fd5b7fa7285689000000000000000000000000000000000000000000000000000000005f5260045ffd5b9091508381813d831161338a575b6133798183613d6a565b810103126103925751906060613316565b503d61336f565b5050600190613326565b6133a490613d56565b8a6132a7565b7faaad13f7000000000000000000000000000000000000000000000000000000005f5260045ffd5b34610392576133e036613ffc565b906133ee90949392946149aa565b936001600160a01b038093816040519661340788613d1d565b3388528160209a8b8a016001905216604089015216606087015216608085015260a084015260c083016fffffffffffffffffffffffffffffffff905260e083017fffffffffffffffffffffffffffffffffffffffffffffffffffffffffffffffff905261010083015f905261012083015260405180928582017fbe5ae84100000000000000000000000000000000000000000000000000000000905260248201906128e691614732565b34610392575f6003193601126103925760206040516001600160a01b037f0000000000000000000000000000000000000000000000000000000000000000168152f35b3461039257613505610f9336613faa565b926001600160a01b0392837f00000000000000000000000000000000000000000000000000000000000000001693604051937fca4f280300000000000000000000000000000000000000000000000000000000855216938460048501525f84602481845afa9384156103875761109c5f95946135f894613591889761043e95899161361b575051614635565b916040519261359f84613d01565b30845260209a8b850152604084015260608301528660808301528660a083015260c08201526040519283917fb24bd571000000000000000000000000000000000000000000000000000000008a8401526024830161467f565b03925af180156103875761266e915f9161268a57508280825183010191016146dd565b61362f91503d808b833e6111938183613d6a565b8c611ee7565b5f61043e8161278561160b61364936613ef2565b9061365a98949298959395336149aa565b986001600160a01b0396876040519561367287613d01565b3387521660208601526040850152606084015260046080840152151560a083015260c08201526040519283917f5b343791000000000000000000000000000000000000000000000000000000006020840152602483016144e5565b6060600319360112610392576136e1613c95565b60443567ffffffffffffffff8111610392575f61043e61374861370b613782943690600401613df3565b6040519283916020977f82cd54fb0000000000000000000000000000000000000000000000000000000089850152602435903390602486016143e9565b604051809381927f48c894910000000000000000000000000000000000000000000000000000000083528660048401526024830190613f5c565b0381836001600160a01b037f0000000000000000000000000000000000000000000000000000000000000000165af1801561038757610ed5915f916137d1575b50828082518301019101614479565b6137e591503d805f833e6105268183613d6a565b836137c2565b34610392576137f936613e8d565b6138016149ec565b613809614a19565b60206001600160a01b0361381e838301614a77565b9261382881614a77565b9160408201946138388684614a8b565b6138486060869593950186614a8b565b908261385760c0890189614942565b949096866040519b7fba8a2be0000000000000000000000000000000000000000000000000000000008d528c60048360c4830195169101521660248c015260c060448c01525260e4890196905f5b8b828210613a1c57505050506003198887030160648901528186527f07ffffffffffffffffffffffffffffffffffffffffffffffffffffffffffffff82116103925761391b889586948b8694819a5f9760051b8092848301370160808c01356084870152601c8682030160a48701520191614adf565b03927f0000000000000000000000000000000000000000000000000000000000000000165af1918215610387575f926139ed575b50909160a0820191905f5b6139648684614a8b565b90508110156139b4576001906139ae61397c85614a77565b61399261398d846121e08c8a614a8b565b614a77565b6139a3846121e060608a018a614a8b565b3590611bfa89614b0f565b0161395a565b50836139c261181484614a77565b5f7f9b779b17422d0df92223018b32b4d1fa46e071723d6817e2486d003becc55f005d604051908152f35b9091508281813d8311613a15575b613a058183613d6a565b810103126103925751908461394f565b503d6139fb565b80849a89613a2d6001959697613ced565b1681520199019291016138a5565b60c060031936011261039257613a4f613c95565b6024359067ffffffffffffffff808311610392573660238401121561039257826004013591613a7d83613d8d565b92613a8b6040519485613d6a565b80845260209460248686019260051b82010191368311610392576024879201905b838210613c7e575050505060443582811161039257613acf903690600401613df3565b92613ad8613e11565b9260a43590811161039257613af1903690600401613e72565b93613afb336149aa565b946001600160a01b039460405192613b1284613d01565b338452868985019616865260408401948552606084019081526080840194606435865260a08501921515835260c0850193845287604051977f086fad66000000000000000000000000000000000000000000000000000000008c8a01528b60248a0152816101248a0197511660448a015251166064880152519360e0608488015284518091528961014488019501905f5b8b828210613c6857505050509461043e613c18955f989583956105da95613bf88c9b51937fffffffffffffffffffffffffffffffffffffffffffffffffffffffffffffffbc94858983030160a48a015261434a565b935160c487015251151560e4860152519084830301610104850152613f5c565b03927f0000000000000000000000000000000000000000000000000000000000000000165af1908115610387575f9161298b5750828180518101031261039257820151906104ea57604051908152f35b83518b1688529687019690920191600101613ba3565b828091613c8a84613ced565b815201910190613aac565b600435906001600160a01b038216820361039257565b606435906001600160a01b038216820361039257565b602435906001600160a01b038216820361039257565b604435906001600160a01b038216820361039257565b35906001600160a01b038216820361039257565b60e0810190811067ffffffffffffffff821117610f1157604052565b610140810190811067ffffffffffffffff821117610f1157604052565b60c0810190811067ffffffffffffffff821117610f1157604052565b67ffffffffffffffff8111610f1157604052565b90601f601f19910116810190811067ffffffffffffffff821117610f1157604052565b67ffffffffffffffff8111610f115760051b60200190565b9291613db082613d8d565b91613dbe6040519384613d6a565b829481845260208094019160051b810192831161039257905b828210613de45750505050565b81358152908301908301613dd7565b9080601f8301121561039257816020613e0e93359101613da5565b90565b60843590811515820361039257565b67ffffffffffffffff8111610f1157601f01601f191660200190565b929192613e4882613e20565b91613e566040519384613d6a565b829481845281830111610392578281602093845f960137010152565b9080601f8301121561039257816020613e0e93359101613e3c565b60031990602082820112610392576004359167ffffffffffffffff8311610392578260e0920301126103925760040190565b9081518082526020808093019301915f5b828110613ede575050505090565b835185529381019392810192600101613ed0565b9060a0600319830112610392576004356001600160a01b0381168103610392579167ffffffffffffffff906024358281116103925781613f3491600401613df3565b92604435926064358015158103610392579260843591821161039257613e0e91600401613e72565b90601f19601f602080948051918291828752018686015e5f8582860101520116010190565b613f97613e0e9492606083526060830190613ebf565b9260208201526040818403910152613f5c565b6080600319820112610392576001600160a01b03906004358281168103610392579260243592604435908116810361039257916064359067ffffffffffffffff821161039257613e0e91600401613e72565b60c0600319820112610392576001600160a01b0391600435838116810361039257926024358181168103610392579260443582811681036103925792606435926084359081168103610392579160a4359067ffffffffffffffff821161039257613e0e91600401613e72565b9181601f840112156103925782359167ffffffffffffffff8311610392576020808501948460051b01011161039257565b9181601f840112156103925782359167ffffffffffffffff8311610392576020838186019501011161039257565b6020808201906020835283518092526040830192602060408460051b8301019501935f915b8483106140fc5750505050505090565b9091929394958480614138837fffffffffffffffffffffffffffffffffffffffffffffffffffffffffffffffc086600196030187528a51613f5c565b98019301930191949392906140ec565b9060a0600319830112610392576001600160a01b03600435818116810361039257926024358281168103610392579260443592606435908116810361039257916084359067ffffffffffffffff821161039257613e0e91600401613e72565b60a0600319820112610392576004356001600160a01b038116810361039257916024359167ffffffffffffffff9160443583811161039257826141ec91600401613df3565b926064358015158103610392579260843591821161039257613e0e91600401613e72565b60031990602082820112610392576004359167ffffffffffffffff83116103925782610140920301126103925760040190565b610100600319820112610392576001600160a01b0390600435828116810361039257926024358381168103610392579260443590811681036103925791606435916084359160a4359160c4358015158103610392579160e4359067ffffffffffffffff8211610392576142b891600401614099565b9091565b916142d990613e0e94928452606060208501526060840190613ebf565b916040818403910152613f5c565b60c0600319820112610392576001600160a01b0390600435828116810361039257926024359260443590811681036103925791606435916084358015158103610392579160a4359067ffffffffffffffff821161039257613e0e91600401613e72565b9081518082526020808093019301915f5b828110614369575050505090565b83518552938101939281019260010161435b565b81601f820112156103925780519061439482613e20565b926143a26040519485613d6a565b8284526020838301011161039257815f9260208093018386015e8301015290565b9060208282031261039257815167ffffffffffffffff811161039257613e0e920161437d565b9092613e0e94936080936001600160a01b03809216845216602083015260408201528160608201520190613ebf565b9080601f830112156103925781519060209161443381613d8d565b936144416040519586613d6a565b81855260208086019260051b82010192831161039257602001905b82821061446a575050505090565b8151815290830190830161445c565b9060208282031261039257815167ffffffffffffffff811161039257613e0e9201614418565b60058210156144ab5752565b7f4e487b71000000000000000000000000000000000000000000000000000000005f52602160045260245ffd5b9060058210156144ab5752565b90613e0e91602081526001600160a01b03808351166020830152602083015116604082015260c0614526604084015160e0606085015261010084019061434a565b9260608101516080840152614543608082015160a08501906144d8565b60a081015115158284015201519060e0601f1982850301910152613f5c565b90916060828403126103925781519167ffffffffffffffff92838111610392578461458e918301614418565b93602082015193604083015190811161039257613e0e920161437d565b60209081818403126103925780519067ffffffffffffffff821161039257019180601f840112156103925782516145e181613d8d565b936145ef6040519586613d6a565b818552838086019260051b820101928311610392578301905b828210614616575050505090565b81516001600160a01b0381168103610392578152908301908301614608565b9061463f82613d8d565b61464c6040519182613d6a565b828152601f1961465c8294613d8d565b0190602036910137565b60048210156144ab5752565b9060048210156144ab5752565b90613e0e91602081526001600160a01b03808351166020830152602083015116604082015260c06146c0604084015160e0606085015261010084019061434a565b9260608101516080840152614543608082015160a0850190614672565b916060838303126103925782519260208101519267ffffffffffffffff93848111610392578161470e918401614418565b93604083015190811161039257613e0e920161437d565b9060028210156144ab5752565b610160613e0e92602083526001600160a01b0380825116602085015261476060208301516040860190614725565b80604083015116606085015280606083015116608085015260808201511660a084015260a081015160c084015260c081015160e084015260e081015161010090818501528101519061012091151582850152015191610140808201520190613f5c565b80518210156147d75760209160051b010190565b7f4e487b71000000000000000000000000000000000000000000000000000000005f52603260045260245ffd5b919061480f336149aa565b907f000000000000000000000000000000000000000000000000000000000000000093845c61491a576001906001865d61484883613d8d565b926148566040519485613d6a565b808452601f1961486582613d8d565b015f5b8181106149095750505f5b8181106148c05750505050905f6148b592945d7f0000000000000000000000000000000000000000000000000000000000000000805c916148b7575b50614d3e565b565b5f905d5f6148af565b806148ed5f806148d56102d08996888a614993565b602081519101305af46148e6614b1c565b9030615658565b6148f782886147c3565b5261490281876147c3565b5001614873565b806060602080938901015201614868565b7f3ee5aeb5000000000000000000000000000000000000000000000000000000005f5260045ffd5b9035907fffffffffffffffffffffffffffffffffffffffffffffffffffffffffffffffe181360301821215610392570180359067ffffffffffffffff82116103925760200191813603831361039257565b908210156147d7576142b89160051b810190614942565b905f917f00000000000000000000000000000000000000000000000000000000000000006001600160a01b03815c16156149e2575050565b909192505d600190565b7f9b779b17422d0df92223018b32b4d1fa46e071723d6817e2486d003becc55f00805c61491a576001905d565b6001600160a01b037f0000000000000000000000000000000000000000000000000000000000000000163303614a4b57565b7f089676d5000000000000000000000000000000000000000000000000000000005f523360045260245ffd5b356001600160a01b03811681036103925790565b9035907fffffffffffffffffffffffffffffffffffffffffffffffffffffffffffffffe181360301821215610392570180359067ffffffffffffffff821161039257602001918160051b3603831361039257565b601f8260209493601f1993818652868601375f8582860101520116010190565b91908110156147d75760051b0190565b3580151581036103925790565b3d15614b46573d90614b2d82613e20565b91614b3b6040519384613d6a565b82523d5f602084013e565b606090565b359065ffffffffffff8216820361039257565b916044929391936001600160a01b03604094859282808551998a9586947fc9c1661b0000000000000000000000000000000000000000000000000000000086521660048501521660248301527f0000000000000000000000000000000000000000000000000000000000000000165afa938415614c2e575f935f95614bf7575b5050614bf4614bed8594614635565b94856147c3565b52565b809295508194503d8311614c27575b614c108183613d6a565b810103126103925760208251920151925f80614bde565b503d614c06565b83513d5f823e3d90fd5b90613e0e91602081526001600160a01b03808351166020830152602083015116604082015260a0614c78604084015160c0606085015260e084019061434a565b9260608101516080840152614c946080820151838501906144d8565b01519060c0601f1982850301910152613f5c565b91908203918211614cb557565b7f4e487b71000000000000000000000000000000000000000000000000000000005f52601160045260245ffd5b90613e0e91602081526001600160a01b0380835116602083015260208301511660408201526040820151606082015260a0614d2c606084015160c0608085015260e084019061434a565b92614c94608082015183850190614672565b478015614d7d577f00000000000000000000000000000000000000000000000000000000000000005c614d7d576001600160a01b036148b592166155fa565b5050565b919280615154575b15614fa1575050804710614f79576001600160a01b0390817f00000000000000000000000000000000000000000000000000000000000000001691823b15610392576040908151907fd0e30db00000000000000000000000000000000000000000000000000000000082525f915f81600481888a5af18015614f6f57614f5c575b507f000000000000000000000000000000000000000000000000000000000000000016928251946020958681017fa9059cbb00000000000000000000000000000000000000000000000000000000815286602483015283604483015260448252608082019082821067ffffffffffffffff831117610f1157889286928852519082855af115614f525782513d614f495750803b155b614f1e57906044869284865197889485937f15afd409000000000000000000000000000000000000000000000000000000008552600485015260248401525af1918215614f14575050614ef0575050565b813d8311614f0d575b614f038183613d6a565b8101031261039257565b503d614ef9565b51903d90823e3d90fd5b7f5274afe7000000000000000000000000000000000000000000000000000000008352600452602482fd5b60011415614e9f565b83513d84823e3d90fd5b614f67919250613d56565b5f905f614e0a565b84513d5f823e3d90fd5b7fa01a9df6000000000000000000000000000000000000000000000000000000005f5260045ffd5b90915f9080614fb1575b50505050565b6001600160a01b0393847f000000000000000000000000000000000000000000000000000000000000000016857f0000000000000000000000000000000000000000000000000000000000000000169186841161512357813b1561039257608487915f80946040519a8b9586947f36c7851600000000000000000000000000000000000000000000000000000000865216600485015287602485015280891660448501528a1660648401525af1948515610387576150bf9561510f575b5082936020936040518097819582947f15afd40900000000000000000000000000000000000000000000000000000000845260048401602090939291936001600160a01b0360408201951681520152565b03925af190811561510357506150d8575b808080614fab565b602090813d83116150fc575b6150ee8183613d6a565b81010312610392575f6150d0565b503d6150e4565b604051903d90823e3d90fd5b6020935061511c90613d56565b5f9261506e565b837f6dfcc650000000000000000000000000000000000000000000000000000000005f5260a060045260245260445ffd5b506001600160a01b03807f00000000000000000000000000000000000000000000000000000000000000001690821614614d89565b918015615228576001600160a01b037f000000000000000000000000000000000000000000000000000000000000000016803b15610392576040517fae6393290000000000000000000000000000000000000000000000000000000081526001600160a01b03938416600482015293909216602484015260448301525f908290606490829084905af180156103875761521f5750565b6148b590613d56565b505050565b909392935f948315615442578061540d575b1561537957506001600160a01b0390817f000000000000000000000000000000000000000000000000000000000000000016803b15610392576040517fae6393290000000000000000000000000000000000000000000000000000000081525f8160648183887f000000000000000000000000000000000000000000000000000000000000000016968760048401523060248401528a60448401525af1801561038757615366575b508086913b156153625781906024604051809481937f2e1a7d4d0000000000000000000000000000000000000000000000000000000083528960048401525af180156153575761533f575b506148b5939450166155fa565b6153498691613d56565b6153535784615332565b8480fd5b6040513d88823e3d90fd5b5080fd5b615371919650613d56565b5f945f6152e7565b91909293506001600160a01b037f000000000000000000000000000000000000000000000000000000000000000016803b15610392576040517fae6393290000000000000000000000000000000000000000000000000000000081526001600160a01b03938416600482015293909216602484015260448301525f908290606490829084905af180156103875761521f5750565b506001600160a01b03807f0000000000000000000000000000000000000000000000000000000000000000169082161461523f565b505050509050565b60e08101354211611e1c576001600160a01b0360208201359160028310156103925760409261547a828501614a77565b9280606094859384860161548d90614a77565b9561549a60808201614a77565b90846154aa610120830183614942565b91908c51956154b887613d01565b8652816020870197168752818d87019b168b52818a870195168552608086019260a0850135845260a087019460c00135855236906154f592613e3c565b9360c08601948552818d519b8c9a8b998a997f2bfb780c000000000000000000000000000000000000000000000000000000008b5260048b016020905260248b0190519061554291614725565b5116604489015251166064870152511660848501525160a48401525160c48301525160e4820160e09052610104820161557a91613f5c565b03917f0000000000000000000000000000000000000000000000000000000000000000165a905f91f1908115614c2e575f935f935f936155bd575b505050909192565b92509250809350813d83116155f3575b6155d78183613d6a565b81010312610392578151602083015191909201515f80806155b5565b503d6155cd565b814710615628575f8080936001600160a01b038294165af161561a614b1c565b90156156235750565b6156b2565b50477fcf479181000000000000000000000000000000000000000000000000000000005f5260045260245260445ffd5b9061566357506156b2565b815115806156a9575b615674575090565b6001600160a01b03907f9996b315000000000000000000000000000000000000000000000000000000005f521660045260245ffd5b50803b1561566c565b8051156156c157602081519101fd5b7fd6bda275000000000000000000000000000000000000000000000000000000005f5260045ffdfea26469706673582212202b89a62408ffedacb85e88ad5e6ec6d97c9041abd87cab2ad922419c02a2aa3364736f6c634300081b0033",
  "linkReferences": {},
  "deployedLinkReferences": {}
}