{
  "_format": "hh-sol-artifact-1",
  "contractName": "Vault",
  "sourceName": "contracts/Vault.sol",
  "abi": [
    {
      "inputs": [
        {
          "internalType": "contract IVaultExtension",
          "name": "vaultExtension",
          "type": "address"
        },
        {
          "internalType": "contract IAuthorizer",
          "name": "authorizer",
          "type": "address"
        },
        {
          "internalType": "contract IProtocolFeeController",
          "name": "protocolFeeController",
          "type": "address"
        }
      ],
      "stateMutability": "nonpayable",
      "type": "constructor"
    },
    {
      "inputs": [
        {
          "internalType": "address",
          "name": "target",
          "type": "address"
        }
      ],
      "name": "AddressEmptyCode",
      "type": "error"
    },
    {
      "inputs": [],
      "name": "AfterAddLiquidityHookFailed",
      "type": "error"
    },
    {
      "inputs": [],
      "name": "AfterInitializeHookFailed",
      "type": "error"
    },
    {
      "inputs": [],
      "name": "AfterRemoveLiquidityHookFailed",
      "type": "error"
    },
    {
      "inputs": [],
      "name": "AfterSwapHookFailed",
      "type": "error"
    },
    {
      "inputs": [],
      "name": "AllZeroInputs",
      "type": "error"
    },
    {
      "inputs": [],
      "name": "AmountGivenZero",
      "type": "error"
    },
    {
      "inputs": [
        {
          "internalType": "contract IERC20",
          "name": "tokenIn",
          "type": "address"
        },
        {
          "internalType": "uint256",
          "name": "amountIn",
          "type": "uint256"
        },
        {
          "internalType": "uint256",
          "name": "maxAmountIn",
          "type": "uint256"
        }
      ],
      "name": "AmountInAboveMax",
      "type": "error"
    },
    {
      "inputs": [
        {
          "internalType": "contract IERC20",
          "name": "tokenOut",
          "type": "address"
        },
        {
          "internalType": "uint256",
          "name": "amountOut",
          "type": "uint256"
        },
        {
          "internalType": "uint256",
          "name": "minAmountOut",
          "type": "uint256"
        }
      ],
      "name": "AmountOutBelowMin",
      "type": "error"
    },
    {
      "inputs": [],
      "name": "BalanceNotSettled",
      "type": "error"
    },
    {
      "inputs": [],
      "name": "BalanceOverflow",
      "type": "error"
    },
    {
      "inputs": [],
      "name": "BeforeAddLiquidityHookFailed",
      "type": "error"
    },
    {
      "inputs": [],
      "name": "BeforeInitializeHookFailed",
      "type": "error"
    },
    {
      "inputs": [],
      "name": "BeforeRemoveLiquidityHookFailed",
      "type": "error"
    },
    {
      "inputs": [],
      "name": "BeforeSwapHookFailed",
      "type": "error"
    },
    {
      "inputs": [
        {
          "internalType": "uint256",
          "name": "amountIn",
          "type": "uint256"
        },
        {
          "internalType": "uint256",
          "name": "maxAmountIn",
          "type": "uint256"
        }
      ],
      "name": "BptAmountInAboveMax",
      "type": "error"
    },
    {
      "inputs": [
        {
          "internalType": "uint256",
          "name": "amountOut",
          "type": "uint256"
        },
        {
          "internalType": "uint256",
          "name": "minAmountOut",
          "type": "uint256"
        }
      ],
      "name": "BptAmountOutBelowMin",
      "type": "error"
    },
    {
      "inputs": [
        {
          "internalType": "contract IERC4626",
          "name": "wrappedToken",
          "type": "address"
        }
      ],
      "name": "BufferAlreadyInitialized",
      "type": "error"
    },
    {
      "inputs": [
        {
          "internalType": "contract IERC4626",
          "name": "wrappedToken",
          "type": "address"
        }
      ],
      "name": "BufferNotInitialized",
      "type": "error"
    },
    {
      "inputs": [],
      "name": "BufferSharesInvalidOwner",
      "type": "error"
    },
    {
      "inputs": [],
      "name": "BufferSharesInvalidReceiver",
      "type": "error"
    },
    {
      "inputs": [
        {
          "internalType": "uint256",
          "name": "totalSupply",
          "type": "uint256"
        }
      ],
      "name": "BufferTotalSupplyTooLow",
      "type": "error"
    },
    {
      "inputs": [],
      "name": "CannotReceiveEth",
      "type": "error"
    },
    {
      "inputs": [],
      "name": "CannotSwapSameToken",
      "type": "error"
    },
    {
      "inputs": [],
      "name": "DoesNotSupportAddLiquidityCustom",
      "type": "error"
    },
    {
      "inputs": [],
      "name": "DoesNotSupportDonation",
      "type": "error"
    },
    {
      "inputs": [],
      "name": "DoesNotSupportRemoveLiquidityCustom",
      "type": "error"
    },
    {
      "inputs": [],
      "name": "DoesNotSupportUnbalancedLiquidity",
      "type": "error"
    },
    {
      "inputs": [],
      "name": "DynamicSwapFeeHookFailed",
      "type": "error"
    },
    {
      "inputs": [
        {
          "internalType": "address",
          "name": "spender",
          "type": "address"
        },
        {
          "internalType": "uint256",
          "name": "allowance",
          "type": "uint256"
        },
        {
          "internalType": "uint256",
          "name": "needed",
          "type": "uint256"
        }
      ],
      "name": "ERC20InsufficientAllowance",
      "type": "error"
    },
    {
      "inputs": [
        {
          "internalType": "address",
          "name": "sender",
          "type": "address"
        },
        {
          "internalType": "uint256",
          "name": "balance",
          "type": "uint256"
        },
        {
          "internalType": "uint256",
          "name": "needed",
          "type": "uint256"
        }
      ],
      "name": "ERC20InsufficientBalance",
      "type": "error"
    },
    {
      "inputs": [
        {
          "internalType": "address",
          "name": "approver",
          "type": "address"
        }
      ],
      "name": "ERC20InvalidApprover",
      "type": "error"
    },
    {
      "inputs": [
        {
          "internalType": "address",
          "name": "receiver",
          "type": "address"
        }
      ],
      "name": "ERC20InvalidReceiver",
      "type": "error"
    },
    {
      "inputs": [
        {
          "internalType": "address",
          "name": "sender",
          "type": "address"
        }
      ],
      "name": "ERC20InvalidSender",
      "type": "error"
    },
    {
      "inputs": [
        {
          "internalType": "address",
          "name": "spender",
          "type": "address"
        }
      ],
      "name": "ERC20InvalidSpender",
      "type": "error"
    },
    {
      "inputs": [],
      "name": "FailedCall",
      "type": "error"
    },
    {
      "inputs": [],
      "name": "FeePrecisionTooHigh",
      "type": "error"
    },
    {
      "inputs": [
        {
          "internalType": "contract IERC20",
          "name": "tokenIn",
          "type": "address"
        },
        {
          "internalType": "uint256",
          "name": "amountIn",
          "type": "uint256"
        },
        {
          "internalType": "uint256",
          "name": "maxAmountIn",
          "type": "uint256"
        }
      ],
      "name": "HookAdjustedAmountInAboveMax",
      "type": "error"
    },
    {
      "inputs": [
        {
          "internalType": "contract IERC20",
          "name": "tokenOut",
          "type": "address"
        },
        {
          "internalType": "uint256",
          "name": "amountOut",
          "type": "uint256"
        },
        {
          "internalType": "uint256",
          "name": "minAmountOut",
          "type": "uint256"
        }
      ],
      "name": "HookAdjustedAmountOutBelowMin",
      "type": "error"
    },
    {
      "inputs": [
        {
          "internalType": "uint256",
          "name": "amount",
          "type": "uint256"
        },
        {
          "internalType": "uint256",
          "name": "limit",
          "type": "uint256"
        }
      ],
      "name": "HookAdjustedSwapLimit",
      "type": "error"
    },
    {
      "inputs": [
        {
          "internalType": "address",
          "name": "poolHooksContract",
          "type": "address"
        },
        {
          "internalType": "address",
          "name": "pool",
          "type": "address"
        },
        {
          "internalType": "address",
          "name": "poolFactory",
          "type": "address"
        }
      ],
      "name": "HookRegistrationFailed",
      "type": "error"
    },
    {
      "inputs": [],
      "name": "InputLengthMismatch",
      "type": "error"
    },
    {
      "inputs": [
        {
          "internalType": "uint256",
          "name": "balance",
          "type": "uint256"
        },
        {
          "internalType": "uint256",
          "name": "needed",
          "type": "uint256"
        }
      ],
      "name": "InsufficientBalance",
      "type": "error"
    },
    {
      "inputs": [],
      "name": "InvalidAddLiquidityKind",
      "type": "error"
    },
    {
      "inputs": [],
      "name": "InvalidRemoveLiquidityKind",
      "type": "error"
    },
    {
      "inputs": [],
      "name": "InvalidToken",
      "type": "error"
    },
    {
      "inputs": [],
      "name": "InvalidTokenConfiguration",
      "type": "error"
    },
    {
      "inputs": [],
      "name": "InvalidTokenDecimals",
      "type": "error"
    },
    {
      "inputs": [],
      "name": "InvalidTokenType",
      "type": "error"
    },
    {
      "inputs": [
        {
          "internalType": "contract IERC4626",
          "name": "wrappedToken",
          "type": "address"
        }
      ],
      "name": "InvalidUnderlyingToken",
      "type": "error"
    },
    {
      "inputs": [
        {
          "internalType": "uint256",
          "name": "invariantRatio",
          "type": "uint256"
        },
        {
          "internalType": "uint256",
          "name": "maxInvariantRatio",
          "type": "uint256"
        }
      ],
      "name": "InvariantRatioAboveMax",
      "type": "error"
    },
    {
      "inputs": [
        {
          "internalType": "uint256",
          "name": "invariantRatio",
          "type": "uint256"
        },
        {
          "internalType": "uint256",
          "name": "minInvariantRatio",
          "type": "uint256"
        }
      ],
      "name": "InvariantRatioBelowMin",
      "type": "error"
    },
    {
      "inputs": [
        {
          "internalType": "uint256",
          "name": "issuedShares",
          "type": "uint256"
        },
        {
          "internalType": "uint256",
          "name": "minIssuedShares",
          "type": "uint256"
        }
      ],
      "name": "IssuedSharesBelowMin",
      "type": "error"
    },
    {
      "inputs": [],
      "name": "MaxTokens",
      "type": "error"
    },
    {
      "inputs": [],
      "name": "MinTokens",
      "type": "error"
    },
    {
      "inputs": [],
      "name": "MultipleNonZeroInputs",
      "type": "error"
    },
    {
      "inputs": [],
      "name": "NotEnoughBufferShares",
      "type": "error"
    },
    {
      "inputs": [
        {
          "internalType": "contract IERC4626",
          "name": "wrappedToken",
          "type": "address"
        },
        {
          "internalType": "uint256",
          "name": "expectedUnderlyingAmount",
          "type": "uint256"
        },
        {
          "internalType": "uint256",
          "name": "actualUnderlyingAmount",
          "type": "uint256"
        }
      ],
      "name": "NotEnoughUnderlying",
      "type": "error"
    },
    {
      "inputs": [
        {
          "internalType": "contract IERC4626",
          "name": "wrappedToken",
          "type": "address"
        },
        {
          "internalType": "uint256",
          "name": "expectedWrappedAmount",
          "type": "uint256"
        },
        {
          "internalType": "uint256",
          "name": "actualWrappedAmount",
          "type": "uint256"
        }
      ],
      "name": "NotEnoughWrapped",
      "type": "error"
    },
    {
      "inputs": [],
      "name": "NotStaticCall",
      "type": "error"
    },
    {
      "inputs": [],
      "name": "NotVaultDelegateCall",
      "type": "error"
    },
    {
      "inputs": [],
      "name": "PauseBufferPeriodDurationTooLarge",
      "type": "error"
    },
    {
      "inputs": [],
      "name": "PercentageAboveMax",
      "type": "error"
    },
    {
      "inputs": [
        {
          "internalType": "address",
          "name": "pool",
          "type": "address"
        }
      ],
      "name": "PoolAlreadyInitialized",
      "type": "error"
    },
    {
      "inputs": [
        {
          "internalType": "address",
          "name": "pool",
          "type": "address"
        }
      ],
      "name": "PoolAlreadyRegistered",
      "type": "error"
    },
    {
      "inputs": [
        {
          "internalType": "address",
          "name": "pool",
          "type": "address"
        }
      ],
      "name": "PoolInRecoveryMode",
      "type": "error"
    },
    {
      "inputs": [
        {
          "internalType": "address",
          "name": "pool",
          "type": "address"
        }
      ],
      "name": "PoolNotInRecoveryMode",
      "type": "error"
    },
    {
      "inputs": [
        {
          "internalType": "address",
          "name": "pool",
          "type": "address"
        }
      ],
      "name": "PoolNotInitialized",
      "type": "error"
    },
    {
      "inputs": [
        {
          "internalType": "address",
          "name": "pool",
          "type": "address"
        }
      ],
      "name": "PoolNotPaused",
      "type": "error"
    },
    {
      "inputs": [
        {
          "internalType": "address",
          "name": "pool",
          "type": "address"
        }
      ],
      "name": "PoolNotRegistered",
      "type": "error"
    },
    {
      "inputs": [
        {
          "internalType": "address",
          "name": "pool",
          "type": "address"
        }
      ],
      "name": "PoolPauseWindowExpired",
      "type": "error"
    },
    {
      "inputs": [
        {
          "internalType": "address",
          "name": "pool",
          "type": "address"
        }
      ],
      "name": "PoolPaused",
      "type": "error"
    },
    {
      "inputs": [
        {
          "internalType": "uint256",
          "name": "totalSupply",
          "type": "uint256"
        }
      ],
      "name": "PoolTotalSupplyTooLow",
      "type": "error"
    },
    {
      "inputs": [],
      "name": "ProtocolFeesExceedTotalCollected",
      "type": "error"
    },
    {
      "inputs": [],
      "name": "QueriesDisabled",
      "type": "error"
    },
    {
      "inputs": [],
      "name": "QueriesDisabledPermanently",
      "type": "error"
    },
    {
      "inputs": [],
      "name": "QuoteResultSpoofed",
      "type": "error"
    },
    {
      "inputs": [],
      "name": "ReentrancyGuardReentrantCall",
      "type": "error"
    },
    {
      "inputs": [],
      "name": "RouterNotTrusted",
      "type": "error"
    },
    {
      "inputs": [
        {
          "internalType": "int256",
          "name": "value",
          "type": "int256"
        }
      ],
      "name": "SafeCastOverflowedIntToUint",
      "type": "error"
    },
    {
      "inputs": [
        {
          "internalType": "uint256",
          "name": "value",
          "type": "uint256"
        }
      ],
      "name": "SafeCastOverflowedUintToInt",
      "type": "error"
    },
    {
      "inputs": [
        {
          "internalType": "address",
          "name": "token",
          "type": "address"
        }
      ],
      "name": "SafeERC20FailedOperation",
      "type": "error"
    },
    {
      "inputs": [
        {
          "internalType": "address",
          "name": "sender",
          "type": "address"
        }
      ],
      "name": "SenderIsNotVault",
      "type": "error"
    },
    {
      "inputs": [],
      "name": "SwapFeePercentageTooHigh",
      "type": "error"
    },
    {
      "inputs": [],
      "name": "SwapFeePercentageTooLow",
      "type": "error"
    },
    {
      "inputs": [
        {
          "internalType": "uint256",
          "name": "amount",
          "type": "uint256"
        },
        {
          "internalType": "uint256",
          "name": "limit",
          "type": "uint256"
        }
      ],
      "name": "SwapLimit",
      "type": "error"
    },
    {
      "inputs": [
        {
          "internalType": "contract IERC20",
          "name": "token",
          "type": "address"
        }
      ],
      "name": "TokenAlreadyRegistered",
      "type": "error"
    },
    {
      "inputs": [
        {
          "internalType": "contract IERC20",
          "name": "token",
          "type": "address"
        }
      ],
      "name": "TokenNotRegistered",
      "type": "error"
    },
    {
      "inputs": [
        {
          "internalType": "address",
          "name": "pool",
          "type": "address"
        },
        {
          "internalType": "address",
          "name": "expectedToken",
          "type": "address"
        },
        {
          "internalType": "address",
          "name": "actualToken",
          "type": "address"
        }
      ],
      "name": "TokensMismatch",
      "type": "error"
    },
    {
      "inputs": [],
      "name": "TradeAmountTooSmall",
      "type": "error"
    },
    {
      "inputs": [],
      "name": "VaultBuffersArePaused",
      "type": "error"
    },
    {
      "inputs": [],
      "name": "VaultIsNotUnlocked",
      "type": "error"
    },
    {
      "inputs": [],
      "name": "VaultNotPaused",
      "type": "error"
    },
    {
      "inputs": [],
      "name": "VaultPauseWindowDurationTooLarge",
      "type": "error"
    },
    {
      "inputs": [],
      "name": "VaultPauseWindowExpired",
      "type": "error"
    },
    {
      "inputs": [],
      "name": "VaultPaused",
      "type": "error"
    },
    {
      "inputs": [
        {
          "internalType": "contract IERC4626",
          "name": "wrappedToken",
          "type": "address"
        }
      ],
      "name": "WrapAmountTooSmall",
      "type": "error"
    },
    {
      "inputs": [],
      "name": "WrongProtocolFeeControllerDeployment",
      "type": "error"
    },
    {
      "inputs": [
        {
          "internalType": "contract IERC4626",
          "name": "wrappedToken",
          "type": "address"
        },
        {
          "internalType": "address",
          "name": "underlyingToken",
          "type": "address"
        }
      ],
      "name": "WrongUnderlyingToken",
      "type": "error"
    },
    {
      "inputs": [],
      "name": "WrongVaultAdminDeployment",
      "type": "error"
    },
    {
      "inputs": [],
      "name": "WrongVaultExtensionDeployment",
      "type": "error"
    },
    {
      "inputs": [],
      "name": "ZeroDivision",
      "type": "error"
    },
    {
      "anonymous": false,
      "inputs": [
        {
          "indexed": true,
          "internalType": "address",
          "name": "pool",
          "type": "address"
        },
        {
          "indexed": false,
          "internalType": "uint256",
          "name": "aggregateSwapFeePercentage",
          "type": "uint256"
        }
      ],
      "name": "AggregateSwapFeePercentageChanged",
      "type": "event"
    },
    {
      "anonymous": false,
      "inputs": [
        {
          "indexed": true,
          "internalType": "address",
          "name": "pool",
          "type": "address"
        },
        {
          "indexed": false,
          "internalType": "uint256",
          "name": "aggregateYieldFeePercentage",
          "type": "uint256"
        }
      ],
      "name": "AggregateYieldFeePercentageChanged",
      "type": "event"
    },
    {
      "anonymous": false,
      "inputs": [
        {
          "indexed": true,
          "internalType": "address",
          "name": "pool",
          "type": "address"
        },
        {
          "indexed": true,
          "internalType": "address",
          "name": "owner",
          "type": "address"
        },
        {
          "indexed": true,
          "internalType": "address",
          "name": "spender",
          "type": "address"
        },
        {
          "indexed": false,
          "internalType": "uint256",
          "name": "value",
          "type": "uint256"
        }
      ],
      "name": "Approval",
      "type": "event"
    },
    {
      "anonymous": false,
      "inputs": [
        {
          "indexed": true,
          "internalType": "contract IAuthorizer",
          "name": "newAuthorizer",
          "type": "address"
        }
      ],
      "name": "AuthorizerChanged",
      "type": "event"
    },
    {
      "anonymous": false,
      "inputs": [
        {
          "indexed": true,
          "internalType": "contract IERC4626",
          "name": "wrappedToken",
          "type": "address"
        },
        {
          "indexed": true,
          "internalType": "address",
          "name": "from",
          "type": "address"
        },
        {
          "indexed": false,
          "internalType": "uint256",
          "name": "burnedShares",
          "type": "uint256"
        }
      ],
      "name": "BufferSharesBurned",
      "type": "event"
    },
    {
      "anonymous": false,
      "inputs": [
        {
          "indexed": true,
          "internalType": "contract IERC4626",
          "name": "wrappedToken",
          "type": "address"
        },
        {
          "indexed": true,
          "internalType": "address",
          "name": "to",
          "type": "address"
        },
        {
          "indexed": false,
          "internalType": "uint256",
          "name": "issuedShares",
          "type": "uint256"
        }
      ],
      "name": "BufferSharesMinted",
      "type": "event"
    },
    {
      "anonymous": false,
      "inputs": [
        {
          "indexed": true,
          "internalType": "address",
          "name": "pool",
          "type": "address"
        },
        {
          "indexed": true,
          "internalType": "address",
          "name": "liquidityProvider",
          "type": "address"
        },
        {
          "indexed": true,
          "internalType": "enum AddLiquidityKind",
          "name": "kind",
          "type": "uint8"
        },
        {
          "indexed": false,
          "internalType": "uint256",
          "name": "totalSupply",
          "type": "uint256"
        },
        {
          "indexed": false,
          "internalType": "uint256[]",
          "name": "amountsAddedRaw",
          "type": "uint256[]"
        },
        {
          "indexed": false,
          "internalType": "uint256[]",
          "name": "swapFeeAmountsRaw",
          "type": "uint256[]"
        }
      ],
      "name": "LiquidityAdded",
      "type": "event"
    },
    {
      "anonymous": false,
      "inputs": [
        {
          "indexed": true,
          "internalType": "contract IERC4626",
          "name": "wrappedToken",
          "type": "address"
        },
        {
          "indexed": false,
          "internalType": "uint256",
          "name": "amountUnderlying",
          "type": "uint256"
        },
        {
          "indexed": false,
          "internalType": "uint256",
          "name": "amountWrapped",
          "type": "uint256"
        },
        {
          "indexed": false,
          "internalType": "bytes32",
          "name": "bufferBalances",
          "type": "bytes32"
        }
      ],
      "name": "LiquidityAddedToBuffer",
      "type": "event"
    },
    {
      "anonymous": false,
      "inputs": [
        {
          "indexed": true,
          "internalType": "address",
          "name": "pool",
          "type": "address"
        },
        {
          "indexed": true,
          "internalType": "address",
          "name": "liquidityProvider",
          "type": "address"
        },
        {
          "indexed": true,
          "internalType": "enum RemoveLiquidityKind",
          "name": "kind",
          "type": "uint8"
        },
        {
          "indexed": false,
          "internalType": "uint256",
          "name": "totalSupply",
          "type": "uint256"
        },
        {
          "indexed": false,
          "internalType": "uint256[]",
          "name": "amountsRemovedRaw",
          "type": "uint256[]"
        },
        {
          "indexed": false,
          "internalType": "uint256[]",
          "name": "swapFeeAmountsRaw",
          "type": "uint256[]"
        }
      ],
      "name": "LiquidityRemoved",
      "type": "event"
    },
    {
      "anonymous": false,
      "inputs": [
        {
          "indexed": true,
          "internalType": "contract IERC4626",
          "name": "wrappedToken",
          "type": "address"
        },
        {
          "indexed": false,
          "internalType": "uint256",
          "name": "amountUnderlying",
          "type": "uint256"
        },
        {
          "indexed": false,
          "internalType": "uint256",
          "name": "amountWrapped",
          "type": "uint256"
        },
        {
          "indexed": false,
          "internalType": "bytes32",
          "name": "bufferBalances",
          "type": "bytes32"
        }
      ],
      "name": "LiquidityRemovedFromBuffer",
      "type": "event"
    },
    {
      "anonymous": false,
      "inputs": [
        {
          "indexed": true,
          "internalType": "address",
          "name": "pool",
          "type": "address"
        }
      ],
      "name": "PoolInitialized",
      "type": "event"
    },
    {
      "anonymous": false,
      "inputs": [
        {
          "indexed": true,
          "internalType": "address",
          "name": "pool",
          "type": "address"
        },
        {
          "indexed": false,
          "internalType": "bool",
          "name": "paused",
          "type": "bool"
        }
      ],
      "name": "PoolPausedStateChanged",
      "type": "event"
    },
    {
      "anonymous": false,
      "inputs": [
        {
          "indexed": true,
          "internalType": "address",
          "name": "pool",
          "type": "address"
        },
        {
          "indexed": false,
          "internalType": "bool",
          "name": "recoveryMode",
          "type": "bool"
        }
      ],
      "name": "PoolRecoveryModeStateChanged",
      "type": "event"
    },
    {
      "anonymous": false,
      "inputs": [
        {
          "indexed": true,
          "internalType": "address",
          "name": "pool",
          "type": "address"
        },
        {
          "indexed": true,
          "internalType": "address",
          "name": "factory",
          "type": "address"
        },
        {
          "components": [
            {
              "internalType": "contract IERC20",
              "name": "token",
              "type": "address"
            },
            {
              "internalType": "enum TokenType",
              "name": "tokenType",
              "type": "uint8"
            },
            {
              "internalType": "contract IRateProvider",
              "name": "rateProvider",
              "type": "address"
            },
            {
              "internalType": "bool",
              "name": "paysYieldFees",
              "type": "bool"
            }
          ],
          "indexed": false,
          "internalType": "struct TokenConfig[]",
          "name": "tokenConfig",
          "type": "tuple[]"
        },
        {
          "indexed": false,
          "internalType": "uint256",
          "name": "swapFeePercentage",
          "type": "uint256"
        },
        {
          "indexed": false,
          "internalType": "uint32",
          "name": "pauseWindowEndTime",
          "type": "uint32"
        },
        {
          "components": [
            {
              "internalType": "address",
              "name": "pauseManager",
              "type": "address"
            },
            {
              "internalType": "address",
              "name": "swapFeeManager",
              "type": "address"
            },
            {
              "internalType": "address",
              "name": "poolCreator",
              "type": "address"
            }
          ],
          "indexed": false,
          "internalType": "struct PoolRoleAccounts",
          "name": "roleAccounts",
          "type": "tuple"
        },
        {
          "components": [
            {
              "internalType": "bool",
              "name": "enableHookAdjustedAmounts",
              "type": "bool"
            },
            {
              "internalType": "bool",
              "name": "shouldCallBeforeInitialize",
              "type": "bool"
            },
            {
              "internalType": "bool",
              "name": "shouldCallAfterInitialize",
              "type": "bool"
            },
            {
              "internalType": "bool",
              "name": "shouldCallComputeDynamicSwapFee",
              "type": "bool"
            },
            {
              "internalType": "bool",
              "name": "shouldCallBeforeSwap",
              "type": "bool"
            },
            {
              "internalType": "bool",
              "name": "shouldCallAfterSwap",
              "type": "bool"
            },
            {
              "internalType": "bool",
              "name": "shouldCallBeforeAddLiquidity",
              "type": "bool"
            },
            {
              "internalType": "bool",
              "name": "shouldCallAfterAddLiquidity",
              "type": "bool"
            },
            {
              "internalType": "bool",
              "name": "shouldCallBeforeRemoveLiquidity",
              "type": "bool"
            },
            {
              "internalType": "bool",
              "name": "shouldCallAfterRemoveLiquidity",
              "type": "bool"
            },
            {
              "internalType": "address",
              "name": "hooksContract",
              "type": "address"
            }
          ],
          "indexed": false,
          "internalType": "struct HooksConfig",
          "name": "hooksConfig",
          "type": "tuple"
        },
        {
          "components": [
            {
              "internalType": "bool",
              "name": "disableUnbalancedLiquidity",
              "type": "bool"
            },
            {
              "internalType": "bool",
              "name": "enableAddLiquidityCustom",
              "type": "bool"
            },
            {
              "internalType": "bool",
              "name": "enableRemoveLiquidityCustom",
              "type": "bool"
            },
            {
              "internalType": "bool",
              "name": "enableDonation",
              "type": "bool"
            }
          ],
          "indexed": false,
          "internalType": "struct LiquidityManagement",
          "name": "liquidityManagement",
          "type": "tuple"
        }
      ],
      "name": "PoolRegistered",
      "type": "event"
    },
    {
      "anonymous": false,
      "inputs": [
        {
          "indexed": true,
          "internalType": "contract IProtocolFeeController",
          "name": "newProtocolFeeController",
          "type": "address"
        }
      ],
      "name": "ProtocolFeeControllerChanged",
      "type": "event"
    },
    {
      "anonymous": false,
      "inputs": [
        {
          "indexed": true,
          "internalType": "address",
          "name": "pool",
          "type": "address"
        },
        {
          "indexed": true,
          "internalType": "contract IERC20",
          "name": "tokenIn",
          "type": "address"
        },
        {
          "indexed": true,
          "internalType": "contract IERC20",
          "name": "tokenOut",
          "type": "address"
        },
        {
          "indexed": false,
          "internalType": "uint256",
          "name": "amountIn",
          "type": "uint256"
        },
        {
          "indexed": false,
          "internalType": "uint256",
          "name": "amountOut",
          "type": "uint256"
        },
        {
          "indexed": false,
          "internalType": "uint256",
          "name": "swapFeePercentage",
          "type": "uint256"
        },
        {
          "indexed": false,
          "internalType": "uint256",
          "name": "swapFeeAmount",
          "type": "uint256"
        }
      ],
      "name": "Swap",
      "type": "event"
    },
    {
      "anonymous": false,
      "inputs": [
        {
          "indexed": true,
          "internalType": "address",
          "name": "pool",
          "type": "address"
        },
        {
          "indexed": false,
          "internalType": "uint256",
          "name": "swapFeePercentage",
          "type": "uint256"
        }
      ],
      "name": "SwapFeePercentageChanged",
      "type": "event"
    },
    {
      "anonymous": false,
      "inputs": [
        {
          "indexed": true,
          "internalType": "address",
          "name": "pool",
          "type": "address"
        },
        {
          "indexed": true,
          "internalType": "address",
          "name": "from",
          "type": "address"
        },
        {
          "indexed": true,
          "internalType": "address",
          "name": "to",
          "type": "address"
        },
        {
          "indexed": false,
          "internalType": "uint256",
          "name": "value",
          "type": "uint256"
        }
      ],
      "name": "Transfer",
      "type": "event"
    },
    {
      "anonymous": false,
      "inputs": [
        {
          "indexed": true,
          "internalType": "contract IERC4626",
          "name": "wrappedToken",
          "type": "address"
        },
        {
          "indexed": false,
          "internalType": "uint256",
          "name": "burnedShares",
          "type": "uint256"
        },
        {
          "indexed": false,
          "internalType": "uint256",
          "name": "withdrawnUnderlying",
          "type": "uint256"
        },
        {
          "indexed": false,
          "internalType": "bytes32",
          "name": "bufferBalances",
          "type": "bytes32"
        }
      ],
      "name": "Unwrap",
      "type": "event"
    },
    {
      "anonymous": false,
      "inputs": [
        {
          "indexed": true,
          "internalType": "address",
          "name": "pool",
          "type": "address"
        },
        {
          "indexed": true,
          "internalType": "bytes32",
          "name": "eventKey",
          "type": "bytes32"
        },
        {
          "indexed": false,
          "internalType": "bytes",
          "name": "eventData",
          "type": "bytes"
        }
      ],
      "name": "VaultAuxiliary",
      "type": "event"
    },
    {
      "anonymous": false,
      "inputs": [
        {
          "indexed": false,
          "internalType": "bool",
          "name": "paused",
          "type": "bool"
        }
      ],
      "name": "VaultBuffersPausedStateChanged",
      "type": "event"
    },
    {
      "anonymous": false,
      "inputs": [
        {
          "indexed": false,
          "internalType": "bool",
          "name": "paused",
          "type": "bool"
        }
      ],
      "name": "VaultPausedStateChanged",
      "type": "event"
    },
    {
      "anonymous": false,
      "inputs": [],
      "name": "VaultQueriesDisabled",
      "type": "event"
    },
    {
      "anonymous": false,
      "inputs": [],
      "name": "VaultQueriesEnabled",
      "type": "event"
    },
    {
      "anonymous": false,
      "inputs": [
        {
          "indexed": true,
          "internalType": "contract IERC4626",
          "name": "wrappedToken",
          "type": "address"
        },
        {
          "indexed": false,
          "internalType": "uint256",
          "name": "depositedUnderlying",
          "type": "uint256"
        },
        {
          "indexed": false,
          "internalType": "uint256",
          "name": "mintedShares",
          "type": "uint256"
        },
        {
          "indexed": false,
          "internalType": "bytes32",
          "name": "bufferBalances",
          "type": "bytes32"
        }
      ],
      "name": "Wrap",
      "type": "event"
    },
    {
      "stateMutability": "payable",
      "type": "fallback"
    },
    {
      "inputs": [
        {
          "components": [
            {
              "internalType": "address",
              "name": "pool",
              "type": "address"
            },
            {
              "internalType": "address",
              "name": "to",
              "type": "address"
            },
            {
              "internalType": "uint256[]",
              "name": "maxAmountsIn",
              "type": "uint256[]"
            },
            {
              "internalType": "uint256",
              "name": "minBptAmountOut",
              "type": "uint256"
            },
            {
              "internalType": "enum AddLiquidityKind",
              "name": "kind",
              "type": "uint8"
            },
            {
              "internalType": "bytes",
              "name": "userData",
              "type": "bytes"
            }
          ],
          "internalType": "struct AddLiquidityParams",
          "name": "params",
          "type": "tuple"
        }
      ],
      "name": "addLiquidity",
      "outputs": [
        {
          "internalType": "uint256[]",
          "name": "amountsIn",
          "type": "uint256[]"
        },
        {
          "internalType": "uint256",
          "name": "bptAmountOut",
          "type": "uint256"
        },
        {
          "internalType": "bytes",
          "name": "returnData",
          "type": "bytes"
        }
      ],
      "stateMutability": "nonpayable",
      "type": "function"
    },
    {
      "inputs": [
        {
          "components": [
            {
              "internalType": "enum SwapKind",
              "name": "kind",
              "type": "uint8"
            },
            {
              "internalType": "enum WrappingDirection",
              "name": "direction",
              "type": "uint8"
            },
            {
              "internalType": "contract IERC4626",
              "name": "wrappedToken",
              "type": "address"
            },
            {
              "internalType": "uint256",
              "name": "amountGivenRaw",
              "type": "uint256"
            },
            {
              "internalType": "uint256",
              "name": "limitRaw",
              "type": "uint256"
            }
          ],
          "internalType": "struct BufferWrapOrUnwrapParams",
          "name": "params",
          "type": "tuple"
        }
      ],
      "name": "erc4626BufferWrapOrUnwrap",
      "outputs": [
        {
          "internalType": "uint256",
          "name": "amountCalculatedRaw",
          "type": "uint256"
        },
        {
          "internalType": "uint256",
          "name": "amountInRaw",
          "type": "uint256"
        },
        {
          "internalType": "uint256",
          "name": "amountOutRaw",
          "type": "uint256"
        }
      ],
      "stateMutability": "nonpayable",
      "type": "function"
    },
    {
      "inputs": [
        {
          "internalType": "address",
          "name": "pool",
          "type": "address"
        },
        {
          "internalType": "contract IERC20",
          "name": "token",
          "type": "address"
        }
      ],
      "name": "getPoolTokenCountAndIndexOfToken",
      "outputs": [
        {
          "internalType": "uint256",
          "name": "",
          "type": "uint256"
        },
        {
          "internalType": "uint256",
          "name": "",
          "type": "uint256"
        }
      ],
      "stateMutability": "view",
      "type": "function"
    },
    {
      "inputs": [],
      "name": "getVaultExtension",
      "outputs": [
        {
          "internalType": "address",
          "name": "",
          "type": "address"
        }
      ],
      "stateMutability": "view",
      "type": "function"
    },
    {
      "inputs": [],
      "name": "reentrancyGuardEntered",
      "outputs": [
        {
          "internalType": "bool",
          "name": "",
          "type": "bool"
        }
      ],
      "stateMutability": "view",
      "type": "function"
    },
    {
      "inputs": [
        {
          "components": [
            {
              "internalType": "address",
              "name": "pool",
              "type": "address"
            },
            {
              "internalType": "address",
              "name": "from",
              "type": "address"
            },
            {
              "internalType": "uint256",
              "name": "maxBptAmountIn",
              "type": "uint256"
            },
            {
              "internalType": "uint256[]",
              "name": "minAmountsOut",
              "type": "uint256[]"
            },
            {
              "internalType": "enum RemoveLiquidityKind",
              "name": "kind",
              "type": "uint8"
            },
            {
              "internalType": "bytes",
              "name": "userData",
              "type": "bytes"
            }
          ],
          "internalType": "struct RemoveLiquidityParams",
          "name": "params",
          "type": "tuple"
        }
      ],
      "name": "removeLiquidity",
      "outputs": [
        {
          "internalType": "uint256",
          "name": "bptAmountIn",
          "type": "uint256"
        },
        {
          "internalType": "uint256[]",
          "name": "amountsOut",
          "type": "uint256[]"
        },
        {
          "internalType": "bytes",
          "name": "returnData",
          "type": "bytes"
        }
      ],
      "stateMutability": "nonpayable",
      "type": "function"
    },
    {
      "inputs": [
        {
          "internalType": "contract IERC20",
          "name": "token",
          "type": "address"
        },
        {
          "internalType": "address",
          "name": "to",
          "type": "address"
        },
        {
          "internalType": "uint256",
          "name": "amount",
          "type": "uint256"
        }
      ],
      "name": "sendTo",
      "outputs": [],
      "stateMutability": "nonpayable",
      "type": "function"
    },
    {
      "inputs": [
        {
          "internalType": "contract IERC20",
          "name": "token",
          "type": "address"
        },
        {
          "internalType": "uint256",
          "name": "amountHint",
          "type": "uint256"
        }
      ],
      "name": "settle",
      "outputs": [
        {
          "internalType": "uint256",
          "name": "credit",
          "type": "uint256"
        }
      ],
      "stateMutability": "nonpayable",
      "type": "function"
    },
    {
      "inputs": [
        {
          "components": [
            {
              "internalType": "enum SwapKind",
              "name": "kind",
              "type": "uint8"
            },
            {
              "internalType": "address",
              "name": "pool",
              "type": "address"
            },
            {
              "internalType": "contract IERC20",
              "name": "tokenIn",
              "type": "address"
            },
            {
              "internalType": "contract IERC20",
              "name": "tokenOut",
              "type": "address"
            },
            {
              "internalType": "uint256",
              "name": "amountGivenRaw",
              "type": "uint256"
            },
            {
              "internalType": "uint256",
              "name": "limitRaw",
              "type": "uint256"
            },
            {
              "internalType": "bytes",
              "name": "userData",
              "type": "bytes"
            }
          ],
          "internalType": "struct VaultSwapParams",
          "name": "vaultSwapParams",
          "type": "tuple"
        }
      ],
      "name": "swap",
      "outputs": [
        {
          "internalType": "uint256",
          "name": "amountCalculated",
          "type": "uint256"
        },
        {
          "internalType": "uint256",
          "name": "amountIn",
          "type": "uint256"
        },
        {
          "internalType": "uint256",
          "name": "amountOut",
          "type": "uint256"
        }
      ],
      "stateMutability": "nonpayable",
      "type": "function"
    },
    {
      "inputs": [
        {
          "internalType": "address",
          "name": "owner",
          "type": "address"
        },
        {
          "internalType": "address",
          "name": "to",
          "type": "address"
        },
        {
          "internalType": "uint256",
          "name": "amount",
          "type": "uint256"
        }
      ],
      "name": "transfer",
      "outputs": [
        {
          "internalType": "bool",
          "name": "",
          "type": "bool"
        }
      ],
      "stateMutability": "nonpayable",
      "type": "function"
    },
    {
      "inputs": [
        {
          "internalType": "address",
          "name": "spender",
          "type": "address"
        },
        {
          "internalType": "address",
          "name": "from",
          "type": "address"
        },
        {
          "internalType": "address",
          "name": "to",
          "type": "address"
        },
        {
          "internalType": "uint256",
          "name": "amount",
          "type": "uint256"
        }
      ],
      "name": "transferFrom",
      "outputs": [
        {
          "internalType": "bool",
          "name": "",
          "type": "bool"
        }
      ],
      "stateMutability": "nonpayable",
      "type": "function"
    },
    {
      "inputs": [
        {
          "internalType": "bytes",
          "name": "data",
          "type": "bytes"
        }
      ],
      "name": "unlock",
      "outputs": [
        {
          "internalType": "bytes",
          "name": "result",
          "type": "bytes"
        }
      ],
      "stateMutability": "nonpayable",
      "type": "function"
    },
    {
      "stateMutability": "payable",
      "type": "receive"
    }
  ],
  "bytecode": "0x6101e06040908082523461036b576060816165a6803803809161002282856104d1565b83398101031261036b5780516001600160a01b0380821680830361036b5760208085015194838616860361036b5786015183811680910361036b57610086875161006b816104a2565b600a8152691a5cd55b9b1bd8dad95960b21b8482015261052f565b60c0526100b98751610097816104a2565b60118152701b9bdb96995c9bd1195b1d1850dbdd5b9d607a1b8482015261052f565b60e0526100e687516100ca816104a2565b600b81526a746f6b656e44656c74617360a81b8482015261052f565b9661010097885261011e81516100fb816104a2565b6012815271185919131a5c5d5a591a5d1e50d85b1b195960721b8582015261052f565b9661012097885261014d8251610133816104a2565b60098152681cd95cdcda5bdb925960ba1b8682015261052f565b9261014093845282519663fbfa77cf60e01b9081895260049887818b818c5afa9081156103af575f91610485575b50813091160361047757845191825286828a81865afa9182156103e8575f92610448575b503091160361043a576101c0978852600a80546001600160a01b0319169190911790558151634546891d60e11b81529380858881895afa948515610430575f95610411575b506101609485528251631060fdbd60e11b815296818882818a5afa978815610376575f986103f2575b506101a0978852835163cd51c12f60e01b81529682888381845afa9788156103e8575f986103b9575b506101809788528451630716585d60e51b815283818481855afa9081156103af57908492915f91610380575b5060805285516329cab55160e11b815292839182905afa918215610376575f92610344575b505060a05260098054610100600160a81b03191660089290921b610100600160a81b031691909117905551615fa397909690886106038939608051886152fd015260a05188613635015260c0518881816111d6015261151a015260e05188818161124a015281816146e30152614725015251876146a101525186818161132301526123c6015251858181611276015281816112ef015261239201525184505051836118b00152518261194601525181818161096f01526114840152f35b90809250813d831161036f575b61035b81836104d1565b8101031261036b57515f80610287565b5f80fd5b503d610351565b84513d5f823e3d90fd5b83819492503d83116103a8575b61039781836104d1565b8101031261036b578391515f610262565b503d61038d565b86513d5f823e3d90fd5b6103da919850833d85116103e1575b6103d281836104d1565b810190610513565b965f610236565b503d6103c8565b85513d5f823e3d90fd5b61040a919850823d84116103e1576103d281836104d1565b965f61020d565b816104299296503d87116103e1576103d281836104d1565b935f6101e4565b83513d5f823e3d90fd5b86631bbe95c760e01b5f525ffd5b610469919250873d8911610470575b61046181836104d1565b8101906104f4565b905f61019f565b503d610457565b886301ab9d9d60e41b5f525ffd5b61049c9150883d8a116104705761046181836104d1565b5f61017b565b604081019081106001600160401b038211176104bd57604052565b634e487b7160e01b5f52604160045260245ffd5b601f909101601f19168101906001600160401b038211908210176104bd57604052565b9081602091031261036b57516001600160a01b038116810361036b5790565b9081602091031261036b575163ffffffff8116810361036b5790565b6040519061053c826104a2565b600c82526105bd603a602084016b5661756c7453746f7261676560a01b81526020604051948592828401977f62616c616e6365722d6c6162732e76332e73746f726167652e000000000000008952518091603986015e830190601760f91b60398301528051928391018583015e015f8382015203601a8101845201826104d1565b5190205f1981019081116105ee576040519060208201908152602082526105e3826104a2565b9051902060ff191690565b634e487b7160e01b5f52601160045260245ffdfe60806040526004361015610018575b3661146d5761145e565b5f3560e01c806315afd409146100d757806315dacbea146100d257806321457897146100cd5780632bfb780c146100c857806343583be5146100c357806348c89491146100be5780634af29ec4146100b9578063ae639329146100b4578063b9a8effa146100af578063beabacc8146100aa578063c9c1661b146100a55763d2c725e00361000e57610aae565b6109c9565b610993565b610950565b610866565b610796565b6106fd565b610671565b610599565b6104b4565b61020f565b6100fe565b6001600160a01b038116036100ed57565b5f80fd5b35906100fc826100dc565b565b346100ed5760403660031901126100ed5760043561011b816100dc565b6024356101266114b7565b61012e611518565b6001600160a01b0382165f818152600860209081526040918290205491516370a0823160e01b8152306004820152919492829060249082905afa93841561020a576101cd946101a1925f916101db575b508061019b856001600160a01b03165f52600860205260405f2090565b55610b28565b918083116101d1575b50816101b591611550565b6101bd6114f3565b6040519081529081906020820190565b0390f35b91506101b56101aa565b6101fd915060203d602011610203575b6101f581836102cd565b810190610aec565b5f61017e565b503d6101eb565b610afb565b346100ed5760803660031901126100ed5761025d60043561022f816100dc565b60243561023b816100dc565b60443590610248826100dc565b61025760643580948333611572565b336116f2565b602060405160018152f35b634e487b7160e01b5f52604160045260245ffd5b67ffffffffffffffff811161029057604052565b610268565b60e0810190811067ffffffffffffffff82111761029057604052565b6060810190811067ffffffffffffffff82111761029057604052565b90601f8019910116810190811067ffffffffffffffff82111761029057604052565b6040519060c0820182811067ffffffffffffffff82111761029057604052565b604051906100fc82610295565b60405190610180820182811067ffffffffffffffff82111761029057604052565b67ffffffffffffffff81116102905760051b60200190565b9080601f830112156100ed57602090823561036f8161033d565b9361037d60405195866102cd565b81855260208086019260051b8201019283116100ed57602001905b8282106103a6575050505090565b81358152908301908301610398565b359060048210156100ed57565b67ffffffffffffffff811161029057601f01601f191660200190565b9291926103ea826103c2565b916103f860405193846102cd565b8294818452818301116100ed578281602093845f960137010152565b9080601f830112156100ed5781602061042f933591016103de565b90565b9081518082526020808093019301915f5b828110610451575050505090565b835185529381019392810192600101610443565b805180835260209291819084018484015e5f828201840152601f01601f1916010190565b916104a69061042f94928452606060208501526060840190610432565b916040818403910152610465565b346100ed576003196020368201126100ed5760043567ffffffffffffffff918282116100ed5760c09082360301126100ed576104ee6102ef565b6104fa826004016100f1565b8152610508602483016100f1565b60208201526044820135604082015260648201358381116100ed576105339060043691850101610355565b6060820152610544608483016103b5565b608082015260a48201359283116100ed5761056b6105759260046101cd9536920101610414565b60a0820152610b35565b60409391935193849384610489565b600211156100ed57565b35906100fc82610584565b346100ed576003196020368201126100ed5760043567ffffffffffffffff918282116100ed5760e09082360301126100ed576105d361030f565b6105df8260040161058e565b81526105ed602483016100f1565b60208201526105fe604483016100f1565b604082015261060f606483016100f1565b60608201526084820135608082015260a482013560a082015260c48201359283116100ed5761064a6106549260046101cd9536920101610414565b60c0820152610cbf565b604080519384526020840192909252908201529081906060820190565b346100ed5760a03660031901126100ed5760405160a0810181811067ffffffffffffffff821117610290576101cd91610654916040526004356106b381610584565b81526024356106c181610584565b60208201526044356106d2816100dc565b604082015260643560608201526084356080820152610f03565b90602061042f928181520190610465565b346100ed5760203660031901126100ed5767ffffffffffffffff6004358181116100ed57366023820112156100ed5780600401359182116100ed5736602483830101116100ed576101cd91602461075492016111c9565b604051918291826106ec565b359060058210156100ed57565b61078361042f9492606083526060830190610432565b9260208201526040818403910152610465565b346100ed576003196020368201126100ed5760043567ffffffffffffffff918282116100ed5760c09082360301126100ed576107d06102ef565b6107dc826004016100f1565b81526107ea602483016100f1565b602082015260448201358381116100ed5761080b9060043691850101610355565b60408201526064820135606082015261082660848301610760565b608082015260a48201359283116100ed5761084d6108579260046101cd9536920101610414565b60a08201526112ba565b6040939193519384938461076d565b346100ed5760603660031901126100ed57600435610883816100dc565b60243590610890826100dc565b6044359061089c6114b7565b6108a4611518565b6108b66108b083614655565b82614691565b6001600160a01b0381165f52600860205260405f208054938385039485116109415793905560405163a9059cbb60e01b60208201526001600160a01b03909316602484015260448084019290925290825261091c91906109176064836102cd565b615b67565b5f7f9b779b17422d0df92223018b32b4d1fa46e071723d6817e2486d003becc55f005d005b610b06565b5f9103126100ed57565b346100ed575f3660031901126100ed5760206040516001600160a01b037f0000000000000000000000000000000000000000000000000000000000000000168152f35b346100ed5760603660031901126100ed5761025d6004356109b3816100dc565b6024356109bf816100dc565b60443591336116f2565b346100ed5760403660031901126100ed576004356109e6816100dc565b602435906109f3826100dc565b6001600160a01b0380911691825f525f602052600192600160405f20541615610a9c575f93929352600360205260405f20926040519283602086549182815201955f5260205f20925f905b828210610a6f5786610a5c87610a56838c03846102cd565b82614608565b9051604080519182526020820192909252f35b90919280610a9086998483985416906001600160a01b036020921681520190565b98019493920190610a3e565b6327946f5760e21b5f5260045260245ffd5b346100ed575f3660031901126100ed5760207f9b779b17422d0df92223018b32b4d1fa46e071723d6817e2486d003becc55f005c6040519015158152f35b908160209103126100ed575190565b6040513d5f823e3d90fd5b634e487b7160e01b5f52601160045260245ffd5b5f1981019190821161094157565b9190820391821161094157565b90610b3e611518565b610b516001600160a01b03835116611874565b610b6a610b6583516001600160a01b031690565b6118a8565b610b83610b7e83516001600160a01b031690565b61199e565b90610bd7602083015151610b9e606086019182515190611e49565b805160c0850190610bb882519160a0880192835191611eb9565b92610bc8875160019060101c1690565b610c50575b50505084846122f9565b9490919586610beb835160019060111c1690565b610bf9575b50505050929190565b84975093610c4694610c3c610c2f610c1885516001600160a01b031690565b6001600160a01b03165f52600260205260405f2090565b546001600160a01b031690565b9484513390612a01565b925f808080610bf0565b610c78610cb794888a610c70610c2f610c1883516001600160a01b031690565b923390611fc8565b610cac610ca6610c8f8a516001600160a01b031690565b6001600160a01b03165f52600560205260405f2090565b88612080565b519151905191611eb9565b5f8080610bcd565b90610cc8611518565b60208201906001600160a01b03610ce181845116611874565b610cf5610b6584516001600160a01b031690565b608084015115610ed15760408401516001600160a01b031690610d31610d2560608701516001600160a01b031690565b6001600160a01b031690565b911614610ec257610d4c610b7e83516001600160a01b031690565b92610d578482612b70565b90610d63858383612c07565b8551600c1c600116610e47575b8551610d8a9190600b1c600116610e06575b868484612f42565b9791979490978397610da18451600190600d1c1690565b610dd1575b505050505051610db581610ef4565b610dbe81610ef4565b610dc9575081929190565b918093509190565b85985090610df0610c2f610c18610dfb9894516001600160a01b031690565b9484519133926133c7565b925f80808080610da6565b85516001600160a01b0316610e4060608601918251610e39610c2f836001600160a01b03165f52600260205260405f2090565b9185612e80565b9052610d82565b610e8090610e5c86516001600160a01b031690565b610e7a610c2f826001600160a01b03165f52600260205260405f2090565b91612d3e565b610e9d610e97610c8f86516001600160a01b031690565b86612080565b610ea8828683612dc5565b6040830152610d8a610ebb868484612c07565b9050610d70565b63a54b181d60e01b5f5260045ffd5b6357a456b760e01b5f5260045ffd5b634e487b7160e01b5f52602160045260245ffd5b60021115610efe57565b610ee0565b610f0b611518565b600160075460021c166111a55760408101916001600160a01b03928381511693845f52600e6020528060405f205416156111925760049450610f4b6114b7565b6020610f61610d2584516001600160a01b031690565b6040516338d52e0f60e01b815296879182905afa801561020a576080955f91611163575b5016610fa181610f9c84516001600160a01b031690565b6135f5565b81516001600160a01b031690610fbd6060860192835190613632565b60016020860151610fcd81610ef4565b610fd681610ef4565b036110f857610ffe91855191610feb83610ef4565b84516001600160a01b0316915192613a71565b7feeb740c90bf2b18c9532eb7d473137767036d893dff3e009f32718f821b2a4c0829692979397968861105c61103e610d2589516001600160a01b031690565b94604051938493846040919493926060820195825260208201520152565b0390a25b805161106b81610ef4565b61107481610ef4565b6110c75701518084106110ad57506110a061109b91849283915b516001600160a01b031690565b613632565b6110a86114f3565b929190565b63e2ea151b60e01b5f52600484905260245260445ffd5b5ffd5b01518085116110e157506110a061109b918592839161108e565b63e2ea151b60e01b5f52600485905260245260445ffd5b61111b9185519161110883610ef4565b84516001600160a01b03169151926136ab565b7f3771d13c67011e31e12031c54bb59b0bf544a80b81d280a3711e172aa8b7f47b829692979397968861115b61103e610d2589516001600160a01b031690565b0390a2611060565b611185915060203d60201161118b575b61117d81836102cd565b8101906111b4565b5f610f85565b503d611173565b846385f4129960e01b5f5260045260245ffd5b630f27df0960e01b5f5260045ffd5b908160209103126100ed575161042f816100dc565b9190916112405f806112077f000000000000000000000000000000000000000000000000000000000000000094855c1597886112b1575b36916103de565b60208151910182335af13d156112a9573d90611222826103c2565b9161123060405193846102cd565b82523d5f602084013e5b33615e89565b926112485750565b7f00000000000000000000000000000000000000000000000000000000000000005c61129a575f905d6100fc7f0000000000000000000000000000000000000000000000000000000000000000613d6e565b6320f1d86d60e01b5f5260045ffd5b60609061123a565b6001875d611200565b906112c3611518565b6112d66001600160a01b03835116611874565b6112ea610b6583516001600160a01b031690565b6113477f00000000000000000000000000000000000000000000000000000000000000005c61132084516001600160a01b031690565b907f0000000000000000000000000000000000000000000000000000000000000000613d7f565b61136061135b83516001600160a01b031690565b611c2d565b906113b460208301515161137b604086019182515190611e49565b805160c085019061139582519160a0880192835191613d98565b926113a58751600190600e1c1690565b611407575b5050508484613fa7565b94909586846113c88451600190600f1c1690565b6113d7575b5050505050929190565b6113fd95506113f3610c2f610c1885516001600160a01b031690565b9484513390614498565b5f808086816113cd565b61142e61145694888a611427610c2f610c1883516001600160a01b031690565b9233613e76565b61144b611445610c8f8a516001600160a01b031690565b886120e4565b519151905191613d98565b5f80806113aa565b637911c44b60e11b5f5260045ffd5b3461145e57365f80375f8036816001600160a01b037f0000000000000000000000000000000000000000000000000000000000000000165af43d5f803e156114b3573d5ff35b3d5ffd5b7f9b779b17422d0df92223018b32b4d1fa46e071723d6817e2486d003becc55f00805c6114e4576001905d565b633ee5aeb560e01b5f5260045ffd5b5f7f9b779b17422d0df92223018b32b4d1fa46e071723d6817e2486d003becc55f005d565b7f00000000000000000000000000000000000000000000000000000000000000005c1561154157565b63604dd39b60e11b5f5260045ffd5b9061155a90614655565b90600160ff1b8214610941576100fc915f0390614691565b92919091611581828486614752565b60018101611591575b5050505050565b8082116116d05703906001600160a01b03928381169384156116b45780831695861561169857846115f1856115db866115db866001600160a01b03165f52601060205260405f2090565b906001600160a01b03165f5260205260405f2090565b551692833b156100ed57604051630ad0fe5760e31b81526001600160a01b039283166004820152919092166024820152604481018290527fa0175360a15bca328baf7ea85c7b784d58b222a50d0ce760b10dba336d226a6191611672915f8180606481015b038183895af161167f575b506040519081529081906020820190565b0390a45f8080808061158a565b8061168c6116929261027c565b80610946565b5f611661565b634a1406b160e11b5f526001600160a01b03841660045260245ffd5b63e602df0560e01b5f526001600160a01b03821660045260245ffd5b6001600160a01b0383637dc7a0d960e11b5f521660045260245260445260645ffd5b929091926001600160a01b03908184169182156118585780861691821561183c57611732866115db836001600160a01b03165f52600f60205260405f2090565b548086116118185785900361175c876115db846001600160a01b03165f52600f60205260405f2090565b5561177c876115db836001600160a01b03165f52600f60205260405f2090565b8581540190551691827fd1398bee19313d6bf672ccb116e51f4a1a947e91c757907f51fbb5b5e56c698f604051806117b988829190602083019252565b0390a4803b156100ed576040516323de665160e01b81526001600160a01b03938416600482015293909216602484015260448301525f908290818381606481015b03925af1801561020a5761180b5750565b8061168c6100fc9261027c565b63391434e360e21b5f526001600160a01b038716600452602452604485905260645ffd5b63ec442f0560e01b5f526001600160a01b03871660045260245ffd5b634b637e8f60e11b5f526001600160a01b03851660045260245ffd5b6001600160a01b0316805f525f602052600160405f2054811c16156118965750565b634bdace1360e01b5f5260045260245ffd5b63ffffffff807f00000000000000000000000000000000000000000000000000000000000000001642111580611990575b611981576001600160a01b0382165f525f60205260405f20549060018260021c1690611903605a90565b9060288201809211610941578261193b575b505090506119205750565b63d971f59760e01b5f526001600160a01b031660045260245ffd5b61196d9250611976937f0000000000000000000000000000000000000000000000000000000000000000921c16615f55565b63ffffffff1690565b421115805f80611915565b6336a7e2cd60e21b5f5260045ffd5b506001600754811c166118d9565b6040908151916119ad83610295565b5f8352826020810191606080845281830190808252808401908082526080936080860182815260a0870183815260c088019384526119e96114b7565b6001600160a01b038a165f526005602052825f20935f602052835f2054926004602052611a25855f20946003602052865f209081549c5261479e565b8b52611a308a6147f5565b8852611a3b8a611e5f565b8752611a468a611e5f565b9052611a53898d51615bbb565b9052611a5e88611e5f565b81528a5191600199600184811c169384611c19575b5083611c07575b5f5b8d8b8210611ada575050505050505050505050505080611acb611ab3611ad2936001600160a01b03165f52600560205260405f2090565b916001600160a01b03165f52600660205260405f2090565b9083614883565b61042f6114f3565b908a8d92828c8c8c611b3c84611b2881611b1a611b158f8f61108e85611b009251611e91565b6001600160a01b03165f5260205260405f2090565b614844565b94905f5260205260405f2090565b54945183611b368383611e91565b52611e91565b50611b46816149de565b611b51858d51611e91565b52611b666001600160801b0384168587614a7d565b878d8d15611bfa5782015115159182611bdc575b5050611b8d575b50505050505b01611a7c565b82611bb092611ba782611ba08851615c17565b9451611e91565b51961c85615c3a565b9283611bc0575b8e93508c611b81565b611bd393611bcd91610b28565b91614a7d565b5f8f8282611bb7565b90915051611be981610ef4565b611bf281610ef4565b14875f611b7a565b5050505050505050611b87565b8c5190935060031c6001161592611a7a565b611c24919450615c17565b1515925f611a73565b604090815191611c3c83610295565b5f8352826020810191606080845281830190808252808401908082526080936080860182815260a0870183815260c08801938452611c786114b7565b6001600160a01b038a165f526005602052825f20935f602052835f2054926004602052611cb4855f20946003602052865f209081549c5261479e565b8b52611cbf8a6147f5565b8852611cca8a611e5f565b8752611cd58a611e5f565b9052611ce2898d51615bbb565b9052611ced88611e5f565b81528a5191600199600184811c169384611e35575b5083611e23575b5f5b8d8b8210611d42575050505050505050505050505080611acb611ab3611ad2936001600160a01b03165f52600560205260405f2090565b908a8d92828c8c8c611d6884611b2881611b1a611b158f8f61108e85611b009251611e91565b50611d72816149de565b611d7d858d51611e91565b52611d926001600160801b0384168587614aca565b878d8d15611e165782015115159182611df8575b5050611db9575b50505050505b01611d0b565b82611dcc92611ba782611ba08851615c17565b9283611ddc575b8e93508c611dad565b611def93611de991610b28565b91614aca565b5f8f8282611dd3565b90915051611e0581610ef4565b611e0e81610ef4565b14875f611da6565b5050505050505050611db3565b8c5190935060031c6001161592611d09565b611e40919450615c17565b1515925f611d02565b03611e5057565b63aaad13f760e01b5f5260045ffd5b90611e698261033d565b611e7660405191826102cd565b8281528092611e87601f199161033d565b0190602036910137565b8051821015611ea55760209160051b010190565b634e487b7160e01b5f52603260045260245ffd5b9190825191611ecc82518251908561498f565b611ed583611e5f565b935f5b848110611ee757505050505090565b80611f1c611ef760019385611e91565b51611f17611f058489611e91565b51611f108589611e91565b51926149cb565b614f70565b611f268289611e91565b5201611ed8565b60041115610efe57565b519081151582036100ed57565b908160209103126100ed5761042f90611f37565b906004821015610efe5752565b959293611f96611fba9561042f999793611fac956001600160a01b038092168b521660208a01526040890190611f58565b606087015260e0608087015260e0860190610432565b9084820360a0860152610432565b9160c0818403910152610465565b5f6001600160a01b036020959693612027611fea87516001600160a01b031690565b94608088015197611ffa89611f2d565b60a0608060408301519c0151910151916040519b8c9a8b998a976302e97e7d60e61b895260048901611f65565b0393165af190811561020a575f91612051575b501561204257565b631557c43360e11b5f5260045ffd5b612073915060203d602011612079575b61206b81836102cd565b810190611f44565b5f61203a565b503d612061565b60208082015151925f5b848110612098575050505050565b6001906120de6001600160801b0360406120be6120b885838b0151611e91565b516149de565b6120cc8560a08b0151611e91565b52835f528587525f2054168287614a7d565b0161208a565b60208082015151925f5b8481106120fc575050505050565b60019061213c6001600160801b03604061211c6120b885838b0151611e91565b61212a8560a08b0151611e91565b52835f528587525f2054168287614aca565b016120ee565b6040519061214f826102b1565b5f6040838281528260208201520152565b9080601f830112156100ed5781519060209161217b8161033d565b9361218960405195866102cd565b81855260208086019260051b8201019283116100ed57602001905b8282106121b2575050505090565b815181529083019083016121a4565b81601f820112156100ed578051906121d8826103c2565b926121e660405194856102cd565b828452602083830101116100ed57815f9260208093018386015e8301015290565b6080818303126100ed5780519260208201519167ffffffffffffffff928381116100ed5784612237918301612160565b9360408201518481116100ed5781612250918401612160565b9360608301519081116100ed5761042f92016121c1565b939061042f95936122a5936001600160a01b0361229793168752602087015260a0604087015260a0860190610432565b908482036060860152610432565b916080818403910152610465565b906001820180921161094157565b9190820180921161094157565b916122eb9061042f94928452606060208501526060840190610432565b916040818403910152610432565b926123026114b7565b60609161230d612142565b926020860190612321825151808752611e5f565b906080840196875161233281611f2d565b61233b81611f2d565b61273e57506040840151906123508751611e5f565b9561238c8360808c015161238661236e8a516001600160a01b031690565b6001600160a01b03165f52601160205260405f205490565b90614f1f565b926123fd7f00000000000000000000000000000000000000000000000000000000000000005c6123c389516001600160a01b031690565b907f0000000000000000000000000000000000000000000000000000000000000000905f5260205260405f20905f5260205260405f205c90565b6126c1575b60408701518082116126a9575061241b819a999a614f92565b60208a01985f5b8b51811015612564578c6124368288611e91565b5161244081614f92565b61244a838a611e91565b5161255257816124708460a06124678260c0612477980151611e91565b51930151611e91565b5191614fa3565b80612482838a611e91565b525b61249261108e838b51611e91565b60608b016124a1848251611e91565b51831061251f57508e83611bcd8f8f8f96612513916124fb866124f3818b60019e9d6124d0886125199f611550565b6124ec6124dd8489611e91565b5191516001600160a01b031690565b908d614fd2565b875292611e91565b5261250a856060880151611e91565b519251906122c1565b90610b28565b01612422565b9161252e846110c49451611e91565b516317bc2f2360e11b5f526001600160a01b03909216600452602452604452606490565b505061255e8188611e91565b51612484565b5093995095945095929861258a91975061258585516001600160a01b031690565b6150d4565b7ffbe5b0d79fb94f1e81c0a92bf86ae9d3a19e9d1bf6202c0d3e75120f65d5d8a56125bc84516001600160a01b031690565b926125de8660208701956125d787516001600160a01b031690565b3391611572565b6125e6615137565b61267e575b6126118661260087516001600160a01b031690565b86516001600160a01b03169061519e565b61264561236e61263961262b88516001600160a01b031690565b96516001600160a01b031690565b94519661108e88611f2d565b9261266d6001600160a01b039261265b88611f2d565b8c8460405195869516981696846122ce565b0390a46126786114f3565b93929190565b6126a48661269387516001600160a01b031690565b86516001600160a01b03169061514c565b6125eb565b6331d38e0b60e01b5f5260049190915260245260445ffd5b9894916126d48b97949995929b51614ba1565b9a5f5b865181101561272e57808b6127278f936127216127108f8390612706600199612700848a611e91565b51614f70565b611b368383611e91565b5161271b8386611e91565b51610b28565b92611e91565b52016126d7565b5091949893969a50919498612402565b94906001885161274d81611f2d565b61275681611f2d565b036127da576127658951614b29565b60408501519186928a6127d46127ca8b8a60406127856060830151614b44565b920194828652866080820151936127c4610d256127b66127af61236e88516001600160a01b031690565b9551614ba1565b95516001600160a01b031690565b94614e22565b909251909a611e91565b52612402565b600288969296516127ea81611f2d565b6127f381611f2d565b03612886576128028951614b29565b61287f8260608701906128266128188351614b44565b60408c019381855251611e91565b51612832835188611e91565b528b612845608082015193518093611e91565b5161286461285d61236e8c516001600160a01b031690565b9251614ba1565b92612879610d258c516001600160a01b031690565b94614bf8565b9690612402565b50936003875161289581611f2d565b61289e81611f2d565b03612946576128ad8851614b0d565b5f6128c5610d25610d2587516001600160a01b031690565b60408681015160808c015160a08901519251632ada38a360e21b8152998a94938593879385936128fa93923360048701612267565b03925af194851561020a575f915f965f925f9161291b575b50919692612402565b925050955061293c91503d805f833e61293481836102cd565b810190612207565b919690915f612912565b63137a9a3960e01b5f5260045ffd5b9190916040818403126100ed5761296b81611f37565b92602082015167ffffffffffffffff81116100ed5761042f9201612160565b96939461042f9896926129f3966129c46129e5966129d795610100948d6001600160a01b0380931690521660208d015260408c0190611f58565b60608a01528060808a0152880190610432565b9086820360a0880152610432565b9084820360c0860152610432565b9160e0818403910152610465565b949395929691908451612a1a906001600160a01b031690565b90608086015192612a2a84611f2d565b60808601518a60a0890151926040519b8c978897632754888d60e01b89526004890197612a569861298a565b03916001600160a01b031691815a5f948591f193841561020a575f905f95612b49575b50158015612b3d575b612b2e576001809360091c1615612aa05792935090915f835b612aa7575b5050505090565b8451811015612b2957612aba8186611e91565b516060840190612acb838351611e91565b5111612ada5750830183612a9b565b612b0582612afd81612af761108e8b9760206110c49a0151611e91565b95611e91565b519251611e91565b51633ef629c960e21b5f526001600160a01b03909216600452602452604452606490565b612aa0565b6303a6723b60e31b5f5260045ffd5b50835185511415612a82565b9050612b689194503d805f833e612b6081836102cd565b810190612955565b93905f612a79565b6040519291608084019067ffffffffffffffff82118583101761029057612bf7916040525f855260208501945f8652612bef60408201915f83528360608201965f88528299612be860208401805190612bd86001600160a01b03928360408801511690614608565b8752519060608501511690614608565b9052612dc5565b905251614ba1565b9052565b612c0482610ef4565b52565b919091606060c0604051612c1a81610295565b5f81525f60208201528260408201525f838201525f60808201525f60a08201520152805192612c4884610ef4565b6080604082015193015160c06020835193015193015193612c71612c6a61030f565b9687612bfb565b60208601526040850152606084015260808301523360a083015260c082015290565b90612c0482610ef4565b919060e08101908351612caf81610ef4565b8152602080850151602083015260408501519260e060408401528351809152602061010084019401915f5b828110612d2a575050505060c084606061042f95960151606084015260808101516080840152612d1a60a082015160a08501906001600160a01b03169052565b01519060c0818403910152610465565b835186529481019492810192600101612cda565b60209192612d755f6001600160a01b03809460405197889687958693635211fa7760e01b8552604060048601526044850190612c9d565b911660248301520393165af190811561020a575f91612da6575b5015612d9757565b63e91e17e760e01b5f5260045ffd5b612dbf915060203d6020116120795761206b81836102cd565b5f612d8f565b9190918051612dd381610ef4565b612ddc81610ef4565b612e215790612e18670de0b6b3a764000093611f106080612e1d9501519360a0612e0c60c0850151835190611e91565b51930151905190611e91565b6149cb565b0490565b61042f92612e5d612e576080611f179401519460a0612e4b602060c0870151930192835190611e91565b51940151905190611e91565b516152d7565b926149cb565b91908260409103126100ed576020612e7a83611f37565b92015190565b6040805163283a3d6b60e21b8152606060048201529490938593919284926001600160a01b039284928490612eb9906064860190612c9d565b9216602484015260448301520392165afa90811561020a575f905f92612f10575b5015612f0157670de0b5cad2bef0008111612ef25790565b6301d1b96560e61b5f5260045ffd5b6314fe5db560e21b5f5260045ffd5b9050612f34915060403d604011612f3b575b612f2c81836102cd565b810190612e63565b905f612eda565b503d612f22565b5f9491939293612f506114b7565b612f58612142565b918051612f6481610ef4565b612f6d81610ef4565b156132c7575b602091828601612f8381516152fb565b83612fbf81850198612fa2610d25610d258c516001600160a01b031690565b906040519c8d80948193633964c0c360e11b8352600483016132ef565b03925af198891561020a575f996132a8575b5088612fdc816152fb565b8351612fe781610ef4565b612ff081610ef4565b61323057506040820151905261302f60c0880151613028612e5761301987860193845190611e91565b519260a08c0151905190611e91565b908a614fa3565b9360808301519685979860a085015180881061321957505b60408501948a865161305f906001600160a01b031690565b90613069916145f6565b60600195898751613080906001600160a01b031690565b9061308a91611550565b835183516001600160a01b031687516001600160a01b03168751916130af9386614fd2565b9190818601956040019283528552855160608401928d828551906130d291611e91565b51906130dd916122c1565b90516130e891610b28565b6130f29185614a7d565b85019182518b8184519061310591611e91565b519061311091610b28565b61311a9183614a7d565b83516001600160a01b03165f908152600560205260409020918051875161314091611e91565b5191608001918251885161315391611e91565b5161315d916153a6565b87516131719085905f5260205260405f2090565b5551835161317e91611e91565b519051835161318c91611e91565b51613196916153a6565b91516131a991905f5260205260405f2090565b5551925193516060928301519151604080518b8152602081018b905290810193909352928201929092526001600160a01b039182169382169291909116907f0874b2d545cb271cdbda4e093020c452328b24af12382ed62c4d00f5c26709db90608090a4939291906100fc6114f3565b63e2ea151b60e01b5f52600488905260245260445ffd5b90508198506132576060613260930151670de0b6b3a7640000818103908210029083615372565b908186526122c1565b9661328d61327460c0890151835190611e91565b5161328560a08a0151845190611e91565b51908a615392565b93608083015196859860a08501518088116132195750613047565b6132c0919950843d8611610203576101f581836102cd565b975f612fd1565b602085016132e86132de8251606086015190614f70565b8086528251610b28565b9052612f73565b90602061042f928181520190612c9d565b6101a061042f9260208352613319602084018251612c93565b60208101516001600160a01b0316604084015260408101516001600160a01b0316606084015260608101516080840152608081015160a084015260a081015160c084015260c081015160e084015260e08101516101009081850152810151610120908185015281015161339a61014091828601906001600160a01b03169052565b810151906133b661016092838601906001600160a01b03169052565b015191610180808201520190610465565b93959091949286516133d881610ef4565b6133e181610ef4565b6135e65786604085015191845b8251946133fa86610ef4565b604097889788860151613413906001600160a01b031690565b966060870151613429906001600160a01b031690565b93608001928351815161343b91611e91565b519351906020015161344c91611e91565b51936020880151613463906001600160a01b031690565b9760c001519861347161031c565b9a61347c908c612bfb565b6001600160a01b031660208b01526001600160a01b0316898b01526060890152608088015260a087015260c086015260e085015261010084018890526001600160a01b03166101208401526001600160a01b031661014083015261016082015281516318b6eb5560e01b8152968791829081906134fc9060048301613300565b03916001600160a01b03165a905f91f194851561020a575f915f966135c2575b5050156135b35760091c600116156135ad5750805161353a81610ef4565b61354381610ef4565b15806135a0575b8015613575575b613559575090565b60a0015163cc0e4a9960e01b5f5260049190915260245260445ffd5b506001815161358381610ef4565b61358c81610ef4565b148015613551575060a08101518211613551565b5060a0810151821061354a565b91505090565b630568a77b60e21b5f5260045ffd5b6135dd93965080919250903d10612f3b57612f2c81836102cd565b93905f8061351c565b866040850151918492946133ee565b6001600160a01b0380911690815f52600e6020528060405f205416921680920361361d575050565b6336b18d0960e01b5f5260045260245260445ffd5b907f00000000000000000000000000000000000000000000000000000000000000001161365c5750565b6001600160a01b03906318fe738560e01b5f521660045260245ffd5b81810392915f13801582851316918412161761094157565b9190915f838201938412911290801582169115161761094157565b9390916136b785610ef4565b841580156139fa576136ec60206136cd87610b1a565b6040518093819263ef8b30f760e01b8352600483019190602083019252565b03816001600160a01b0387165afa801561020a57613711915f916139db575b50610b1a565b94955b61372f836001600160a01b03165f52600b60205260405f2090565b5491613739615137565b6139d357869288929091608083901c918583106137ae57505050926137a882613785866137806001600160a01b03966001600160801b03896100fc9b60801c0393166122c1565b6153a6565b97886137a2856001600160a01b03165f52600b60205260405f2090565b556145f6565b16611550565b909293506137bd919450610ef4565b156138b6576137e56137e06137d285846155b9565b6137db8a614655565b613690565b615489565b926001600160a01b038116936137fc81868961557f565b604051636e553f6560e01b81526004810182905230602482015294602090869060449082905f905af1801561020a576137858995613891876138866001600160a01b038f96888f896100fc9f859e6138808f6137a89f6138869661388b996001600160801b03965f91613897575b509a8b935b169061387b82826154a5565b61562c565b166122c1565b610b28565b946122c1565b906153a6565b6138b0915060203d602011610203576101f581836102cd565b5f61386a565b90916138d66137e06138c883856153e8565b6138d189614655565b613678565b60405163b3d7f6b960e01b8152600481018290526001600160a01b038316936020939290918481602481895afa801561020a5761391c915f916139b6575b50868a61557f565b6040516394bf804d60e01b815260048101829052306024820152948490869060449082905f905af191821561020a576100fc966138918b613886858f966001600160a01b038f896001600160801b03879f9a849f8f966137a89f97613886966137859f9961388b9a613880955f92613999575b505098899261386f565b6139af9250803d10610203576101f581836102cd565b5f8061398f565b6139cd9150863d8811610203576101f581836102cd565b5f613914565b509093505050565b6139f4915060203d602011610203576101f581836102cd565b5f61370b565b613a276020613a08876122b3565b6040518093819263b3d7f6b960e01b8352600483019190602083019252565b03816001600160a01b0387165afa801561020a57613a4c915f91613a52575b506122b3565b95613714565b613a6b915060203d602011610203576101f581836102cd565b5f613a46565b9390613a7c85610ef4565b8415948515613d1757613ab26020613a9387610b1a565b6040518093819263266d6a8360e11b8352600483019190602083019252565b03816001600160a01b0389165afa801561020a57613ad6915f916139db5750610b1a565b94955b613af4856001600160a01b03165f52600b60205260405f2090565b5491613afe615137565b6139d35787938793909290916001600160801b039182841691868310613b7557505050936001600160a01b03613b4b83866100fc98613b4386613b709860801c6122c1565b9216036153a6565b9788613b68826001600160a01b03165f52600b60205260405f2090565b555b166145f6565b611550565b919650929450613b859150610ef4565b15613c6a57613b9a6137e06137d287856153e8565b604051635d043b2960e11b8152600481018290523060248201819052604482015293906020856064815f6001600160a01b038c165af1801561020a57613c288995613891846138868e613c1f8b8f6001600160a01b036100fc9f9c613c1a8f9d613b709f94889f859f613886975f91613c4b575b509586925b1690615671565b6122c1565b9460801c6122c1565b9788613c45826001600160a01b03165f52600b60205260405f2090565b55613b6a565b613c64915060203d602011610203576101f581836102cd565b5f613c0e565b613c7a6137e06138c887856155b9565b604051632d182be560e21b81526004810182905230602482018190526044820152906020826064815f6001600160a01b038c165af191821561020a57613c2889956138916001600160a01b036138868e613c1f8b8f8a6100fc9f613c1a8f93613b709f9e889f958b9f96613886975f91613cf8575b509b8c93613c13565b613d11915060203d602011610203576101f581836102cd565b5f613cef565b613d446020613d25876122b3565b60405180938192630a28a47760e01b8352600483019190602083019252565b03816001600160a01b0389165afa801561020a57613d68915f91613a5257506122b3565b95613ad9565b805c9060018201809211610941575d565b905f5260205260405f20905f52602052600160405f205d565b9190825191613dab82518251908561498f565b613db483611e5f565b935f5b848110613dc657505050505090565b80670de0b6b3a7640000613df8613ddf60019486611e91565b51612e18613ded858a611e91565b51611f10868a611e91565b04613e038289611e91565b5201613db7565b60051115610efe57565b906005821015610efe5752565b959193613e5261042f989694613e6393611fba976001600160a01b038092168b521660208a01526040890190613e14565b60e0606088015260e0870190610432565b91608086015284820360a0860152610432565b925f6001600160a01b03602095969396613ed7613e9a87516001600160a01b031690565b94608088015197613eaa89613e0a565b60a060806060830151930151910151916040519b8c9a8b998a976345421ec760e01b895260048901613e21565b0393165af190811561020a575f91613f01575b5015613ef257565b6305975b2960e11b5f5260045ffd5b613f1a915060203d6020116120795761206b81836102cd565b5f613eea565b916080838303126100ed5782519067ffffffffffffffff918281116100ed5783613f4b918601612160565b9360208101519360408201518481116100ed5781612250918401612160565b93613f946122a5936001600160a01b0361042f98969416875260a0602088015260a0870190610432565b9160408601528482036060860152610432565b9190613fb16114b7565b6060613fbb612142565b9160208501613fce815151808652611e5f565b60808301958651613fde81613e0a565b613fe781613e0a565b61422657506060830151613ffb8651611e5f565b9461401f8260808b015161401961236e89516001600160a01b031690565b90615a04565b995b606086015180841061420f575061403a83999899614f92565b60208901975f5b8c8b5182101561414e578161405591611e91565b5161405f81614f92565b6140698288611e91565b5161413d5761408e908d6140878460a06124678260c0860151611e91565b5191615392565b806140998389611e91565b525b6140a961108e838a51611e91565b60408a016140b8848251611e91565b51831161410a57508d83611bcd8e6140fc8f968f976140e7866124f3818b60019e9d6124d0886141049f6145f6565b526140f6856060880151611e91565b516122c1565b905190610b28565b01614041565b91614119846110c49451611e91565b516323b6a17960e21b5f526001600160a01b03909216600452602452604452606490565b506141488187611e91565b5161409b565b505093969450965096509661416e9061258585516001600160a01b031690565b7fa26a52d8d53702bba7f137907b8e1f99ff87f6d450144270ca25e72481cca8716141a084516001600160a01b031690565b926141c18960208701956141bb87516001600160a01b031690565b90615a4b565b6141e761236e6141db61262b88516001600160a01b031690565b94519661108e88613e0a565b9261266d6001600160a01b03926141fd88613e0a565b888460405195869516981696846122ce565b638d261d5d60e01b5f52600484905260245260445ffd5b6003875161423381613e0a565b61423c81613e0a565b0361425e5761424b88516159e8565b6142558151611e5f565b945f9199614021565b976001875161426c81613e0a565b61427581613e0a565b036142dd576142848851614b29565b6142d58961429684604088015161579d565b60808a0151906142b061236e88516001600160a01b031690565b6142ba8c51614ba1565b916142cf610d258a516001600160a01b031690565b936157b8565b959091614021565b9793600287516142ec81613e0a565b6142f581613e0a565b03614361579787986143078951614b29565b60608501519161431687614b44565b61435b61435160408b0192808452898b9f8860808201519361434b610d256127b66127af61236e88516001600160a01b031690565b946156d2565b9092519099611e91565b52614021565b506004865161436f81613e0a565b61437881613e0a565b036144205761438787516156b6565b5f61439f610d25610d2586516001600160a01b031690565b60608501519060808a0151918360a0880151986143d36040519a8b968795869463e4c4366360e01b86523360048701613f6a565b03925af193841561020a575f905f955f915f916143f5575b5090959199614021565b925050506144169194503d805f833e61440e81836102cd565b810190613f20565b919592915f6143eb565b636c02b39560e01b5f5260045ffd5b969261042f98969461448593614469614477936129f39995610100938d6001600160a01b0380931690521660208d015260408c0190613e14565b8060608b0152890190610432565b908782036080890152610432565b9160a086015284820360c0860152610432565b9493919592969084516144b1906001600160a01b031690565b6080860151916144c083613e0a565b608086015160a0880151906040968c6040519c8d9788976325da41f360e21b895260048901976144ef9861442f565b03916001600160a01b031691815a5f948591f194851561020a575f905f966145d7575b501580156145cb575b6145bc576001809460091c161561453b57909192809495505f905b614543575b505050505090565b85518110156145b7576145568187611e91565b5182850190614566838351611e91565b51106145755750840184614536565b869061459383612afd81612af761108e6110c49860208c0151611e91565b5163677d1d7d60e11b5f526001600160a01b03909216600452602452604452606490565b61453b565b63e124916560e01b5f5260045ffd5b5084518651141561451b565b90506145ee9195503d805f833e612b6081836102cd565b94905f614512565b6146026100fc92614655565b90614691565b905f5b8251811015614639576001600160a01b03806146278386611e91565b5116908316146135ad5760010161460b565b6001600160a01b038263ddef98d760e01b5f521660045260245ffd5b7f7fffffffffffffffffffffffffffffffffffffffffffffffffffffffffffffff811161467f5790565b63123baf0360e11b5f5260045260245ffd5b811561474e576001600160a01b037f00000000000000000000000000000000000000000000000000000000000000009116805f52816020526146d860405f205c9384613690565b928361471c57505f197f0000000000000000000000000000000000000000000000000000000000000000805c918201918211610941575d5b5f5260205260405f205d565b614710576147497f0000000000000000000000000000000000000000000000000000000000000000613d6e565b614710565b5050565b6001600160a01b0392918381168484160361477057505050505f1990565b61479a936115db92165f52601060205260405f20906001600160a01b03165f5260205260405f2090565b5490565b90604051918281549182825260209260208301915f5260205f20935f905b8282106147d2575050506100fc925003836102cd565b85546001600160a01b0316845260019586019588955093810193909101906147bc565b906147ff8261033d565b61480c60405191826102cd565b828152809261481d601f199161033d565b01905f5b82811061482d57505050565b602090614838612142565b82828501015201614821565b90604051614851816102b1565b604060ff82945481811661486481610ef4565b84526001600160a01b038160081c16602085015260a81c161515910152565b60608101805151935f5b85811061489c57505050505050565b806148b061108e6001936020880151611e91565b6148d26148c58389905f5260205260405f2090565b546001600160801b031690565b6148dd838751611e91565b518111614924575b505061490b6148f5828651611e91565b51614904836080890151611e91565b51906153a6565b61491d8288905f5260205260405f2090565b550161488d565b61496f6149879161496961496061494c868a906001600160a01b03165f5260205260405f2090565b5492614959888c51611e91565b5190610b28565b8260801c6122c1565b90615c8d565b9185906001600160a01b03165f5260205260405f2090565b555f806148e5565b811480159291906149a3575b5050611e5057565b141590505f8061499b565b90670de0b6b3a76400009182810292818404149015171561094157565b8181029291811591840414171561094157565b80516149e981610ef4565b6149f281610ef4565b80614a05575050670de0b6b3a764000090565b80614a11600192610ef4565b03614a6e576020614a30610d258260049401516001600160a01b031690565b6040516333cd77e760e11b815292839182905afa90811561020a575f91614a55575090565b61042f915060203d602011610203576101f581836102cd565b636fa2831960e11b5f5260045ffd5b91906080670de0b6b3a7640000614ac1612c049480614aa08660608a0151611e91565b52612e18614ab28660c08a0151611e91565b51611f108760a08b0151611e91565b04930151611e91565b91906080614b05612c049380614ae4856060890151611e91565b52611f17614af68560c0890151611e91565b51611f108660a08a0151611e91565b930151611e91565b60061c60011615614b1a57565b63033c2a5760e61b5f5260045ffd5b60041c600116614b3557565b63353d5de760e21b5f5260045ffd5b80519081905f5b828110614b6d575050811015614b5e5790565b631f91af7760e21b5f5260045ffd5b614b778183611e91565b51614b85575b600101614b4b565b928203614b925782614b7d565b636b8c3be560e01b5f5260045ffd5b62ffffff9060121c1664174876e800908181029181830414901517156109415790565b91906020614bdb5f92604086526040860190610432565b930152565b91906020614bdb600192604086526040860190610432565b9094929192815194614c0986611e5f565b945f5b878110614dd95750614c229061271b8988611e91565b614c2c8887611e91565b5260405194631309bd3d60e31b9283875260208780614c4e8860048301614bc4565b03816001600160a01b0385165afa96871561020a575f97614db8575b506040519484865260208680614c838660048301614bc4565b03816001600160a01b0386165afa93841561020a57613886614ce58c614959614cde614cfb96614cd78f614cc7614d319f9160209e88935f91614d99575b50615332565b92614cd2848d615ca0565b611e91565b5190614f70565b9188611e91565b91670de0b6b3a764000081810391100282615332565b93614d0a8561271b8c86611e91565b614d148b85611e91565b526001600160a01b03604051809781958294835260048301614be0565b0392165afa90811561020a57614d6d95614d67935f93614d70575b50614d59614d6091611e5f565b9788611e91565b5283610b28565b90615372565b91565b614d60919350614d91614d599160203d602011610203576101f581836102cd565b939150614d4c565b6020614db292503d602011610203576101f581836102cd565b5f614cc1565b614dd291975060203d602011610203576101f581836102cd565b955f614c6a565b80614def614de960019388611e91565b51610b1a565b614df9828a611e91565b5201614c0c565b614e1860409295949395606083526060830190610432565b9460208201520152565b909491830391838311610941576020614e6e6001600160a01b0392614e478787615332565b614e518183615ca0565b60405194858094819362b5059f60e51b83528d8a60048501614e00565b0392165afa801561020a57614d6d95611f1788614eb993614ec298614ec9965f92614ecf575b50614ea78261271b61388694958b611e91565b98614eb28d8a611e91565b5190615372565b93849251611e5f565b9586611e91565b52610b28565b613886925061271b93614ef3614ea79260203d602011610203576101f581836102cd565b93509350614e94565b634e487b7160e01b5f52601260045260245ffd5b8115614f1a570490565b614efc565b909291614f2c8251611e5f565b915f5b8151811015614f6957614f4c83614f468385611e91565b516149cb565b908615614f1a578660019204614f628287611e91565b5201614f2f565b5050509150565b90614f7a916149cb565b6001670de0b6b3a76400005f19830104019015150290565b80614f9a5750565b6100fc906152fb565b91614fad916149cb565b90670de0b6b3a764000090818102918183041490151715610941578115614f1a570490565b91949290945f955f9581614fe7575050505050565b8497506124706150008260c061500c9697980151611e91565b519160a08a0151611e91565b945160018160031c1615615022575b808061158a565b62ffffff91929450602a1c1664174876e8009081810291818304149015171561094157615058670de0b6b3a764000091866149cb565b04928484116150c557806115db6150a461508a6150bc946115db876001600160a01b03165f52600660205260405f2090565b5461509e886001600160801b0383166122c1565b90615d25565b936001600160a01b03165f52600660205260405f2090565b555f808061501b565b634c69ac5d60e01b5f5260045ffd5b6001600160a01b0390929192165f52602060056020526040805f205f5b6060860151805182101561512e579061511e61510f82600194611e91565b516149048360808b0151611e91565b815f52838652845f2055016150f1565b50505050509050565b3215806151415790565b506001600754161590565b903261518f576001600160a01b0361518092165f52600f60205260405f20906001600160a01b03165f5260205260405f2090565b80549182018092116109415755565b6333fc255960e11b5f5260045ffd5b90916001600160a01b03808416928315611858576151d1856115db836001600160a01b03165f52600f60205260405f2090565b548084116152b3578390036151fb866115db846001600160a01b03165f52600f60205260405f2090565b556152218361521b836001600160a01b03165f52601160205260405f2090565b54610b28565b61522a81615d33565b615245826001600160a01b03165f52601160205260405f2090565b551690813b156100ed576040516323de665160e01b81526001600160a01b0390941660048501525f6024850181905260448501829052937fd1398bee19313d6bf672ccb116e51f4a1a947e91c757907f51fbb5b5e56c698f916152ae9186818060648101611656565b0390a4565b63391434e360e21b5f526001600160a01b038616600452602452604483905260645ffd5b670de0b6b3a76400008082040281036152ed5790565b600181018091116109415790565b7f00000000000000000000000000000000000000000000000000000000000000001161532357565b6303da9a2360e31b5f5260045ffd5b90801561536357670de0b6b3a764000091828102928184041490151715610941576001905f19830104019015150290565b630a0c22c760e01b5f5260045ffd5b821561536357600191615384916149cb565b915f19830104019015150290565b9061042f926153a0916149cb565b90615332565b906001600160801b038083119081156153de575b506153cf5760801b9081018091116109415790565b6389560ca160e01b5f5260045ffd5b905081115f6153ba565b906153f58260801c614655565b906001600160801b035f931680615419575b505060029161541591613678565b0590565b6001600160a01b0393509060246020926040519586938492630a28a47760e01b84526004840152165afa90811561020a57615461615415926002945f9161546a575b50614655565b92819250615407565b615483915060203d602011610203576101f581836102cd565b5f61545b565b5f81126154935790565b635467221960e11b5f5260045260245ffd5b604051906020820163095ea7b360e01b9384825260205f856154e0846024830160205f919392936001600160a01b0360408201951681520152565b03936154f4601f19958681018952886102cd565b86519082875af15f513d8261555a575b505015615512575050505050565b60405160208101959095526001600160a01b031660248501525f604485015260649081018452615550936109179161554a90826102cd565b82615b67565b5f8080808061158a565b90915061557757506001600160a01b0383163b15155b5f80615504565b600114615570565b60405163095ea7b360e01b60208083018281526001600160a01b0386166024850152604484019690965290949193905f85606481016154e0565b906155cc6001600160801b038316614655565b905f9260801c806155e557505060029161541591613678565b6001600160a01b039350906024602092604051958693849263b3d7f6b960e01b84526004840152165afa90811561020a57615461615415926002945f9161546a5750614655565b9291906001600160a01b038085165f52600860205260405f20549283039283116109415781165f52600860205260405f2054928301809311610941576100fc93615d52565b9291906001600160a01b038085165f52600860205260405f20549283018093116109415781165f52600860205260405f2054928303928311610941576100fc93615d52565b60051c600116156156c357565b63121db02f60e21b5f5260045ffd5b90949160206157016156ec866001600160a01b03946122c1565b946156f78787615332565b614e518183615ee3565b0392165afa801561020a57614d6d95613886614ce585614eb994614ec2998c998a615760995f94615766575b509061575461574d61574661575b946125139798611e91565b5187610b28565b9c8c611e91565b51906149cb565b614f10565b526122c1565b612513945061574d61574661575b94936157916157549460203d602011610203576101f581836102cd565b9750939450505061572d565b9060208083516157ae845182611e49565b60051b930191015e565b9291909383516157c781611e5f565b916157d182611e5f565b965f5b8381106159ad5750506001600160a01b0381169160405195631309bd3d60e31b9283885260209889898061580b8460048301614bc4565b0381895afa98891561020a575f9961598e575b506040518581528a81806158358b60048301614be0565b03818a5afa90811561020a578a61575b61587093615869938f5f92615971575b9b999d9c9a989796959493929190506149ae565b8093615ee3565b5f5b8981106158df57505050506158969550604051809681948293835260048301614be0565b03915afa91821561020a578361575b936158bc92614d6d975f926158c2575b5050610b28565b906149cb565b6158d89250803d10610203576101f581836102cd565b5f806158b5565b869899959750838d8394959698836159036158fc82600198611e91565b5189615d12565b8061590e8385611e91565b511161592a575b505050505001908a9694989795939291615872565b818361594b61595c97615955946159448561495999611e91565b5103614f70565b611b368388611e91565b5192611e91565b615966828b611e91565b52848d8a835f615915565b6159879250803d10610203576101f581836102cd565b5f8f615855565b6159a69199508a3d8c11610203576101f581836102cd565b975f61581e565b806159d76159d26159c06001948c611e91565b516159cb8487611e91565b51906122c1565b610b1a565b6159e18288611e91565b52016157d4565b60071c600116156159f557565b63efe0265d60e01b5f5260045ffd5b9291615a108451611e5f565b935f5b8151811015615a455780615a348585615a2e60019587611e91565b51615372565b615a3e8289611e91565b5201615a13565b50505050565b916001600160a01b03808316938415615b4b57615a8383615a7d836001600160a01b03165f52601160205260405f2090565b546122c1565b615aa2856115db846001600160a01b03165f52600f60205260405f2090565b848154019055615ab181615d33565b615acc826001600160a01b03165f52601160205260405f2090565b5516925f847fd1398bee19313d6bf672ccb116e51f4a1a947e91c757907f51fbb5b5e56c698f60405180615b0587829190602083019252565b0390a4823b156100ed576040516323de665160e01b81525f600482018190526001600160a01b0390931660248201526044810191909152918290818381606481016117fa565b63ec442f0560e01b5f526001600160a01b03841660045260245ffd5b905f602091828151910182855af115610afb575f513d615bb257506001600160a01b0381163b155b615b965750565b6001600160a01b0390635274afe760e01b5f521660045260245ffd5b60011415615b8f565b9064ffffffffff615bcb82611e5f565b92605a1c165f5b828110615bdf5750505090565b60058082029082820414821517156109415782601f911c1690604d821161094157600191600a0a615c108287611e91565b5201615bd2565b62ffffff9060421c1664174876e800908181029181830414901517156109415790565b9093925f94615c4d846080850151611e91565b51818111615c5c575050505050565b615c8295965091615c71916124709303614f70565b9260a06124678260c0860151611e91565b905f8080808061158a565b906001600160801b0361042f92166153a6565b9060206001600160a01b0392600460405180958193635b3bfd2b60e11b8352165afa91821561020a575f92615cf1575b50818110615cdc575050565b63718e4adf60e11b5f5260045260245260445ffd5b615d0b91925060203d602011610203576101f581836102cd565b905f615cd0565b670de0b6b3a764000091612e1d916149cb565b9061042f9160801c906153a6565b620f42408110615d405750565b6334e3483f60e21b5f5260045260245ffd5b6040516370a0823160e01b808252306004830152602095939490926001600160a01b03929187836024818786165afa92831561020a575f93615e6a575b50808310615e435750615db3906001600160a01b03165f52600860205260405f2090565b556040519182523060048301528316908481602481855afa94851561020a575f95615e24575b5050818410615e02575050615dff906001600160a01b03165f52600860205260405f2090565b55565b631149424d60e01b5f526001600160a01b03166004526024525060445260645ffd5b615e3b929550803d10610203576101f581836102cd565b925f80615dd9565b631c6a537560e01b5f9081529387166001600160a01b031660045260245250604452606490fd5b615e82919350883d8a11610203576101f581836102cd565b915f615d8f565b90615ead5750805115615e9e57602081519101fd5b63d6bda27560e01b5f5260045ffd5b81511580615eda575b615ebe575090565b6001600160a01b0390639996b31560e01b5f521660045260245ffd5b50803b15615eb6565b9060206001600160a01b039260046040518095819363273c1adf60e01b8352165afa91821561020a575f92615f34575b50818111615f1f575050565b630fa2583760e21b5f5260045260245260445ffd5b615f4e91925060203d602011610203576101f581836102cd565b905f615f13565b91909163ffffffff808094169116019182116109415756fea264697066735822122022179b3badebe3ddef2abc4f001a4e0195f969537fe4e570fc113e1e1261851a64736f6c634300081a0033",
  "linkReferences": {},
  "deployedLinkReferences": {}
}