{
  "_format": "hh-sol-artifact-1",
  "contractName": "VaultAdmin",
  "sourceName": "contracts/VaultAdmin.sol",
  "abi": [
    {
      "inputs": [
        {
          "internalType": "contract IVault",
          "name": "mainVault",
          "type": "address"
        },
        {
          "internalType": "uint32",
          "name": "pauseWindowDuration",
          "type": "uint32"
        },
        {
          "internalType": "uint32",
          "name": "bufferPeriodDuration",
          "type": "uint32"
        },
        {
          "internalType": "uint256",
          "name": "minTradeAmount",
          "type": "uint256"
        },
        {
          "internalType": "uint256",
          "name": "minWrapAmount",
          "type": "uint256"
        }
      ],
      "stateMutability": "nonpayable",
      "type": "constructor"
    },
    {
      "inputs": [],
      "name": "AfterAddLiquidityHookFailed",
      "type": "error"
    },
    {
      "inputs": [],
      "name": "AfterInitializeHookFailed",
      "type": "error"
    },
    {
      "inputs": [],
      "name": "AfterRemoveLiquidityHookFailed",
      "type": "error"
    },
    {
      "inputs": [],
      "name": "AfterSwapHookFailed",
      "type": "error"
    },
    {
      "inputs": [],
      "name": "AmountGivenZero",
      "type": "error"
    },
    {
      "inputs": [
        {
          "internalType": "contract IERC20",
          "name": "tokenIn",
          "type": "address"
        },
        {
          "internalType": "uint256",
          "name": "amountIn",
          "type": "uint256"
        },
        {
          "internalType": "uint256",
          "name": "maxAmountIn",
          "type": "uint256"
        }
      ],
      "name": "AmountInAboveMax",
      "type": "error"
    },
    {
      "inputs": [
        {
          "internalType": "contract IERC20",
          "name": "tokenOut",
          "type": "address"
        },
        {
          "internalType": "uint256",
          "name": "amountOut",
          "type": "uint256"
        },
        {
          "internalType": "uint256",
          "name": "minAmountOut",
          "type": "uint256"
        }
      ],
      "name": "AmountOutBelowMin",
      "type": "error"
    },
    {
      "inputs": [
        {
          "internalType": "int256",
          "name": "respCode",
          "type": "int256"
        }
      ],
      "name": "AssociateFail",
      "type": "error"
    },
    {
      "inputs": [],
      "name": "BalanceNotSettled",
      "type": "error"
    },
    {
      "inputs": [],
      "name": "BalanceOverflow",
      "type": "error"
    },
    {
      "inputs": [],
      "name": "BeforeAddLiquidityHookFailed",
      "type": "error"
    },
    {
      "inputs": [],
      "name": "BeforeInitializeHookFailed",
      "type": "error"
    },
    {
      "inputs": [],
      "name": "BeforeRemoveLiquidityHookFailed",
      "type": "error"
    },
    {
      "inputs": [],
      "name": "BeforeSwapHookFailed",
      "type": "error"
    },
    {
      "inputs": [
        {
          "internalType": "uint256",
          "name": "amountIn",
          "type": "uint256"
        },
        {
          "internalType": "uint256",
          "name": "maxAmountIn",
          "type": "uint256"
        }
      ],
      "name": "BptAmountInAboveMax",
      "type": "error"
    },
    {
      "inputs": [
        {
          "internalType": "uint256",
          "name": "amountOut",
          "type": "uint256"
        },
        {
          "internalType": "uint256",
          "name": "minAmountOut",
          "type": "uint256"
        }
      ],
      "name": "BptAmountOutBelowMin",
      "type": "error"
    },
    {
      "inputs": [
        {
          "internalType": "contract IERC4626",
          "name": "wrappedToken",
          "type": "address"
        }
      ],
      "name": "BufferAlreadyInitialized",
      "type": "error"
    },
    {
      "inputs": [
        {
          "internalType": "contract IERC4626",
          "name": "wrappedToken",
          "type": "address"
        }
      ],
      "name": "BufferNotInitialized",
      "type": "error"
    },
    {
      "inputs": [],
      "name": "BufferSharesInvalidOwner",
      "type": "error"
    },
    {
      "inputs": [],
      "name": "BufferSharesInvalidReceiver",
      "type": "error"
    },
    {
      "inputs": [
        {
          "internalType": "uint256",
          "name": "totalSupply",
          "type": "uint256"
        }
      ],
      "name": "BufferTotalSupplyTooLow",
      "type": "error"
    },
    {
      "inputs": [],
      "name": "CannotReceiveEth",
      "type": "error"
    },
    {
      "inputs": [],
      "name": "CannotSwapSameToken",
      "type": "error"
    },
    {
      "inputs": [],
      "name": "CodecOverflow",
      "type": "error"
    },
    {
      "inputs": [],
      "name": "DoesNotSupportAddLiquidityCustom",
      "type": "error"
    },
    {
      "inputs": [],
      "name": "DoesNotSupportDonation",
      "type": "error"
    },
    {
      "inputs": [],
      "name": "DoesNotSupportRemoveLiquidityCustom",
      "type": "error"
    },
    {
      "inputs": [],
      "name": "DoesNotSupportUnbalancedLiquidity",
      "type": "error"
    },
    {
      "inputs": [],
      "name": "DynamicSwapFeeHookFailed",
      "type": "error"
    },
    {
      "inputs": [
        {
          "internalType": "address",
          "name": "spender",
          "type": "address"
        },
        {
          "internalType": "uint256",
          "name": "allowance",
          "type": "uint256"
        },
        {
          "internalType": "uint256",
          "name": "needed",
          "type": "uint256"
        }
      ],
      "name": "ERC20InsufficientAllowance",
      "type": "error"
    },
    {
      "inputs": [
        {
          "internalType": "address",
          "name": "sender",
          "type": "address"
        },
        {
          "internalType": "uint256",
          "name": "balance",
          "type": "uint256"
        },
        {
          "internalType": "uint256",
          "name": "needed",
          "type": "uint256"
        }
      ],
      "name": "ERC20InsufficientBalance",
      "type": "error"
    },
    {
      "inputs": [
        {
          "internalType": "address",
          "name": "approver",
          "type": "address"
        }
      ],
      "name": "ERC20InvalidApprover",
      "type": "error"
    },
    {
      "inputs": [
        {
          "internalType": "address",
          "name": "receiver",
          "type": "address"
        }
      ],
      "name": "ERC20InvalidReceiver",
      "type": "error"
    },
    {
      "inputs": [
        {
          "internalType": "address",
          "name": "sender",
          "type": "address"
        }
      ],
      "name": "ERC20InvalidSender",
      "type": "error"
    },
    {
      "inputs": [
        {
          "internalType": "address",
          "name": "spender",
          "type": "address"
        }
      ],
      "name": "ERC20InvalidSpender",
      "type": "error"
    },
    {
      "inputs": [],
      "name": "FeePrecisionTooHigh",
      "type": "error"
    },
    {
      "inputs": [
        {
          "internalType": "contract IERC20",
          "name": "tokenIn",
          "type": "address"
        },
        {
          "internalType": "uint256",
          "name": "amountIn",
          "type": "uint256"
        },
        {
          "internalType": "uint256",
          "name": "maxAmountIn",
          "type": "uint256"
        }
      ],
      "name": "HookAdjustedAmountInAboveMax",
      "type": "error"
    },
    {
      "inputs": [
        {
          "internalType": "contract IERC20",
          "name": "tokenOut",
          "type": "address"
        },
        {
          "internalType": "uint256",
          "name": "amountOut",
          "type": "uint256"
        },
        {
          "internalType": "uint256",
          "name": "minAmountOut",
          "type": "uint256"
        }
      ],
      "name": "HookAdjustedAmountOutBelowMin",
      "type": "error"
    },
    {
      "inputs": [
        {
          "internalType": "uint256",
          "name": "amount",
          "type": "uint256"
        },
        {
          "internalType": "uint256",
          "name": "limit",
          "type": "uint256"
        }
      ],
      "name": "HookAdjustedSwapLimit",
      "type": "error"
    },
    {
      "inputs": [
        {
          "internalType": "address",
          "name": "poolHooksContract",
          "type": "address"
        },
        {
          "internalType": "address",
          "name": "pool",
          "type": "address"
        },
        {
          "internalType": "address",
          "name": "poolFactory",
          "type": "address"
        }
      ],
      "name": "HookRegistrationFailed",
      "type": "error"
    },
    {
      "inputs": [],
      "name": "InvalidAddLiquidityKind",
      "type": "error"
    },
    {
      "inputs": [],
      "name": "InvalidRemoveLiquidityKind",
      "type": "error"
    },
    {
      "inputs": [],
      "name": "InvalidToken",
      "type": "error"
    },
    {
      "inputs": [],
      "name": "InvalidTokenConfiguration",
      "type": "error"
    },
    {
      "inputs": [],
      "name": "InvalidTokenDecimals",
      "type": "error"
    },
    {
      "inputs": [],
      "name": "InvalidTokenType",
      "type": "error"
    },
    {
      "inputs": [
        {
          "internalType": "contract IERC4626",
          "name": "wrappedToken",
          "type": "address"
        }
      ],
      "name": "InvalidUnderlyingToken",
      "type": "error"
    },
    {
      "inputs": [
        {
          "internalType": "uint256",
          "name": "issuedShares",
          "type": "uint256"
        },
        {
          "internalType": "uint256",
          "name": "minIssuedShares",
          "type": "uint256"
        }
      ],
      "name": "IssuedSharesBelowMin",
      "type": "error"
    },
    {
      "inputs": [],
      "name": "MaxTokens",
      "type": "error"
    },
    {
      "inputs": [],
      "name": "MinTokens",
      "type": "error"
    },
    {
      "inputs": [],
      "name": "NotEnoughBufferShares",
      "type": "error"
    },
    {
      "inputs": [
        {
          "internalType": "contract IERC4626",
          "name": "wrappedToken",
          "type": "address"
        },
        {
          "internalType": "uint256",
          "name": "expectedUnderlyingAmount",
          "type": "uint256"
        },
        {
          "internalType": "uint256",
          "name": "actualUnderlyingAmount",
          "type": "uint256"
        }
      ],
      "name": "NotEnoughUnderlying",
      "type": "error"
    },
    {
      "inputs": [
        {
          "internalType": "contract IERC4626",
          "name": "wrappedToken",
          "type": "address"
        },
        {
          "internalType": "uint256",
          "name": "expectedWrappedAmount",
          "type": "uint256"
        },
        {
          "internalType": "uint256",
          "name": "actualWrappedAmount",
          "type": "uint256"
        }
      ],
      "name": "NotEnoughWrapped",
      "type": "error"
    },
    {
      "inputs": [],
      "name": "NotStaticCall",
      "type": "error"
    },
    {
      "inputs": [],
      "name": "NotVaultDelegateCall",
      "type": "error"
    },
    {
      "inputs": [],
      "name": "OutOfBounds",
      "type": "error"
    },
    {
      "inputs": [],
      "name": "PauseBufferPeriodDurationTooLarge",
      "type": "error"
    },
    {
      "inputs": [],
      "name": "PercentageAboveMax",
      "type": "error"
    },
    {
      "inputs": [
        {
          "internalType": "address",
          "name": "pool",
          "type": "address"
        }
      ],
      "name": "PoolAlreadyInitialized",
      "type": "error"
    },
    {
      "inputs": [
        {
          "internalType": "address",
          "name": "pool",
          "type": "address"
        }
      ],
      "name": "PoolAlreadyRegistered",
      "type": "error"
    },
    {
      "inputs": [
        {
          "internalType": "address",
          "name": "pool",
          "type": "address"
        }
      ],
      "name": "PoolInRecoveryMode",
      "type": "error"
    },
    {
      "inputs": [
        {
          "internalType": "address",
          "name": "pool",
          "type": "address"
        }
      ],
      "name": "PoolNotInRecoveryMode",
      "type": "error"
    },
    {
      "inputs": [
        {
          "internalType": "address",
          "name": "pool",
          "type": "address"
        }
      ],
      "name": "PoolNotInitialized",
      "type": "error"
    },
    {
      "inputs": [
        {
          "internalType": "address",
          "name": "pool",
          "type": "address"
        }
      ],
      "name": "PoolNotPaused",
      "type": "error"
    },
    {
      "inputs": [
        {
          "internalType": "address",
          "name": "pool",
          "type": "address"
        }
      ],
      "name": "PoolNotRegistered",
      "type": "error"
    },
    {
      "inputs": [
        {
          "internalType": "address",
          "name": "pool",
          "type": "address"
        }
      ],
      "name": "PoolPauseWindowExpired",
      "type": "error"
    },
    {
      "inputs": [
        {
          "internalType": "address",
          "name": "pool",
          "type": "address"
        }
      ],
      "name": "PoolPaused",
      "type": "error"
    },
    {
      "inputs": [
        {
          "internalType": "uint256",
          "name": "totalSupply",
          "type": "uint256"
        }
      ],
      "name": "PoolTotalSupplyTooLow",
      "type": "error"
    },
    {
      "inputs": [],
      "name": "ProtocolFeesExceedTotalCollected",
      "type": "error"
    },
    {
      "inputs": [],
      "name": "QueriesDisabled",
      "type": "error"
    },
    {
      "inputs": [],
      "name": "QueriesDisabledPermanently",
      "type": "error"
    },
    {
      "inputs": [],
      "name": "QuoteResultSpoofed",
      "type": "error"
    },
    {
      "inputs": [],
      "name": "ReentrancyGuardReentrantCall",
      "type": "error"
    },
    {
      "inputs": [],
      "name": "RouterNotTrusted",
      "type": "error"
    },
    {
      "inputs": [
        {
          "internalType": "uint8",
          "name": "bits",
          "type": "uint8"
        },
        {
          "internalType": "uint256",
          "name": "value",
          "type": "uint256"
        }
      ],
      "name": "SafeCastOverflowedUintDowncast",
      "type": "error"
    },
    {
      "inputs": [
        {
          "internalType": "uint256",
          "name": "value",
          "type": "uint256"
        }
      ],
      "name": "SafeCastOverflowedUintToInt",
      "type": "error"
    },
    {
      "inputs": [
        {
          "internalType": "address",
          "name": "sender",
          "type": "address"
        }
      ],
      "name": "SenderIsNotVault",
      "type": "error"
    },
    {
      "inputs": [],
      "name": "SenderNotAllowed",
      "type": "error"
    },
    {
      "inputs": [],
      "name": "SwapFeePercentageTooHigh",
      "type": "error"
    },
    {
      "inputs": [],
      "name": "SwapFeePercentageTooLow",
      "type": "error"
    },
    {
      "inputs": [
        {
          "internalType": "uint256",
          "name": "amount",
          "type": "uint256"
        },
        {
          "internalType": "uint256",
          "name": "limit",
          "type": "uint256"
        }
      ],
      "name": "SwapLimit",
      "type": "error"
    },
    {
      "inputs": [
        {
          "internalType": "contract IERC20",
          "name": "token",
          "type": "address"
        }
      ],
      "name": "TokenAlreadyRegistered",
      "type": "error"
    },
    {
      "inputs": [
        {
          "internalType": "contract IERC20",
          "name": "token",
          "type": "address"
        }
      ],
      "name": "TokenNotRegistered",
      "type": "error"
    },
    {
      "inputs": [
        {
          "internalType": "address",
          "name": "pool",
          "type": "address"
        },
        {
          "internalType": "address",
          "name": "expectedToken",
          "type": "address"
        },
        {
          "internalType": "address",
          "name": "actualToken",
          "type": "address"
        }
      ],
      "name": "TokensMismatch",
      "type": "error"
    },
    {
      "inputs": [],
      "name": "TradeAmountTooSmall",
      "type": "error"
    },
    {
      "inputs": [],
      "name": "VaultBuffersArePaused",
      "type": "error"
    },
    {
      "inputs": [],
      "name": "VaultIsNotUnlocked",
      "type": "error"
    },
    {
      "inputs": [],
      "name": "VaultNotPaused",
      "type": "error"
    },
    {
      "inputs": [],
      "name": "VaultPauseWindowDurationTooLarge",
      "type": "error"
    },
    {
      "inputs": [],
      "name": "VaultPauseWindowExpired",
      "type": "error"
    },
    {
      "inputs": [],
      "name": "VaultPaused",
      "type": "error"
    },
    {
      "inputs": [
        {
          "internalType": "contract IERC4626",
          "name": "wrappedToken",
          "type": "address"
        }
      ],
      "name": "WrapAmountTooSmall",
      "type": "error"
    },
    {
      "inputs": [],
      "name": "WrongProtocolFeeControllerDeployment",
      "type": "error"
    },
    {
      "inputs": [
        {
          "internalType": "contract IERC4626",
          "name": "wrappedToken",
          "type": "address"
        },
        {
          "internalType": "address",
          "name": "underlyingToken",
          "type": "address"
        }
      ],
      "name": "WrongUnderlyingToken",
      "type": "error"
    },
    {
      "inputs": [],
      "name": "WrongVaultAdminDeployment",
      "type": "error"
    },
    {
      "inputs": [],
      "name": "WrongVaultExtensionDeployment",
      "type": "error"
    },
    {
      "inputs": [],
      "name": "ZeroDivision",
      "type": "error"
    },
    {
      "anonymous": false,
      "inputs": [
        {
          "indexed": true,
          "internalType": "address",
          "name": "pool",
          "type": "address"
        },
        {
          "indexed": false,
          "internalType": "uint256",
          "name": "aggregateSwapFeePercentage",
          "type": "uint256"
        }
      ],
      "name": "AggregateSwapFeePercentageChanged",
      "type": "event"
    },
    {
      "anonymous": false,
      "inputs": [
        {
          "indexed": true,
          "internalType": "address",
          "name": "pool",
          "type": "address"
        },
        {
          "indexed": false,
          "internalType": "uint256",
          "name": "aggregateYieldFeePercentage",
          "type": "uint256"
        }
      ],
      "name": "AggregateYieldFeePercentageChanged",
      "type": "event"
    },
    {
      "anonymous": false,
      "inputs": [
        {
          "indexed": true,
          "internalType": "address",
          "name": "pool",
          "type": "address"
        },
        {
          "indexed": true,
          "internalType": "address",
          "name": "owner",
          "type": "address"
        },
        {
          "indexed": true,
          "internalType": "address",
          "name": "spender",
          "type": "address"
        },
        {
          "indexed": false,
          "internalType": "uint256",
          "name": "value",
          "type": "uint256"
        }
      ],
      "name": "Approval",
      "type": "event"
    },
    {
      "anonymous": false,
      "inputs": [
        {
          "indexed": true,
          "internalType": "contract IAuthorizer",
          "name": "newAuthorizer",
          "type": "address"
        }
      ],
      "name": "AuthorizerChanged",
      "type": "event"
    },
    {
      "anonymous": false,
      "inputs": [
        {
          "indexed": true,
          "internalType": "contract IERC4626",
          "name": "wrappedToken",
          "type": "address"
        },
        {
          "indexed": true,
          "internalType": "address",
          "name": "from",
          "type": "address"
        },
        {
          "indexed": false,
          "internalType": "uint256",
          "name": "burnedShares",
          "type": "uint256"
        }
      ],
      "name": "BufferSharesBurned",
      "type": "event"
    },
    {
      "anonymous": false,
      "inputs": [
        {
          "indexed": true,
          "internalType": "contract IERC4626",
          "name": "wrappedToken",
          "type": "address"
        },
        {
          "indexed": true,
          "internalType": "address",
          "name": "to",
          "type": "address"
        },
        {
          "indexed": false,
          "internalType": "uint256",
          "name": "issuedShares",
          "type": "uint256"
        }
      ],
      "name": "BufferSharesMinted",
      "type": "event"
    },
    {
      "anonymous": false,
      "inputs": [
        {
          "indexed": true,
          "internalType": "address",
          "name": "pool",
          "type": "address"
        },
        {
          "indexed": true,
          "internalType": "address",
          "name": "liquidityProvider",
          "type": "address"
        },
        {
          "indexed": true,
          "internalType": "enum AddLiquidityKind",
          "name": "kind",
          "type": "uint8"
        },
        {
          "indexed": false,
          "internalType": "uint256",
          "name": "totalSupply",
          "type": "uint256"
        },
        {
          "indexed": false,
          "internalType": "uint256[]",
          "name": "amountsAddedRaw",
          "type": "uint256[]"
        },
        {
          "indexed": false,
          "internalType": "uint256[]",
          "name": "swapFeeAmountsRaw",
          "type": "uint256[]"
        }
      ],
      "name": "LiquidityAdded",
      "type": "event"
    },
    {
      "anonymous": false,
      "inputs": [
        {
          "indexed": true,
          "internalType": "contract IERC4626",
          "name": "wrappedToken",
          "type": "address"
        },
        {
          "indexed": false,
          "internalType": "uint256",
          "name": "amountUnderlying",
          "type": "uint256"
        },
        {
          "indexed": false,
          "internalType": "uint256",
          "name": "amountWrapped",
          "type": "uint256"
        },
        {
          "indexed": false,
          "internalType": "bytes32",
          "name": "bufferBalances",
          "type": "bytes32"
        }
      ],
      "name": "LiquidityAddedToBuffer",
      "type": "event"
    },
    {
      "anonymous": false,
      "inputs": [
        {
          "indexed": true,
          "internalType": "address",
          "name": "pool",
          "type": "address"
        },
        {
          "indexed": true,
          "internalType": "address",
          "name": "liquidityProvider",
          "type": "address"
        },
        {
          "indexed": true,
          "internalType": "enum RemoveLiquidityKind",
          "name": "kind",
          "type": "uint8"
        },
        {
          "indexed": false,
          "internalType": "uint256",
          "name": "totalSupply",
          "type": "uint256"
        },
        {
          "indexed": false,
          "internalType": "uint256[]",
          "name": "amountsRemovedRaw",
          "type": "uint256[]"
        },
        {
          "indexed": false,
          "internalType": "uint256[]",
          "name": "swapFeeAmountsRaw",
          "type": "uint256[]"
        }
      ],
      "name": "LiquidityRemoved",
      "type": "event"
    },
    {
      "anonymous": false,
      "inputs": [
        {
          "indexed": true,
          "internalType": "contract IERC4626",
          "name": "wrappedToken",
          "type": "address"
        },
        {
          "indexed": false,
          "internalType": "uint256",
          "name": "amountUnderlying",
          "type": "uint256"
        },
        {
          "indexed": false,
          "internalType": "uint256",
          "name": "amountWrapped",
          "type": "uint256"
        },
        {
          "indexed": false,
          "internalType": "bytes32",
          "name": "bufferBalances",
          "type": "bytes32"
        }
      ],
      "name": "LiquidityRemovedFromBuffer",
      "type": "event"
    },
    {
      "anonymous": false,
      "inputs": [
        {
          "indexed": true,
          "internalType": "address",
          "name": "pool",
          "type": "address"
        }
      ],
      "name": "PoolInitialized",
      "type": "event"
    },
    {
      "anonymous": false,
      "inputs": [
        {
          "indexed": true,
          "internalType": "address",
          "name": "pool",
          "type": "address"
        },
        {
          "indexed": false,
          "internalType": "bool",
          "name": "paused",
          "type": "bool"
        }
      ],
      "name": "PoolPausedStateChanged",
      "type": "event"
    },
    {
      "anonymous": false,
      "inputs": [
        {
          "indexed": true,
          "internalType": "address",
          "name": "pool",
          "type": "address"
        },
        {
          "indexed": false,
          "internalType": "bool",
          "name": "recoveryMode",
          "type": "bool"
        }
      ],
      "name": "PoolRecoveryModeStateChanged",
      "type": "event"
    },
    {
      "anonymous": false,
      "inputs": [
        {
          "indexed": true,
          "internalType": "address",
          "name": "pool",
          "type": "address"
        },
        {
          "indexed": true,
          "internalType": "address",
          "name": "factory",
          "type": "address"
        },
        {
          "components": [
            {
              "internalType": "contract IERC20",
              "name": "token",
              "type": "address"
            },
            {
              "internalType": "enum TokenType",
              "name": "tokenType",
              "type": "uint8"
            },
            {
              "internalType": "contract IRateProvider",
              "name": "rateProvider",
              "type": "address"
            },
            {
              "internalType": "bool",
              "name": "paysYieldFees",
              "type": "bool"
            }
          ],
          "indexed": false,
          "internalType": "struct TokenConfig[]",
          "name": "tokenConfig",
          "type": "tuple[]"
        },
        {
          "indexed": false,
          "internalType": "uint256",
          "name": "swapFeePercentage",
          "type": "uint256"
        },
        {
          "indexed": false,
          "internalType": "uint32",
          "name": "pauseWindowEndTime",
          "type": "uint32"
        },
        {
          "components": [
            {
              "internalType": "address",
              "name": "pauseManager",
              "type": "address"
            },
            {
              "internalType": "address",
              "name": "swapFeeManager",
              "type": "address"
            },
            {
              "internalType": "address",
              "name": "poolCreator",
              "type": "address"
            }
          ],
          "indexed": false,
          "internalType": "struct PoolRoleAccounts",
          "name": "roleAccounts",
          "type": "tuple"
        },
        {
          "components": [
            {
              "internalType": "bool",
              "name": "enableHookAdjustedAmounts",
              "type": "bool"
            },
            {
              "internalType": "bool",
              "name": "shouldCallBeforeInitialize",
              "type": "bool"
            },
            {
              "internalType": "bool",
              "name": "shouldCallAfterInitialize",
              "type": "bool"
            },
            {
              "internalType": "bool",
              "name": "shouldCallComputeDynamicSwapFee",
              "type": "bool"
            },
            {
              "internalType": "bool",
              "name": "shouldCallBeforeSwap",
              "type": "bool"
            },
            {
              "internalType": "bool",
              "name": "shouldCallAfterSwap",
              "type": "bool"
            },
            {
              "internalType": "bool",
              "name": "shouldCallBeforeAddLiquidity",
              "type": "bool"
            },
            {
              "internalType": "bool",
              "name": "shouldCallAfterAddLiquidity",
              "type": "bool"
            },
            {
              "internalType": "bool",
              "name": "shouldCallBeforeRemoveLiquidity",
              "type": "bool"
            },
            {
              "internalType": "bool",
              "name": "shouldCallAfterRemoveLiquidity",
              "type": "bool"
            },
            {
              "internalType": "address",
              "name": "hooksContract",
              "type": "address"
            }
          ],
          "indexed": false,
          "internalType": "struct HooksConfig",
          "name": "hooksConfig",
          "type": "tuple"
        },
        {
          "components": [
            {
              "internalType": "bool",
              "name": "disableUnbalancedLiquidity",
              "type": "bool"
            },
            {
              "internalType": "bool",
              "name": "enableAddLiquidityCustom",
              "type": "bool"
            },
            {
              "internalType": "bool",
              "name": "enableRemoveLiquidityCustom",
              "type": "bool"
            },
            {
              "internalType": "bool",
              "name": "enableDonation",
              "type": "bool"
            }
          ],
          "indexed": false,
          "internalType": "struct LiquidityManagement",
          "name": "liquidityManagement",
          "type": "tuple"
        }
      ],
      "name": "PoolRegistered",
      "type": "event"
    },
    {
      "anonymous": false,
      "inputs": [
        {
          "indexed": true,
          "internalType": "contract IProtocolFeeController",
          "name": "newProtocolFeeController",
          "type": "address"
        }
      ],
      "name": "ProtocolFeeControllerChanged",
      "type": "event"
    },
    {
      "anonymous": false,
      "inputs": [
        {
          "indexed": true,
          "internalType": "address",
          "name": "pool",
          "type": "address"
        },
        {
          "indexed": true,
          "internalType": "contract IERC20",
          "name": "tokenIn",
          "type": "address"
        },
        {
          "indexed": true,
          "internalType": "contract IERC20",
          "name": "tokenOut",
          "type": "address"
        },
        {
          "indexed": false,
          "internalType": "uint256",
          "name": "amountIn",
          "type": "uint256"
        },
        {
          "indexed": false,
          "internalType": "uint256",
          "name": "amountOut",
          "type": "uint256"
        },
        {
          "indexed": false,
          "internalType": "uint256",
          "name": "swapFeePercentage",
          "type": "uint256"
        },
        {
          "indexed": false,
          "internalType": "uint256",
          "name": "swapFeeAmount",
          "type": "uint256"
        }
      ],
      "name": "Swap",
      "type": "event"
    },
    {
      "anonymous": false,
      "inputs": [
        {
          "indexed": true,
          "internalType": "address",
          "name": "pool",
          "type": "address"
        },
        {
          "indexed": false,
          "internalType": "uint256",
          "name": "swapFeePercentage",
          "type": "uint256"
        }
      ],
      "name": "SwapFeePercentageChanged",
      "type": "event"
    },
    {
      "anonymous": false,
      "inputs": [
        {
          "indexed": true,
          "internalType": "address",
          "name": "account",
          "type": "address"
        },
        {
          "indexed": false,
          "internalType": "address[]",
          "name": "tokens",
          "type": "address[]"
        }
      ],
      "name": "TokensAssociated",
      "type": "event"
    },
    {
      "anonymous": false,
      "inputs": [
        {
          "indexed": true,
          "internalType": "address",
          "name": "pool",
          "type": "address"
        },
        {
          "indexed": true,
          "internalType": "address",
          "name": "from",
          "type": "address"
        },
        {
          "indexed": true,
          "internalType": "address",
          "name": "to",
          "type": "address"
        },
        {
          "indexed": false,
          "internalType": "uint256",
          "name": "value",
          "type": "uint256"
        }
      ],
      "name": "Transfer",
      "type": "event"
    },
    {
      "anonymous": false,
      "inputs": [
        {
          "indexed": true,
          "internalType": "contract IERC4626",
          "name": "wrappedToken",
          "type": "address"
        },
        {
          "indexed": false,
          "internalType": "uint256",
          "name": "burnedShares",
          "type": "uint256"
        },
        {
          "indexed": false,
          "internalType": "uint256",
          "name": "withdrawnUnderlying",
          "type": "uint256"
        },
        {
          "indexed": false,
          "internalType": "bytes32",
          "name": "bufferBalances",
          "type": "bytes32"
        }
      ],
      "name": "Unwrap",
      "type": "event"
    },
    {
      "anonymous": false,
      "inputs": [
        {
          "indexed": true,
          "internalType": "address",
          "name": "pool",
          "type": "address"
        },
        {
          "indexed": true,
          "internalType": "bytes32",
          "name": "eventKey",
          "type": "bytes32"
        },
        {
          "indexed": false,
          "internalType": "bytes",
          "name": "eventData",
          "type": "bytes"
        }
      ],
      "name": "VaultAuxiliary",
      "type": "event"
    },
    {
      "anonymous": false,
      "inputs": [
        {
          "indexed": false,
          "internalType": "bool",
          "name": "paused",
          "type": "bool"
        }
      ],
      "name": "VaultBuffersPausedStateChanged",
      "type": "event"
    },
    {
      "anonymous": false,
      "inputs": [
        {
          "indexed": false,
          "internalType": "bool",
          "name": "paused",
          "type": "bool"
        }
      ],
      "name": "VaultPausedStateChanged",
      "type": "event"
    },
    {
      "anonymous": false,
      "inputs": [],
      "name": "VaultQueriesDisabled",
      "type": "event"
    },
    {
      "anonymous": false,
      "inputs": [],
      "name": "VaultQueriesEnabled",
      "type": "event"
    },
    {
      "anonymous": false,
      "inputs": [
        {
          "indexed": true,
          "internalType": "contract IERC4626",
          "name": "wrappedToken",
          "type": "address"
        },
        {
          "indexed": false,
          "internalType": "uint256",
          "name": "depositedUnderlying",
          "type": "uint256"
        },
        {
          "indexed": false,
          "internalType": "uint256",
          "name": "mintedShares",
          "type": "uint256"
        },
        {
          "indexed": false,
          "internalType": "bytes32",
          "name": "bufferBalances",
          "type": "bytes32"
        }
      ],
      "name": "Wrap",
      "type": "event"
    },
    {
      "stateMutability": "payable",
      "type": "fallback"
    },
    {
      "inputs": [
        {
          "internalType": "contract IERC4626",
          "name": "wrappedToken",
          "type": "address"
        },
        {
          "internalType": "uint256",
          "name": "maxAmountUnderlyingInRaw",
          "type": "uint256"
        },
        {
          "internalType": "uint256",
          "name": "maxAmountWrappedInRaw",
          "type": "uint256"
        },
        {
          "internalType": "uint256",
          "name": "exactSharesToIssue",
          "type": "uint256"
        },
        {
          "internalType": "address",
          "name": "sharesOwner",
          "type": "address"
        }
      ],
      "name": "addLiquidityToBuffer",
      "outputs": [
        {
          "internalType": "uint256",
          "name": "amountUnderlyingRaw",
          "type": "uint256"
        },
        {
          "internalType": "uint256",
          "name": "amountWrappedRaw",
          "type": "uint256"
        }
      ],
      "stateMutability": "nonpayable",
      "type": "function"
    },
    {
      "inputs": [],
      "name": "areBuffersPaused",
      "outputs": [
        {
          "internalType": "bool",
          "name": "",
          "type": "bool"
        }
      ],
      "stateMutability": "view",
      "type": "function"
    },
    {
      "inputs": [
        {
          "internalType": "address[]",
          "name": "tokens",
          "type": "address[]"
        }
      ],
      "name": "associateTokens",
      "outputs": [],
      "stateMutability": "nonpayable",
      "type": "function"
    },
    {
      "inputs": [
        {
          "internalType": "address",
          "name": "pool",
          "type": "address"
        }
      ],
      "name": "collectAggregateFees",
      "outputs": [
        {
          "internalType": "uint256[]",
          "name": "totalSwapFees",
          "type": "uint256[]"
        },
        {
          "internalType": "uint256[]",
          "name": "totalYieldFees",
          "type": "uint256[]"
        }
      ],
      "stateMutability": "nonpayable",
      "type": "function"
    },
    {
      "inputs": [],
      "name": "disableQuery",
      "outputs": [],
      "stateMutability": "nonpayable",
      "type": "function"
    },
    {
      "inputs": [],
      "name": "disableQueryPermanently",
      "outputs": [],
      "stateMutability": "nonpayable",
      "type": "function"
    },
    {
      "inputs": [
        {
          "internalType": "address",
          "name": "pool",
          "type": "address"
        }
      ],
      "name": "disableRecoveryMode",
      "outputs": [],
      "stateMutability": "nonpayable",
      "type": "function"
    },
    {
      "inputs": [],
      "name": "enableQuery",
      "outputs": [],
      "stateMutability": "nonpayable",
      "type": "function"
    },
    {
      "inputs": [
        {
          "internalType": "address",
          "name": "pool",
          "type": "address"
        }
      ],
      "name": "enableRecoveryMode",
      "outputs": [],
      "stateMutability": "nonpayable",
      "type": "function"
    },
    {
      "inputs": [
        {
          "internalType": "bytes4",
          "name": "selector",
          "type": "bytes4"
        }
      ],
      "name": "getActionId",
      "outputs": [
        {
          "internalType": "bytes32",
          "name": "",
          "type": "bytes32"
        }
      ],
      "stateMutability": "view",
      "type": "function"
    },
    {
      "inputs": [
        {
          "internalType": "contract IERC4626",
          "name": "wrappedToken",
          "type": "address"
        }
      ],
      "name": "getBufferAsset",
      "outputs": [
        {
          "internalType": "address",
          "name": "underlyingToken",
          "type": "address"
        }
      ],
      "stateMutability": "view",
      "type": "function"
    },
    {
      "inputs": [
        {
          "internalType": "contract IERC4626",
          "name": "token",
          "type": "address"
        }
      ],
      "name": "getBufferBalance",
      "outputs": [
        {
          "internalType": "uint256",
          "name": "",
          "type": "uint256"
        },
        {
          "internalType": "uint256",
          "name": "",
          "type": "uint256"
        }
      ],
      "stateMutability": "view",
      "type": "function"
    },
    {
      "inputs": [],
      "name": "getBufferMinimumTotalSupply",
      "outputs": [
        {
          "internalType": "uint256",
          "name": "",
          "type": "uint256"
        }
      ],
      "stateMutability": "pure",
      "type": "function"
    },
    {
      "inputs": [
        {
          "internalType": "contract IERC4626",
          "name": "token",
          "type": "address"
        },
        {
          "internalType": "address",
          "name": "user",
          "type": "address"
        }
      ],
      "name": "getBufferOwnerShares",
      "outputs": [
        {
          "internalType": "uint256",
          "name": "shares",
          "type": "uint256"
        }
      ],
      "stateMutability": "view",
      "type": "function"
    },
    {
      "inputs": [],
      "name": "getBufferPeriodDuration",
      "outputs": [
        {
          "internalType": "uint32",
          "name": "",
          "type": "uint32"
        }
      ],
      "stateMutability": "view",
      "type": "function"
    },
    {
      "inputs": [],
      "name": "getBufferPeriodEndTime",
      "outputs": [
        {
          "internalType": "uint32",
          "name": "",
          "type": "uint32"
        }
      ],
      "stateMutability": "view",
      "type": "function"
    },
    {
      "inputs": [
        {
          "internalType": "contract IERC4626",
          "name": "token",
          "type": "address"
        }
      ],
      "name": "getBufferTotalShares",
      "outputs": [
        {
          "internalType": "uint256",
          "name": "shares",
          "type": "uint256"
        }
      ],
      "stateMutability": "view",
      "type": "function"
    },
    {
      "inputs": [],
      "name": "getMaximumPoolTokens",
      "outputs": [
        {
          "internalType": "uint256",
          "name": "",
          "type": "uint256"
        }
      ],
      "stateMutability": "pure",
      "type": "function"
    },
    {
      "inputs": [],
      "name": "getMinimumPoolTokens",
      "outputs": [
        {
          "internalType": "uint256",
          "name": "",
          "type": "uint256"
        }
      ],
      "stateMutability": "pure",
      "type": "function"
    },
    {
      "inputs": [],
      "name": "getMinimumTradeAmount",
      "outputs": [
        {
          "internalType": "uint256",
          "name": "",
          "type": "uint256"
        }
      ],
      "stateMutability": "view",
      "type": "function"
    },
    {
      "inputs": [],
      "name": "getMinimumWrapAmount",
      "outputs": [
        {
          "internalType": "uint256",
          "name": "",
          "type": "uint256"
        }
      ],
      "stateMutability": "view",
      "type": "function"
    },
    {
      "inputs": [],
      "name": "getPauseWindowEndTime",
      "outputs": [
        {
          "internalType": "uint32",
          "name": "",
          "type": "uint32"
        }
      ],
      "stateMutability": "view",
      "type": "function"
    },
    {
      "inputs": [],
      "name": "getPoolMinimumTotalSupply",
      "outputs": [
        {
          "internalType": "uint256",
          "name": "",
          "type": "uint256"
        }
      ],
      "stateMutability": "pure",
      "type": "function"
    },
    {
      "inputs": [],
      "name": "getVaultPausedState",
      "outputs": [
        {
          "internalType": "bool",
          "name": "",
          "type": "bool"
        },
        {
          "internalType": "uint32",
          "name": "",
          "type": "uint32"
        },
        {
          "internalType": "uint32",
          "name": "",
          "type": "uint32"
        }
      ],
      "stateMutability": "view",
      "type": "function"
    },
    {
      "inputs": [
        {
          "internalType": "contract IERC4626",
          "name": "wrappedToken",
          "type": "address"
        },
        {
          "internalType": "uint256",
          "name": "amountUnderlyingRaw",
          "type": "uint256"
        },
        {
          "internalType": "uint256",
          "name": "amountWrappedRaw",
          "type": "uint256"
        },
        {
          "internalType": "uint256",
          "name": "minIssuedShares",
          "type": "uint256"
        },
        {
          "internalType": "address",
          "name": "sharesOwner",
          "type": "address"
        }
      ],
      "name": "initializeBuffer",
      "outputs": [
        {
          "internalType": "uint256",
          "name": "issuedShares",
          "type": "uint256"
        }
      ],
      "stateMutability": "nonpayable",
      "type": "function"
    },
    {
      "inputs": [],
      "name": "isVaultPaused",
      "outputs": [
        {
          "internalType": "bool",
          "name": "",
          "type": "bool"
        }
      ],
      "stateMutability": "view",
      "type": "function"
    },
    {
      "inputs": [
        {
          "internalType": "address",
          "name": "pool",
          "type": "address"
        }
      ],
      "name": "pausePool",
      "outputs": [],
      "stateMutability": "nonpayable",
      "type": "function"
    },
    {
      "inputs": [],
      "name": "pauseVault",
      "outputs": [],
      "stateMutability": "nonpayable",
      "type": "function"
    },
    {
      "inputs": [],
      "name": "pauseVaultBuffers",
      "outputs": [],
      "stateMutability": "nonpayable",
      "type": "function"
    },
    {
      "inputs": [],
      "name": "reentrancyGuardEntered",
      "outputs": [
        {
          "internalType": "bool",
          "name": "",
          "type": "bool"
        }
      ],
      "stateMutability": "view",
      "type": "function"
    },
    {
      "inputs": [
        {
          "internalType": "contract IERC4626",
          "name": "wrappedToken",
          "type": "address"
        },
        {
          "internalType": "uint256",
          "name": "sharesToRemove",
          "type": "uint256"
        },
        {
          "internalType": "uint256",
          "name": "minAmountUnderlyingOutRaw",
          "type": "uint256"
        },
        {
          "internalType": "uint256",
          "name": "minAmountWrappedOutRaw",
          "type": "uint256"
        }
      ],
      "name": "removeLiquidityFromBuffer",
      "outputs": [
        {
          "internalType": "uint256",
          "name": "removedUnderlyingBalanceRaw",
          "type": "uint256"
        },
        {
          "internalType": "uint256",
          "name": "removedWrappedBalanceRaw",
          "type": "uint256"
        }
      ],
      "stateMutability": "nonpayable",
      "type": "function"
    },
    {
      "inputs": [
        {
          "internalType": "contract IERC4626",
          "name": "wrappedToken",
          "type": "address"
        },
        {
          "internalType": "uint256",
          "name": "sharesToRemove",
          "type": "uint256"
        },
        {
          "internalType": "uint256",
          "name": "minAmountUnderlyingOutRaw",
          "type": "uint256"
        },
        {
          "internalType": "uint256",
          "name": "minAmountWrappedOutRaw",
          "type": "uint256"
        },
        {
          "internalType": "address",
          "name": "sharesOwner",
          "type": "address"
        }
      ],
      "name": "removeLiquidityFromBufferHook",
      "outputs": [
        {
          "internalType": "uint256",
          "name": "removedUnderlyingBalanceRaw",
          "type": "uint256"
        },
        {
          "internalType": "uint256",
          "name": "removedWrappedBalanceRaw",
          "type": "uint256"
        }
      ],
      "stateMutability": "nonpayable",
      "type": "function"
    },
    {
      "inputs": [
        {
          "internalType": "contract IAuthorizer",
          "name": "newAuthorizer",
          "type": "address"
        }
      ],
      "name": "setAuthorizer",
      "outputs": [],
      "stateMutability": "nonpayable",
      "type": "function"
    },
    {
      "inputs": [
        {
          "internalType": "contract IProtocolFeeController",
          "name": "newProtocolFeeController",
          "type": "address"
        }
      ],
      "name": "setProtocolFeeController",
      "outputs": [],
      "stateMutability": "nonpayable",
      "type": "function"
    },
    {
      "inputs": [
        {
          "internalType": "address",
          "name": "pool",
          "type": "address"
        },
        {
          "internalType": "uint256",
          "name": "swapFeePercentage",
          "type": "uint256"
        }
      ],
      "name": "setStaticSwapFeePercentage",
      "outputs": [],
      "stateMutability": "nonpayable",
      "type": "function"
    },
    {
      "inputs": [
        {
          "internalType": "address",
          "name": "pool",
          "type": "address"
        }
      ],
      "name": "unpausePool",
      "outputs": [],
      "stateMutability": "nonpayable",
      "type": "function"
    },
    {
      "inputs": [],
      "name": "unpauseVault",
      "outputs": [],
      "stateMutability": "nonpayable",
      "type": "function"
    },
    {
      "inputs": [],
      "name": "unpauseVaultBuffers",
      "outputs": [],
      "stateMutability": "nonpayable",
      "type": "function"
    },
    {
      "inputs": [
        {
          "internalType": "address",
          "name": "pool",
          "type": "address"
        },
        {
          "internalType": "uint256",
          "name": "newAggregateSwapFeePercentage",
          "type": "uint256"
        }
      ],
      "name": "updateAggregateSwapFeePercentage",
      "outputs": [],
      "stateMutability": "nonpayable",
      "type": "function"
    },
    {
      "inputs": [
        {
          "internalType": "address",
          "name": "pool",
          "type": "address"
        },
        {
          "internalType": "uint256",
          "name": "newAggregateYieldFeePercentage",
          "type": "uint256"
        }
      ],
      "name": "updateAggregateYieldFeePercentage",
      "outputs": [],
      "stateMutability": "nonpayable",
      "type": "function"
    },
    {
      "inputs": [],
      "name": "vault",
      "outputs": [
        {
          "internalType": "contract IVault",
          "name": "",
          "type": "address"
        }
      ],
      "stateMutability": "view",
      "type": "function"
    },
    {
      "stateMutability": "payable",
      "type": "receive"
    }
  ],
  "bytecode": "0x6102006040908082523461036b5760a08161430c8038038091610022828561039e565b83398101031261036b5780516001600160a01b03811680820361036b57602061004c8185016103c1565b6100578686016103c1565b91608060608701519601519561008c88516100718161036f565b600a8152691a5cd55b9b1bd8dad95960b21b848201526103d2565b60c0526100bf885161009d8161036f565b60118152701b9bdb96995c9bd1195b1d1850dbdd5b9d607a1b848201526103d2565b60e0526100ec88516100d08161036f565b600b81526a746f6b656e44656c74617360a81b848201526103d2565b9761010098895261012481516101018161036f565b6012815271185919131a5c5d5a591a5d1e50d85b1b195960721b858201526103d2565b9761012098895261015382516101398161036f565b60098152681cd95cdcda5bdb925960ba1b868201526103d2565b926101409384526101c09788526101e098895263ffffffff80961694630784ce00861161035c578688169562ed4e00871161034d5742019081421161032457878211610338575086166101608181526101a098895295019586116103245761018095865260805260a0525196613e7a98896104928a39608051896106d9015260a05189612d33015260c05189613624015260e051898181613be00152613c4001525188613b950152518750505186505051858181611c280152818161201101526120890152518481816112a8015281816120b0015261354b01525183818161044c01528181610de1015281816111b601528181612ce90152612ef40152518261330101525181818161028c015281816102df01528181610333015281816104c801528181610715015281816109d201528181610b2101528181610be401528181610c7f01528181610cdd01528181610ecd015281816112ec0152818161196001528181611bc001528181611d0801528181611d680152818161204b0152818161213f015281816121b70152818161257e0152818161263801528181612b3d01528181612b9401528181612d7c01528181612e1501528181612f2d01528181612ff80152818161305b01526131120152f35b634e487b7160e01b5f52601160045260245ffd5b6306dfcc6560e41b5f5260045260245260445ffd5b634f5277f760e11b5f5260045ffd5b63cc0e8fe560e01b5f5260045ffd5b5f80fd5b604081019081106001600160401b0382111761038a57604052565b634e487b7160e01b5f52604160045260245ffd5b601f909101601f19168101906001600160401b0382119082101761038a57604052565b519063ffffffff8216820361036b57565b604051906103df8261036f565b600c8252610460603a602084016b5661756c7453746f7261676560a01b81526020604051948592828401977f62616c616e6365722d6c6162732e76332e73746f726167652e000000000000008952518091603986015e830190601760f91b60398301528051928391018583015e015f8382015203601a81018452018261039e565b5190205f198101908111610324576040519060208201908152602082526104868261036f565b9051902060ff19169056fe6080604052600436101561009f575b361561007757346100775760646040517f08c379a000000000000000000000000000000000000000000000000000000000815260206004820152600f60248201527f4e6f7420696d706c656d656e74656400000000000000000000000000000000006044820152fd5b7ff2238896000000000000000000000000000000000000000000000000000000005f5260045ffd5b5f5f3560e01c80630387587d146130f2578063058a628f14613030578063098401f514612fe35780630b7562be14612f1857806320c1fb7a14612ed857806326a8a99114612ebc5780632d77138914612deb5780632e42f4d514612dd05780634021fe0f14612d5657806353956aa214612d1c57806355aca1ec14612b7657806355cba7fe14612b285780635dcacd64146126215780635e0b06f41461255b578063653eb3b01461219e578063821440f214612129578063851c1bb3146120d757806385c8c015146120355780638a8d123a14611ff45780638f4ab9ca14611d4a5780639385e39a14611cd05780639e0879c214611baa578063a1d4da15146119fd578063a8175b27146119e1578063b9212b491461194a578063bffb78b2146112cc578063cd51c12f1461128b578063d0965a6b1461126d578063d15126ba14610eab578063d2c725e014610e6c578063dc3f574e14610cb6578063de1a36a614610c69578063e085c5a814610bce578063e0d5560514610b0b578063e253670a146109af578063e2a92b1a146106fc578063e2cb0ba0146106c1578063ebc7955c146104ac578063f21c38cd14610314578063f2784e07146102b35763fbfa77cf1461026d575061000e565b346102b057806003193601126102b05760206040516001600160a01b037f0000000000000000000000000000000000000000000000000000000000000000168152f35b80fd5b50346102b05760206003193601126102b05760406020916001600160a01b036102da613155565b6103037f0000000000000000000000000000000000000000000000000000000000000000613405565b168152600d83522054604051908152f35b50346102b05760206003193601126102b05761032e613155565b6103577f0000000000000000000000000000000000000000000000000000000000000000613405565b610360816135d7565b6103846001600160a01b039182811692835f52600160205260405f20541690613b14565b805f525f60205260405f205460018160021c1663ffffffff80836103ae6103a9605a90565b6132bb565b1c1682610446575b50501561041a5760207f57e20448028297190122571be7cb6c1b1ef85730c673f7c72f533c8662419aa7917ffffffffffffffffffffffffffffffffffffffffffffffffffffffffffffffffb5f91858352828452166040822055604051908152a280f35b507ffdcd6894000000000000000000000000000000000000000000000000000000005f5260045260245ffd5b908092507f0000000000000000000000000000000000000000000000000000000000000000160181811161047f57164211155f806103b6565b7f4e487b71000000000000000000000000000000000000000000000000000000005f52601160045260245ffd5b50346102b05760806003193601126102b0576104c6613155565b7f0000000000000000000000000000000000000000000000000000000000000000906104f182613405565b6001600160a01b036040519260209282848601917f5dcacd640000000000000000000000000000000000000000000000000000000083521660248601526024356044860152604435606486015260643560848601523360a486015260a4855260e085019267ffffffffffffffff91868510838611176106945787938585809460448b601f19601f86988e886040527f48c8949100000000000000000000000000000000000000000000000000000000895260e4850152868451918261010487015282610124918288015e828601015201168101030193165af1948515610689578295610604575b5050505060408280518101031261060057604080935081830151920151908351928352820152f35b8280fd5b9091929394503d8084863e610619818661320a565b810193858260e08701960312610681575191821161060057018260ff820112156106855760e08101516101009161064f826133e9565b9461065d604051968761320a565b8286528383830101116106815785928291018386015e83010152905f8381806105d8565b8380fd5b5080fd5b6040513d84823e3d90fd5b7f4e487b71000000000000000000000000000000000000000000000000000000005f52604160045260245ffd5b50346102b057806003193601126102b05760206040517f00000000000000000000000000000000000000000000000000000000000000008152f35b50346102b05761070b3661316b565b61073995919294957f0000000000000000000000000000000000000000000000000000000000000000613405565b610741613622565b610749613762565b61075286613673565b61075a613582565b6001600160a01b0392838716916040517f38d52e0f0000000000000000000000000000000000000000000000000000000081526020958682600481885afa9182156109a4578692610975575b50848652600e875280604087205416911680910361094557838552600b8652604085205497600d87526040862054916fffffffffffffffffffffffffffffffff8a16916108036107f7858886613aad565b9b60801c948786613aad565b99808c116109115750808a116108dd5750936108ae9361087e60409c946108788c6108728f6108909861086d8e6108647f75c4dc5f23640eeba7d404d9165f515fc3d9e23a5c8b6e2d09b4b9da56ff00a99f61085e86613b30565b90613b85565b61085e86613b30565b6132c9565b926132c9565b90613700565b93878952600b8a52848d8a20556139a8565b8851918291888a846040919493926060820195825260208201520152565b0390a27f9b779b17422d0df92223018b32b4d1fa46e071723d6817e2486d003becc55f005d8351928352820152f35b876064918b897f8eda85e4000000000000000000000000000000000000000000000000000000008452600452602452604452fd5b886064918d857f8eda85e4000000000000000000000000000000000000000000000000000000008452600452602452604452fd5b84604491857f36b18d09000000000000000000000000000000000000000000000000000000008352600452602452fd5b610996919250873d891161099d575b61098e818361320a565b81019061329c565b905f6107a6565b503d610984565b6040513d88823e3d90fd5b50346102b05760406003193601126102b0576109c9613155565b602435906109f67f0000000000000000000000000000000000000000000000000000000000000000613405565b6109ff816135d7565b670de0b6b3a76400008211610ae3576001600160a01b039081600a54163303610abb571690818352826020526040832054670de0b5cad2bef0008211610a93577f606eb97d83164bd6b200d638cd49c14c65d94d4f2c674cfd85e24e0e202c3ca591610a7e602092610a6f604290565b9064174876e800840490613cb9565b8486528583526040862055604051908152a280f35b6004847f746e5940000000000000000000000000000000000000000000000000000000008152fd5b6004847f23dada53000000000000000000000000000000000000000000000000000000008152fd5b6004837f4c69ac5d000000000000000000000000000000000000000000000000000000008152fd5b50346102b057806003193601126102b057610b457f0000000000000000000000000000000000000000000000000000000000000000613405565b610b4d61343e565b60ff60095416610ba6577ffffffffffffffffffffffffffffffffffffffffffffffffffffffffffffffffe600754166007557f91d7478835f2b5adc315f5aad920f4a7f0a02f7fddf3042d17b2c80168ea17f58180a180f35b807f069f8cbc0000000000000000000000000000000000000000000000000000000060049252fd5b50346102b057806003193601126102b057610c087f0000000000000000000000000000000000000000000000000000000000000000613405565b610c1061343e565b60047ffffffffffffffffffffffffffffffffffffffffffffffffffffffffffffffffb60075416176007557f300c7ca619eb846386aa0a6e5916ac2a41406448b0a2e99ba9ccafeb899015a5602060405160018152a180f35b50346102b057806003193601126102b057610ca37f0000000000000000000000000000000000000000000000000000000000000000613405565b610cab61343e565b610cb3613a5c565b80f35b50346102b05760206003193601126102b0576001600160a01b03610cd8613155565b610d017f0000000000000000000000000000000000000000000000000000000000000000613405565b610d0a816135d7565b16808252816020526001604083205460031c16610e415780825281602052604082205460018160021c169063ffffffff8091610d476103a9605a90565b1c1682610ddb575b50501580610dcc575b610dbf575b805f525f60205260405f2060087ffffffffffffffffffffffffffffffffffffffffffffffffffffffffffffffff78254161790557fc2354cc2f78ea57777e55ddd43a7f22b112ce98868596880edaeb22b4f9c73a9602060405160018152a280f35b610dc761343e565b610d5d565b50610dd5613544565b15610d58565b908092507f00000000000000000000000000000000000000000000000000000000000000001601818111610e1457164211155f80610d4f565b6024847f4e487b710000000000000000000000000000000000000000000000000000000081526011600452fd5b7f346d7607000000000000000000000000000000000000000000000000000000008252600452602490fd5b50346102b057806003193601126102b05760207f9b779b17422d0df92223018b32b4d1fa46e071723d6817e2486d003becc55f005c6040519015158152f35b50346102b05760406003193601126102b057610ec5613155565b602435610ef17f0000000000000000000000000000000000000000000000000000000000000000613405565b610efa826135d7565b6001600160a01b0380831692838552602091600183526001604087200154169081155f1461123e57610f2c9150613cf7565b610f34613544565b61121657828452838152604084205460018160021c169063ffffffff8091610f5d6103a9605a90565b1c16826111b0575b5050611184576040517fce20ece70000000000000000000000000000000000000000000000000000000081528181600481875afa908115611124578591611157575b50821061112f576040517f654cf15d0000000000000000000000000000000000000000000000000000000081528181600481875afa9081156111245785916110f3575b5082116110cb57828452838152604084205491670de0b5cad2bef00081116110a35764174876e8008104928360181c61107b577ffffffffffffffffffffffffffffffffffffffffffffffffffffffc000003ffff7f89d41522342fabac1471ca6073a5623e5caf367b03ca6e9a001478d0cf8be4a19486885287855260121b9116176040862055604051908152a280f35b7fe4337c05000000000000000000000000000000000000000000000000000000005f5260045ffd5b6004857f746e5940000000000000000000000000000000000000000000000000000000008152fd5b6004847f7f47834b000000000000000000000000000000000000000000000000000000008152fd5b90508181813d831161111d575b61110a818361320a565b8101031261111957515f610fea565b5f80fd5b503d611100565b6040513d87823e3d90fd5b6004847fbfb20688000000000000000000000000000000000000000000000000000000008152fd5b90508181813d831161117d575b61116e818361320a565b8101031261111957515f610fa7565b503d611164565b602484847fd971f597000000000000000000000000000000000000000000000000000000008252600452fd5b908092507f000000000000000000000000000000000000000000000000000000000000000016018181116111e957164211155f80610f65565b6024867f4e487b710000000000000000000000000000000000000000000000000000000081526011600452fd5b6004847fda9f8b34000000000000000000000000000000000000000000000000000000008152fd5b503314610f2c576004847f23dada53000000000000000000000000000000000000000000000000000000008152fd5b50346102b057806003193601126102b0576020604051620f42408152f35b50346102b057806003193601126102b057602060405163ffffffff7f0000000000000000000000000000000000000000000000000000000000000000168152f35b50346102b05760206003193601126102b0576112e6613155565b906113107f0000000000000000000000000000000000000000000000000000000000000000613405565b611319826135d7565b61132161343e565b6001600160a01b0382168152806020526001604082205460031c161561191657611349613582565b6040519160e0830183811067ffffffffffffffff821117610694576040525f8352606060208401526060604084015260608084015260606080840152606060a0840152606060c08401526001600160a01b0381165f52600560205260405f205f60205260405f205490600460205260405f2090600360205260405f2080549387526040519060208286815201905f528160205f20915f5b8781106118f357506113f49250038261320a565b60208701526114028361322d565b61140f604051918261320a565b838152601f1961141e8561322d565b015f5b8181106118ca57505060408701526114388361333b565b60608701526114468361333b565b6080870152855164ffffffffff61145c8561333b565b91605a1c165f5b85811061188e57505060c087015261147a8361333b565b60a0870152855191600183811c16928361187a575b508261186a575b5f5b84811061158c578787876001600160a01b0381165f52600560205260405f20905f5b6060850151805182101561150057906114ee6114d88260019461336c565b516114e78360808a015161336c565b5190613700565b815f528460205260405f2055016114ba565b84835f7f9b779b17422d0df92223018b32b4d1fa46e071723d6817e2486d003becc55f005d6001600160a01b03165f8181526020818152604080832080547ffffffffffffffffffffffffffffffffffffffffffffffffffffffffffffffff7169055519182527fc2354cc2f78ea57777e55ddd43a7f22b112ce98868596880edaeb22b4f9c73a991a280f35b6001600160a01b036115a28260208b015161336c565b51165f528160205260405f2090604051916115bc836131ee565b5460ff908181166115cc81613d8e565b84526001600160a01b038160081c16602085015260a81c1615156040830152805f528360205260405f2054916116128260408c01518361160c838361336c565b5261336c565b50805161161e81613d8e565b61162781613d8e565b806117a35750670de0b6b3a76400005b6116458360a08d015161336c565b526116636fffffffffffffffffffffffffffffffff8416838c613de8565b85156117995760408101511515908161177b575b50611688575b600191505b01611498565b886116938151613dc5565b6116a183606084015161336c565b519360801c6116b58460805f95015161336c565b518181116116ec575b505050600192816116d1575b505061167d565b6116e5916116de9161328f565b828b613de8565b5f806116ca565b6116f7935003613245565b91670de0b6b3a7640000926001847fffffffffffffffffffffffffffffffffffffffffffffffffffffffffffffffff83010401901515026117568b61174f8560a06117468260c086015161336c565b5193015161336c565b5190613245565b818581020485148215171561047f576001946117729202613258565b90925f806116be565b600191505161178981613d8e565b61179281613d8e565b145f611677565b5060019150611682565b806117af600192613d8e565b0361184257600460206001600160a01b038184015116604051928380927f679aefce0000000000000000000000000000000000000000000000000000000082525afa908115611837575f91611805575b50611637565b90506020813d60201161182f575b816118206020938361320a565b8101031261111957515f6117ff565b3d9150611813565b6040513d5f823e3d90fd5b7fdf450632000000000000000000000000000000000000000000000000000000005f5260045ffd5b865160031c600116159250611496565b611885919350613dc5565b1515915f61148f565b60058102908082046005148115171561047f57604d601f84841c161161047f57601f836001931c16600a0a6118c3828661336c565b5201611463565b6020906040516118d9816131ee565b5f81525f838201525f604082015282828601015201611421565b91506001602081926001600160a01b0386541681520193019101918391926113e0565b6001600160a01b036024927fef029adf00000000000000000000000000000000000000000000000000000000835216600452fd5b50346102b057806003193601126102b0576119847f0000000000000000000000000000000000000000000000000000000000000000613405565b61198c61343e565b7ffffffffffffffffffffffffffffffffffffffffffffffffffffffffffffffffb600754166007557f300c7ca619eb846386aa0a6e5916ac2a41406448b0a2e99ba9ccafeb899015a560206040515f8152a180f35b50346102b057806003193601126102b057602060405160028152f35b50346102b0576020806003193601126106855760043567ffffffffffffffff8111610600573660238201121561060057806004013590611a3c8261322d565b91611a4a604051938461320a565b80835260248484019160051b83010191368311611ba657602401905b828210611b8757505050611a7861343e565b8280604051848101907f2e63879b00000000000000000000000000000000000000000000000000000000825230602482015260406044820152611ad081611ac260648201886133ad565b03601f19810183528261320a565b5190826101675af1611ae0613799565b9015611b7f57808380611af893518301019101613876565b60030b601681141580611b74575b611b495750611b437f39e0cf65a059beb19768d6edb4fda9c8fabfd42984cdf1e9b15071c42bd5a64d9160405191829185835230958301906133ad565b0390a280f35b7f17151aa5000000000000000000000000000000000000000000000000000000008452600452602483fd5b5060c2811415611b06565b506015611af8565b81356001600160a01b0381168103611119578152908401908401611a66565b8580fd5b50346102b057806003193601126102b057611be47f0000000000000000000000000000000000000000000000000000000000000000613405565b611bec61343e565b611bf4613544565b15611c21577fda9f8b34000000000000000000000000000000000000000000000000000000005f5260045ffd5b63ffffffff7f000000000000000000000000000000000000000000000000000000000000000016421015611ca85760027ffffffffffffffffffffffffffffffffffffffffffffffffffffffffffffffffd60075416176007557fe0629fe656e45ad7fd63a24b899da368690024c07043b88e57aee5095b1d3d02602060405160018152a180f35b7f0e4460b7000000000000000000000000000000000000000000000000000000005f5260045ffd5b50346102b05760406003193601126102b057611cea613155565b602435916001600160a01b0380841680940361111957604092611d2c7f0000000000000000000000000000000000000000000000000000000000000000613405565b168152600c60205220905f52602052602060405f2054604051908152f35b50346102b05760208060031936011261068557611d65613155565b907f0000000000000000000000000000000000000000000000000000000000000000611d9081613405565b611d98613622565b6001600160a01b039283600a54163303611fcc57938084602487611dbc83996135d7565b60405197889384927fca4f28030000000000000000000000000000000000000000000000000000000084521696876004840152165afa938415611fbf578194611f1b575b50835192611e16611e108561333b565b9461333b565b90825b8651811015611eed578088611e306001938a61336c565b511686865260069081855260408720815f5285526fffffffffffffffffffffffffffffffff60405f20548060801c611e68868a61336c565b5216611e74848b61336c565b52611e7f838a61336c565b5115801590611eda575b611e96575b505001611e19565b611ed391888852855260408720815f5285528660405f2055611ecd611ebb848b61336c565b51611ec6858961336c565b51906132c9565b906136c0565b5f80611e8e565b50611ee5838761336c565b511515611e89565b611f0a86611f1784866040519485946040865260408601906131a7565b91848303908501526131a7565b0390f35b9093503d8085833e611f2d818361320a565b8101908381830312611fbb5780519067ffffffffffffffff8211611ba657019080601f83011215611fbb578151611f638161322d565b92611f71604051948561320a565b818452858085019260051b820101928311611fb7578501905b828210611f9b57505050925f611e00565b81518881168103611fb3578152908501908501611f8a565b8780fd5b8680fd5b8480fd5b50604051903d90823e3d90fd5b6004857f23dada53000000000000000000000000000000000000000000000000000000008152fd5b50346102b057806003193601126102b057602060405163ffffffff7f0000000000000000000000000000000000000000000000000000000000000000168152f35b50346102b057806003193601126102b05761206f7f0000000000000000000000000000000000000000000000000000000000000000613405565b6060612079613544565b604051901515815263ffffffff807f00000000000000000000000000000000000000000000000000000000000000001660208301527f0000000000000000000000000000000000000000000000000000000000000000166040820152f35b50346102b05760206003193601126102b057600435907fffffffff00000000000000000000000000000000000000000000000000000000821682036102b0576020612121836132d6565b604051908152f35b50346102b057806003193601126102b0576121637f0000000000000000000000000000000000000000000000000000000000000000613405565b61216b61343e565b60017fffffffffffffffffffffffffffffffffffffffffffffffffffffffffffffff006009541617600955610cb3613a5c565b50346102b0576121ad3661316b565b94926121db9291927f0000000000000000000000000000000000000000000000000000000000000000613405565b6121e3613622565b6121eb613762565b6121f3613582565b6001600160a01b039586861693848652602097600e89528060408820541661252f57604051907f38d52e0f00000000000000000000000000000000000000000000000000000000825289826004818a5afa9182156124ba578892612510575b5081169081156124e457906122ba91878952600e8b5260408920827fffffffffffffffffffffffff000000000000000000000000000000000000000082541617905561229d816137d5565b6124d4575b506122ac876137d5565b6124c5575b61085e85613b30565b6122cc6122c685613b30565b86613b85565b6122d68484613700565b91858752600b89528260408820556040517f4cdad50600000000000000000000000000000000000000000000000000000000815285600482015289816024818a5afa80156124ba5785908990612489575b61233192506132c9565b9761233b89613971565b7fffffffffffffffffffffffffffffffffffffffffffffffffffffffffffffd8f0890198891161245c576123be91899189897fd66f031d33381c6408f0b32c884461e5de3df8808399b6f3a3d86b1368f8ec348e828452600d8152612710806040862055600c8252604085205f805282528060405f2055604051908152a36139a8565b80871061242c5750604080519283526020830193909352918101919091527f75c4dc5f23640eeba7d404d9165f515fc3d9e23a5c8b6e2d09b4b9da56ff00a990606090a27f9b779b17422d0df92223018b32b4d1fa46e071723d6817e2486d003becc55f005d604051908152f35b85604491887fda0cb07e000000000000000000000000000000000000000000000000000000008352600452602452fd5b6024887f4e487b710000000000000000000000000000000000000000000000000000000081526011600452fd5b50508981813d83116124b3575b6124a0818361320a565b8101031261111957846123319151612327565b503d612496565b6040513d8a823e3d90fd5b6124cf873061388f565b6122b1565b6124de903061388f565b5f6122a2565b602488887fd407f9c5000000000000000000000000000000000000000000000000000000008252600452fd5b6125289192508a3d8c1161099d5761098e818361320a565b905f612252565b602487877f1690fa40000000000000000000000000000000000000000000000000000000008252600452fd5b50346102b05760406003193601126102b057612575613155565b602435906125a27f0000000000000000000000000000000000000000000000000000000000000000613405565b6125ab816135d7565b670de0b6b3a76400008211610ae3576001600160a01b039081600a54163303610abb571690818352826020526040832054670de0b5cad2bef0008211610a935781610a7e60209264174876e8007fe4d371097beea42453a37406e2aef4c04f3c548f84ac50e72578662c0dcd7354950490613c77565b5034611119576126303661316b565b9490929193947f000000000000000000000000000000000000000000000000000000000000000061266081613405565b6001600160a01b0381163303612afc57612678613622565b61268187613673565b32158080612aef575b612a87575b506001600160a01b0387165f52600c60205260405f206001600160a01b0383165f5260205260405f20548411612a5f576001600160a01b0387165f52600b60205260405f205495600d60205260405f20549661271761270989612704896fffffffffffffffffffffffffffffffff8616613245565b613258565b98612704888460801c613245565b966001600160a01b038a165f52600e6020526001600160a01b0360405f20541692808a10612a2c57508088106129f057506127929061275689846136c0565b612769886001600160a01b038c166136c0565b610878886127898b6fffffffffffffffffffffffffffffffff851661328f565b9260801c61328f565b946001600160a01b0389165f52600b6020528560405f20556001600160a01b038416156129c8576001600160a01b0389165f52600d6020526127d88160405f205461328f565b6127e181613971565b6001600160a01b038a165f52600d60205260405f2055600c60205260405f206001600160a01b0385165f5260205260405f2061281e82825461328f565b90556040519081526001600160a01b038416907f4e09f7f7fc37ce2897800e2c2a9099565edb0a133d19d84a6871b3530af8846b60206001600160a01b038c1692a386612947575b50846128c2575b5050604080518581526020810185905280820193909352946001600160a01b0316917f44d97b36e99b590b3d2875aad3b167b1d7fb1e063f3f1325a1eeac76caee51139150606090a282519182526020820152f35b6001600160a01b0381163b15610600576001600160a01b03606488858381958160405198899788967fae6393290000000000000000000000000000000000000000000000000000000088521660048701521660248501528a6044850152165af1801561068957612933575b8061286d565b61293d82916131da565b6102b0578061292d565b6001600160a01b0382163b1561111957604051907fae63932900000000000000000000000000000000000000000000000000000000825260048201526001600160a01b03831660248201528660448201525f81606481836001600160a01b0387165af180156118375715612866576129c09193506131da565b5f915f612866565b7f586d06df000000000000000000000000000000000000000000000000000000005f5260045ffd5b876001600160a01b038b7f8eda85e4000000000000000000000000000000000000000000000000000000005f521660045260245260445260645ffd5b89847f8eda85e4000000000000000000000000000000000000000000000000000000005f5260045260245260445260645ffd5b7f98c5dbd6000000000000000000000000000000000000000000000000000000005f5260045ffd5b15612ac7576001600160a01b0387165f52600c60205260405f206001600160a01b0383165f5260205260405f20612abf8582546132c9565b90555f61268f565b7f67f84ab2000000000000000000000000000000000000000000000000000000005f5260045ffd5b506001600754161561268a565b7f089676d5000000000000000000000000000000000000000000000000000000005f523360045260245ffd5b34611119575f60031936011261111957612b617f0000000000000000000000000000000000000000000000000000000000000000613405565b6020600160075460021c166040519015158152f35b3461111957602060031936011261111957612b8f613155565b612bb87f0000000000000000000000000000000000000000000000000000000000000000613405565b612bc1816135d7565b612be56001600160a01b039182811692835f52600160205260405f20541690613b14565b805f525f60205260405f205460018160021c1663ffffffff908183612c0b6103a9605a90565b1c1681612ce4575b5015612c4557827fd971f597000000000000000000000000000000000000000000000000000000005f5260045260245ffd5b81612c50605a6132bb565b1c16421015612cb8577ffffffffffffffffffffffffffffffffffffffffffffffffffffffffffffffffb600491835f525f602052161760405f20557f57e20448028297190122571be7cb6c1b1ef85730c673f7c72f533c8662419aa7602060405160018152a2005b507feb5a1217000000000000000000000000000000000000000000000000000000005f5260045260245ffd5b9050817f0000000000000000000000000000000000000000000000000000000000000000160181811161047f57811642111584612c13565b34611119575f6003193601126111195760206040517f00000000000000000000000000000000000000000000000000000000000000008152f35b34611119576020600319360112611119576001600160a01b03612d77613155565b612da07f0000000000000000000000000000000000000000000000000000000000000000613405565b165f52600b6020526040805f20548151906fffffffffffffffffffffffffffffffff8116825260801c6020820152f35b34611119575f60031936011261111957602060405160088152f35b34611119576020600319360112611119576004356001600160a01b03811680910361111957612e397f0000000000000000000000000000000000000000000000000000000000000000613405565b612e4161343e565b612e49613582565b807fffffffffffffffffffffffff0000000000000000000000000000000000000000600a541617600a557f280a60b1e63c1774d397d35cce80eb80e51408ead755fb446e6f744ce98e5df05f80a25f7f9b779b17422d0df92223018b32b4d1fa46e071723d6817e2486d003becc55f005d005b34611119575f6003193601126111195760206040516127108152f35b34611119575f60031936011261111957602060405163ffffffff7f0000000000000000000000000000000000000000000000000000000000000000168152f35b34611119575f60031936011261111957612f517f0000000000000000000000000000000000000000000000000000000000000000613405565b612f5961343e565b612f61613544565b15612fbb577fe0629fe656e45ad7fd63a24b899da368690024c07043b88e57aee5095b1d3d0260205f7ffffffffffffffffffffffffffffffffffffffffffffffffffffffffffffffffd60075416600755604051908152a1005b7ff7ff4dca000000000000000000000000000000000000000000000000000000005f5260045ffd5b34611119575f6003193601126111195761301c7f0000000000000000000000000000000000000000000000000000000000000000613405565b6020613026613544565b6040519015158152f35b34611119576020600319360112611119576004356001600160a01b038116908181036111195761307f7f0000000000000000000000000000000000000000000000000000000000000000613405565b61308761343e565b7fffffffffffffffffffffff0000000000000000000000000000000000000000ff74ffffffffffffffffffffffffffffffffffffffff006009549260081b169116176009557f94b979b6831a51293e2641426f97747feed46f17779fed9cd18d1ecefcfe92ef5f80a2005b3461111957602060031936011261111957602061310d613155565b6131367f0000000000000000000000000000000000000000000000000000000000000000613405565b6001600160a01b038091165f52600e825260405f205416604051908152f35b600435906001600160a01b038216820361111957565b60031960a0910112611119576001600160a01b036004358181168103611119579160243591604435916064359160843590811681036111195790565b9081518082526020808093019301915f5b8281106131c6575050505090565b8351855293810193928101926001016131b8565b67ffffffffffffffff811161069457604052565b6060810190811067ffffffffffffffff82111761069457604052565b90601f601f19910116810190811067ffffffffffffffff82111761069457604052565b67ffffffffffffffff81116106945760051b60200190565b8181029291811591840414171561047f57565b8115613262570490565b7f4e487b71000000000000000000000000000000000000000000000000000000005f52601260045260245ffd5b9190820391821161047f57565b9081602091031261111957516001600160a01b03811681036111195790565b906028820180921161047f57565b9190820180921161047f57565b6040517fffffffff0000000000000000000000000000000000000000000000000000000060208201927f0000000000000000000000000000000000000000000000000000000000000000845216604082015260248152613335816131ee565b51902090565b906133458261322d565b613352604051918261320a565b828152601f19613362829461322d565b0190602036910137565b80518210156133805760209160051b010190565b7f4e487b71000000000000000000000000000000000000000000000000000000005f52603260045260245ffd5b9081518082526020808093019301915f5b8281106133cc575050505090565b83516001600160a01b0316855293810193928101926001016133be565b67ffffffffffffffff811161069457601f01601f191660200190565b6001600160a01b0316300361341657565b7f9fd25b36000000000000000000000000000000000000000000000000000000005f5260045ffd5b6134c8602061346f7fffffffff000000000000000000000000000000000000000000000000000000005f35166132d6565b6009546040517f9be2a88400000000000000000000000000000000000000000000000000000000815260048101929092523360248301523060448301529092839160081c6001600160a01b031690829081906064820190565b03915afa908115611837575f9161350a575b50156134e257565b7f23dada53000000000000000000000000000000000000000000000000000000005f5260045ffd5b90506020813d60201161353c575b816135256020938361320a565b8101031261111957613536906137c8565b5f6134da565b3d9150613518565b63ffffffff7f000000000000000000000000000000000000000000000000000000000000000016421115806135765790565b506001600754811c1690565b7f9b779b17422d0df92223018b32b4d1fa46e071723d6817e2486d003becc55f00805c6135af576001905d565b7f3ee5aeb5000000000000000000000000000000000000000000000000000000005f5260045ffd5b6001600160a01b0316805f525f602052600160405f205416156135f75750565b7f9e51bd5c000000000000000000000000000000000000000000000000000000005f5260045260245ffd5b7f00000000000000000000000000000000000000000000000000000000000000005c1561364b57565b7fc09ba736000000000000000000000000000000000000000000000000000000005f5260045ffd5b6001600160a01b0380911690815f52600e60205260405f205416156136955750565b7f85f41299000000000000000000000000000000000000000000000000000000005f5260045260245ffd5b906136ca90613b30565b907f8000000000000000000000000000000000000000000000000000000000000000821461047f576136fe915f0390613b85565b565b6fffffffffffffffffffffffffffffffff808211908115613758575b506137305761372d9160801b6132c9565b90565b7f89560ca1000000000000000000000000000000000000000000000000000000005f5260045ffd5b905082115f61371c565b600160075460021c1661377157565b7f0f27df09000000000000000000000000000000000000000000000000000000005f5260045ffd5b3d156137c3573d906137aa826133e9565b916137b8604051938461320a565b82523d5f602084013e565b606090565b5190811515820361111957565b5f80916040516001600160a01b0360208201927f19f373610000000000000000000000000000000000000000000000000000000084521660248201526024815261381e816131ee565b5190826101675af161382e613799565b901561387157604081805181010312611119576020810151908160070b809203611119576138606040601692016137c8565b9114908161386c575090565b905090565b505f90565b9081602091031261111957518060030b81036111195790565b906040519160208301917f49146bde0000000000000000000000000000000000000000000000000000000083526001600160a01b03809216602485015216604483015260448252608082019082821067ffffffffffffffff831117610694575f9283926040525190826101675af1613905613799565b9015613969578060208061391e93518301019101613876565b60030b60168114158061395e575b6139335750565b7f17151aa5000000000000000000000000000000000000000000000000000000005f5260045260245ffd5b5060c281141561392c565b50601561391e565b612710811061397d5750565b7f34bdbfaa000000000000000000000000000000000000000000000000000000005f5260045260245ffd5b91906001600160a01b03809116928315613a34577fd66f031d33381c6408f0b32c884461e5de3df8808399b6f3a3d86b1368f8ec34916020911692835f52600d82526139f88160405f20546132c9565b613a0181613971565b845f52600d835260405f2055600c825260405f20855f52825260405f20613a298282546132c9565b9055604051908152a3565b7fdbe6b10e000000000000000000000000000000000000000000000000000000005f5260045ffd5b60017ffffffffffffffffffffffffffffffffffffffffffffffffffffffffffffffffe60075416176007557fbd204090fd387f08e3076528bf09b4fc99d8100d749eace96c06002d3fedc6255f80a1565b8215613aec57600191613abf91613245565b917fffffffffffffffffffffffffffffffffffffffffffffffffffffffffffffffff830104019015150290565b7f0a0c22c7000000000000000000000000000000000000000000000000000000005f5260045ffd5b906001600160a01b03163314613b2d576136fe90613cf7565b50565b7f7fffffffffffffffffffffffffffffffffffffffffffffffffffffffffffffff8111613b5a5790565b7f24775e06000000000000000000000000000000000000000000000000000000005f5260045260245ffd5b8115613c73576001600160a01b037f00000000000000000000000000000000000000000000000000000000000000009116805f528160205260405f205c8381019384125f821290801582169115161761047f5783613c3a57507f0000000000000000000000000000000000000000000000000000000000000000805c907fffffffffffffffffffffffffffffffffffffffffffffffffffffffffffffffff820191821161047f575d5b5f5260205260405f205d565b613c2e577f0000000000000000000000000000000000000000000000000000000000000000805c906001820180921161047f575d613c2e565b5050565b908060181c61107b57602a1b9062ffffff602a1b19161790565b7fb4120f14000000000000000000000000000000000000000000000000000000005f5260045ffd5b9061010080841015613c915783810390811161047f578060ff108160ff180218601811613c91578060181c61107b5762ffffff90831b921b19161790565b60206134c891613d297fffffffff000000000000000000000000000000000000000000000000000000005f35166132d6565b6001600160a01b0360095460081c16906040518095819482937f9be2a884000000000000000000000000000000000000000000000000000000008452339060048501916040919493606084019584526001600160a01b03809216602085015216910152565b60021115613d9857565b7f4e487b71000000000000000000000000000000000000000000000000000000005f52602160045260245ffd5b62ffffff9060421c1664174876e8009081810291818304149015171561047f5790565b91906080670de0b6b3a7640000613e38613e419480613e0b8660608a015161336c565b52613e33613e1d8660c08a015161336c565b51613e2c8760a08b015161336c565b5192613245565b613245565b0493015161336c565b5256fea264697066735822122095d2f7a800a126cdc618a2406766db3893c6b500f3df94990a153a6c3cf8398464736f6c634300081b0033",
  "linkReferences": {},
  "deployedLinkReferences": {}
}