{
  "_format": "hh-sol-artifact-1",
  "contractName": "WrappedBalancerPoolTokenFactory",
  "sourceName": "contracts/WrappedBalancerPoolTokenFactory.sol",
  "abi": [
    {
      "inputs": [
        {
          "internalType": "contract IVault",
          "name": "vault",
          "type": "address"
        }
      ],
      "stateMutability": "nonpayable",
      "type": "constructor"
    },
    {
      "inputs": [],
      "name": "BalancerPoolTokenNotRegistered",
      "type": "error"
    },
    {
      "inputs": [
        {
          "internalType": "address",
          "name": "wrappedToken",
          "type": "address"
        }
      ],
      "name": "WrappedBPTAlreadyExists",
      "type": "error"
    },
    {
      "anonymous": false,
      "inputs": [
        {
          "indexed": true,
          "internalType": "address",
          "name": "balancerPoolToken",
          "type": "address"
        },
        {
          "indexed": true,
          "internalType": "address",
          "name": "wrappedToken",
          "type": "address"
        }
      ],
      "name": "WrappedTokenCreated",
      "type": "event"
    },
    {
      "inputs": [
        {
          "internalType": "address",
          "name": "balancerPoolToken",
          "type": "address"
        }
      ],
      "name": "createWrappedToken",
      "outputs": [
        {
          "internalType": "address",
          "name": "",
          "type": "address"
        }
      ],
      "stateMutability": "nonpayable",
      "type": "function"
    },
    {
      "inputs": [],
      "name": "getVault",
      "outputs": [
        {
          "internalType": "contract IVault",
          "name": "",
          "type": "address"
        }
      ],
      "stateMutability": "view",
      "type": "function"
    },
    {
      "inputs": [
        {
          "internalType": "address",
          "name": "balancerPoolToken",
          "type": "address"
        }
      ],
      "name": "getWrappedToken",
      "outputs": [
        {
          "internalType": "address",
          "name": "",
          "type": "address"
        }
      ],
      "stateMutability": "view",
      "type": "function"
    }
  ],
  "bytecode": "0x60a034606c57601f61251f38819003918201601f19168301916001600160401b03831184841017607057808492602094604052833981010312606c57516001600160a01b0381168103606c5760805260405161249a9081610085823960805181818160f301526101830152f35b5f80fd5b634e487b7160e01b5f52604160045260245ffdfe608060409080825260049081361015610016575f80fd5b5f3560e01c9081634f9215c414610117575080638d928af8146100a95763a7dc2d7814610041575f80fd5b346100a55760207ffffffffffffffffffffffffffffffffffffffffffffffffffffffffffffffffc3601126100a557359073ffffffffffffffffffffffffffffffffffffffff8083168093036100a5576020925f525f8352815f2054169051908152f35b5f80fd5b82346100a5575f7ffffffffffffffffffffffffffffffffffffffffffffffffffffffffffffffffc3601126100a5576020905173ffffffffffffffffffffffffffffffffffffffff7f0000000000000000000000000000000000000000000000000000000000000000168152f35b905082346100a557602092837ffffffffffffffffffffffffffffffffffffffffffffffffffffffffffffffffc3601126100a55780359273ffffffffffffffffffffffffffffffffffffffff918285168095036100a557845f525f865282845f2054168061049f5750827f000000000000000000000000000000000000000000000000000000000000000016917fc673bdaf00000000000000000000000000000000000000000000000000000000815285828201528681602481865afa908115610439575f91610469575b50156104435783517f06fdde030000000000000000000000000000000000000000000000000000000081525f818381895afa9081156104395760288892610274925f9161041f575b5087519384917f5772617070656420000000000000000000000000000000000000000000000000828401528051918291018484015e81015f838201520360088101845201826104c9565b84517f95d89b410000000000000000000000000000000000000000000000000000000081525f8184818a5afa908115610415576021899392610301925f916103f3575b5088519485917f7700000000000000000000000000000000000000000000000000000000000000828401528051918291018484015e81015f838201520360018101855201836104c9565b855193611e648086019486861067ffffffffffffffff8711176103c7575085949261035594926103479261060188398452898b85015260808985015260808401906105bd565b9160608184039101526105bd565b03905ff080156103bd57168091835f525f8552805f20827fffffffffffffffffffffffff000000000000000000000000000000000000000082541617905551927f47cdbd9ccb21e8c42b64c67901cd6369386d9c327365e6af6d4e479add31095e5f80a38152f35b82513d5f823e3d90fd5b6041907f4e487b71000000000000000000000000000000000000000000000000000000005f525260245ffd5b61040f91503d805f833e61040781836104c9565b810190610537565b8b6102b7565b86513d5f823e3d90fd5b61043391503d805f833e61040781836104c9565b8a61022a565b85513d5f823e3d90fd5b7f916f5d0e000000000000000000000000000000000000000000000000000000005f525ffd5b90508681813d8311610498575b61048081836104c9565b810103126100a5575180151581036100a557876101e2565b503d610476565b907f957f7dce000000000000000000000000000000000000000000000000000000005f525260245ffd5b90601f7fffffffffffffffffffffffffffffffffffffffffffffffffffffffffffffffe0910116810190811067ffffffffffffffff82111761050a57604052565b7f4e487b71000000000000000000000000000000000000000000000000000000005f52604160045260245ffd5b602080828403126100a557815167ffffffffffffffff928382116100a557019183601f840112156100a557825190811161050a57604051936105a0837fffffffffffffffffffffffffffffffffffffffffffffffffffffffffffffffe0601f85011601866104c9565b8185528282850101116100a55780825f94018386015e8301015290565b907fffffffffffffffffffffffffffffffffffffffffffffffffffffffffffffffe0601f602080948051918291828752018686015e5f858286010152011601019056fe6101a06040908082523461043557611e64803803809161001f8285610439565b83398101608082820312610435578151906001600160a01b039081831683036104355760209485850151928316830361043557848101516001600160401b039590868111610435578361007391830161045c565b9260608201518781116104355761008a920161045c565b958151908282018281108882111761035557835260019283835281830193603160f81b855285518981116103555760038054918383811c9316801561042b575b8684101461041757601f928381116103d4575b508086848211600114610374575f91610369575b505f1982841b1c191690841b1781555b8b51918b83116103555760049c8d548581811c9116801561034b575b88821014610338578e8382116102f5575b50508d8792851160011461029357509383949184925f95610288575b50501b925f19911b1c19161789555b610162856104b1565b9361012094855261017284610636565b95610140968752838151910120938460e0525190209861010099808b524660a0528251938401947f8b73c3c69bb8fe3d512ecc4cf759cc79239f7b179b0ffacaa9a75d522b39400f86528385015260608401524660808401523060a084015260a0835260c0830198838a10908a111761027557508790525190206080523060c0526101809384526101609283526116f195866107738739608051866110cd015260a05186611199015260c0518661109e015260e0518661111c015251856111420152518461074d0152518361077701525182818161041e01528181610a340152611271015251818181610111015281816103e70152818161092b0152610aab0152f35b604190634e487b7160e01b5f525260245ffd5b015193505f8061014a565b929190601f198516935f5284885f20945f5b8a898383106102de57505050106102c5575b50505050811b018955610159565b01519060f8845f19921b161c191690555f8080806102b7565b8686015189559097019694850194889350016102a5565b5f52875f208380870160051c8201928a881061032f575b0160051c019086905b8281106103245750508e61012e565b5f8155018690610315565b9250819261030c565b60228f634e487b7160e01b5f525260245ffd5b90607f169061011d565b634e487b7160e01b5f52604160045260245ffd5b90508901515f6100f1565b5f8481528881208794509190601f198416908a8e5b8383106103bd5750505083116103a6575b5050811b018155610101565b8b01515f1983861b60f8161c191690555f8061039a565b840151855589969094019392830192018a8e610389565b825f52865f208480840160051c82019289851061040e575b0160051c019085905b8281106104035750506100dd565b5f81550185906103f5565b925081926103ec565b634e487b7160e01b5f52602260045260245ffd5b92607f16926100ca565b5f80fd5b601f909101601f19168101906001600160401b0382119082101761035557604052565b81601f82011215610435578051906001600160401b0382116103555760405192610490601f8401601f191660200185610439565b8284526020838301011161043557815f9260208093018386015e8301015290565b80516020919082811015610529575090601f8251116104eb57808251920151908083106104dd57501790565b825f19910360031b1b161790565b60448260405192839163305a27a960e01b83528160048401528051918291826024860152018484015e5f828201840152601f01601f19168101030190fd5b6001600160401b038111610355576005928354926001938481811c9116801561062c575b8382101461041757601f81116105fb575b5081601f841160011461059957509282939183925f9461058e575b50501b915f199060031b1c191617905560ff90565b015192505f80610579565b919083601f198116875f52845f20945f905b888383106105e157505050106105c9575b505050811b01905560ff90565b01515f1960f88460031b161c191690555f80806105bc565b8587015188559096019594850194879350908101906105ab565b855f5284601f845f209201871c820191601f8601881c015b82811061062157505061055e565b5f8155018590610613565b90607f169061054d565b8051602090818110156106605750601f8251116104eb57808251920151908083106104dd57501790565b906001600160401b03821161035557600654926001938481811c91168015610768575b8382101461041757601f8111610734575b5081601f84116001146106d057509282939183925f946106c5575b50501b915f199060031b1c19161760065560ff90565b015192505f806106af565b919083601f19811660065f52845f20945f905b8883831061071a5750505010610702575b505050811b0160065560ff90565b01515f1960f88460031b161c191690555f80806106f4565b8587015188559096019594850194879350908101906106e3565b60065f5284601f845f20920160051c820191601f860160051c015b82811061075d575050610694565b5f815501859061074f565b90607f169061068356fe6080604090808252600480361015610015575f80fd5b5f3560e01c91826306fdde0314610bf257508163095ea7b314610bc957816318160ddd14610bab57816323b872dd14610b6f578163313ce56714610b545781633644e51514610b3157816342966c6814610a585781636813986c14610a0857816370a08231146109c557816379cc6790146108cd5781637ecebe001461088957816384b0196e1461073657816395d89b411461062c578163a0712d681461038f578163a9059cbb1461035f578163d505accf1461019057508063dd62ed3e146101395763fbfa77cf146100e6575f80fd5b34610135575f600319360112610135576020905173ffffffffffffffffffffffffffffffffffffffff7f0000000000000000000000000000000000000000000000000000000000000000168152f35b5f80fd5b5034610135578060031936011261013557602090610155610d22565b61015d610d45565b9073ffffffffffffffffffffffffffffffffffffffff8091165f5260018452825f2091165f528252805f20549051908152f35b9050346101355760e0600319360112610135576101ab610d22565b6101b3610d45565b90604435926064359460843560ff81168103610135578642116103345773ffffffffffffffffffffffffffffffffffffffff9182851697885f526007602052815f209081549160018301905582519060208201927f6e71edae12b1b97f4d1f60370fef10105fa2faae0126114a169c64845d6126c984528b85840152868a1660608401528a608084015260a083015260c082015260c0815260e0810181811067ffffffffffffffff8211176103085783525190206102c2926102b9929091610279611087565b9151917f190100000000000000000000000000000000000000000000000000000000000083526002830152602282015260c43591604260a4359220611554565b909291926115e3565b16908582036102d95750506102d793506112f7565b005b8592507f4b800e46000000000000000000000000000000000000000000000000000000005f525260245260445ffd5b6041877f4e487b71000000000000000000000000000000000000000000000000000000005f525260245ffd5b86837f62791302000000000000000000000000000000000000000000000000000000005f525260245ffd5b823461013557806003193601126101355760209061038861037e610d22565b6024359033610f7b565b5160018152f35b823461013557602090816003193601126101355782359273ffffffffffffffffffffffffffffffffffffffff82517f8380edb700000000000000000000000000000000000000000000000000000000815284818481857f0000000000000000000000000000000000000000000000000000000000000000165afa908115610622575f916105f5575b506105ce577f00000000000000000000000000000000000000000000000000000000000000008351858101907f23b872dd0000000000000000000000000000000000000000000000000000000082523360248201523060448201528760648201526064815260a0810181811067ffffffffffffffff8211176105a25786525186915f919082855af115610598575f513d61058f57508181163b155b6105645750503315610539576002549084820180921161050d5750917fddf252ad1be2c89b69c2b068fc378daa952ba7f163c4a11628f55a4df523b3ef915f93600255338452838252808420858154019055519384523393a3005b6011907f4e487b71000000000000000000000000000000000000000000000000000000005f525260245ffd5b5f907fec442f050000000000000000000000000000000000000000000000000000000082525260245ffd5b7f5274afe7000000000000000000000000000000000000000000000000000000005f5216905260245ffd5b600114156104b2565b83513d5f823e3d90fd5b6041867f4e487b71000000000000000000000000000000000000000000000000000000005f525260245ffd5b507fbe18e309000000000000000000000000000000000000000000000000000000005f525ffd5b6106159150853d871161061b575b61060d8183610e02565b810190610e43565b86610417565b503d610603565b84513d5f823e3d90fd5b905034610135575f60031936011261013557815191825f835461064e81610d68565b90818452602095600191876001821691825f146106f1575050600114610695575b5050506106919291610682910385610e02565b51928284938452830190610cdf565b0390f35b5f90815286935091907f8a35acfbc15ff81a39ae7d344fd709f28e8600b4aa8c65c6b64bfe7fe36bd19b5b8284106106d9575050508201018161068261069161066f565b8054848a0186015288955087949093019281016106c0565b7fffffffffffffffffffffffffffffffffffffffffffffffffffffffffffffff00168782015293151560051b860190930193508492506106829150610691905061066f565b905034610135575f600319360112610135576107717f0000000000000000000000000000000000000000000000000000000000000000611361565b9161079b7f0000000000000000000000000000000000000000000000000000000000000000611497565b815191602091602084019484861067ffffffffffffffff87111761085d5750610812826020928761080599989795525f855281519889987f0f000000000000000000000000000000000000000000000000000000000000008a5260e0868b015260e08a0190610cdf565b9188830390890152610cdf565b914660608701523060808701525f60a087015285830360c087015251918281520192915f5b82811061084657505050500390f35b835185528695509381019392810192600101610837565b6041907f4e487b71000000000000000000000000000000000000000000000000000000005f525260245ffd5b82346101355760206003193601126101355760209073ffffffffffffffffffffffffffffffffffffffff6108bb610d22565b165f5260078252805f20549051908152f35b82346101355780600319360112610135576108e6610d22565b6024359180517f8380edb7000000000000000000000000000000000000000000000000000000008152602081868173ffffffffffffffffffffffffffffffffffffffff7f0000000000000000000000000000000000000000000000000000000000000000165afa9182156109bc57505f9161099d575b50610976576102d79250610971823383610e5b565b6111bf565b827fbe18e309000000000000000000000000000000000000000000000000000000005f525ffd5b6109b6915060203d60201161061b5761060d8183610e02565b8461095c565b513d5f823e3d90fd5b82346101355760206003193601126101355760209073ffffffffffffffffffffffffffffffffffffffff6109f7610d22565b165f525f8252805f20549051908152f35b8234610135575f600319360112610135576020905173ffffffffffffffffffffffffffffffffffffffff7f0000000000000000000000000000000000000000000000000000000000000000168152f35b82346101355760206003193601126101355780517f8380edb7000000000000000000000000000000000000000000000000000000008152602081848173ffffffffffffffffffffffffffffffffffffffff7f0000000000000000000000000000000000000000000000000000000000000000165afa9182156109bc57505f91610b12575b50610aec576102d79035336111bf565b7fbe18e309000000000000000000000000000000000000000000000000000000005f525ffd5b610b2b915060203d60201161061b5761060d8183610e02565b82610adc565b8234610135575f60031936011261013557602090610b4d611087565b9051908152f35b8234610135575f600319360112610135576020905160128152f35b823461013557606060031936011261013557602090610388610b8f610d22565b610b97610d45565b60443591610ba6833383610e5b565b610f7b565b8234610135575f600319360112610135576020906002549051908152f35b8234610135578060031936011261013557602090610388610be8610d22565b60243590336112f7565b8334610135575f6003193601126101355760035490825f610c1284610d68565b808352602094600190866001821691825f14610c9f575050600114610c44575b50506106919291610682910385610e02565b9085925060035f527fc2575a0e9e593c00f959f8c92f12db2869c3395a3b0502d05e2516446f71f85b915f925b828410610c875750505082010181610682610c32565b8054848a018601528895508794909301928101610c71565b7fffffffffffffffffffffffffffffffffffffffffffffffffffffffffffffff00168682015292151560051b850190920192508391506106829050610c32565b907fffffffffffffffffffffffffffffffffffffffffffffffffffffffffffffffe0601f602080948051918291828752018686015e5f8582860101520116010190565b6004359073ffffffffffffffffffffffffffffffffffffffff8216820361013557565b6024359073ffffffffffffffffffffffffffffffffffffffff8216820361013557565b90600182811c92168015610daf575b6020831014610d8257565b7f4e487b71000000000000000000000000000000000000000000000000000000005f52602260045260245ffd5b91607f1691610d77565b6040810190811067ffffffffffffffff821117610dd557604052565b7f4e487b71000000000000000000000000000000000000000000000000000000005f52604160045260245ffd5b90601f7fffffffffffffffffffffffffffffffffffffffffffffffffffffffffffffffe0910116810190811067ffffffffffffffff821117610dd557604052565b90816020910312610135575180151581036101355790565b9073ffffffffffffffffffffffffffffffffffffffff80921691825f52600160205260405f20911690815f5260205260405f2054917fffffffffffffffffffffffffffffffffffffffffffffffffffffffffffffffff8310610ebe575b50505050565b838310610f49578015610f1d578115610ef1575f52600160205260405f20905f526020520360405f20555f808080610eb8565b7f94280d62000000000000000000000000000000000000000000000000000000005f525f60045260245ffd5b7fe602df05000000000000000000000000000000000000000000000000000000005f525f60045260245ffd5b507ffb8f41b2000000000000000000000000000000000000000000000000000000005f5260045260245260445260645ffd5b73ffffffffffffffffffffffffffffffffffffffff80911691821561105b571691821561102f57815f525f60205260405f2054818110610ffd57817fddf252ad1be2c89b69c2b068fc378daa952ba7f163c4a11628f55a4df523b3ef92602092855f525f84520360405f2055845f5260405f20818154019055604051908152a3565b827fe450d38c000000000000000000000000000000000000000000000000000000005f5260045260245260445260645ffd5b7fec442f05000000000000000000000000000000000000000000000000000000005f525f60045260245ffd5b7f96c6fd1e000000000000000000000000000000000000000000000000000000005f525f60045260245ffd5b73ffffffffffffffffffffffffffffffffffffffff7f000000000000000000000000000000000000000000000000000000000000000016301480611196575b156110ef577f000000000000000000000000000000000000000000000000000000000000000090565b60405160208101907f8b73c3c69bb8fe3d512ecc4cf759cc79239f7b179b0ffacaa9a75d522b39400f82527f000000000000000000000000000000000000000000000000000000000000000060408201527f000000000000000000000000000000000000000000000000000000000000000060608201524660808201523060a082015260a0815260c0810181811067ffffffffffffffff821117610dd55760405251902090565b507f000000000000000000000000000000000000000000000000000000000000000046146110c6565b73ffffffffffffffffffffffffffffffffffffffff80911691821561105b57825f526020925f845260405f20548281106112c55781836044928795945f525f86520360405f205582600254036002555f817fddf252ad1be2c89b69c2b068fc378daa952ba7f163c4a11628f55a4df523b3ef86604051878152a35f60405195869485937fa9059cbb000000000000000000000000000000000000000000000000000000008552600485015260248401527f0000000000000000000000000000000000000000000000000000000000000000165af180156112ba576112a1575050565b816112b792903d1061061b5761060d8183610e02565b50565b6040513d5f823e3d90fd5b907fe450d38c000000000000000000000000000000000000000000000000000000005f5260045260245260445260645ffd5b73ffffffffffffffffffffffffffffffffffffffff809116918215610f1d5716918215610ef15760207f8c5be1e5ebec7d5bd14f71427d1e84f3dd0314c0f7b2291e5b200ac8c7c3b92591835f526001825260405f20855f5282528060405f2055604051908152a3565b60ff81146113b55760ff811690601f821161138d576040519161138383610db9565b8252602082015290565b7fb3512b0c000000000000000000000000000000000000000000000000000000005f5260045ffd5b50604051600554815f6113c783610d68565b8083529260209060019081811690811561145457506001146113f5575b50506113f292500382610e02565b90565b91509260055f527f036b6384b5eca791c62761152d0c79bb0604c104a5fb6f4eb0703f3154bb3db0935f925b82841061143c57506113f29450505081016020015f806113e4565b85548785018301529485019486945092810192611421565b9050602093506113f29592507fffffffffffffffffffffffffffffffffffffffffffffffffffffffffffffff0091501682840152151560051b8201015f806113e4565b60ff81146114b95760ff811690601f821161138d576040519161138383610db9565b50604051600654815f6114cb83610d68565b8083529260209060019081811690811561145457506001146114f55750506113f292500382610e02565b91509260065f527ff652222313e28459528d920b65115c16c04f3efc82aaedc97be59f3f377c0d3f935f925b82841061153c57506113f29450505081016020015f806113e4565b85548785018301529485019486945092810192611521565b91907f7fffffffffffffffffffffffffffffff5d576e7357a4501ddfe92f46681b20a084116115d8579160209360809260ff5f9560405194855216868401526040830152606082015282805260015afa156112ba575f5173ffffffffffffffffffffffffffffffffffffffff8116156115ce57905f905f90565b505f906001905f90565b5050505f9160039190565b600481101561168e57806115f5575050565b60018103611625577ff645eedf000000000000000000000000000000000000000000000000000000005f5260045ffd5b6002810361165957507ffce698f7000000000000000000000000000000000000000000000000000000005f5260045260245ffd5b6003146116635750565b7fd78bce0c000000000000000000000000000000000000000000000000000000005f5260045260245ffd5b7f4e487b71000000000000000000000000000000000000000000000000000000005f52602160045260245ffdfea2646970667358221220295b784eb02b6ffd369fbcc3123db341a821eb30cc5e9039de4a7d68287f1b1064736f6c634300081b0033a26469706673582212208853b2b3aba3275c8b07e0f5f8eeff2a9cbb46223bc2eb60098ccc298aa80e5564736f6c634300081b0033",
  "linkReferences": {},
  "deployedLinkReferences": {}
}